{
  "_format": "hh-sol-artifact-1",
  "contractName": "RhapsodyCreatorBasic",
  "sourceName": "contracts/RhapsodyCreatorBasic.sol",
  "abi": [
    {
      "inputs": [
        {
          "internalType": "string",
          "name": "_name",
          "type": "string"
        },
        {
          "internalType": "string",
          "name": "_symbol",
          "type": "string"
        },
        {
          "internalType": "uint256",
          "name": "_collectionSize",
          "type": "uint256"
        },
        {
          "internalType": "uint256",
          "name": "_maxMintPerAddress",
          "type": "uint256"
        },
        {
          "internalType": "uint256",
          "name": "_amountForPromotion",
          "type": "uint256"
        },
        {
          "internalType": "uint256",
          "name": "_mintPrice",
          "type": "uint256"
        },
        {
          "internalType": "uint256",
          "name": "_claimTime",
          "type": "uint256"
        },
        {
          "internalType": "uint256",
          "name": "_presaleTime",
          "type": "uint256"
        },
        {
          "internalType": "uint256",
          "name": "_publicTime",
          "type": "uint256"
        }
      ],
      "stateMutability": "nonpayable",
      "type": "constructor"
    },
    {
      "inputs": [],
      "name": "AllOwnershipsHaveBeenSet",
      "type": "error"
    },
    {
      "inputs": [],
      "name": "ApprovalCallerNotOwnerNorApproved",
      "type": "error"
    },
    {
      "inputs": [],
      "name": "ApprovalQueryForNonexistentToken",
      "type": "error"
    },
    {
      "inputs": [],
      "name": "ApprovalToCurrentOwner",
      "type": "error"
    },
    {
      "inputs": [],
      "name": "ApproveToCaller",
      "type": "error"
    },
    {
      "inputs": [],
      "name": "BalanceQueryForZeroAddress",
      "type": "error"
    },
    {
      "inputs": [],
      "name": "MintToZeroAddress",
      "type": "error"
    },
    {
      "inputs": [],
      "name": "MintZeroQuantity",
      "type": "error"
    },
    {
      "inputs": [],
      "name": "NoTokensMintedYet",
      "type": "error"
    },
    {
      "inputs": [],
      "name": "OwnerQueryForNonexistentToken",
      "type": "error"
    },
    {
      "inputs": [],
      "name": "QuantityMustBeNonZero",
      "type": "error"
    },
    {
      "inputs": [],
      "name": "TransferCallerNotOwnerNorApproved",
      "type": "error"
    },
    {
      "inputs": [],
      "name": "TransferFromIncorrectOwner",
      "type": "error"
    },
    {
      "inputs": [],
      "name": "TransferToNonERC721ReceiverImplementer",
      "type": "error"
    },
    {
      "inputs": [],
      "name": "TransferToZeroAddress",
      "type": "error"
    },
    {
      "inputs": [],
      "name": "URIQueryForNonexistentToken",
      "type": "error"
    },
    {
      "anonymous": false,
      "inputs": [
        {
          "indexed": true,
          "internalType": "address",
          "name": "owner",
          "type": "address"
        },
        {
          "indexed": true,
          "internalType": "address",
          "name": "approved",
          "type": "address"
        },
        {
          "indexed": true,
          "internalType": "uint256",
          "name": "tokenId",
          "type": "uint256"
        }
      ],
      "name": "Approval",
      "type": "event"
    },
    {
      "anonymous": false,
      "inputs": [
        {
          "indexed": true,
          "internalType": "address",
          "name": "owner",
          "type": "address"
        },
        {
          "indexed": true,
          "internalType": "address",
          "name": "operator",
          "type": "address"
        },
        {
          "indexed": false,
          "internalType": "bool",
          "name": "approved",
          "type": "bool"
        }
      ],
      "name": "ApprovalForAll",
      "type": "event"
    },
    {
      "anonymous": false,
      "inputs": [
        {
          "indexed": true,
          "internalType": "address",
          "name": "to",
          "type": "address"
        },
        {
          "indexed": false,
          "internalType": "uint256",
          "name": "amount",
          "type": "uint256"
        }
      ],
      "name": "Created",
      "type": "event"
    },
    {
      "anonymous": false,
      "inputs": [
        {
          "indexed": true,
          "internalType": "address",
          "name": "previousOwner",
          "type": "address"
        },
        {
          "indexed": true,
          "internalType": "address",
          "name": "newOwner",
          "type": "address"
        }
      ],
      "name": "OwnershipTransferred",
      "type": "event"
    },
    {
      "anonymous": false,
      "inputs": [
        {
          "indexed": true,
          "internalType": "address",
          "name": "from",
          "type": "address"
        },
        {
          "indexed": true,
          "internalType": "address",
          "name": "to",
          "type": "address"
        },
        {
          "indexed": true,
          "internalType": "uint256",
          "name": "tokenId",
          "type": "uint256"
        }
      ],
      "name": "Transfer",
      "type": "event"
    },
    {
      "inputs": [],
      "name": "amountForPromotion",
      "outputs": [
        {
          "internalType": "uint256",
          "name": "",
          "type": "uint256"
        }
      ],
      "stateMutability": "view",
      "type": "function"
    },
    {
      "inputs": [
        {
          "internalType": "address",
          "name": "to",
          "type": "address"
        },
        {
          "internalType": "uint256",
          "name": "tokenId",
          "type": "uint256"
        }
      ],
      "name": "approve",
      "outputs": [],
      "stateMutability": "nonpayable",
      "type": "function"
    },
    {
      "inputs": [
        {
          "internalType": "address",
          "name": "owner",
          "type": "address"
        }
      ],
      "name": "balanceOf",
      "outputs": [
        {
          "internalType": "uint256",
          "name": "",
          "type": "uint256"
        }
      ],
      "stateMutability": "view",
      "type": "function"
    },
    {
      "inputs": [],
      "name": "baseURI",
      "outputs": [
        {
          "internalType": "string",
          "name": "",
          "type": "string"
        }
      ],
      "stateMutability": "view",
      "type": "function"
    },
    {
      "inputs": [],
      "name": "claimMerkleRoot",
      "outputs": [
        {
          "internalType": "bytes32",
          "name": "",
          "type": "bytes32"
        }
      ],
      "stateMutability": "view",
      "type": "function"
    },
    {
      "inputs": [
        {
          "internalType": "uint256",
          "name": "invocations",
          "type": "uint256"
        },
        {
          "internalType": "uint256",
          "name": "maxInvocation",
          "type": "uint256"
        },
        {
          "internalType": "bytes32[]",
          "name": "proof",
          "type": "bytes32[]"
        }
      ],
      "name": "claimMint",
      "outputs": [],
      "stateMutability": "nonpayable",
      "type": "function"
    },
    {
      "inputs": [],
      "name": "claimTime",
      "outputs": [
        {
          "internalType": "uint256",
          "name": "",
          "type": "uint256"
        }
      ],
      "stateMutability": "view",
      "type": "function"
    },
    {
      "inputs": [],
      "name": "collectionSize",
      "outputs": [
        {
          "internalType": "uint256",
          "name": "",
          "type": "uint256"
        }
      ],
      "stateMutability": "view",
      "type": "function"
    },
    {
      "inputs": [
        {
          "internalType": "uint256",
          "name": "tokenId",
          "type": "uint256"
        }
      ],
      "name": "getApproved",
      "outputs": [
        {
          "internalType": "address",
          "name": "",
          "type": "address"
        }
      ],
      "stateMutability": "view",
      "type": "function"
    },
    {
      "inputs": [
        {
          "internalType": "address",
          "name": "owner",
          "type": "address"
        },
        {
          "internalType": "address",
          "name": "operator",
          "type": "address"
        }
      ],
      "name": "isApprovedForAll",
      "outputs": [
        {
          "internalType": "bool",
          "name": "",
          "type": "bool"
        }
      ],
      "stateMutability": "view",
      "type": "function"
    },
    {
      "inputs": [],
      "name": "maxMintPerAddress",
      "outputs": [
        {
          "internalType": "uint256",
          "name": "",
          "type": "uint256"
        }
      ],
      "stateMutability": "view",
      "type": "function"
    },
    {
      "inputs": [
        {
          "internalType": "address",
          "name": "_owner",
          "type": "address"
        }
      ],
      "name": "mintOf",
      "outputs": [
        {
          "internalType": "uint256",
          "name": "",
          "type": "uint256"
        }
      ],
      "stateMutability": "view",
      "type": "function"
    },
    {
      "inputs": [],
      "name": "mintPrice",
      "outputs": [
        {
          "internalType": "uint256",
          "name": "",
          "type": "uint256"
        }
      ],
      "stateMutability": "view",
      "type": "function"
    },
    {
      "inputs": [],
      "name": "name",
      "outputs": [
        {
          "internalType": "string",
          "name": "",
          "type": "string"
        }
      ],
      "stateMutability": "view",
      "type": "function"
    },
    {
      "inputs": [],
      "name": "nextOwnerToExplicitlySet",
      "outputs": [
        {
          "internalType": "uint256",
          "name": "",
          "type": "uint256"
        }
      ],
      "stateMutability": "view",
      "type": "function"
    },
    {
      "inputs": [],
      "name": "owner",
      "outputs": [
        {
          "internalType": "address",
          "name": "",
          "type": "address"
        }
      ],
      "stateMutability": "view",
      "type": "function"
    },
    {
      "inputs": [
        {
          "internalType": "uint256",
          "name": "tokenId",
          "type": "uint256"
        }
      ],
      "name": "ownerOf",
      "outputs": [
        {
          "internalType": "address",
          "name": "",
          "type": "address"
        }
      ],
      "stateMutability": "view",
      "type": "function"
    },
    {
      "inputs": [],
      "name": "presaleMerkleRoot",
      "outputs": [
        {
          "internalType": "bytes32",
          "name": "",
          "type": "bytes32"
        }
      ],
      "stateMutability": "view",
      "type": "function"
    },
    {
      "inputs": [
        {
          "internalType": "uint256",
          "name": "invocations",
          "type": "uint256"
        },
        {
          "internalType": "uint256",
          "name": "maxInvocation",
          "type": "uint256"
        },
        {
          "internalType": "bytes32[]",
          "name": "proof",
          "type": "bytes32[]"
        }
      ],
      "name": "presaleMint",
      "outputs": [],
      "stateMutability": "payable",
      "type": "function"
    },
    {
      "inputs": [],
      "name": "presaleTime",
      "outputs": [
        {
          "internalType": "uint256",
          "name": "",
          "type": "uint256"
        }
      ],
      "stateMutability": "view",
      "type": "function"
    },
    {
      "inputs": [
        {
          "internalType": "uint256",
          "name": "invocations",
          "type": "uint256"
        }
      ],
      "name": "promotionMint",
      "outputs": [],
      "stateMutability": "nonpayable",
      "type": "function"
    },
    {
      "inputs": [
        {
          "internalType": "uint256",
          "name": "invocations",
          "type": "uint256"
        }
      ],
      "name": "publicMint",
      "outputs": [],
      "stateMutability": "payable",
      "type": "function"
    },
    {
      "inputs": [],
      "name": "publicTime",
      "outputs": [
        {
          "internalType": "uint256",
          "name": "",
          "type": "uint256"
        }
      ],
      "stateMutability": "view",
      "type": "function"
    },
    {
      "inputs": [],
      "name": "renounceOwnership",
      "outputs": [],
      "stateMutability": "nonpayable",
      "type": "function"
    },
    {
      "inputs": [
        {
          "internalType": "address",
          "name": "from",
          "type": "address"
        },
        {
          "internalType": "address",
          "name": "to",
          "type": "address"
        },
        {
          "internalType": "uint256",
          "name": "tokenId",
          "type": "uint256"
        }
      ],
      "name": "safeTransferFrom",
      "outputs": [],
      "stateMutability": "nonpayable",
      "type": "function"
    },
    {
      "inputs": [
        {
          "internalType": "address",
          "name": "from",
          "type": "address"
        },
        {
          "internalType": "address",
          "name": "to",
          "type": "address"
        },
        {
          "internalType": "uint256",
          "name": "tokenId",
          "type": "uint256"
        },
        {
          "internalType": "bytes",
          "name": "_data",
          "type": "bytes"
        }
      ],
      "name": "safeTransferFrom",
      "outputs": [],
      "stateMutability": "nonpayable",
      "type": "function"
    },
    {
      "inputs": [
        {
          "internalType": "address",
          "name": "operator",
          "type": "address"
        },
        {
          "internalType": "bool",
          "name": "approved",
          "type": "bool"
        }
      ],
      "name": "setApprovalForAll",
      "outputs": [],
      "stateMutability": "nonpayable",
      "type": "function"
    },
    {
      "inputs": [
        {
          "internalType": "string",
          "name": "newBaseURI",
          "type": "string"
        }
      ],
      "name": "setBaseURI",
      "outputs": [],
      "stateMutability": "nonpayable",
      "type": "function"
    },
    {
      "inputs": [
        {
          "internalType": "bytes32",
          "name": "_claimMerkleRoot",
          "type": "bytes32"
        }
      ],
      "name": "setClaimMerkleRoot",
      "outputs": [],
      "stateMutability": "nonpayable",
      "type": "function"
    },
    {
      "inputs": [
        {
          "internalType": "uint256",
          "name": "_claimTime",
          "type": "uint256"
        }
      ],
      "name": "setClaimTime",
      "outputs": [],
      "stateMutability": "nonpayable",
      "type": "function"
    },
    {
      "inputs": [
        {
          "internalType": "uint256",
          "name": "quantity",
          "type": "uint256"
        }
      ],
      "name": "setOwnersExplicit",
      "outputs": [],
      "stateMutability": "nonpayable",
      "type": "function"
    },
    {
      "inputs": [
        {
          "internalType": "bytes32",
          "name": "_presaleMerkleRoot",
          "type": "bytes32"
        }
      ],
      "name": "setPresaleMerkleRoot",
      "outputs": [],
      "stateMutability": "nonpayable",
      "type": "function"
    },
    {
      "inputs": [
        {
          "internalType": "uint256",
          "name": "_presaleTime",
          "type": "uint256"
        }
      ],
      "name": "setPresaleTime",
      "outputs": [],
      "stateMutability": "nonpayable",
      "type": "function"
    },
    {
      "inputs": [
        {
          "internalType": "uint256",
          "name": "_publicTime",
          "type": "uint256"
        }
      ],
      "name": "setPublicTime",
      "outputs": [],
      "stateMutability": "nonpayable",
      "type": "function"
    },
    {
      "inputs": [
        {
          "internalType": "bytes4",
          "name": "interfaceId",
          "type": "bytes4"
        }
      ],
      "name": "supportsInterface",
      "outputs": [
        {
          "internalType": "bool",
          "name": "",
          "type": "bool"
        }
      ],
      "stateMutability": "view",
      "type": "function"
    },
    {
      "inputs": [],
      "name": "symbol",
      "outputs": [
        {
          "internalType": "string",
          "name": "",
          "type": "string"
        }
      ],
      "stateMutability": "view",
      "type": "function"
    },
    {
      "inputs": [
        {
          "internalType": "uint256",
          "name": "tokenId",
          "type": "uint256"
        }
      ],
      "name": "tokenURI",
      "outputs": [
        {
          "internalType": "string",
          "name": "",
          "type": "string"
        }
      ],
      "stateMutability": "view",
      "type": "function"
    },
    {
      "inputs": [],
      "name": "totalSupply",
      "outputs": [
        {
          "internalType": "uint256",
          "name": "",
          "type": "uint256"
        }
      ],
      "stateMutability": "view",
      "type": "function"
    },
    {
      "inputs": [
        {
          "internalType": "address",
          "name": "from",
          "type": "address"
        },
        {
          "internalType": "address",
          "name": "to",
          "type": "address"
        },
        {
          "internalType": "uint256",
          "name": "tokenId",
          "type": "uint256"
        }
      ],
      "name": "transferFrom",
      "outputs": [],
      "stateMutability": "nonpayable",
      "type": "function"
    },
    {
      "inputs": [
        {
          "internalType": "address",
          "name": "newOwner",
          "type": "address"
        }
      ],
      "name": "transferOwnership",
      "outputs": [],
      "stateMutability": "nonpayable",
      "type": "function"
    },
    {
      "inputs": [],
      "name": "version",
      "outputs": [
        {
          "internalType": "string",
          "name": "",
          "type": "string"
        }
      ],
      "stateMutability": "view",
      "type": "function"
    },
    {
      "inputs": [],
      "name": "withdrawMoney",
      "outputs": [],
      "stateMutability": "nonpayable",
      "type": "function"
    }
  ],
  "bytecode": "0x6101006040523480156200001257600080fd5b5060405162002e7e38038062002e7e833981016040819052620000359162000432565b8851899089906200004e906002906020850190620002bf565b50805162000064906003906020840190620002bf565b505060008055506200007633620001e2565b6001600a5586620000de5760405162461bcd60e51b815260206004820152602760248201527f52686170736f647943726561746f722f696e76616c69642d636f6c6c656374696044820152666f6e2d73697a6560c81b60648201526084015b60405180910390fd5b86851115620001415760405162461bcd60e51b815260206004820152602860248201527f52686170736f647943726561746f722f696e76616c69642d70726f6d6f74696f6044820152671b8b585b5bdd5b9d60c21b6064820152608401620000d5565b600084116200019e5760405162461bcd60e51b815260206004820152602260248201527f52686170736f647943726561746f722f696e76616c69642d6d696e742d707269604482015261636560f01b6064820152608401620000d5565b60e087905260a0869052608085905260c0849052620001bd8362000234565b620001c88262000243565b620001d38162000252565b5050505050505050506200051d565b600980546001600160a01b038381166001600160a01b0319831681179093556040519116919082907f8be0079c531659141344cd1fd0a4f28419497f9722a3daafe3b4186f6b6457e090600090a35050565b6200023e62000261565b600d55565b6200024d62000261565b600e55565b6200025c62000261565b600f55565b6009546001600160a01b03163314620002bd5760405162461bcd60e51b815260206004820181905260248201527f4f776e61626c653a2063616c6c6572206973206e6f7420746865206f776e65726044820152606401620000d5565b565b828054620002cd90620004e0565b90600052602060002090601f016020900481019282620002f157600085556200033c565b82601f106200030c57805160ff19168380011785556200033c565b828001600101855582156200033c579182015b828111156200033c5782518255916020019190600101906200031f565b506200034a9291506200034e565b5090565b5b808211156200034a57600081556001016200034f565b634e487b7160e01b600052604160045260246000fd5b600082601f8301126200038d57600080fd5b81516001600160401b0380821115620003aa57620003aa62000365565b604051601f8301601f19908116603f01168101908282118183101715620003d557620003d562000365565b81604052838152602092508683858801011115620003f257600080fd5b600091505b83821015620004165785820183015181830184015290820190620003f7565b83821115620004285760008385830101525b9695505050505050565b60008060008060008060008060006101208a8c0312156200045257600080fd5b89516001600160401b03808211156200046a57600080fd5b620004788d838e016200037b565b9a5060208c01519150808211156200048f57600080fd5b506200049e8c828d016200037b565b98505060408a0151965060608a0151955060808a0151945060a08a0151935060c08a0151925060e08a015191506101008a015190509295985092959850929598565b600181811c90821680620004f557607f821691505b602082108114156200051757634e487b7160e01b600052602260045260246000fd5b50919050565b60805160a05160c05160e0516128da620005a46000396000818161046401528181610a1401528181610d1601526113f101526000818161055d01528181610b060152610e0201526000818161050901528181610a9601528181610cd601528181610d92015281816111f2015261146d0152600081816105db015261116101526128da6000f3fe6080604052600436106102515760003560e01c80636352211e11610139578063ac446002116100b6578063c87b56dd1161007a578063c87b56dd146106f1578063d7224ba014610711578063e7d5161114610727578063e985e9c514610747578063f2fde38b14610790578063fd1e2962146107b057600080fd5b8063ac44600214610666578063b1f536fa1461067b578063b88d4fde1461069b578063ba2f59c8146106bb578063c6e62e0b146106db57600080fd5b806376972db2116100fd57806376972db2146105c95780638da5cb5b146105fd57806395d89b411461061b5780639c4dab5214610630578063a22cb4651461064657600080fd5b80636352211e1461052b5780636817c76c1461054b5780636c0360eb1461057f57806370a0823114610594578063715018a6146105b457600080fd5b806327b3bf11116101d257806342842e0e1161019657806342842e0e1461043257806345c0f5331461045257806348ce85841461048657806354fd4d50146104a657806355f804b3146104d7578063572849c4146104f757600080fd5b806327b3bf11146103a957806328d7b276146103bf5780632d20fb60146103df5780632db11544146103ff578063421cc3371461041257600080fd5b806318160ddd1161021957806318160ddd146103275780631b59169d1461034a5780631bdc608e1461035d57806322212e2b1461037357806323b872dd1461038957600080fd5b806301ffc9a71461025657806306fdde031461028b578063081812fc146102ad578063095ea7b3146102e5578063150c5c2614610307575b600080fd5b34801561026257600080fd5b50610276610271366004612165565b6107d0565b60405190151581526020015b60405180910390f35b34801561029757600080fd5b506102a0610822565b60405161028291906121da565b3480156102b957600080fd5b506102cd6102c83660046121ed565b6108b4565b6040516001600160a01b039091168152602001610282565b3480156102f157600080fd5b50610305610300366004612222565b6108f8565b005b34801561031357600080fd5b506103056103223660046121ed565b610986565b34801561033357600080fd5b50600154600054035b604051908152602001610282565b61030561035836600461224c565b610993565b34801561036957600080fd5b5061033c600f5481565b34801561037f57600080fd5b5061033c600c5481565b34801561039557600080fd5b506103056103a43660046122cf565b610c25565b3480156103b557600080fd5b5061033c600d5481565b3480156103cb57600080fd5b506103056103da3660046121ed565b610c30565b3480156103eb57600080fd5b506103056103fa3660046121ed565b610c3d565b61030561040d3660046121ed565b610c7e565b34801561041e57600080fd5b5061030561042d3660046121ed565b610e7b565b34801561043e57600080fd5b5061030561044d3660046122cf565b610e88565b34801561045e57600080fd5b5061033c7f000000000000000000000000000000000000000000000000000000000000000081565b34801561049257600080fd5b506103056104a13660046121ed565b610ea3565b3480156104b257600080fd5b506102a0604051806040016040528060058152602001640312e302e360dc1b81525081565b3480156104e357600080fd5b506103056104f236600461230b565b610eb0565b34801561050357600080fd5b5061033c7f000000000000000000000000000000000000000000000000000000000000000081565b34801561053757600080fd5b506102cd6105463660046121ed565b610efb565b34801561055757600080fd5b5061033c7f000000000000000000000000000000000000000000000000000000000000000081565b34801561058b57600080fd5b506102a0610f0d565b3480156105a057600080fd5b5061033c6105af36600461237d565b610f1c565b3480156105c057600080fd5b50610305610f6b565b3480156105d557600080fd5b5061033c7f000000000000000000000000000000000000000000000000000000000000000081565b34801561060957600080fd5b506009546001600160a01b03166102cd565b34801561062757600080fd5b506102a0610f7f565b34801561063c57600080fd5b5061033c600b5481565b34801561065257600080fd5b50610305610661366004612398565b610f8e565b34801561067257600080fd5b50610305611024565b34801561068757600080fd5b5061033c61069636600461237d565b6110fb565b3480156106a757600080fd5b506103056106b63660046123ea565b611106565b3480156106c757600080fd5b506103056106d63660046121ed565b611157565b3480156106e757600080fd5b5061033c600e5481565b3480156106fd57600080fd5b506102a061070c3660046121ed565b6112e7565b34801561071d57600080fd5b5061033c60085481565b34801561073357600080fd5b5061030561074236600461224c565b611379565b34801561075357600080fd5b506102766107623660046124c6565b6001600160a01b03918216600090815260076020908152604080832093909416825291909152205460ff1690565b34801561079c57600080fd5b506103056107ab36600461237d565b61157b565b3480156107bc57600080fd5b506103056107cb3660046121ed565b6115f4565b60006001600160e01b031982166380ac58cd60e01b148061080157506001600160e01b03198216635b5e139f60e01b145b8061081c57506301ffc9a760e01b6001600160e01b03198316145b92915050565b606060028054610831906124f9565b80601f016020809104026020016040519081016040528092919081815260200182805461085d906124f9565b80156108aa5780601f1061087f576101008083540402835291602001916108aa565b820191906000526020600020905b81548152906001019060200180831161088d57829003601f168201915b5050505050905090565b60006108bf82611601565b6108dc576040516333d1c03960e21b815260040160405180910390fd5b506000908152600660205260409020546001600160a01b031690565b600061090382610efb565b9050806001600160a01b0316836001600160a01b031614156109385760405163250fdee360e21b815260040160405180910390fd5b336001600160a01b0382161480159061095857506109568133610762565b155b15610976576040516367d9dca160e11b815260040160405180910390fd5b61098183838361162c565b505050565b61098e611688565b600f55565b6002600a5414156109bf5760405162461bcd60e51b81526004016109b690612534565b60405180910390fd5b6002600a55600e5480158015906109d557508042115b6109f15760405162461bcd60e51b81526004016109b69061256b565b8484323314610a125760405162461bcd60e51b81526004016109b6906125a4565b7f0000000000000000000000000000000000000000000000000000000000000000610a4a83610a446001546000540390565b906116e2565b1115610a685760405162461bcd60e51b81526004016109b6906125df565b80610a7683610a44336116ee565b1115610a945760405162461bcd60e51b81526004016109b69061261b565b7f0000000000000000000000000000000000000000000000000000000000000000610ac283610a44336116ee565b1115610ae05760405162461bcd60e51b81526004016109b69061261b565b60008211610b005760405162461bcd60e51b81526004016109b690612666565b86610b2b7f00000000000000000000000000000000000000000000000000000000000000008261171d565b3414610b495760405162461bcd60e51b81526004016109b6906126b1565b60003411610b695760405162461bcd60e51b81526004016109b690612666565b86338787600c54610beb838380806020026020016040519081016040528093929190818152602001838360200280828437600092019190915250506040516bffffffffffffffffffffffff1960608a901b166020820152603481018a905285925060540190505b60405160208183030381529060405280519060200120611729565b610c075760405162461bcd60e51b81526004016109b6906126eb565b610c11338e61173f565b50506001600a555050505050505050505050565b610981838383611790565b610c38611688565b600c55565b610c45611688565b6002600a541415610c685760405162461bcd60e51b81526004016109b690612534565b6002600a55610c7681611980565b506001600a55565b6002600a541415610ca15760405162461bcd60e51b81526004016109b690612534565b6002600a55600f548015801590610cb757508042115b610cd35760405162461bcd60e51b81526004016109b69061256b565b817f0000000000000000000000000000000000000000000000000000000000000000323314610d145760405162461bcd60e51b81526004016109b6906125a4565b7f0000000000000000000000000000000000000000000000000000000000000000610d4683610a446001546000540390565b1115610d645760405162461bcd60e51b81526004016109b6906125df565b80610d7283610a44336116ee565b1115610d905760405162461bcd60e51b81526004016109b69061261b565b7f0000000000000000000000000000000000000000000000000000000000000000610dbe83610a44336116ee565b1115610ddc5760405162461bcd60e51b81526004016109b69061261b565b60008211610dfc5760405162461bcd60e51b81526004016109b690612666565b83610e277f00000000000000000000000000000000000000000000000000000000000000008261171d565b3414610e455760405162461bcd60e51b81526004016109b6906126b1565b60003411610e655760405162461bcd60e51b81526004016109b690612666565b610e6f338661173f565b50506001600a55505050565b610e83611688565b600d55565b61098183838360405180602001604052806000815250611106565b610eab611688565b600e55565b610eb8611688565b610ef782828080601f016020809104026020016040519081016040528093929190818152602001838380828437600092019190915250611ab892505050565b5050565b6000610f0682611acb565b5192915050565b606060108054610831906124f9565b60006001600160a01b038216610f45576040516323d3ad8160e21b815260040160405180910390fd5b506001600160a01b031660009081526005602052604090205467ffffffffffffffff1690565b610f73611688565b610f7d6000611be7565b565b606060038054610831906124f9565b6001600160a01b038216331415610fb85760405163b06307db60e01b815260040160405180910390fd5b3360008181526007602090815260408083206001600160a01b03871680855290835292819020805460ff191686151590811790915590519081529192917f17307eab39ab6107e8899845ad3d59bd9653f200f220920489ca2b5937696c31910160405180910390a35050565b61102c611688565b6002600a54141561104f5760405162461bcd60e51b81526004016109b690612534565b6002600a55604051600090339047908381818185875af1925050503d8060008114611096576040519150601f19603f3d011682016040523d82523d6000602084013e61109b565b606091505b5050905080610c765760405162461bcd60e51b815260206004820152602660248201527f52686170736f647943726561746f722f696e76616c69642d77697468647261776044820152652d6d6f6e657960d01b60648201526084016109b6565b600061081c826116ee565b611111848484611790565b6001600160a01b0383163b15158015611133575061113184848484611c39565b155b15611151576040516368d2bf6b60e11b815260040160405180910390fd5b50505050565b61115f611688565b7f000000000000000000000000000000000000000000000000000000000000000061119182610a446001546000540390565b11156111f05760405162461bcd60e51b815260206004820152602860248201527f52686170736f647943726561746f722f696e76616c69642d70726f6d6f74696f6044820152676e2d737570706c7960c01b60648201526084016109b6565b7f000000000000000000000000000000000000000000000000000000000000000061121b8282611d31565b156112775760405162461bcd60e51b815260206004820152602660248201527f52686170736f647943726561746f722f696e76616c69642d62617463682d6d756044820152656c7469706c6560d01b60648201526084016109b6565b60006112838383611d3d565b905060005b818110156112ac5761129a3384611d49565b806112a48161273e565b915050611288565b5060405183815233907f0ce3610e89a4bb9ec9359763f99110ed52a4abaea0b62028a1637e242ca2768b9060200160405180910390a2505050565b60606112f282611601565b61130f57604051630a14c4b560e41b815260040160405180910390fd5b600061132660408051602081019091526000815290565b90508051600014156113475760405180602001604052806000815250611372565b8061135184611d63565b604051602001611362929190612759565b6040516020818303038152906040525b9392505050565b6002600a54141561139c5760405162461bcd60e51b81526004016109b690612534565b6002600a55600d5480158015906113b257508042115b6113ce5760405162461bcd60e51b81526004016109b69061256b565b84843233146113ef5760405162461bcd60e51b81526004016109b6906125a4565b7f000000000000000000000000000000000000000000000000000000000000000061142183610a446001546000540390565b111561143f5760405162461bcd60e51b81526004016109b6906125df565b8061144d83610a44336116ee565b111561146b5760405162461bcd60e51b81526004016109b69061261b565b7f000000000000000000000000000000000000000000000000000000000000000061149983610a44336116ee565b11156114b75760405162461bcd60e51b81526004016109b69061261b565b600082116114d75760405162461bcd60e51b81526004016109b690612666565b85338686600b54611542838380806020026020016040519081016040528093929190818152602001838360200280828437600092019190915250506040516bffffffffffffffffffffffff1960608a901b166020820152603481018a90528592506054019050610bd0565b61155e5760405162461bcd60e51b81526004016109b6906126eb565b611568338d61173f565b50506001600a5550505050505050505050565b611583611688565b6001600160a01b0381166115e85760405162461bcd60e51b815260206004820152602660248201527f4f776e61626c653a206e6577206f776e657220697320746865207a65726f206160448201526564647265737360d01b60648201526084016109b6565b6115f181611be7565b50565b6115fc611688565b600b55565b600080548210801561081c575050600090815260046020526040902054600160e01b900460ff161590565b60008281526006602052604080822080546001600160a01b0319166001600160a01b0387811691821790925591518593918516917f8c5be1e5ebec7d5bd14f71427d1e84f3dd0314c0f7b2291e5b200ac8c7c3b92591a4505050565b6009546001600160a01b03163314610f7d5760405162461bcd60e51b815260206004820181905260248201527f4f776e61626c653a2063616c6c6572206973206e6f7420746865206f776e657260448201526064016109b6565b60006113728284612788565b6001600160a01b038116600090815260056020526040812054600160401b900467ffffffffffffffff1661081c565b600061137282846127a0565b6000826117368584611e61565b14949350505050565b6117498282611d49565b816001600160a01b03167f0ce3610e89a4bb9ec9359763f99110ed52a4abaea0b62028a1637e242ca2768b8260405161178491815260200190565b60405180910390a25050565b600061179b82611acb565b9050836001600160a01b031681600001516001600160a01b0316146117d25760405162a1148160e81b815260040160405180910390fd5b6000336001600160a01b03861614806117f057506117f08533610762565b8061180b575033611800846108b4565b6001600160a01b0316145b90508061182b57604051632ce44b5f60e11b815260040160405180910390fd5b6001600160a01b03841661185257604051633a954ecd60e21b815260040160405180910390fd5b61185e6000848761162c565b6001600160a01b038581166000908152600560209081526040808320805467ffffffffffffffff1980821667ffffffffffffffff92831660001901831617909255898616808652838620805493841693831660019081018416949094179055898652600490945282852080546001600160e01b031916909417600160a01b42909216919091021783558701808452922080549193909116611934576000548214611934578054602086015167ffffffffffffffff16600160a01b026001600160e01b03199091166001600160a01b038a16171781555b50505082846001600160a01b0316866001600160a01b03167fddf252ad1be2c89b69c2b068fc378daa952ba7f163c4a11628f55a4df523b3ef60405160405180910390a45b5050505050565b8061199e576040516356be441560e01b815260040160405180910390fd5b6000546119be5760405163c0367cab60e01b815260040160405180910390fd5b600854806119ca575060005b60005481106119ec576040516370e89b1b60e01b815260040160405180910390fd5b6000548282016000198101911015611a075750600054600019015b815b818111611aad576000818152600460205260409020546001600160a01b0316158015611a4b5750600081815260046020526040902054600160e01b900460ff16155b15611aa5576000611a5b82611acb565b805160008481526004602090815260409091208054919093015167ffffffffffffffff16600160a01b026001600160e01b03199091166001600160a01b0390921691909117179055505b600101611a09565b506001016008555050565b8051610ef79060109060208401906120b6565b604080516060810182526000808252602082018190529181019190915281600054811015611bce57600081815260046020908152604091829020825160608101845290546001600160a01b0381168252600160a01b810467ffffffffffffffff1692820192909252600160e01b90910460ff16151591810182905290611bcc5780516001600160a01b031615611b62579392505050565b5060001901600081815260046020908152604091829020825160608101845290546001600160a01b038116808352600160a01b820467ffffffffffffffff1693830193909352600160e01b900460ff1615159281019290925215611bc7579392505050565b611b62565b505b604051636f96cda160e11b815260040160405180910390fd5b600980546001600160a01b038381166001600160a01b0319831681179093556040519116919082907f8be0079c531659141344cd1fd0a4f28419497f9722a3daafe3b4186f6b6457e090600090a35050565b604051630a85bd0160e11b81526000906001600160a01b0385169063150b7a0290611c6e9033908990889088906004016127bf565b602060405180830381600087803b158015611c8857600080fd5b505af1925050508015611cb8575060408051601f3d908101601f19168201909252611cb5918101906127fc565b60015b611d13573d808015611ce6576040519150601f19603f3d011682016040523d82523d6000602084013e611ceb565b606091505b508051611d0b576040516368d2bf6b60e11b815260040160405180910390fd5b805181602001fd5b6001600160e01b031916630a85bd0160e11b1490505b949350505050565b6000611372828461282f565b60006113728284612843565b610ef7828260405180602001604052806000815250611eae565b606081611d875750506040805180820190915260018152600360fc1b602082015290565b8160005b8115611db15780611d9b8161273e565b9150611daa9050600a83612843565b9150611d8b565b60008167ffffffffffffffff811115611dcc57611dcc6123d4565b6040519080825280601f01601f191660200182016040528015611df6576020820181803683370190505b5090505b8415611d2957611e0b600183612857565b9150611e18600a8661282f565b611e23906030612788565b60f81b818381518110611e3857611e3861286e565b60200101906001600160f81b031916908160001a905350611e5a600a86612843565b9450611dfa565b600081815b8451811015611ea657611e9282868381518110611e8557611e8561286e565b6020026020010151611ebb565b915080611e9e8161273e565b915050611e66565b509392505050565b6109818383836001611eea565b6000818310611ed7576000828152602084905260409020611372565b6000838152602083905260409020611372565b6000546001600160a01b038516611f1357604051622e076360e81b815260040160405180910390fd5b83611f315760405163b562e8dd60e01b815260040160405180910390fd5b6001600160a01b038516600081815260056020908152604080832080546fffffffffffffffffffffffffffffffff19811667ffffffffffffffff8083168c018116918217600160401b67ffffffffffffffff1990941690921783900481168c01811690920217909155858452600490925290912080546001600160e01b031916909217600160a01b429092169190910217905580808501838015611fde57506001600160a01b0387163b15155b15612067575b60405182906001600160a01b038916906000907fddf252ad1be2c89b69c2b068fc378daa952ba7f163c4a11628f55a4df523b3ef908290a461202f6000888480600101955088611c39565b61204c576040516368d2bf6b60e11b815260040160405180910390fd5b80821415611fe457826000541461206257600080fd5b6120ad565b5b6040516001830192906001600160a01b038916906000907fddf252ad1be2c89b69c2b068fc378daa952ba7f163c4a11628f55a4df523b3ef908290a480821415612068575b50600055611979565b8280546120c2906124f9565b90600052602060002090601f0160209004810192826120e4576000855561212a565b82601f106120fd57805160ff191683800117855561212a565b8280016001018555821561212a579182015b8281111561212a57825182559160200191906001019061210f565b5061213692915061213a565b5090565b5b80821115612136576000815560010161213b565b6001600160e01b0319811681146115f157600080fd5b60006020828403121561217757600080fd5b81356113728161214f565b60005b8381101561219d578181015183820152602001612185565b838111156111515750506000910152565b600081518084526121c6816020860160208601612182565b601f01601f19169290920160200192915050565b60208152600061137260208301846121ae565b6000602082840312156121ff57600080fd5b5035919050565b80356001600160a01b038116811461221d57600080fd5b919050565b6000806040838503121561223557600080fd5b61223e83612206565b946020939093013593505050565b6000806000806060858703121561226257600080fd5b8435935060208501359250604085013567ffffffffffffffff8082111561228857600080fd5b818701915087601f83011261229c57600080fd5b8135818111156122ab57600080fd5b8860208260051b85010111156122c057600080fd5b95989497505060200194505050565b6000806000606084860312156122e457600080fd5b6122ed84612206565b92506122fb60208501612206565b9150604084013590509250925092565b6000806020838503121561231e57600080fd5b823567ffffffffffffffff8082111561233657600080fd5b818501915085601f83011261234a57600080fd5b81358181111561235957600080fd5b86602082850101111561236b57600080fd5b60209290920196919550909350505050565b60006020828403121561238f57600080fd5b61137282612206565b600080604083850312156123ab57600080fd5b6123b483612206565b9150602083013580151581146123c957600080fd5b809150509250929050565b634e487b7160e01b600052604160045260246000fd5b6000806000806080858703121561240057600080fd5b61240985612206565b935061241760208601612206565b925060408501359150606085013567ffffffffffffffff8082111561243b57600080fd5b818701915087601f83011261244f57600080fd5b813581811115612461576124616123d4565b604051601f8201601f19908116603f01168101908382118183101715612489576124896123d4565b816040528281528a60208487010111156124a257600080fd5b82602086016020830137600060208483010152809550505050505092959194509250565b600080604083850312156124d957600080fd5b6124e283612206565b91506124f060208401612206565b90509250929050565b600181811c9082168061250d57607f821691505b6020821081141561252e57634e487b7160e01b600052602260045260246000fd5b50919050565b6020808252601f908201527f5265656e7472616e637947756172643a207265656e7472616e742063616c6c00604082015260600190565b6020808252602b9082015260008051602061288583398151915260408201526a642d6d696e742d74696d6560a81b606082015260800190565b6020808252602d9082015260008051602061288583398151915260408201526c3216b6b4b73a16b1b0b63632b960991b606082015260800190565b6020808252602e9082015260008051602061288583398151915260408201526d642d746f74616c2d737570706c7960901b606082015260800190565b6020808252603b9082015260008051602061288583398151915260408201527f642d696e766f636174696f6e2d75707065722d626f756e646172790000000000606082015260800190565b6020808252603b9082015260008051602061288583398151915260408201527f642d696e766f636174696f6e2d6c6f7765722d626f756e646172790000000000606082015260800190565b6020808252602c9082015260008051602061288583398151915260408201526b642d6d696e742d76616c756560a01b606082015260800190565b6020808252602f9082015260008051602061288583398151915260408201526e3216b0b2323932b9b996b83937b7b360891b606082015260800190565b634e487b7160e01b600052601160045260246000fd5b600060001982141561275257612752612728565b5060010190565b6000835161276b818460208801612182565b83519083019061277f818360208801612182565b01949350505050565b6000821982111561279b5761279b612728565b500190565b60008160001904831182151516156127ba576127ba612728565b500290565b6001600160a01b03858116825284166020820152604081018390526080606082018190526000906127f2908301846121ae565b9695505050505050565b60006020828403121561280e57600080fd5b81516113728161214f565b634e487b7160e01b600052601260045260246000fd5b60008261283e5761283e612819565b500690565b60008261285257612852612819565b500490565b60008282101561286957612869612728565b500390565b634e487b7160e01b600052603260045260246000fdfe52686170736f647943726561746f7247656e657261746976652f696e76616c69a2646970667358221220b0cfe10727ffb24d5b493a4e4cb02f9d4bfcdc8b03bc02697ec42af479c550a364736f6c63430008090033",
  "linkReferences": {},
  "deployedLinkReferences": {}
}