{
  "_format": "hh-sol-artifact-1",
  "contractName": "ElevateCreatorGenerative",
  "sourceName": "contracts/ElevateCreatorGenerative.sol",
  "abi": [
    {
      "inputs": [
        {
          "internalType": "string",
          "name": "_name",
          "type": "string"
        },
        {
          "internalType": "string",
          "name": "_symbol",
          "type": "string"
        },
        {
          "internalType": "address",
          "name": "_randomizerContract",
          "type": "address"
        },
        {
          "internalType": "uint256",
          "name": "_collectionSize",
          "type": "uint256"
        },
        {
          "internalType": "uint256",
          "name": "_maxMintPerAddress",
          "type": "uint256"
        },
        {
          "internalType": "uint256",
          "name": "_amountForPromotion",
          "type": "uint256"
        },
        {
          "internalType": "uint256",
          "name": "_mintPrice",
          "type": "uint256"
        },
        {
          "internalType": "uint256",
          "name": "_claimTime",
          "type": "uint256"
        },
        {
          "internalType": "uint256",
          "name": "_presaleTime",
          "type": "uint256"
        },
        {
          "internalType": "uint256",
          "name": "_publicTime",
          "type": "uint256"
        }
      ],
      "stateMutability": "nonpayable",
      "type": "constructor"
    },
    {
      "inputs": [],
      "name": "AllOwnershipsHaveBeenSet",
      "type": "error"
    },
    {
      "inputs": [],
      "name": "ApprovalCallerNotOwnerNorApproved",
      "type": "error"
    },
    {
      "inputs": [],
      "name": "ApprovalQueryForNonexistentToken",
      "type": "error"
    },
    {
      "inputs": [],
      "name": "ApprovalToCurrentOwner",
      "type": "error"
    },
    {
      "inputs": [],
      "name": "ApproveToCaller",
      "type": "error"
    },
    {
      "inputs": [],
      "name": "BalanceQueryForZeroAddress",
      "type": "error"
    },
    {
      "inputs": [],
      "name": "HashQueryForNonexistentToken",
      "type": "error"
    },
    {
      "inputs": [],
      "name": "MintToZeroAddress",
      "type": "error"
    },
    {
      "inputs": [],
      "name": "MintZeroQuantity",
      "type": "error"
    },
    {
      "inputs": [],
      "name": "NoTokensMintedYet",
      "type": "error"
    },
    {
      "inputs": [],
      "name": "OwnerQueryForNonexistentToken",
      "type": "error"
    },
    {
      "inputs": [],
      "name": "QuantityMustBeNonZero",
      "type": "error"
    },
    {
      "inputs": [],
      "name": "TransferCallerNotOwnerNorApproved",
      "type": "error"
    },
    {
      "inputs": [],
      "name": "TransferFromIncorrectOwner",
      "type": "error"
    },
    {
      "inputs": [],
      "name": "TransferToNonERC721ReceiverImplementer",
      "type": "error"
    },
    {
      "inputs": [],
      "name": "TransferToZeroAddress",
      "type": "error"
    },
    {
      "inputs": [],
      "name": "URIQueryForNonexistentToken",
      "type": "error"
    },
    {
      "anonymous": false,
      "inputs": [
        {
          "indexed": true,
          "internalType": "address",
          "name": "owner",
          "type": "address"
        },
        {
          "indexed": true,
          "internalType": "address",
          "name": "approved",
          "type": "address"
        },
        {
          "indexed": true,
          "internalType": "uint256",
          "name": "tokenId",
          "type": "uint256"
        }
      ],
      "name": "Approval",
      "type": "event"
    },
    {
      "anonymous": false,
      "inputs": [
        {
          "indexed": true,
          "internalType": "address",
          "name": "owner",
          "type": "address"
        },
        {
          "indexed": true,
          "internalType": "address",
          "name": "operator",
          "type": "address"
        },
        {
          "indexed": false,
          "internalType": "bool",
          "name": "approved",
          "type": "bool"
        }
      ],
      "name": "ApprovalForAll",
      "type": "event"
    },
    {
      "anonymous": false,
      "inputs": [
        {
          "indexed": true,
          "internalType": "address",
          "name": "to",
          "type": "address"
        },
        {
          "indexed": false,
          "internalType": "uint256",
          "name": "currentTotalSupply",
          "type": "uint256"
        },
        {
          "indexed": false,
          "internalType": "uint256",
          "name": "invocations",
          "type": "uint256"
        },
        {
          "indexed": false,
          "internalType": "bytes32[]",
          "name": "identifiers",
          "type": "bytes32[]"
        }
      ],
      "name": "Created",
      "type": "event"
    },
    {
      "anonymous": false,
      "inputs": [
        {
          "indexed": true,
          "internalType": "address",
          "name": "previousOwner",
          "type": "address"
        },
        {
          "indexed": true,
          "internalType": "address",
          "name": "newOwner",
          "type": "address"
        }
      ],
      "name": "OwnershipTransferred",
      "type": "event"
    },
    {
      "anonymous": false,
      "inputs": [
        {
          "indexed": true,
          "internalType": "address",
          "name": "from",
          "type": "address"
        },
        {
          "indexed": true,
          "internalType": "address",
          "name": "to",
          "type": "address"
        },
        {
          "indexed": true,
          "internalType": "uint256",
          "name": "tokenId",
          "type": "uint256"
        }
      ],
      "name": "Transfer",
      "type": "event"
    },
    {
      "inputs": [],
      "name": "amountForPromotion",
      "outputs": [
        {
          "internalType": "uint256",
          "name": "",
          "type": "uint256"
        }
      ],
      "stateMutability": "view",
      "type": "function"
    },
    {
      "inputs": [
        {
          "internalType": "address",
          "name": "to",
          "type": "address"
        },
        {
          "internalType": "uint256",
          "name": "tokenId",
          "type": "uint256"
        }
      ],
      "name": "approve",
      "outputs": [],
      "stateMutability": "nonpayable",
      "type": "function"
    },
    {
      "inputs": [
        {
          "internalType": "address",
          "name": "owner",
          "type": "address"
        }
      ],
      "name": "balanceOf",
      "outputs": [
        {
          "internalType": "uint256",
          "name": "",
          "type": "uint256"
        }
      ],
      "stateMutability": "view",
      "type": "function"
    },
    {
      "inputs": [],
      "name": "baseURI",
      "outputs": [
        {
          "internalType": "string",
          "name": "",
          "type": "string"
        }
      ],
      "stateMutability": "view",
      "type": "function"
    },
    {
      "inputs": [],
      "name": "claimMerkleRoot",
      "outputs": [
        {
          "internalType": "bytes32",
          "name": "",
          "type": "bytes32"
        }
      ],
      "stateMutability": "view",
      "type": "function"
    },
    {
      "inputs": [
        {
          "internalType": "uint256",
          "name": "invocations",
          "type": "uint256"
        },
        {
          "internalType": "uint256",
          "name": "maxInvocation",
          "type": "uint256"
        },
        {
          "internalType": "bytes32[]",
          "name": "proof",
          "type": "bytes32[]"
        }
      ],
      "name": "claimMint",
      "outputs": [],
      "stateMutability": "nonpayable",
      "type": "function"
    },
    {
      "inputs": [],
      "name": "claimTime",
      "outputs": [
        {
          "internalType": "uint256",
          "name": "",
          "type": "uint256"
        }
      ],
      "stateMutability": "view",
      "type": "function"
    },
    {
      "inputs": [],
      "name": "collectionSize",
      "outputs": [
        {
          "internalType": "uint256",
          "name": "",
          "type": "uint256"
        }
      ],
      "stateMutability": "view",
      "type": "function"
    },
    {
      "inputs": [],
      "name": "compilerVersion",
      "outputs": [
        {
          "internalType": "string",
          "name": "",
          "type": "string"
        }
      ],
      "stateMutability": "view",
      "type": "function"
    },
    {
      "inputs": [
        {
          "internalType": "uint256",
          "name": "tokenId",
          "type": "uint256"
        }
      ],
      "name": "getApproved",
      "outputs": [
        {
          "internalType": "address",
          "name": "",
          "type": "address"
        }
      ],
      "stateMutability": "view",
      "type": "function"
    },
    {
      "inputs": [
        {
          "internalType": "address",
          "name": "owner",
          "type": "address"
        },
        {
          "internalType": "address",
          "name": "operator",
          "type": "address"
        }
      ],
      "name": "isApprovedForAll",
      "outputs": [
        {
          "internalType": "bool",
          "name": "",
          "type": "bool"
        }
      ],
      "stateMutability": "view",
      "type": "function"
    },
    {
      "inputs": [],
      "name": "maxMintPerAddress",
      "outputs": [
        {
          "internalType": "uint256",
          "name": "",
          "type": "uint256"
        }
      ],
      "stateMutability": "view",
      "type": "function"
    },
    {
      "inputs": [
        {
          "internalType": "address",
          "name": "_owner",
          "type": "address"
        }
      ],
      "name": "mintOf",
      "outputs": [
        {
          "internalType": "uint256",
          "name": "",
          "type": "uint256"
        }
      ],
      "stateMutability": "view",
      "type": "function"
    },
    {
      "inputs": [],
      "name": "mintPrice",
      "outputs": [
        {
          "internalType": "uint256",
          "name": "",
          "type": "uint256"
        }
      ],
      "stateMutability": "view",
      "type": "function"
    },
    {
      "inputs": [],
      "name": "mintRandomizerContract",
      "outputs": [
        {
          "internalType": "contract IRandomizer",
          "name": "",
          "type": "address"
        }
      ],
      "stateMutability": "view",
      "type": "function"
    },
    {
      "inputs": [],
      "name": "name",
      "outputs": [
        {
          "internalType": "string",
          "name": "",
          "type": "string"
        }
      ],
      "stateMutability": "view",
      "type": "function"
    },
    {
      "inputs": [],
      "name": "nextOwnerToExplicitlySet",
      "outputs": [
        {
          "internalType": "uint256",
          "name": "",
          "type": "uint256"
        }
      ],
      "stateMutability": "view",
      "type": "function"
    },
    {
      "inputs": [],
      "name": "owner",
      "outputs": [
        {
          "internalType": "address",
          "name": "",
          "type": "address"
        }
      ],
      "stateMutability": "view",
      "type": "function"
    },
    {
      "inputs": [
        {
          "internalType": "uint256",
          "name": "tokenId",
          "type": "uint256"
        }
      ],
      "name": "ownerOf",
      "outputs": [
        {
          "internalType": "address",
          "name": "",
          "type": "address"
        }
      ],
      "stateMutability": "view",
      "type": "function"
    },
    {
      "inputs": [],
      "name": "presaleMerkleRoot",
      "outputs": [
        {
          "internalType": "bytes32",
          "name": "",
          "type": "bytes32"
        }
      ],
      "stateMutability": "view",
      "type": "function"
    },
    {
      "inputs": [
        {
          "internalType": "uint256",
          "name": "invocations",
          "type": "uint256"
        },
        {
          "internalType": "uint256",
          "name": "maxInvocation",
          "type": "uint256"
        },
        {
          "internalType": "bytes32[]",
          "name": "proof",
          "type": "bytes32[]"
        }
      ],
      "name": "presaleMint",
      "outputs": [],
      "stateMutability": "payable",
      "type": "function"
    },
    {
      "inputs": [],
      "name": "presaleTime",
      "outputs": [
        {
          "internalType": "uint256",
          "name": "",
          "type": "uint256"
        }
      ],
      "stateMutability": "view",
      "type": "function"
    },
    {
      "inputs": [
        {
          "internalType": "uint256",
          "name": "invocations",
          "type": "uint256"
        }
      ],
      "name": "promotionMint",
      "outputs": [],
      "stateMutability": "nonpayable",
      "type": "function"
    },
    {
      "inputs": [
        {
          "internalType": "uint256",
          "name": "invocations",
          "type": "uint256"
        }
      ],
      "name": "publicMint",
      "outputs": [],
      "stateMutability": "payable",
      "type": "function"
    },
    {
      "inputs": [],
      "name": "publicTime",
      "outputs": [
        {
          "internalType": "uint256",
          "name": "",
          "type": "uint256"
        }
      ],
      "stateMutability": "view",
      "type": "function"
    },
    {
      "inputs": [],
      "name": "renounceOwnership",
      "outputs": [],
      "stateMutability": "nonpayable",
      "type": "function"
    },
    {
      "inputs": [
        {
          "internalType": "address",
          "name": "from",
          "type": "address"
        },
        {
          "internalType": "address",
          "name": "to",
          "type": "address"
        },
        {
          "internalType": "uint256",
          "name": "tokenId",
          "type": "uint256"
        }
      ],
      "name": "safeTransferFrom",
      "outputs": [],
      "stateMutability": "nonpayable",
      "type": "function"
    },
    {
      "inputs": [
        {
          "internalType": "address",
          "name": "from",
          "type": "address"
        },
        {
          "internalType": "address",
          "name": "to",
          "type": "address"
        },
        {
          "internalType": "uint256",
          "name": "tokenId",
          "type": "uint256"
        },
        {
          "internalType": "bytes",
          "name": "_data",
          "type": "bytes"
        }
      ],
      "name": "safeTransferFrom",
      "outputs": [],
      "stateMutability": "nonpayable",
      "type": "function"
    },
    {
      "inputs": [
        {
          "internalType": "address",
          "name": "operator",
          "type": "address"
        },
        {
          "internalType": "bool",
          "name": "approved",
          "type": "bool"
        }
      ],
      "name": "setApprovalForAll",
      "outputs": [],
      "stateMutability": "nonpayable",
      "type": "function"
    },
    {
      "inputs": [
        {
          "internalType": "string",
          "name": "newBaseURI",
          "type": "string"
        }
      ],
      "name": "setBaseURI",
      "outputs": [],
      "stateMutability": "nonpayable",
      "type": "function"
    },
    {
      "inputs": [
        {
          "internalType": "bytes32",
          "name": "_claimMerkleRoot",
          "type": "bytes32"
        }
      ],
      "name": "setClaimMerkleRoot",
      "outputs": [],
      "stateMutability": "nonpayable",
      "type": "function"
    },
    {
      "inputs": [
        {
          "internalType": "uint256",
          "name": "_claimTime",
          "type": "uint256"
        }
      ],
      "name": "setClaimTime",
      "outputs": [],
      "stateMutability": "nonpayable",
      "type": "function"
    },
    {
      "inputs": [
        {
          "internalType": "uint256",
          "name": "_mintPrice",
          "type": "uint256"
        }
      ],
      "name": "setMintPrice",
      "outputs": [],
      "stateMutability": "nonpayable",
      "type": "function"
    },
    {
      "inputs": [
        {
          "internalType": "address",
          "name": "_mintRandomizerContract",
          "type": "address"
        }
      ],
      "name": "setMintRandomizerContract",
      "outputs": [],
      "stateMutability": "nonpayable",
      "type": "function"
    },
    {
      "inputs": [
        {
          "internalType": "uint256",
          "name": "quantity",
          "type": "uint256"
        }
      ],
      "name": "setOwnersExplicit",
      "outputs": [],
      "stateMutability": "nonpayable",
      "type": "function"
    },
    {
      "inputs": [
        {
          "internalType": "bytes32",
          "name": "_presaleMerkleRoot",
          "type": "bytes32"
        }
      ],
      "name": "setPresaleMerkleRoot",
      "outputs": [],
      "stateMutability": "nonpayable",
      "type": "function"
    },
    {
      "inputs": [
        {
          "internalType": "uint256",
          "name": "_presaleTime",
          "type": "uint256"
        }
      ],
      "name": "setPresaleTime",
      "outputs": [],
      "stateMutability": "nonpayable",
      "type": "function"
    },
    {
      "inputs": [
        {
          "internalType": "uint256",
          "name": "_publicTime",
          "type": "uint256"
        }
      ],
      "name": "setPublicTime",
      "outputs": [],
      "stateMutability": "nonpayable",
      "type": "function"
    },
    {
      "inputs": [
        {
          "internalType": "bytes4",
          "name": "interfaceId",
          "type": "bytes4"
        }
      ],
      "name": "supportsInterface",
      "outputs": [
        {
          "internalType": "bool",
          "name": "",
          "type": "bool"
        }
      ],
      "stateMutability": "view",
      "type": "function"
    },
    {
      "inputs": [],
      "name": "symbol",
      "outputs": [
        {
          "internalType": "string",
          "name": "",
          "type": "string"
        }
      ],
      "stateMutability": "view",
      "type": "function"
    },
    {
      "inputs": [
        {
          "internalType": "uint256",
          "name": "_tokenId",
          "type": "uint256"
        }
      ],
      "name": "tokenHash",
      "outputs": [
        {
          "internalType": "bytes32",
          "name": "",
          "type": "bytes32"
        }
      ],
      "stateMutability": "view",
      "type": "function"
    },
    {
      "inputs": [
        {
          "internalType": "uint256",
          "name": "tokenId",
          "type": "uint256"
        }
      ],
      "name": "tokenURI",
      "outputs": [
        {
          "internalType": "string",
          "name": "",
          "type": "string"
        }
      ],
      "stateMutability": "view",
      "type": "function"
    },
    {
      "inputs": [],
      "name": "totalSupply",
      "outputs": [
        {
          "internalType": "uint256",
          "name": "",
          "type": "uint256"
        }
      ],
      "stateMutability": "view",
      "type": "function"
    },
    {
      "inputs": [
        {
          "internalType": "address",
          "name": "from",
          "type": "address"
        },
        {
          "internalType": "address",
          "name": "to",
          "type": "address"
        },
        {
          "internalType": "uint256",
          "name": "tokenId",
          "type": "uint256"
        }
      ],
      "name": "transferFrom",
      "outputs": [],
      "stateMutability": "nonpayable",
      "type": "function"
    },
    {
      "inputs": [
        {
          "internalType": "address",
          "name": "newOwner",
          "type": "address"
        }
      ],
      "name": "transferOwnership",
      "outputs": [],
      "stateMutability": "nonpayable",
      "type": "function"
    },
    {
      "inputs": [],
      "name": "version",
      "outputs": [
        {
          "internalType": "string",
          "name": "",
          "type": "string"
        }
      ],
      "stateMutability": "view",
      "type": "function"
    },
    {
      "inputs": [],
      "name": "withdrawMoney",
      "outputs": [],
      "stateMutability": "nonpayable",
      "type": "function"
    }
  ],
  "bytecode": "0x60e06040523480156200001157600080fd5b506040516200322e3803806200322e8339810160408190526200003491620004da565b89518a908a906200004d9060029060208501906200034a565b508051620000639060039060208401906200034a565b5050600080555062000075336200025e565b6001600a5586620000d55760405162461bcd60e51b815260206004820152603060248201526000805160206200320e83398151915260448201526f2d636f6c6c656374696f6e2d73697a6560801b60648201526084015b60405180910390fd5b86851115620001305760405162461bcd60e51b815260206004820152603160248201526000805160206200320e8339815191526044820152700b5c1c9bdb5bdd1a5bdb8b585b5bdd5b9d607a1b6064820152608401620000cc565b60008411620001855760405162461bcd60e51b815260206004820152602b60248201526000805160206200320e83398151915260448201526a2d6d696e742d707269636560a81b6064820152608401620000cc565b6001600160a01b038816620001f25760405162461bcd60e51b815260206004820152603360248201526000805160206200320e83398151915260448201527f2d72616e646f6d697a65722d61646472657373000000000000000000000000006064820152608401620000cc565b60c087905260a086905260808590526200020c84620002b0565b6200021783620002bf565b6200022282620002ce565b6200022d81620002dd565b5050601380546001600160a01b0319166001600160a01b03979097169690961790955550620005d995505050505050565b600980546001600160a01b038381166001600160a01b0319831681179093556040519116919082907f8be0079c531659141344cd1fd0a4f28419497f9722a3daafe3b4186f6b6457e090600090a35050565b620002ba620002ec565b600b55565b620002c9620002ec565b600e55565b620002d8620002ec565b600f55565b620002e7620002ec565b601055565b6009546001600160a01b03163314620003485760405162461bcd60e51b815260206004820181905260248201527f4f776e61626c653a2063616c6c6572206973206e6f7420746865206f776e65726044820152606401620000cc565b565b82805462000358906200059c565b90600052602060002090601f0160209004810192826200037c5760008555620003c7565b82601f106200039757805160ff1916838001178555620003c7565b82800160010185558215620003c7579182015b82811115620003c7578251825591602001919060010190620003aa565b50620003d5929150620003d9565b5090565b5b80821115620003d55760008155600101620003da565b634e487b7160e01b600052604160045260246000fd5b600082601f8301126200041857600080fd5b81516001600160401b0380821115620004355762000435620003f0565b604051601f8301601f19908116603f01168101908282118183101715620004605762000460620003f0565b816040528381526020925086838588010111156200047d57600080fd5b600091505b83821015620004a1578582018301518183018401529082019062000482565b83821115620004b35760008385830101525b9695505050505050565b80516001600160a01b0381168114620004d557600080fd5b919050565b6000806000806000806000806000806101408b8d031215620004fb57600080fd5b8a516001600160401b03808211156200051357600080fd5b620005218e838f0162000406565b9b5060208d01519150808211156200053857600080fd5b50620005478d828e0162000406565b9950506200055860408c01620004bd565b975060608b0151965060808b0151955060a08b0151945060c08b0151935060e08b015192506101008b015191506101208b015190509295989b9194979a5092959850565b600181811c90821680620005b157607f821691505b60208210811415620005d357634e487b7160e01b600052602260045260246000fd5b50919050565b60805160a05160c051612bc662000648600039600081816104bb01528181610ad701528181610db8015261144e01526000818161056001528181610b5901528181610d7801528181610e34015281816112a001526114ca01526000818161061401526112180152612bc66000f3fe6080604052600436106102885760003560e01c80636817c76c1161015a578063b1f536fa116100c1578063e7d516111161007a578063e7d51611146107a0578063e985e9c5146107c0578063f2fde38b14610809578063f4a0a52814610829578063f7e021e4146104fd578063fd1e29621461084957600080fd5b8063b1f536fa146106f4578063b88d4fde14610714578063ba2f59c814610734578063c6e62e0b14610754578063c87b56dd1461076a578063d7224ba01461078a57600080fd5b806395d89b411161011357806395d89b4114610654578063993670f2146106695780639c4dab5214610689578063a22cb4651461069f578063a3864397146106bf578063ac446002146106df57600080fd5b80636817c76c146105a25780636c0360eb146105b857806370a08231146105cd578063715018a6146105ed57806376972db2146106025780638da5cb5b1461063657600080fd5b806327b3bf11116101fe57806345c0f533116101b757806345c0f533146104a957806348ce8584146104dd57806354fd4d50146104fd57806355f804b31461052e578063572849c41461054e5780636352211e1461058257600080fd5b806327b3bf111461040057806328d7b276146104165780632d20fb60146104365780632db1154414610456578063421cc3371461046957806342842e0e1461048957600080fd5b806317ccc54b1161025057806317ccc54b1461035e57806318160ddd1461037e5780631b59169d146103a15780631bdc608e146103b457806322212e2b146103ca57806323b872dd146103e057600080fd5b806301ffc9a71461028d57806306fdde03146102c2578063081812fc146102e4578063095ea7b31461031c578063150c5c261461033e575b600080fd5b34801561029957600080fd5b506102ad6102a8366004612394565b610869565b60405190151581526020015b60405180910390f35b3480156102ce57600080fd5b506102d76108bb565b6040516102b99190612409565b3480156102f057600080fd5b506103046102ff36600461241c565b61094d565b6040516001600160a01b0390911681526020016102b9565b34801561032857600080fd5b5061033c610337366004612451565b610991565b005b34801561034a57600080fd5b5061033c61035936600461241c565b610a1f565b34801561036a57600080fd5b5061033c61037936600461247b565b610a2c565b34801561038a57600080fd5b50600154600054035b6040519081526020016102b9565b61033c6103af366004612496565b610a56565b3480156103c057600080fd5b5061039360105481565b3480156103d657600080fd5b50610393600c5481565b3480156103ec57600080fd5b5061033c6103fb366004612518565b610cc7565b34801561040c57600080fd5b50610393600e5481565b34801561042257600080fd5b5061033c61043136600461241c565b610cd2565b34801561044257600080fd5b5061033c61045136600461241c565b610cdf565b61033c61046436600461241c565b610d20565b34801561047557600080fd5b5061033c61048436600461241c565b610f01565b34801561049557600080fd5b5061033c6104a4366004612518565b610f0e565b3480156104b557600080fd5b506103937f000000000000000000000000000000000000000000000000000000000000000081565b3480156104e957600080fd5b5061033c6104f836600461241c565b610f29565b34801561050957600080fd5b506102d7604051806040016040528060058152602001640312e302e360dc1b81525081565b34801561053a57600080fd5b5061033c610549366004612554565b610f36565b34801561055a57600080fd5b506103937f000000000000000000000000000000000000000000000000000000000000000081565b34801561058e57600080fd5b5061030461059d36600461241c565b610f81565b3480156105ae57600080fd5b50610393600b5481565b3480156105c457600080fd5b506102d7610f93565b3480156105d957600080fd5b506103936105e836600461247b565b610fa2565b3480156105f957600080fd5b5061033c610ff0565b34801561060e57600080fd5b506103937f000000000000000000000000000000000000000000000000000000000000000081565b34801561064257600080fd5b506009546001600160a01b0316610304565b34801561066057600080fd5b506102d7611004565b34801561067557600080fd5b50601354610304906001600160a01b031681565b34801561069557600080fd5b50610393600d5481565b3480156106ab57600080fd5b5061033c6106ba3660046125c5565b611013565b3480156106cb57600080fd5b506103936106da36600461241c565b6110a9565b3480156106eb57600080fd5b5061033c6110e4565b34801561070057600080fd5b5061039361070f36600461247b565b6111b2565b34801561072057600080fd5b5061033c61072f366004612617565b6111bd565b34801561074057600080fd5b5061033c61074f36600461241c565b61120e565b34801561076057600080fd5b50610393600f5481565b34801561077657600080fd5b506102d761078536600461241c565b611351565b34801561079657600080fd5b5061039360085481565b3480156107ac57600080fd5b5061033c6107bb366004612496565b6113d6565b3480156107cc57600080fd5b506102ad6107db3660046126f2565b6001600160a01b03918216600090815260076020908152604080832093909416825291909152205460ff1690565b34801561081557600080fd5b5061033c61082436600461247b565b6115d3565b34801561083557600080fd5b5061033c61084436600461241c565b61164c565b34801561085557600080fd5b5061033c61086436600461241c565b611659565b60006001600160e01b031982166380ac58cd60e01b148061089a57506001600160e01b03198216635b5e139f60e01b145b806108b557506301ffc9a760e01b6001600160e01b03198316145b92915050565b6060600280546108ca90612725565b80601f01602080910402602001604051908101604052809291908181526020018280546108f690612725565b80156109435780601f1061091857610100808354040283529160200191610943565b820191906000526020600020905b81548152906001019060200180831161092657829003601f168201915b5050505050905090565b600061095882611666565b610975576040516333d1c03960e21b815260040160405180910390fd5b506000908152600660205260409020546001600160a01b031690565b600061099c82610f81565b9050806001600160a01b0316836001600160a01b031614156109d15760405163250fdee360e21b815260040160405180910390fd5b336001600160a01b038216148015906109f157506109ef81336107db565b155b15610a0f576040516367d9dca160e11b815260040160405180910390fd5b610a1a838383611691565b505050565b610a276116ed565b601055565b610a346116ed565b601380546001600160a01b0319166001600160a01b0392909216919091179055565b6002600a541415610a825760405162461bcd60e51b8152600401610a7990612760565b60405180910390fd5b6002600a55600f548015801590610a9857508042115b610ab45760405162461bcd60e51b8152600401610a7990612797565b8484323314610ad55760405162461bcd60e51b8152600401610a79906127cf565b7f0000000000000000000000000000000000000000000000000000000000000000610b0d83610b076001546000540390565b90611747565b1115610b2b5760405162461bcd60e51b8152600401610a7990612809565b80610b3983610b0733611753565b1115610b575760405162461bcd60e51b8152600401610a7990612844565b7f0000000000000000000000000000000000000000000000000000000000000000610b8583610b0733611753565b1115610ba35760405162461bcd60e51b8152600401610a799061288f565b60008211610bc35760405162461bcd60e51b8152600401610a79906128e6565b600b548790610bd29082611781565b3414610bf05760405162461bcd60e51b8152600401610a7990612931565b60003411610c105760405162461bcd60e51b8152600401610a79906128e6565b86338787600c54610c8d838380806020026020016040519081016040528093929190818152602001838360200280828437600092019190915250506040516001600160601b031960608a901b166020820152603481018a905285925060540190505b6040516020818303038152906040528051906020012061178d565b610ca95760405162461bcd60e51b8152600401610a799061296a565b610cb3338e6117a3565b50506001600a555050505050505050505050565b610a1a8383836118c8565b610cda6116ed565b600c55565b610ce76116ed565b6002600a541415610d0a5760405162461bcd60e51b8152600401610a7990612760565b6002600a55610d1881611ab6565b506001600a55565b6002600a541415610d435760405162461bcd60e51b8152600401610a7990612760565b6002600a556010548015801590610d5957508042115b610d755760405162461bcd60e51b8152600401610a7990612797565b817f0000000000000000000000000000000000000000000000000000000000000000323314610db65760405162461bcd60e51b8152600401610a79906127cf565b7f0000000000000000000000000000000000000000000000000000000000000000610de883610b076001546000540390565b1115610e065760405162461bcd60e51b8152600401610a7990612809565b80610e1483610b0733611753565b1115610e325760405162461bcd60e51b8152600401610a7990612844565b7f0000000000000000000000000000000000000000000000000000000000000000610e6083610b0733611753565b1115610e7e5760405162461bcd60e51b8152600401610a799061288f565b60008211610e9e5760405162461bcd60e51b8152600401610a79906128e6565b600b548490610ead9082611781565b3414610ecb5760405162461bcd60e51b8152600401610a7990612931565b60003411610eeb5760405162461bcd60e51b8152600401610a79906128e6565b610ef533866117a3565b50506001600a55505050565b610f096116ed565b600e55565b610a1a838383604051806020016040528060008152506111bd565b610f316116ed565b600f55565b610f3e6116ed565b610f7d82828080601f016020809104026020016040519081016040528093929190818152602001838380828437600092019190915250611bed92505050565b5050565b6000610f8c82611c00565b5192915050565b6060601280546108ca90612725565b60006001600160a01b038216610fcb576040516323d3ad8160e21b815260040160405180910390fd5b506001600160a01b03166000908152600560205260409020546001600160401b031690565b610ff86116ed565b6110026000611d1a565b565b6060600380546108ca90612725565b6001600160a01b03821633141561103d5760405163b06307db60e01b815260040160405180910390fd5b3360008181526007602090815260408083206001600160a01b03871680855290835292819020805460ff191686151590811790915590519081529192917f17307eab39ab6107e8899845ad3d59bd9653f200f220920489ca2b5937696c31910160405180910390a35050565b60006110b482611666565b6110d15760405163963eb14f60e01b815260040160405180910390fd5b5060009081526011602052604090205490565b6110ec6116ed565b6002600a54141561110f5760405162461bcd60e51b8152600401610a7990612760565b6002600a55604051600090339047908381818185875af1925050503d8060008114611156576040519150601f19603f3d011682016040523d82523d6000602084013e61115b565b606091505b5050905080610d185760405162461bcd60e51b815260206004820152602f6024820152600080516020612b7183398151915260448201526e2d77697468647261772d6d6f6e657960881b6064820152608401610a79565b60006108b582611753565b6111c88484846118c8565b6001600160a01b0383163b151580156111ea57506111e884848484611d6c565b155b15611208576040516368d2bf6b60e11b815260040160405180910390fd5b50505050565b6112166116ed565b7f000000000000000000000000000000000000000000000000000000000000000061124882610b076001546000540390565b111561129e5760405162461bcd60e51b81526020600482015260316024820152600080516020612b718339815191526044820152702d70726f6d6f74696f6e2d737570706c7960781b6064820152608401610a79565b7f00000000000000000000000000000000000000000000000000000000000000006112c98282611e64565b1561131c5760405162461bcd60e51b815260206004820152602f6024820152600080516020612b7183398151915260448201526e2d62617463682d6d756c7469706c6560881b6064820152608401610a79565b60006113288383611e70565b905060005b818110156112085761133f33846117a3565b80611349816129bc565b91505061132d565b606061135c82611666565b61137957604051630a14c4b560e41b815260040160405180910390fd5b6000611383611e7c565b90508051600014156113a457604051806020016040528060008152506113cf565b806113ae84611e8b565b6040516020016113bf9291906129d7565b6040516020818303038152906040525b9392505050565b6002600a5414156113f95760405162461bcd60e51b8152600401610a7990612760565b6002600a55600e54801580159061140f57508042115b61142b5760405162461bcd60e51b8152600401610a7990612797565b848432331461144c5760405162461bcd60e51b8152600401610a79906127cf565b7f000000000000000000000000000000000000000000000000000000000000000061147e83610b076001546000540390565b111561149c5760405162461bcd60e51b8152600401610a7990612809565b806114aa83610b0733611753565b11156114c85760405162461bcd60e51b8152600401610a7990612844565b7f00000000000000000000000000000000000000000000000000000000000000006114f683610b0733611753565b11156115145760405162461bcd60e51b8152600401610a799061288f565b600082116115345760405162461bcd60e51b8152600401610a79906128e6565b85338686600d5461159a838380806020026020016040519081016040528093929190818152602001838360200280828437600092019190915250506040516001600160601b031960608a901b166020820152603481018a90528592506054019050610c72565b6115b65760405162461bcd60e51b8152600401610a799061296a565b6115c0338d6117a3565b50506001600a5550505050505050505050565b6115db6116ed565b6001600160a01b0381166116405760405162461bcd60e51b815260206004820152602660248201527f4f776e61626c653a206e6577206f776e657220697320746865207a65726f206160448201526564647265737360d01b6064820152608401610a79565b61164981611d1a565b50565b6116546116ed565b600b55565b6116616116ed565b600d55565b60008054821080156108b5575050600090815260046020526040902054600160e01b900460ff161590565b60008281526006602052604080822080546001600160a01b0319166001600160a01b0387811691821790925591518593918516917f8c5be1e5ebec7d5bd14f71427d1e84f3dd0314c0f7b2291e5b200ac8c7c3b92591a4505050565b6009546001600160a01b031633146110025760405162461bcd60e51b815260206004820181905260248201527f4f776e61626c653a2063616c6c6572206973206e6f7420746865206f776e65726044820152606401610a79565b60006113cf8284612a06565b6001600160a01b038116600090815260056020526040812054600160401b90046001600160401b03166108b5565b60006113cf8284612a1e565b60008261179a8584611f88565b14949350505050565b6117ad8282611fd5565b60006117bc6001546000540390565b905060006117ca8284611fef565b90506000836001600160401b038111156117e6576117e6612601565b60405190808252806020026020018201604052801561180f578160200160208202803683370190505b50905060005b8481101561187b5760006118298483611747565b9050600061183682611ffb565b90508084848151811061184b5761184b612a3d565b60209081029190910181019190915260009283526011905260409091205580611873816129bc565b915050611815565b50846001600160a01b03167f5cb27d2833c0b1f5f25192224a4f5c4573f3c2a9394c0a0a9a31c092e8879eb48486846040516118b993929190612a53565b60405180910390a25050505050565b60006118d382611c00565b9050836001600160a01b031681600001516001600160a01b03161461190a5760405162a1148160e81b815260040160405180910390fd5b6000336001600160a01b0386161480611928575061192885336107db565b806119435750336119388461094d565b6001600160a01b0316145b90508061196357604051632ce44b5f60e11b815260040160405180910390fd5b6001600160a01b03841661198a57604051633a954ecd60e21b815260040160405180910390fd5b61199660008487611691565b6001600160a01b038581166000908152600560209081526040808320805467ffffffffffffffff198082166001600160401b0392831660001901831617909255898616808652838620805493841693831660019081018416949094179055898652600490945282852080546001600160e01b031916909417600160a01b42909216919091021783558701808452922080549193909116611a6a576000548214611a6a57805460208601516001600160401b0316600160a01b026001600160e01b03199091166001600160a01b038a16171781555b50505082846001600160a01b0316866001600160a01b03167fddf252ad1be2c89b69c2b068fc378daa952ba7f163c4a11628f55a4df523b3ef60405160405180910390a45b5050505050565b80611ad4576040516356be441560e01b815260040160405180910390fd5b600054611af45760405163c0367cab60e01b815260040160405180910390fd5b60085480611b00575060005b6000548110611b22576040516370e89b1b60e01b815260040160405180910390fd5b6000548282016000198101911015611b3d5750600054600019015b815b818111611be2576000818152600460205260409020546001600160a01b0316158015611b815750600081815260046020526040902054600160e01b900460ff16155b15611bda576000611b9182611c00565b80516000848152600460209081526040909120805491909301516001600160401b0316600160a01b026001600160e01b03199091166001600160a01b0390921691909117179055505b600101611b3f565b506001016008555050565b8051610f7d9060129060208401906122e5565b604080516060810182526000808252602082018190529181019190915281600054811015611d0157600081815260046020908152604091829020825160608101845290546001600160a01b0381168252600160a01b81046001600160401b031692820192909252600160e01b90910460ff16151591810182905290611cff5780516001600160a01b031615611c96579392505050565b5060001901600081815260046020908152604091829020825160608101845290546001600160a01b038116808352600160a01b82046001600160401b031693830193909352600160e01b900460ff1615159281019290925215611cfa579392505050565b611c96565b505b604051636f96cda160e11b815260040160405180910390fd5b600980546001600160a01b038381166001600160a01b0319831681179093556040519116919082907f8be0079c531659141344cd1fd0a4f28419497f9722a3daafe3b4186f6b6457e090600090a35050565b604051630a85bd0160e11b81526000906001600160a01b0385169063150b7a0290611da1903390899088908890600401612aa8565b602060405180830381600087803b158015611dbb57600080fd5b505af1925050508015611deb575060408051601f3d908101601f19168201909252611de891810190612ae5565b60015b611e46573d808015611e19576040519150601f19603f3d011682016040523d82523d6000602084013e611e1e565b606091505b508051611e3e576040516368d2bf6b60e11b815260040160405180910390fd5b805181602001fd5b6001600160e01b031916630a85bd0160e11b1490505b949350505050565b60006113cf8284612b18565b60006113cf8284612b2c565b6060611e86610f93565b905090565b606081611eaf5750506040805180820190915260018152600360fc1b602082015290565b8160005b8115611ed95780611ec3816129bc565b9150611ed29050600a83612b2c565b9150611eb3565b6000816001600160401b03811115611ef357611ef3612601565b6040519080825280601f01601f191660200182016040528015611f1d576020820181803683370190505b5090505b8415611e5c57611f32600183612b40565b9150611f3f600a86612b18565b611f4a906030612a06565b60f81b818381518110611f5f57611f5f612a3d565b60200101906001600160f81b031916908160001a905350611f81600a86612b2c565b9450611f21565b600081815b8451811015611fcd57611fb982868381518110611fac57611fac612a3d565b60200260200101516120e3565b915080611fc5816129bc565b915050611f8d565b509392505050565b610f7d828260405180602001604052806000815250612112565b60006113cf8284612b40565b6000813261200a600143612b40565b601360009054906101000a90046001600160a01b03166001600160a01b0316631486a2766040518163ffffffff1660e01b815260040160206040518083038186803b15801561205857600080fd5b505afa15801561206c573d6000803e3d6000fd5b505050506040513d601f19601f820116820180604052508101906120909190612b57565b6040516020016120c6949392919093845260609290921b6001600160601b03191660208401526034830152605482015260740190565b604051602081830303815290604052805190602001209050919050565b60008183106120ff5760008281526020849052604090206113cf565b60008381526020839052604090206113cf565b610a1a83838360016000546001600160a01b03851661214357604051622e076360e81b815260040160405180910390fd5b836121615760405163b562e8dd60e01b815260040160405180910390fd5b6001600160a01b038516600081815260056020908152604080832080546fffffffffffffffffffffffffffffffff1981166001600160401b038083168c018116918217600160401b67ffffffffffffffff1990941690921783900481168c01811690920217909155858452600490925290912080546001600160e01b031916909217600160a01b42909216919091021790558080850183801561220d57506001600160a01b0387163b15155b15612296575b60405182906001600160a01b038916906000907fddf252ad1be2c89b69c2b068fc378daa952ba7f163c4a11628f55a4df523b3ef908290a461225e6000888480600101955088611d6c565b61227b576040516368d2bf6b60e11b815260040160405180910390fd5b8082141561221357826000541461229157600080fd5b6122dc565b5b6040516001830192906001600160a01b038916906000907fddf252ad1be2c89b69c2b068fc378daa952ba7f163c4a11628f55a4df523b3ef908290a480821415612297575b50600055611aaf565b8280546122f190612725565b90600052602060002090601f0160209004810192826123135760008555612359565b82601f1061232c57805160ff1916838001178555612359565b82800160010185558215612359579182015b8281111561235957825182559160200191906001019061233e565b50612365929150612369565b5090565b5b80821115612365576000815560010161236a565b6001600160e01b03198116811461164957600080fd5b6000602082840312156123a657600080fd5b81356113cf8161237e565b60005b838110156123cc5781810151838201526020016123b4565b838111156112085750506000910152565b600081518084526123f58160208601602086016123b1565b601f01601f19169290920160200192915050565b6020815260006113cf60208301846123dd565b60006020828403121561242e57600080fd5b5035919050565b80356001600160a01b038116811461244c57600080fd5b919050565b6000806040838503121561246457600080fd5b61246d83612435565b946020939093013593505050565b60006020828403121561248d57600080fd5b6113cf82612435565b600080600080606085870312156124ac57600080fd5b843593506020850135925060408501356001600160401b03808211156124d157600080fd5b818701915087601f8301126124e557600080fd5b8135818111156124f457600080fd5b8860208260051b850101111561250957600080fd5b95989497505060200194505050565b60008060006060848603121561252d57600080fd5b61253684612435565b925061254460208501612435565b9150604084013590509250925092565b6000806020838503121561256757600080fd5b82356001600160401b038082111561257e57600080fd5b818501915085601f83011261259257600080fd5b8135818111156125a157600080fd5b8660208285010111156125b357600080fd5b60209290920196919550909350505050565b600080604083850312156125d857600080fd5b6125e183612435565b9150602083013580151581146125f657600080fd5b809150509250929050565b634e487b7160e01b600052604160045260246000fd5b6000806000806080858703121561262d57600080fd5b61263685612435565b935061264460208601612435565b92506040850135915060608501356001600160401b038082111561266757600080fd5b818701915087601f83011261267b57600080fd5b81358181111561268d5761268d612601565b604051601f8201601f19908116603f011681019083821181831017156126b5576126b5612601565b816040528281528a60208487010111156126ce57600080fd5b82602086016020830137600060208483010152809550505050505092959194509250565b6000806040838503121561270557600080fd5b61270e83612435565b915061271c60208401612435565b90509250929050565b600181811c9082168061273957607f821691505b6020821081141561275a57634e487b7160e01b600052602260045260246000fd5b50919050565b6020808252601f908201527f5265656e7472616e637947756172643a207265656e7472616e742063616c6c00604082015260600190565b6020808252602a90820152600080516020612b718339815191526040820152692d6d696e742d74696d6560b01b606082015260800190565b6020808252602c90820152600080516020612b7183398151915260408201526b16b6b4b73a16b1b0b63632b960a11b606082015260800190565b6020808252602d90820152600080516020612b7183398151915260408201526c2d746f74616c2d737570706c7960981b606082015260800190565b6020808252603a90820152600080516020612b7183398151915260408201527f2d696e766f636174696f6e2d75707065722d626f756e64617279000000000000606082015260800190565b6020808252604390820152600080516020612b7183398151915260408201527f2d696e766f636174696f6e2d75707065722d626f756e646172792d6d61782d6d6060820152621a5b9d60ea1b608082015260a00190565b6020808252603a90820152600080516020612b7183398151915260408201527f2d696e766f636174696f6e2d6c6f7765722d626f756e64617279000000000000606082015260800190565b6020808252602b90820152600080516020612b7183398151915260408201526a2d6d696e742d76616c756560a81b606082015260800190565b6020808252602e90820152600080516020612b7183398151915260408201526d16b0b2323932b9b996b83937b7b360911b606082015260800190565b634e487b7160e01b600052601160045260246000fd5b60006000198214156129d0576129d06129a6565b5060010190565b600083516129e98184602088016123b1565b8351908301906129fd8183602088016123b1565b01949350505050565b60008219821115612a1957612a196129a6565b500190565b6000816000190483118215151615612a3857612a386129a6565b500290565b634e487b7160e01b600052603260045260246000fd5b6000606082018583526020858185015260606040850152818551808452608086019150828701935060005b81811015612a9a57845183529383019391830191600101612a7e565b509098975050505050505050565b6001600160a01b0385811682528416602082015260408101839052608060608201819052600090612adb908301846123dd565b9695505050505050565b600060208284031215612af757600080fd5b81516113cf8161237e565b634e487b7160e01b600052601260045260246000fd5b600082612b2757612b27612b02565b500690565b600082612b3b57612b3b612b02565b500490565b600082821015612b5257612b526129a6565b500390565b600060208284031215612b6957600080fd5b505191905056fe456c657661746543726561746f7247656e657261746976652f696e76616c6964a2646970667358221220659ba21d68a04e32fbf26f3ce31b51ff449ce247b332484e5814ccee8b5fb6db64736f6c63430008090033456c657661746543726561746f7247656e657261746976652f696e76616c6964",
  "linkReferences": {},
  "deployedLinkReferences": {}
}