{
  "_format": "hh-sol-artifact-1",
  "contractName": "ElevateCreatorGenerative",
  "sourceName": "contracts/ElevateCreatorGenerative.sol",
  "abi": [
    {
      "inputs": [
        {
          "internalType": "string",
          "name": "_name",
          "type": "string"
        },
        {
          "internalType": "string",
          "name": "_symbol",
          "type": "string"
        },
        {
          "internalType": "address",
          "name": "_randomizerContract",
          "type": "address"
        },
        {
          "internalType": "uint256",
          "name": "_collectionSize",
          "type": "uint256"
        },
        {
          "internalType": "uint256",
          "name": "_maxMintPerAddress",
          "type": "uint256"
        },
        {
          "internalType": "uint256",
          "name": "_amountForPromotion",
          "type": "uint256"
        },
        {
          "internalType": "uint256",
          "name": "_mintPrice",
          "type": "uint256"
        },
        {
          "internalType": "uint256",
          "name": "_claimTime",
          "type": "uint256"
        },
        {
          "internalType": "uint256",
          "name": "_presaleTime",
          "type": "uint256"
        },
        {
          "internalType": "uint256",
          "name": "_publicTime",
          "type": "uint256"
        }
      ],
      "stateMutability": "nonpayable",
      "type": "constructor"
    },
    {
      "inputs": [],
      "name": "AllOwnershipsHaveBeenSet",
      "type": "error"
    },
    {
      "inputs": [],
      "name": "ApprovalCallerNotOwnerNorApproved",
      "type": "error"
    },
    {
      "inputs": [],
      "name": "ApprovalQueryForNonexistentToken",
      "type": "error"
    },
    {
      "inputs": [],
      "name": "ApprovalToCurrentOwner",
      "type": "error"
    },
    {
      "inputs": [],
      "name": "ApproveToCaller",
      "type": "error"
    },
    {
      "inputs": [],
      "name": "BalanceQueryForZeroAddress",
      "type": "error"
    },
    {
      "inputs": [],
      "name": "HashQueryForNonexistentToken",
      "type": "error"
    },
    {
      "inputs": [],
      "name": "MintToZeroAddress",
      "type": "error"
    },
    {
      "inputs": [],
      "name": "MintZeroQuantity",
      "type": "error"
    },
    {
      "inputs": [],
      "name": "NoTokensMintedYet",
      "type": "error"
    },
    {
      "inputs": [],
      "name": "OwnerQueryForNonexistentToken",
      "type": "error"
    },
    {
      "inputs": [],
      "name": "QuantityMustBeNonZero",
      "type": "error"
    },
    {
      "inputs": [],
      "name": "TransferCallerNotOwnerNorApproved",
      "type": "error"
    },
    {
      "inputs": [],
      "name": "TransferFromIncorrectOwner",
      "type": "error"
    },
    {
      "inputs": [],
      "name": "TransferToNonERC721ReceiverImplementer",
      "type": "error"
    },
    {
      "inputs": [],
      "name": "TransferToZeroAddress",
      "type": "error"
    },
    {
      "inputs": [],
      "name": "URIQueryForNonexistentToken",
      "type": "error"
    },
    {
      "anonymous": false,
      "inputs": [
        {
          "indexed": true,
          "internalType": "address",
          "name": "owner",
          "type": "address"
        },
        {
          "indexed": true,
          "internalType": "address",
          "name": "approved",
          "type": "address"
        },
        {
          "indexed": true,
          "internalType": "uint256",
          "name": "tokenId",
          "type": "uint256"
        }
      ],
      "name": "Approval",
      "type": "event"
    },
    {
      "anonymous": false,
      "inputs": [
        {
          "indexed": true,
          "internalType": "address",
          "name": "owner",
          "type": "address"
        },
        {
          "indexed": true,
          "internalType": "address",
          "name": "operator",
          "type": "address"
        },
        {
          "indexed": false,
          "internalType": "bool",
          "name": "approved",
          "type": "bool"
        }
      ],
      "name": "ApprovalForAll",
      "type": "event"
    },
    {
      "anonymous": false,
      "inputs": [
        {
          "indexed": true,
          "internalType": "address",
          "name": "to",
          "type": "address"
        },
        {
          "indexed": false,
          "internalType": "uint256",
          "name": "currentTotalSupply",
          "type": "uint256"
        },
        {
          "indexed": false,
          "internalType": "uint256",
          "name": "invocations",
          "type": "uint256"
        },
        {
          "indexed": false,
          "internalType": "bytes32[]",
          "name": "identifiers",
          "type": "bytes32[]"
        }
      ],
      "name": "Created",
      "type": "event"
    },
    {
      "anonymous": false,
      "inputs": [
        {
          "indexed": true,
          "internalType": "address",
          "name": "previousOwner",
          "type": "address"
        },
        {
          "indexed": true,
          "internalType": "address",
          "name": "newOwner",
          "type": "address"
        }
      ],
      "name": "OwnershipTransferred",
      "type": "event"
    },
    {
      "anonymous": false,
      "inputs": [
        {
          "indexed": true,
          "internalType": "address",
          "name": "from",
          "type": "address"
        },
        {
          "indexed": true,
          "internalType": "address",
          "name": "to",
          "type": "address"
        },
        {
          "indexed": true,
          "internalType": "uint256",
          "name": "tokenId",
          "type": "uint256"
        }
      ],
      "name": "Transfer",
      "type": "event"
    },
    {
      "inputs": [],
      "name": "amountForPromotion",
      "outputs": [
        {
          "internalType": "uint256",
          "name": "",
          "type": "uint256"
        }
      ],
      "stateMutability": "view",
      "type": "function"
    },
    {
      "inputs": [
        {
          "internalType": "address",
          "name": "to",
          "type": "address"
        },
        {
          "internalType": "uint256",
          "name": "tokenId",
          "type": "uint256"
        }
      ],
      "name": "approve",
      "outputs": [],
      "stateMutability": "nonpayable",
      "type": "function"
    },
    {
      "inputs": [
        {
          "internalType": "address",
          "name": "owner",
          "type": "address"
        }
      ],
      "name": "balanceOf",
      "outputs": [
        {
          "internalType": "uint256",
          "name": "",
          "type": "uint256"
        }
      ],
      "stateMutability": "view",
      "type": "function"
    },
    {
      "inputs": [],
      "name": "baseURI",
      "outputs": [
        {
          "internalType": "string",
          "name": "",
          "type": "string"
        }
      ],
      "stateMutability": "view",
      "type": "function"
    },
    {
      "inputs": [],
      "name": "claimMerkleRoot",
      "outputs": [
        {
          "internalType": "bytes32",
          "name": "",
          "type": "bytes32"
        }
      ],
      "stateMutability": "view",
      "type": "function"
    },
    {
      "inputs": [
        {
          "internalType": "uint256",
          "name": "invocations",
          "type": "uint256"
        },
        {
          "internalType": "uint256",
          "name": "maxInvocation",
          "type": "uint256"
        },
        {
          "internalType": "bytes32[]",
          "name": "proof",
          "type": "bytes32[]"
        }
      ],
      "name": "claimMint",
      "outputs": [],
      "stateMutability": "nonpayable",
      "type": "function"
    },
    {
      "inputs": [],
      "name": "claimTime",
      "outputs": [
        {
          "internalType": "uint256",
          "name": "",
          "type": "uint256"
        }
      ],
      "stateMutability": "view",
      "type": "function"
    },
    {
      "inputs": [],
      "name": "collectionSize",
      "outputs": [
        {
          "internalType": "uint256",
          "name": "",
          "type": "uint256"
        }
      ],
      "stateMutability": "view",
      "type": "function"
    },
    {
      "inputs": [
        {
          "internalType": "uint256",
          "name": "tokenId",
          "type": "uint256"
        }
      ],
      "name": "getApproved",
      "outputs": [
        {
          "internalType": "address",
          "name": "",
          "type": "address"
        }
      ],
      "stateMutability": "view",
      "type": "function"
    },
    {
      "inputs": [
        {
          "internalType": "address",
          "name": "owner",
          "type": "address"
        },
        {
          "internalType": "address",
          "name": "operator",
          "type": "address"
        }
      ],
      "name": "isApprovedForAll",
      "outputs": [
        {
          "internalType": "bool",
          "name": "",
          "type": "bool"
        }
      ],
      "stateMutability": "view",
      "type": "function"
    },
    {
      "inputs": [],
      "name": "maxMintPerAddress",
      "outputs": [
        {
          "internalType": "uint256",
          "name": "",
          "type": "uint256"
        }
      ],
      "stateMutability": "view",
      "type": "function"
    },
    {
      "inputs": [
        {
          "internalType": "address",
          "name": "_owner",
          "type": "address"
        }
      ],
      "name": "mintOf",
      "outputs": [
        {
          "internalType": "uint256",
          "name": "",
          "type": "uint256"
        }
      ],
      "stateMutability": "view",
      "type": "function"
    },
    {
      "inputs": [],
      "name": "mintPrice",
      "outputs": [
        {
          "internalType": "uint256",
          "name": "",
          "type": "uint256"
        }
      ],
      "stateMutability": "view",
      "type": "function"
    },
    {
      "inputs": [],
      "name": "mintRandomizerContract",
      "outputs": [
        {
          "internalType": "contract IRandomizer",
          "name": "",
          "type": "address"
        }
      ],
      "stateMutability": "view",
      "type": "function"
    },
    {
      "inputs": [],
      "name": "name",
      "outputs": [
        {
          "internalType": "string",
          "name": "",
          "type": "string"
        }
      ],
      "stateMutability": "view",
      "type": "function"
    },
    {
      "inputs": [],
      "name": "nextOwnerToExplicitlySet",
      "outputs": [
        {
          "internalType": "uint256",
          "name": "",
          "type": "uint256"
        }
      ],
      "stateMutability": "view",
      "type": "function"
    },
    {
      "inputs": [],
      "name": "owner",
      "outputs": [
        {
          "internalType": "address",
          "name": "",
          "type": "address"
        }
      ],
      "stateMutability": "view",
      "type": "function"
    },
    {
      "inputs": [
        {
          "internalType": "uint256",
          "name": "tokenId",
          "type": "uint256"
        }
      ],
      "name": "ownerOf",
      "outputs": [
        {
          "internalType": "address",
          "name": "",
          "type": "address"
        }
      ],
      "stateMutability": "view",
      "type": "function"
    },
    {
      "inputs": [],
      "name": "presaleMerkleRoot",
      "outputs": [
        {
          "internalType": "bytes32",
          "name": "",
          "type": "bytes32"
        }
      ],
      "stateMutability": "view",
      "type": "function"
    },
    {
      "inputs": [
        {
          "internalType": "uint256",
          "name": "invocations",
          "type": "uint256"
        },
        {
          "internalType": "uint256",
          "name": "maxInvocation",
          "type": "uint256"
        },
        {
          "internalType": "bytes32[]",
          "name": "proof",
          "type": "bytes32[]"
        }
      ],
      "name": "presaleMint",
      "outputs": [],
      "stateMutability": "payable",
      "type": "function"
    },
    {
      "inputs": [],
      "name": "presaleTime",
      "outputs": [
        {
          "internalType": "uint256",
          "name": "",
          "type": "uint256"
        }
      ],
      "stateMutability": "view",
      "type": "function"
    },
    {
      "inputs": [
        {
          "internalType": "uint256",
          "name": "invocations",
          "type": "uint256"
        }
      ],
      "name": "promotionMint",
      "outputs": [],
      "stateMutability": "nonpayable",
      "type": "function"
    },
    {
      "inputs": [
        {
          "internalType": "uint256",
          "name": "invocations",
          "type": "uint256"
        }
      ],
      "name": "publicMint",
      "outputs": [],
      "stateMutability": "payable",
      "type": "function"
    },
    {
      "inputs": [],
      "name": "publicTime",
      "outputs": [
        {
          "internalType": "uint256",
          "name": "",
          "type": "uint256"
        }
      ],
      "stateMutability": "view",
      "type": "function"
    },
    {
      "inputs": [],
      "name": "renounceOwnership",
      "outputs": [],
      "stateMutability": "nonpayable",
      "type": "function"
    },
    {
      "inputs": [
        {
          "internalType": "address",
          "name": "from",
          "type": "address"
        },
        {
          "internalType": "address",
          "name": "to",
          "type": "address"
        },
        {
          "internalType": "uint256",
          "name": "tokenId",
          "type": "uint256"
        }
      ],
      "name": "safeTransferFrom",
      "outputs": [],
      "stateMutability": "nonpayable",
      "type": "function"
    },
    {
      "inputs": [
        {
          "internalType": "address",
          "name": "from",
          "type": "address"
        },
        {
          "internalType": "address",
          "name": "to",
          "type": "address"
        },
        {
          "internalType": "uint256",
          "name": "tokenId",
          "type": "uint256"
        },
        {
          "internalType": "bytes",
          "name": "_data",
          "type": "bytes"
        }
      ],
      "name": "safeTransferFrom",
      "outputs": [],
      "stateMutability": "nonpayable",
      "type": "function"
    },
    {
      "inputs": [
        {
          "internalType": "address",
          "name": "operator",
          "type": "address"
        },
        {
          "internalType": "bool",
          "name": "approved",
          "type": "bool"
        }
      ],
      "name": "setApprovalForAll",
      "outputs": [],
      "stateMutability": "nonpayable",
      "type": "function"
    },
    {
      "inputs": [
        {
          "internalType": "string",
          "name": "newBaseURI",
          "type": "string"
        }
      ],
      "name": "setBaseURI",
      "outputs": [],
      "stateMutability": "nonpayable",
      "type": "function"
    },
    {
      "inputs": [
        {
          "internalType": "bytes32",
          "name": "_claimMerkleRoot",
          "type": "bytes32"
        }
      ],
      "name": "setClaimMerkleRoot",
      "outputs": [],
      "stateMutability": "nonpayable",
      "type": "function"
    },
    {
      "inputs": [
        {
          "internalType": "uint256",
          "name": "_claimTime",
          "type": "uint256"
        }
      ],
      "name": "setClaimTime",
      "outputs": [],
      "stateMutability": "nonpayable",
      "type": "function"
    },
    {
      "inputs": [
        {
          "internalType": "address",
          "name": "_mintRandomizerContract",
          "type": "address"
        }
      ],
      "name": "setMintRandomizerContract",
      "outputs": [],
      "stateMutability": "nonpayable",
      "type": "function"
    },
    {
      "inputs": [
        {
          "internalType": "uint256",
          "name": "quantity",
          "type": "uint256"
        }
      ],
      "name": "setOwnersExplicit",
      "outputs": [],
      "stateMutability": "nonpayable",
      "type": "function"
    },
    {
      "inputs": [
        {
          "internalType": "bytes32",
          "name": "_presaleMerkleRoot",
          "type": "bytes32"
        }
      ],
      "name": "setPresaleMerkleRoot",
      "outputs": [],
      "stateMutability": "nonpayable",
      "type": "function"
    },
    {
      "inputs": [
        {
          "internalType": "uint256",
          "name": "_presaleTime",
          "type": "uint256"
        }
      ],
      "name": "setPresaleTime",
      "outputs": [],
      "stateMutability": "nonpayable",
      "type": "function"
    },
    {
      "inputs": [
        {
          "internalType": "uint256",
          "name": "_publicTime",
          "type": "uint256"
        }
      ],
      "name": "setPublicTime",
      "outputs": [],
      "stateMutability": "nonpayable",
      "type": "function"
    },
    {
      "inputs": [
        {
          "internalType": "bytes4",
          "name": "interfaceId",
          "type": "bytes4"
        }
      ],
      "name": "supportsInterface",
      "outputs": [
        {
          "internalType": "bool",
          "name": "",
          "type": "bool"
        }
      ],
      "stateMutability": "view",
      "type": "function"
    },
    {
      "inputs": [],
      "name": "symbol",
      "outputs": [
        {
          "internalType": "string",
          "name": "",
          "type": "string"
        }
      ],
      "stateMutability": "view",
      "type": "function"
    },
    {
      "inputs": [
        {
          "internalType": "uint256",
          "name": "_tokenId",
          "type": "uint256"
        }
      ],
      "name": "tokenHash",
      "outputs": [
        {
          "internalType": "bytes32",
          "name": "",
          "type": "bytes32"
        }
      ],
      "stateMutability": "view",
      "type": "function"
    },
    {
      "inputs": [
        {
          "internalType": "uint256",
          "name": "tokenId",
          "type": "uint256"
        }
      ],
      "name": "tokenURI",
      "outputs": [
        {
          "internalType": "string",
          "name": "",
          "type": "string"
        }
      ],
      "stateMutability": "view",
      "type": "function"
    },
    {
      "inputs": [],
      "name": "totalSupply",
      "outputs": [
        {
          "internalType": "uint256",
          "name": "",
          "type": "uint256"
        }
      ],
      "stateMutability": "view",
      "type": "function"
    },
    {
      "inputs": [
        {
          "internalType": "address",
          "name": "from",
          "type": "address"
        },
        {
          "internalType": "address",
          "name": "to",
          "type": "address"
        },
        {
          "internalType": "uint256",
          "name": "tokenId",
          "type": "uint256"
        }
      ],
      "name": "transferFrom",
      "outputs": [],
      "stateMutability": "nonpayable",
      "type": "function"
    },
    {
      "inputs": [
        {
          "internalType": "address",
          "name": "newOwner",
          "type": "address"
        }
      ],
      "name": "transferOwnership",
      "outputs": [],
      "stateMutability": "nonpayable",
      "type": "function"
    },
    {
      "inputs": [],
      "name": "version",
      "outputs": [
        {
          "internalType": "string",
          "name": "",
          "type": "string"
        }
      ],
      "stateMutability": "view",
      "type": "function"
    },
    {
      "inputs": [],
      "name": "withdrawMoney",
      "outputs": [],
      "stateMutability": "nonpayable",
      "type": "function"
    }
  ],
  "bytecode": "0x6101006040523480156200001257600080fd5b5060405162003245380380620032458339810160408190526200003591620004c6565b89518a908a906200004e90600290602085019062000336565b5080516200006490600390602084019062000336565b50506000805550620000763362000259565b6001600a5586620000d65760405162461bcd60e51b815260206004820152603060248201526000805160206200322583398151915260448201526f2d636f6c6c656374696f6e2d73697a6560801b60648201526084015b60405180910390fd5b86851115620001315760405162461bcd60e51b81526020600482015260316024820152600080516020620032258339815191526044820152700b5c1c9bdb5bdd1a5bdb8b585b5bdd5b9d607a1b6064820152608401620000cd565b60008411620001865760405162461bcd60e51b815260206004820152602b60248201526000805160206200322583398151915260448201526a2d6d696e742d707269636560a81b6064820152608401620000cd565b6001600160a01b038816620001f35760405162461bcd60e51b815260206004820152603360248201526000805160206200322583398151915260448201527f2d72616e646f6d697a65722d61646472657373000000000000000000000000006064820152608401620000cd565b60e087905260a0869052608085905260c08490526200021283620002ab565b6200021d82620002ba565b6200022881620002c9565b5050601280546001600160a01b0319166001600160a01b03979097169690961790955550620005c595505050505050565b600980546001600160a01b038381166001600160a01b0319831681179093556040519116919082907f8be0079c531659141344cd1fd0a4f28419497f9722a3daafe3b4186f6b6457e090600090a35050565b620002b5620002d8565b600d55565b620002c4620002d8565b600e55565b620002d3620002d8565b600f55565b6009546001600160a01b03163314620003345760405162461bcd60e51b815260206004820181905260248201527f4f776e61626c653a2063616c6c6572206973206e6f7420746865206f776e65726044820152606401620000cd565b565b828054620003449062000588565b90600052602060002090601f016020900481019282620003685760008555620003b3565b82601f106200038357805160ff1916838001178555620003b3565b82800160010185558215620003b3579182015b82811115620003b357825182559160200191906001019062000396565b50620003c1929150620003c5565b5090565b5b80821115620003c15760008155600101620003c6565b634e487b7160e01b600052604160045260246000fd5b600082601f8301126200040457600080fd5b81516001600160401b0380821115620004215762000421620003dc565b604051601f8301601f19908116603f011681019082821181831017156200044c576200044c620003dc565b816040528381526020925086838588010111156200046957600080fd5b600091505b838210156200048d57858201830151818301840152908201906200046e565b838211156200049f5760008385830101525b9695505050505050565b80516001600160a01b0381168114620004c157600080fd5b919050565b6000806000806000806000806000806101408b8d031215620004e757600080fd5b8a516001600160401b0380821115620004ff57600080fd5b6200050d8e838f01620003f2565b9b5060208d01519150808211156200052457600080fd5b50620005338d828e01620003f2565b9950506200054460408c01620004a9565b975060608b0151965060808b0151955060a08b0151945060c08b0151935060e08b015192506101008b015191506101208b015190509295989b9194979a5092959850565b600181811c908216806200059d57607f821691505b60208210811415620005bf57634e487b7160e01b600052602260045260246000fd5b50919050565b60805160a05160c05160e051612bd96200064c600039600081816104a501528181610abf01528181610dbc015261146e01526000818161059e01528181610bb10152610ea801526000818161054a01528181610b4101528181610d7c01528181610e38015281816112c001526114ea01526000818161061c01526112380152612bd96000f3fe6080604052600436106102725760003560e01c80636352211e1161014f578063a3864397116100c1578063c87b56dd1161007a578063c87b56dd14610772578063d7224ba014610792578063e7d51611146107a8578063e985e9c5146107c8578063f2fde38b14610811578063fd1e29621461083157600080fd5b8063a3864397146106c7578063ac446002146106e7578063b1f536fa146106fc578063b88d4fde1461071c578063ba2f59c81461073c578063c6e62e0b1461075c57600080fd5b806376972db21161011357806376972db21461060a5780638da5cb5b1461063e57806395d89b411461065c578063993670f2146106715780639c4dab5214610691578063a22cb465146106a757600080fd5b80636352211e1461056c5780636817c76c1461058c5780636c0360eb146105c057806370a08231146105d5578063715018a6146105f557600080fd5b806327b3bf11116101e857806342842e0e116101ac57806342842e0e1461047357806345c0f5331461049357806348ce8584146104c757806354fd4d50146104e757806355f804b314610518578063572849c41461053857600080fd5b806327b3bf11146103ea57806328d7b276146104005780632d20fb60146104205780632db1154414610440578063421cc3371461045357600080fd5b806317ccc54b1161023a57806317ccc54b1461034857806318160ddd146103685780631b59169d1461038b5780631bdc608e1461039e57806322212e2b146103b457806323b872dd146103ca57600080fd5b806301ffc9a71461027757806306fdde03146102ac578063081812fc146102ce578063095ea7b314610306578063150c5c2614610328575b600080fd5b34801561028357600080fd5b506102976102923660046123a7565b610851565b60405190151581526020015b60405180910390f35b3480156102b857600080fd5b506102c16108a3565b6040516102a3919061241c565b3480156102da57600080fd5b506102ee6102e936600461242f565b610935565b6040516001600160a01b0390911681526020016102a3565b34801561031257600080fd5b50610326610321366004612464565b610979565b005b34801561033457600080fd5b5061032661034336600461242f565b610a07565b34801561035457600080fd5b5061032661036336600461248e565b610a14565b34801561037457600080fd5b50600154600054035b6040519081526020016102a3565b6103266103993660046124a9565b610a3e565b3480156103aa57600080fd5b5061037d600f5481565b3480156103c057600080fd5b5061037d600b5481565b3480156103d657600080fd5b506103266103e536600461252b565b610ccb565b3480156103f657600080fd5b5061037d600d5481565b34801561040c57600080fd5b5061032661041b36600461242f565b610cd6565b34801561042c57600080fd5b5061032661043b36600461242f565b610ce3565b61032661044e36600461242f565b610d24565b34801561045f57600080fd5b5061032661046e36600461242f565b610f21565b34801561047f57600080fd5b5061032661048e36600461252b565b610f2e565b34801561049f57600080fd5b5061037d7f000000000000000000000000000000000000000000000000000000000000000081565b3480156104d357600080fd5b506103266104e236600461242f565b610f49565b3480156104f357600080fd5b506102c1604051806040016040528060058152602001640312e302e360dc1b81525081565b34801561052457600080fd5b50610326610533366004612567565b610f56565b34801561054457600080fd5b5061037d7f000000000000000000000000000000000000000000000000000000000000000081565b34801561057857600080fd5b506102ee61058736600461242f565b610fa1565b34801561059857600080fd5b5061037d7f000000000000000000000000000000000000000000000000000000000000000081565b3480156105cc57600080fd5b506102c1610fb3565b3480156105e157600080fd5b5061037d6105f036600461248e565b610fc2565b34801561060157600080fd5b50610326611010565b34801561061657600080fd5b5061037d7f000000000000000000000000000000000000000000000000000000000000000081565b34801561064a57600080fd5b506009546001600160a01b03166102ee565b34801561066857600080fd5b506102c1611024565b34801561067d57600080fd5b506012546102ee906001600160a01b031681565b34801561069d57600080fd5b5061037d600c5481565b3480156106b357600080fd5b506103266106c23660046125d8565b611033565b3480156106d357600080fd5b5061037d6106e236600461242f565b6110c9565b3480156106f357600080fd5b50610326611104565b34801561070857600080fd5b5061037d61071736600461248e565b6111d2565b34801561072857600080fd5b5061032661073736600461262a565b6111dd565b34801561074857600080fd5b5061032661075736600461242f565b61122e565b34801561076857600080fd5b5061037d600e5481565b34801561077e57600080fd5b506102c161078d36600461242f565b611371565b34801561079e57600080fd5b5061037d60085481565b3480156107b457600080fd5b506103266107c33660046124a9565b6113f6565b3480156107d457600080fd5b506102976107e3366004612705565b6001600160a01b03918216600090815260076020908152604080832093909416825291909152205460ff1690565b34801561081d57600080fd5b5061032661082c36600461248e565b6115f3565b34801561083d57600080fd5b5061032661084c36600461242f565b61166c565b60006001600160e01b031982166380ac58cd60e01b148061088257506001600160e01b03198216635b5e139f60e01b145b8061089d57506301ffc9a760e01b6001600160e01b03198316145b92915050565b6060600280546108b290612738565b80601f01602080910402602001604051908101604052809291908181526020018280546108de90612738565b801561092b5780601f106109005761010080835404028352916020019161092b565b820191906000526020600020905b81548152906001019060200180831161090e57829003601f168201915b5050505050905090565b600061094082611679565b61095d576040516333d1c03960e21b815260040160405180910390fd5b506000908152600660205260409020546001600160a01b031690565b600061098482610fa1565b9050806001600160a01b0316836001600160a01b031614156109b95760405163250fdee360e21b815260040160405180910390fd5b336001600160a01b038216148015906109d957506109d781336107e3565b155b156109f7576040516367d9dca160e11b815260040160405180910390fd5b610a028383836116a4565b505050565b610a0f611700565b600f55565b610a1c611700565b601280546001600160a01b0319166001600160a01b0392909216919091179055565b6002600a541415610a6a5760405162461bcd60e51b8152600401610a6190612773565b60405180910390fd5b6002600a55600e548015801590610a8057508042115b610a9c5760405162461bcd60e51b8152600401610a61906127aa565b8484323314610abd5760405162461bcd60e51b8152600401610a61906127e2565b7f0000000000000000000000000000000000000000000000000000000000000000610af583610aef6001546000540390565b9061175a565b1115610b135760405162461bcd60e51b8152600401610a619061281c565b80610b2183610aef33611766565b1115610b3f5760405162461bcd60e51b8152600401610a6190612857565b7f0000000000000000000000000000000000000000000000000000000000000000610b6d83610aef33611766565b1115610b8b5760405162461bcd60e51b8152600401610a61906128a2565b60008211610bab5760405162461bcd60e51b8152600401610a61906128f9565b86610bd67f000000000000000000000000000000000000000000000000000000000000000082611794565b3414610bf45760405162461bcd60e51b8152600401610a6190612944565b60003411610c145760405162461bcd60e51b8152600401610a61906128f9565b86338787600b54610c91838380806020026020016040519081016040528093929190818152602001838360200280828437600092019190915250506040516001600160601b031960608a901b166020820152603481018a905285925060540190505b604051602081830303815290604052805190602001206117a0565b610cad5760405162461bcd60e51b8152600401610a619061297d565b610cb7338e6117b6565b50506001600a555050505050505050505050565b610a028383836118db565b610cde611700565b600b55565b610ceb611700565b6002600a541415610d0e5760405162461bcd60e51b8152600401610a6190612773565b6002600a55610d1c81611ac9565b506001600a55565b6002600a541415610d475760405162461bcd60e51b8152600401610a6190612773565b6002600a55600f548015801590610d5d57508042115b610d795760405162461bcd60e51b8152600401610a61906127aa565b817f0000000000000000000000000000000000000000000000000000000000000000323314610dba5760405162461bcd60e51b8152600401610a61906127e2565b7f0000000000000000000000000000000000000000000000000000000000000000610dec83610aef6001546000540390565b1115610e0a5760405162461bcd60e51b8152600401610a619061281c565b80610e1883610aef33611766565b1115610e365760405162461bcd60e51b8152600401610a6190612857565b7f0000000000000000000000000000000000000000000000000000000000000000610e6483610aef33611766565b1115610e825760405162461bcd60e51b8152600401610a61906128a2565b60008211610ea25760405162461bcd60e51b8152600401610a61906128f9565b83610ecd7f000000000000000000000000000000000000000000000000000000000000000082611794565b3414610eeb5760405162461bcd60e51b8152600401610a6190612944565b60003411610f0b5760405162461bcd60e51b8152600401610a61906128f9565b610f1533866117b6565b50506001600a55505050565b610f29611700565b600d55565b610a02838383604051806020016040528060008152506111dd565b610f51611700565b600e55565b610f5e611700565b610f9d82828080601f016020809104026020016040519081016040528093929190818152602001838380828437600092019190915250611c0092505050565b5050565b6000610fac82611c13565b5192915050565b6060601180546108b290612738565b60006001600160a01b038216610feb576040516323d3ad8160e21b815260040160405180910390fd5b506001600160a01b03166000908152600560205260409020546001600160401b031690565b611018611700565b6110226000611d2d565b565b6060600380546108b290612738565b6001600160a01b03821633141561105d5760405163b06307db60e01b815260040160405180910390fd5b3360008181526007602090815260408083206001600160a01b03871680855290835292819020805460ff191686151590811790915590519081529192917f17307eab39ab6107e8899845ad3d59bd9653f200f220920489ca2b5937696c31910160405180910390a35050565b60006110d482611679565b6110f15760405163963eb14f60e01b815260040160405180910390fd5b5060009081526010602052604090205490565b61110c611700565b6002600a54141561112f5760405162461bcd60e51b8152600401610a6190612773565b6002600a55604051600090339047908381818185875af1925050503d8060008114611176576040519150601f19603f3d011682016040523d82523d6000602084013e61117b565b606091505b5050905080610d1c5760405162461bcd60e51b815260206004820152602f6024820152600080516020612b8483398151915260448201526e2d77697468647261772d6d6f6e657960881b6064820152608401610a61565b600061089d82611766565b6111e88484846118db565b6001600160a01b0383163b1515801561120a575061120884848484611d7f565b155b15611228576040516368d2bf6b60e11b815260040160405180910390fd5b50505050565b611236611700565b7f000000000000000000000000000000000000000000000000000000000000000061126882610aef6001546000540390565b11156112be5760405162461bcd60e51b81526020600482015260316024820152600080516020612b848339815191526044820152702d70726f6d6f74696f6e2d737570706c7960781b6064820152608401610a61565b7f00000000000000000000000000000000000000000000000000000000000000006112e98282611e77565b1561133c5760405162461bcd60e51b815260206004820152602f6024820152600080516020612b8483398151915260448201526e2d62617463682d6d756c7469706c6560881b6064820152608401610a61565b60006113488383611e83565b905060005b818110156112285761135f33846117b6565b80611369816129cf565b91505061134d565b606061137c82611679565b61139957604051630a14c4b560e41b815260040160405180910390fd5b60006113a3611e8f565b90508051600014156113c457604051806020016040528060008152506113ef565b806113ce84611e9e565b6040516020016113df9291906129ea565b6040516020818303038152906040525b9392505050565b6002600a5414156114195760405162461bcd60e51b8152600401610a6190612773565b6002600a55600d54801580159061142f57508042115b61144b5760405162461bcd60e51b8152600401610a61906127aa565b848432331461146c5760405162461bcd60e51b8152600401610a61906127e2565b7f000000000000000000000000000000000000000000000000000000000000000061149e83610aef6001546000540390565b11156114bc5760405162461bcd60e51b8152600401610a619061281c565b806114ca83610aef33611766565b11156114e85760405162461bcd60e51b8152600401610a6190612857565b7f000000000000000000000000000000000000000000000000000000000000000061151683610aef33611766565b11156115345760405162461bcd60e51b8152600401610a61906128a2565b600082116115545760405162461bcd60e51b8152600401610a61906128f9565b85338686600c546115ba838380806020026020016040519081016040528093929190818152602001838360200280828437600092019190915250506040516001600160601b031960608a901b166020820152603481018a90528592506054019050610c76565b6115d65760405162461bcd60e51b8152600401610a619061297d565b6115e0338d6117b6565b50506001600a5550505050505050505050565b6115fb611700565b6001600160a01b0381166116605760405162461bcd60e51b815260206004820152602660248201527f4f776e61626c653a206e6577206f776e657220697320746865207a65726f206160448201526564647265737360d01b6064820152608401610a61565b61166981611d2d565b50565b611674611700565b600c55565b600080548210801561089d575050600090815260046020526040902054600160e01b900460ff161590565b60008281526006602052604080822080546001600160a01b0319166001600160a01b0387811691821790925591518593918516917f8c5be1e5ebec7d5bd14f71427d1e84f3dd0314c0f7b2291e5b200ac8c7c3b92591a4505050565b6009546001600160a01b031633146110225760405162461bcd60e51b815260206004820181905260248201527f4f776e61626c653a2063616c6c6572206973206e6f7420746865206f776e65726044820152606401610a61565b60006113ef8284612a19565b6001600160a01b038116600090815260056020526040812054600160401b90046001600160401b031661089d565b60006113ef8284612a31565b6000826117ad8584611f9b565b14949350505050565b6117c08282611fe8565b60006117cf6001546000540390565b905060006117dd8284612002565b90506000836001600160401b038111156117f9576117f9612614565b604051908082528060200260200182016040528015611822578160200160208202803683370190505b50905060005b8481101561188e57600061183c848361175a565b905060006118498261200e565b90508084848151811061185e5761185e612a50565b60209081029190910181019190915260009283526010905260409091205580611886816129cf565b915050611828565b50846001600160a01b03167f5cb27d2833c0b1f5f25192224a4f5c4573f3c2a9394c0a0a9a31c092e8879eb48486846040516118cc93929190612a66565b60405180910390a25050505050565b60006118e682611c13565b9050836001600160a01b031681600001516001600160a01b03161461191d5760405162a1148160e81b815260040160405180910390fd5b6000336001600160a01b038616148061193b575061193b85336107e3565b8061195657503361194b84610935565b6001600160a01b0316145b90508061197657604051632ce44b5f60e11b815260040160405180910390fd5b6001600160a01b03841661199d57604051633a954ecd60e21b815260040160405180910390fd5b6119a9600084876116a4565b6001600160a01b038581166000908152600560209081526040808320805467ffffffffffffffff198082166001600160401b0392831660001901831617909255898616808652838620805493841693831660019081018416949094179055898652600490945282852080546001600160e01b031916909417600160a01b42909216919091021783558701808452922080549193909116611a7d576000548214611a7d57805460208601516001600160401b0316600160a01b026001600160e01b03199091166001600160a01b038a16171781555b50505082846001600160a01b0316866001600160a01b03167fddf252ad1be2c89b69c2b068fc378daa952ba7f163c4a11628f55a4df523b3ef60405160405180910390a45b5050505050565b80611ae7576040516356be441560e01b815260040160405180910390fd5b600054611b075760405163c0367cab60e01b815260040160405180910390fd5b60085480611b13575060005b6000548110611b35576040516370e89b1b60e01b815260040160405180910390fd5b6000548282016000198101911015611b505750600054600019015b815b818111611bf5576000818152600460205260409020546001600160a01b0316158015611b945750600081815260046020526040902054600160e01b900460ff16155b15611bed576000611ba482611c13565b80516000848152600460209081526040909120805491909301516001600160401b0316600160a01b026001600160e01b03199091166001600160a01b0390921691909117179055505b600101611b52565b506001016008555050565b8051610f9d9060119060208401906122f8565b604080516060810182526000808252602082018190529181019190915281600054811015611d1457600081815260046020908152604091829020825160608101845290546001600160a01b0381168252600160a01b81046001600160401b031692820192909252600160e01b90910460ff16151591810182905290611d125780516001600160a01b031615611ca9579392505050565b5060001901600081815260046020908152604091829020825160608101845290546001600160a01b038116808352600160a01b82046001600160401b031693830193909352600160e01b900460ff1615159281019290925215611d0d579392505050565b611ca9565b505b604051636f96cda160e11b815260040160405180910390fd5b600980546001600160a01b038381166001600160a01b0319831681179093556040519116919082907f8be0079c531659141344cd1fd0a4f28419497f9722a3daafe3b4186f6b6457e090600090a35050565b604051630a85bd0160e11b81526000906001600160a01b0385169063150b7a0290611db4903390899088908890600401612abb565b602060405180830381600087803b158015611dce57600080fd5b505af1925050508015611dfe575060408051601f3d908101601f19168201909252611dfb91810190612af8565b60015b611e59573d808015611e2c576040519150601f19603f3d011682016040523d82523d6000602084013e611e31565b606091505b508051611e51576040516368d2bf6b60e11b815260040160405180910390fd5b805181602001fd5b6001600160e01b031916630a85bd0160e11b1490505b949350505050565b60006113ef8284612b2b565b60006113ef8284612b3f565b6060611e99610fb3565b905090565b606081611ec25750506040805180820190915260018152600360fc1b602082015290565b8160005b8115611eec5780611ed6816129cf565b9150611ee59050600a83612b3f565b9150611ec6565b6000816001600160401b03811115611f0657611f06612614565b6040519080825280601f01601f191660200182016040528015611f30576020820181803683370190505b5090505b8415611e6f57611f45600183612b53565b9150611f52600a86612b2b565b611f5d906030612a19565b60f81b818381518110611f7257611f72612a50565b60200101906001600160f81b031916908160001a905350611f94600a86612b3f565b9450611f34565b600081815b8451811015611fe057611fcc82868381518110611fbf57611fbf612a50565b60200260200101516120f6565b915080611fd8816129cf565b915050611fa0565b509392505050565b610f9d828260405180602001604052806000815250612125565b60006113ef8284612b53565b6000813261201d600143612b53565b601260009054906101000a90046001600160a01b03166001600160a01b0316631486a2766040518163ffffffff1660e01b815260040160206040518083038186803b15801561206b57600080fd5b505afa15801561207f573d6000803e3d6000fd5b505050506040513d601f19601f820116820180604052508101906120a39190612b6a565b6040516020016120d9949392919093845260609290921b6001600160601b03191660208401526034830152605482015260740190565b604051602081830303815290604052805190602001209050919050565b60008183106121125760008281526020849052604090206113ef565b60008381526020839052604090206113ef565b610a0283838360016000546001600160a01b03851661215657604051622e076360e81b815260040160405180910390fd5b836121745760405163b562e8dd60e01b815260040160405180910390fd5b6001600160a01b038516600081815260056020908152604080832080546fffffffffffffffffffffffffffffffff1981166001600160401b038083168c018116918217600160401b67ffffffffffffffff1990941690921783900481168c01811690920217909155858452600490925290912080546001600160e01b031916909217600160a01b42909216919091021790558080850183801561222057506001600160a01b0387163b15155b156122a9575b60405182906001600160a01b038916906000907fddf252ad1be2c89b69c2b068fc378daa952ba7f163c4a11628f55a4df523b3ef908290a46122716000888480600101955088611d7f565b61228e576040516368d2bf6b60e11b815260040160405180910390fd5b808214156122265782600054146122a457600080fd5b6122ef565b5b6040516001830192906001600160a01b038916906000907fddf252ad1be2c89b69c2b068fc378daa952ba7f163c4a11628f55a4df523b3ef908290a4808214156122aa575b50600055611ac2565b82805461230490612738565b90600052602060002090601f016020900481019282612326576000855561236c565b82601f1061233f57805160ff191683800117855561236c565b8280016001018555821561236c579182015b8281111561236c578251825591602001919060010190612351565b5061237892915061237c565b5090565b5b80821115612378576000815560010161237d565b6001600160e01b03198116811461166957600080fd5b6000602082840312156123b957600080fd5b81356113ef81612391565b60005b838110156123df5781810151838201526020016123c7565b838111156112285750506000910152565b600081518084526124088160208601602086016123c4565b601f01601f19169290920160200192915050565b6020815260006113ef60208301846123f0565b60006020828403121561244157600080fd5b5035919050565b80356001600160a01b038116811461245f57600080fd5b919050565b6000806040838503121561247757600080fd5b61248083612448565b946020939093013593505050565b6000602082840312156124a057600080fd5b6113ef82612448565b600080600080606085870312156124bf57600080fd5b843593506020850135925060408501356001600160401b03808211156124e457600080fd5b818701915087601f8301126124f857600080fd5b81358181111561250757600080fd5b8860208260051b850101111561251c57600080fd5b95989497505060200194505050565b60008060006060848603121561254057600080fd5b61254984612448565b925061255760208501612448565b9150604084013590509250925092565b6000806020838503121561257a57600080fd5b82356001600160401b038082111561259157600080fd5b818501915085601f8301126125a557600080fd5b8135818111156125b457600080fd5b8660208285010111156125c657600080fd5b60209290920196919550909350505050565b600080604083850312156125eb57600080fd5b6125f483612448565b91506020830135801515811461260957600080fd5b809150509250929050565b634e487b7160e01b600052604160045260246000fd5b6000806000806080858703121561264057600080fd5b61264985612448565b935061265760208601612448565b92506040850135915060608501356001600160401b038082111561267a57600080fd5b818701915087601f83011261268e57600080fd5b8135818111156126a0576126a0612614565b604051601f8201601f19908116603f011681019083821181831017156126c8576126c8612614565b816040528281528a60208487010111156126e157600080fd5b82602086016020830137600060208483010152809550505050505092959194509250565b6000806040838503121561271857600080fd5b61272183612448565b915061272f60208401612448565b90509250929050565b600181811c9082168061274c57607f821691505b6020821081141561276d57634e487b7160e01b600052602260045260246000fd5b50919050565b6020808252601f908201527f5265656e7472616e637947756172643a207265656e7472616e742063616c6c00604082015260600190565b6020808252602a90820152600080516020612b848339815191526040820152692d6d696e742d74696d6560b01b606082015260800190565b6020808252602c90820152600080516020612b8483398151915260408201526b16b6b4b73a16b1b0b63632b960a11b606082015260800190565b6020808252602d90820152600080516020612b8483398151915260408201526c2d746f74616c2d737570706c7960981b606082015260800190565b6020808252603a90820152600080516020612b8483398151915260408201527f2d696e766f636174696f6e2d75707065722d626f756e64617279000000000000606082015260800190565b6020808252604390820152600080516020612b8483398151915260408201527f2d696e766f636174696f6e2d75707065722d626f756e646172792d6d61782d6d6060820152621a5b9d60ea1b608082015260a00190565b6020808252603a90820152600080516020612b8483398151915260408201527f2d696e766f636174696f6e2d6c6f7765722d626f756e64617279000000000000606082015260800190565b6020808252602b90820152600080516020612b8483398151915260408201526a2d6d696e742d76616c756560a81b606082015260800190565b6020808252602e90820152600080516020612b8483398151915260408201526d16b0b2323932b9b996b83937b7b360911b606082015260800190565b634e487b7160e01b600052601160045260246000fd5b60006000198214156129e3576129e36129b9565b5060010190565b600083516129fc8184602088016123c4565b835190830190612a108183602088016123c4565b01949350505050565b60008219821115612a2c57612a2c6129b9565b500190565b6000816000190483118215151615612a4b57612a4b6129b9565b500290565b634e487b7160e01b600052603260045260246000fd5b6000606082018583526020858185015260606040850152818551808452608086019150828701935060005b81811015612aad57845183529383019391830191600101612a91565b509098975050505050505050565b6001600160a01b0385811682528416602082015260408101839052608060608201819052600090612aee908301846123f0565b9695505050505050565b600060208284031215612b0a57600080fd5b81516113ef81612391565b634e487b7160e01b600052601260045260246000fd5b600082612b3a57612b3a612b15565b500690565b600082612b4e57612b4e612b15565b500490565b600082821015612b6557612b656129b9565b500390565b600060208284031215612b7c57600080fd5b505191905056fe456c657661746543726561746f7247656e657261746976652f696e76616c6964a26469706673582212205e0bc871e3ab48d379c603b0dc3f748ba8fecf5b8b89f119e1cb2b43c100247c64736f6c63430008090033456c657661746543726561746f7247656e657261746976652f696e76616c6964",
  "linkReferences": {},
  "deployedLinkReferences": {}
}