{
  "_format": "hh-sol-artifact-1",
  "contractName": "RhapsodyCreatorBasic",
  "sourceName": "contracts/RhapsodyCreatorBasic.sol",
  "abi": [
    {
      "inputs": [
        {
          "internalType": "string",
          "name": "_name",
          "type": "string"
        },
        {
          "internalType": "string",
          "name": "_symbol",
          "type": "string"
        },
        {
          "internalType": "uint256",
          "name": "_collectionSize",
          "type": "uint256"
        },
        {
          "internalType": "uint256",
          "name": "_maxMintPerAddress",
          "type": "uint256"
        },
        {
          "internalType": "uint256",
          "name": "_amountForPromotion",
          "type": "uint256"
        },
        {
          "internalType": "uint256",
          "name": "_mintPrice",
          "type": "uint256"
        },
        {
          "internalType": "uint256",
          "name": "_claimTime",
          "type": "uint256"
        },
        {
          "internalType": "uint256",
          "name": "_presaleTime",
          "type": "uint256"
        },
        {
          "internalType": "uint256",
          "name": "_publicTime",
          "type": "uint256"
        }
      ],
      "stateMutability": "nonpayable",
      "type": "constructor"
    },
    {
      "inputs": [],
      "name": "AllOwnershipsHaveBeenSet",
      "type": "error"
    },
    {
      "inputs": [],
      "name": "ApprovalCallerNotOwnerNorApproved",
      "type": "error"
    },
    {
      "inputs": [],
      "name": "ApprovalQueryForNonexistentToken",
      "type": "error"
    },
    {
      "inputs": [],
      "name": "ApprovalToCurrentOwner",
      "type": "error"
    },
    {
      "inputs": [],
      "name": "ApproveToCaller",
      "type": "error"
    },
    {
      "inputs": [],
      "name": "BalanceQueryForZeroAddress",
      "type": "error"
    },
    {
      "inputs": [],
      "name": "MintToZeroAddress",
      "type": "error"
    },
    {
      "inputs": [],
      "name": "MintZeroQuantity",
      "type": "error"
    },
    {
      "inputs": [],
      "name": "NoTokensMintedYet",
      "type": "error"
    },
    {
      "inputs": [],
      "name": "OwnerQueryForNonexistentToken",
      "type": "error"
    },
    {
      "inputs": [],
      "name": "QuantityMustBeNonZero",
      "type": "error"
    },
    {
      "inputs": [],
      "name": "TransferCallerNotOwnerNorApproved",
      "type": "error"
    },
    {
      "inputs": [],
      "name": "TransferFromIncorrectOwner",
      "type": "error"
    },
    {
      "inputs": [],
      "name": "TransferToNonERC721ReceiverImplementer",
      "type": "error"
    },
    {
      "inputs": [],
      "name": "TransferToZeroAddress",
      "type": "error"
    },
    {
      "inputs": [],
      "name": "URIQueryForNonexistentToken",
      "type": "error"
    },
    {
      "anonymous": false,
      "inputs": [
        {
          "indexed": true,
          "internalType": "address",
          "name": "owner",
          "type": "address"
        },
        {
          "indexed": true,
          "internalType": "address",
          "name": "approved",
          "type": "address"
        },
        {
          "indexed": true,
          "internalType": "uint256",
          "name": "tokenId",
          "type": "uint256"
        }
      ],
      "name": "Approval",
      "type": "event"
    },
    {
      "anonymous": false,
      "inputs": [
        {
          "indexed": true,
          "internalType": "address",
          "name": "owner",
          "type": "address"
        },
        {
          "indexed": true,
          "internalType": "address",
          "name": "operator",
          "type": "address"
        },
        {
          "indexed": false,
          "internalType": "bool",
          "name": "approved",
          "type": "bool"
        }
      ],
      "name": "ApprovalForAll",
      "type": "event"
    },
    {
      "anonymous": false,
      "inputs": [
        {
          "indexed": true,
          "internalType": "address",
          "name": "to",
          "type": "address"
        },
        {
          "indexed": false,
          "internalType": "uint256",
          "name": "amount",
          "type": "uint256"
        }
      ],
      "name": "Created",
      "type": "event"
    },
    {
      "anonymous": false,
      "inputs": [
        {
          "indexed": true,
          "internalType": "address",
          "name": "previousOwner",
          "type": "address"
        },
        {
          "indexed": true,
          "internalType": "address",
          "name": "newOwner",
          "type": "address"
        }
      ],
      "name": "OwnershipTransferred",
      "type": "event"
    },
    {
      "anonymous": false,
      "inputs": [
        {
          "indexed": true,
          "internalType": "address",
          "name": "from",
          "type": "address"
        },
        {
          "indexed": true,
          "internalType": "address",
          "name": "to",
          "type": "address"
        },
        {
          "indexed": true,
          "internalType": "uint256",
          "name": "tokenId",
          "type": "uint256"
        }
      ],
      "name": "Transfer",
      "type": "event"
    },
    {
      "inputs": [],
      "name": "amountForPromotion",
      "outputs": [
        {
          "internalType": "uint256",
          "name": "",
          "type": "uint256"
        }
      ],
      "stateMutability": "view",
      "type": "function"
    },
    {
      "inputs": [
        {
          "internalType": "address",
          "name": "to",
          "type": "address"
        },
        {
          "internalType": "uint256",
          "name": "tokenId",
          "type": "uint256"
        }
      ],
      "name": "approve",
      "outputs": [],
      "stateMutability": "nonpayable",
      "type": "function"
    },
    {
      "inputs": [
        {
          "internalType": "address",
          "name": "owner",
          "type": "address"
        }
      ],
      "name": "balanceOf",
      "outputs": [
        {
          "internalType": "uint256",
          "name": "",
          "type": "uint256"
        }
      ],
      "stateMutability": "view",
      "type": "function"
    },
    {
      "inputs": [],
      "name": "baseURI",
      "outputs": [
        {
          "internalType": "string",
          "name": "",
          "type": "string"
        }
      ],
      "stateMutability": "view",
      "type": "function"
    },
    {
      "inputs": [],
      "name": "claimMerkleRoot",
      "outputs": [
        {
          "internalType": "bytes32",
          "name": "",
          "type": "bytes32"
        }
      ],
      "stateMutability": "view",
      "type": "function"
    },
    {
      "inputs": [
        {
          "internalType": "uint256",
          "name": "invocations",
          "type": "uint256"
        },
        {
          "internalType": "uint256",
          "name": "maxInvocation",
          "type": "uint256"
        },
        {
          "internalType": "bytes32[]",
          "name": "proof",
          "type": "bytes32[]"
        }
      ],
      "name": "claimMint",
      "outputs": [],
      "stateMutability": "nonpayable",
      "type": "function"
    },
    {
      "inputs": [],
      "name": "claimTime",
      "outputs": [
        {
          "internalType": "uint256",
          "name": "",
          "type": "uint256"
        }
      ],
      "stateMutability": "view",
      "type": "function"
    },
    {
      "inputs": [],
      "name": "collectionSize",
      "outputs": [
        {
          "internalType": "uint256",
          "name": "",
          "type": "uint256"
        }
      ],
      "stateMutability": "view",
      "type": "function"
    },
    {
      "inputs": [
        {
          "internalType": "uint256",
          "name": "tokenId",
          "type": "uint256"
        }
      ],
      "name": "getApproved",
      "outputs": [
        {
          "internalType": "address",
          "name": "",
          "type": "address"
        }
      ],
      "stateMutability": "view",
      "type": "function"
    },
    {
      "inputs": [
        {
          "internalType": "address",
          "name": "owner",
          "type": "address"
        },
        {
          "internalType": "address",
          "name": "operator",
          "type": "address"
        }
      ],
      "name": "isApprovedForAll",
      "outputs": [
        {
          "internalType": "bool",
          "name": "",
          "type": "bool"
        }
      ],
      "stateMutability": "view",
      "type": "function"
    },
    {
      "inputs": [],
      "name": "maxMintPerAddress",
      "outputs": [
        {
          "internalType": "uint256",
          "name": "",
          "type": "uint256"
        }
      ],
      "stateMutability": "view",
      "type": "function"
    },
    {
      "inputs": [
        {
          "internalType": "address",
          "name": "_owner",
          "type": "address"
        }
      ],
      "name": "mintOf",
      "outputs": [
        {
          "internalType": "uint256",
          "name": "",
          "type": "uint256"
        }
      ],
      "stateMutability": "view",
      "type": "function"
    },
    {
      "inputs": [],
      "name": "mintPrice",
      "outputs": [
        {
          "internalType": "uint256",
          "name": "",
          "type": "uint256"
        }
      ],
      "stateMutability": "view",
      "type": "function"
    },
    {
      "inputs": [],
      "name": "name",
      "outputs": [
        {
          "internalType": "string",
          "name": "",
          "type": "string"
        }
      ],
      "stateMutability": "view",
      "type": "function"
    },
    {
      "inputs": [],
      "name": "nextOwnerToExplicitlySet",
      "outputs": [
        {
          "internalType": "uint256",
          "name": "",
          "type": "uint256"
        }
      ],
      "stateMutability": "view",
      "type": "function"
    },
    {
      "inputs": [],
      "name": "owner",
      "outputs": [
        {
          "internalType": "address",
          "name": "",
          "type": "address"
        }
      ],
      "stateMutability": "view",
      "type": "function"
    },
    {
      "inputs": [
        {
          "internalType": "uint256",
          "name": "tokenId",
          "type": "uint256"
        }
      ],
      "name": "ownerOf",
      "outputs": [
        {
          "internalType": "address",
          "name": "",
          "type": "address"
        }
      ],
      "stateMutability": "view",
      "type": "function"
    },
    {
      "inputs": [],
      "name": "presaleMerkleRoot",
      "outputs": [
        {
          "internalType": "bytes32",
          "name": "",
          "type": "bytes32"
        }
      ],
      "stateMutability": "view",
      "type": "function"
    },
    {
      "inputs": [
        {
          "internalType": "uint256",
          "name": "invocations",
          "type": "uint256"
        },
        {
          "internalType": "uint256",
          "name": "maxInvocation",
          "type": "uint256"
        },
        {
          "internalType": "bytes32[]",
          "name": "proof",
          "type": "bytes32[]"
        }
      ],
      "name": "presaleMint",
      "outputs": [],
      "stateMutability": "payable",
      "type": "function"
    },
    {
      "inputs": [],
      "name": "presaleTime",
      "outputs": [
        {
          "internalType": "uint256",
          "name": "",
          "type": "uint256"
        }
      ],
      "stateMutability": "view",
      "type": "function"
    },
    {
      "inputs": [
        {
          "internalType": "uint256",
          "name": "invocations",
          "type": "uint256"
        }
      ],
      "name": "promotionMint",
      "outputs": [],
      "stateMutability": "nonpayable",
      "type": "function"
    },
    {
      "inputs": [
        {
          "internalType": "uint256",
          "name": "invocations",
          "type": "uint256"
        }
      ],
      "name": "publicMint",
      "outputs": [],
      "stateMutability": "payable",
      "type": "function"
    },
    {
      "inputs": [],
      "name": "publicTime",
      "outputs": [
        {
          "internalType": "uint256",
          "name": "",
          "type": "uint256"
        }
      ],
      "stateMutability": "view",
      "type": "function"
    },
    {
      "inputs": [],
      "name": "renounceOwnership",
      "outputs": [],
      "stateMutability": "nonpayable",
      "type": "function"
    },
    {
      "inputs": [
        {
          "internalType": "address",
          "name": "from",
          "type": "address"
        },
        {
          "internalType": "address",
          "name": "to",
          "type": "address"
        },
        {
          "internalType": "uint256",
          "name": "tokenId",
          "type": "uint256"
        }
      ],
      "name": "safeTransferFrom",
      "outputs": [],
      "stateMutability": "nonpayable",
      "type": "function"
    },
    {
      "inputs": [
        {
          "internalType": "address",
          "name": "from",
          "type": "address"
        },
        {
          "internalType": "address",
          "name": "to",
          "type": "address"
        },
        {
          "internalType": "uint256",
          "name": "tokenId",
          "type": "uint256"
        },
        {
          "internalType": "bytes",
          "name": "_data",
          "type": "bytes"
        }
      ],
      "name": "safeTransferFrom",
      "outputs": [],
      "stateMutability": "nonpayable",
      "type": "function"
    },
    {
      "inputs": [
        {
          "internalType": "address",
          "name": "operator",
          "type": "address"
        },
        {
          "internalType": "bool",
          "name": "approved",
          "type": "bool"
        }
      ],
      "name": "setApprovalForAll",
      "outputs": [],
      "stateMutability": "nonpayable",
      "type": "function"
    },
    {
      "inputs": [
        {
          "internalType": "string",
          "name": "newBaseURI",
          "type": "string"
        }
      ],
      "name": "setBaseURI",
      "outputs": [],
      "stateMutability": "nonpayable",
      "type": "function"
    },
    {
      "inputs": [
        {
          "internalType": "bytes32",
          "name": "_claimMerkleRoot",
          "type": "bytes32"
        }
      ],
      "name": "setClaimMerkleRoot",
      "outputs": [],
      "stateMutability": "nonpayable",
      "type": "function"
    },
    {
      "inputs": [
        {
          "internalType": "uint256",
          "name": "_claimTime",
          "type": "uint256"
        }
      ],
      "name": "setClaimTime",
      "outputs": [],
      "stateMutability": "nonpayable",
      "type": "function"
    },
    {
      "inputs": [
        {
          "internalType": "uint256",
          "name": "quantity",
          "type": "uint256"
        }
      ],
      "name": "setOwnersExplicit",
      "outputs": [],
      "stateMutability": "nonpayable",
      "type": "function"
    },
    {
      "inputs": [
        {
          "internalType": "bytes32",
          "name": "_presaleMerkleRoot",
          "type": "bytes32"
        }
      ],
      "name": "setPresaleMerkleRoot",
      "outputs": [],
      "stateMutability": "nonpayable",
      "type": "function"
    },
    {
      "inputs": [
        {
          "internalType": "uint256",
          "name": "_presaleTime",
          "type": "uint256"
        }
      ],
      "name": "setPresaleTime",
      "outputs": [],
      "stateMutability": "nonpayable",
      "type": "function"
    },
    {
      "inputs": [
        {
          "internalType": "uint256",
          "name": "_publicTime",
          "type": "uint256"
        }
      ],
      "name": "setPublicTime",
      "outputs": [],
      "stateMutability": "nonpayable",
      "type": "function"
    },
    {
      "inputs": [
        {
          "internalType": "bytes4",
          "name": "interfaceId",
          "type": "bytes4"
        }
      ],
      "name": "supportsInterface",
      "outputs": [
        {
          "internalType": "bool",
          "name": "",
          "type": "bool"
        }
      ],
      "stateMutability": "view",
      "type": "function"
    },
    {
      "inputs": [],
      "name": "symbol",
      "outputs": [
        {
          "internalType": "string",
          "name": "",
          "type": "string"
        }
      ],
      "stateMutability": "view",
      "type": "function"
    },
    {
      "inputs": [
        {
          "internalType": "uint256",
          "name": "tokenId",
          "type": "uint256"
        }
      ],
      "name": "tokenURI",
      "outputs": [
        {
          "internalType": "string",
          "name": "",
          "type": "string"
        }
      ],
      "stateMutability": "view",
      "type": "function"
    },
    {
      "inputs": [],
      "name": "totalSupply",
      "outputs": [
        {
          "internalType": "uint256",
          "name": "",
          "type": "uint256"
        }
      ],
      "stateMutability": "view",
      "type": "function"
    },
    {
      "inputs": [
        {
          "internalType": "address",
          "name": "from",
          "type": "address"
        },
        {
          "internalType": "address",
          "name": "to",
          "type": "address"
        },
        {
          "internalType": "uint256",
          "name": "tokenId",
          "type": "uint256"
        }
      ],
      "name": "transferFrom",
      "outputs": [],
      "stateMutability": "nonpayable",
      "type": "function"
    },
    {
      "inputs": [
        {
          "internalType": "address",
          "name": "newOwner",
          "type": "address"
        }
      ],
      "name": "transferOwnership",
      "outputs": [],
      "stateMutability": "nonpayable",
      "type": "function"
    },
    {
      "inputs": [],
      "name": "version",
      "outputs": [
        {
          "internalType": "string",
          "name": "",
          "type": "string"
        }
      ],
      "stateMutability": "view",
      "type": "function"
    },
    {
      "inputs": [],
      "name": "withdrawMoney",
      "outputs": [],
      "stateMutability": "nonpayable",
      "type": "function"
    }
  ],
  "bytecode": "0x6101006040523480156200001257600080fd5b5060405162002e8038038062002e80833981016040819052620000359162000432565b8851899089906200004e906002906020850190620002bf565b50805162000064906003906020840190620002bf565b505060008055506200007633620001e2565b6001600a5586620000de5760405162461bcd60e51b815260206004820152602760248201527f52686170736f647943726561746f722f696e76616c69642d636f6c6c656374696044820152666f6e2d73697a6560c81b60648201526084015b60405180910390fd5b86851115620001415760405162461bcd60e51b815260206004820152602860248201527f52686170736f647943726561746f722f696e76616c69642d70726f6d6f74696f6044820152671b8b585b5bdd5b9d60c21b6064820152608401620000d5565b600084116200019e5760405162461bcd60e51b815260206004820152602260248201527f52686170736f647943726561746f722f696e76616c69642d6d696e742d707269604482015261636560f01b6064820152608401620000d5565b60e087905260a0869052608085905260c0849052620001bd8362000234565b620001c88262000243565b620001d38162000252565b5050505050505050506200051d565b600980546001600160a01b038381166001600160a01b0319831681179093556040519116919082907f8be0079c531659141344cd1fd0a4f28419497f9722a3daafe3b4186f6b6457e090600090a35050565b6200023e62000261565b600d55565b6200024d62000261565b600e55565b6200025c62000261565b600f55565b6009546001600160a01b03163314620002bd5760405162461bcd60e51b815260206004820181905260248201527f4f776e61626c653a2063616c6c6572206973206e6f7420746865206f776e65726044820152606401620000d5565b565b828054620002cd90620004e0565b90600052602060002090601f016020900481019282620002f157600085556200033c565b82601f106200030c57805160ff19168380011785556200033c565b828001600101855582156200033c579182015b828111156200033c5782518255916020019190600101906200031f565b506200034a9291506200034e565b5090565b5b808211156200034a57600081556001016200034f565b634e487b7160e01b600052604160045260246000fd5b600082601f8301126200038d57600080fd5b81516001600160401b0380821115620003aa57620003aa62000365565b604051601f8301601f19908116603f01168101908282118183101715620003d557620003d562000365565b81604052838152602092508683858801011115620003f257600080fd5b600091505b83821015620004165785820183015181830184015290820190620003f7565b83821115620004285760008385830101525b9695505050505050565b60008060008060008060008060006101208a8c0312156200045257600080fd5b89516001600160401b03808211156200046a57600080fd5b620004788d838e016200037b565b9a5060208c01519150808211156200048f57600080fd5b506200049e8c828d016200037b565b98505060408a0151965060608a0151955060808a0151945060a08a0151935060c08a0151925060e08a015191506101008a015190509295985092959850929598565b600181811c90821680620004f557607f821691505b602082108114156200051757634e487b7160e01b600052602260045260246000fd5b50919050565b60805160a05160c05160e0516128dc620005a46000396000818161046401528181610a1401528181610d1601526113e401526000818161055d01528181610b060152610e0201526000818161050901528181610a9601528181610cd601528181610d92015281816111f201526114600152600081816105db015261116101526128dc6000f3fe6080604052600436106102515760003560e01c80636352211e11610139578063ac446002116100b6578063c87b56dd1161007a578063c87b56dd146106f1578063d7224ba014610711578063e7d5161114610727578063e985e9c514610747578063f2fde38b14610790578063fd1e2962146107b057600080fd5b8063ac44600214610666578063b1f536fa1461067b578063b88d4fde1461069b578063ba2f59c8146106bb578063c6e62e0b146106db57600080fd5b806376972db2116100fd57806376972db2146105c95780638da5cb5b146105fd57806395d89b411461061b5780639c4dab5214610630578063a22cb4651461064657600080fd5b80636352211e1461052b5780636817c76c1461054b5780636c0360eb1461057f57806370a0823114610594578063715018a6146105b457600080fd5b806327b3bf11116101d257806342842e0e1161019657806342842e0e1461043257806345c0f5331461045257806348ce85841461048657806354fd4d50146104a657806355f804b3146104d7578063572849c4146104f757600080fd5b806327b3bf11146103a957806328d7b276146103bf5780632d20fb60146103df5780632db11544146103ff578063421cc3371461041257600080fd5b806318160ddd1161021957806318160ddd146103275780631b59169d1461034a5780631bdc608e1461035d57806322212e2b1461037357806323b872dd1461038957600080fd5b806301ffc9a71461025657806306fdde031461028b578063081812fc146102ad578063095ea7b3146102e5578063150c5c2614610307575b600080fd5b34801561026257600080fd5b50610276610271366004612167565b6107d0565b60405190151581526020015b60405180910390f35b34801561029757600080fd5b506102a0610822565b60405161028291906121dc565b3480156102b957600080fd5b506102cd6102c83660046121ef565b6108b4565b6040516001600160a01b039091168152602001610282565b3480156102f157600080fd5b50610305610300366004612224565b6108f8565b005b34801561031357600080fd5b506103056103223660046121ef565b610986565b34801561033357600080fd5b50600154600054035b604051908152602001610282565b61030561035836600461224e565b610993565b34801561036957600080fd5b5061033c600f5481565b34801561037f57600080fd5b5061033c600c5481565b34801561039557600080fd5b506103056103a43660046122d1565b610c25565b3480156103b557600080fd5b5061033c600d5481565b3480156103cb57600080fd5b506103056103da3660046121ef565b610c30565b3480156103eb57600080fd5b506103056103fa3660046121ef565b610c3d565b61030561040d3660046121ef565b610c7e565b34801561041e57600080fd5b5061030561042d3660046121ef565b610e7b565b34801561043e57600080fd5b5061030561044d3660046122d1565b610e88565b34801561045e57600080fd5b5061033c7f000000000000000000000000000000000000000000000000000000000000000081565b34801561049257600080fd5b506103056104a13660046121ef565b610ea3565b3480156104b257600080fd5b506102a0604051806040016040528060058152602001640312e302e360dc1b81525081565b3480156104e357600080fd5b506103056104f236600461230d565b610eb0565b34801561050357600080fd5b5061033c7f000000000000000000000000000000000000000000000000000000000000000081565b34801561053757600080fd5b506102cd6105463660046121ef565b610efb565b34801561055757600080fd5b5061033c7f000000000000000000000000000000000000000000000000000000000000000081565b34801561058b57600080fd5b506102a0610f0d565b3480156105a057600080fd5b5061033c6105af36600461237f565b610f1c565b3480156105c057600080fd5b50610305610f6b565b3480156105d557600080fd5b5061033c7f000000000000000000000000000000000000000000000000000000000000000081565b34801561060957600080fd5b506009546001600160a01b03166102cd565b34801561062757600080fd5b506102a0610f7f565b34801561063c57600080fd5b5061033c600b5481565b34801561065257600080fd5b5061030561066136600461239a565b610f8e565b34801561067257600080fd5b50610305611024565b34801561068757600080fd5b5061033c61069636600461237f565b6110fb565b3480156106a757600080fd5b506103056106b63660046123ec565b611106565b3480156106c757600080fd5b506103056106d63660046121ef565b611157565b3480156106e757600080fd5b5061033c600e5481565b3480156106fd57600080fd5b506102a061070c3660046121ef565b6112e7565b34801561071d57600080fd5b5061033c60085481565b34801561073357600080fd5b5061030561074236600461224e565b61136c565b34801561075357600080fd5b506102766107623660046124c8565b6001600160a01b03918216600090815260076020908152604080832093909416825291909152205460ff1690565b34801561079c57600080fd5b506103056107ab36600461237f565b61156e565b3480156107bc57600080fd5b506103056107cb3660046121ef565b6115e7565b60006001600160e01b031982166380ac58cd60e01b148061080157506001600160e01b03198216635b5e139f60e01b145b8061081c57506301ffc9a760e01b6001600160e01b03198316145b92915050565b606060028054610831906124fb565b80601f016020809104026020016040519081016040528092919081815260200182805461085d906124fb565b80156108aa5780601f1061087f576101008083540402835291602001916108aa565b820191906000526020600020905b81548152906001019060200180831161088d57829003601f168201915b5050505050905090565b60006108bf826115f4565b6108dc576040516333d1c03960e21b815260040160405180910390fd5b506000908152600660205260409020546001600160a01b031690565b600061090382610efb565b9050806001600160a01b0316836001600160a01b031614156109385760405163250fdee360e21b815260040160405180910390fd5b336001600160a01b0382161480159061095857506109568133610762565b155b15610976576040516367d9dca160e11b815260040160405180910390fd5b61098183838361161f565b505050565b61098e61167b565b600f55565b6002600a5414156109bf5760405162461bcd60e51b81526004016109b690612536565b60405180910390fd5b6002600a55600e5480158015906109d557508042115b6109f15760405162461bcd60e51b81526004016109b69061256d565b8484323314610a125760405162461bcd60e51b81526004016109b6906125a6565b7f0000000000000000000000000000000000000000000000000000000000000000610a4a83610a446001546000540390565b906116d5565b1115610a685760405162461bcd60e51b81526004016109b6906125e1565b80610a7683610a44336116e1565b1115610a945760405162461bcd60e51b81526004016109b69061261d565b7f0000000000000000000000000000000000000000000000000000000000000000610ac283610a44336116e1565b1115610ae05760405162461bcd60e51b81526004016109b69061261d565b60008211610b005760405162461bcd60e51b81526004016109b690612668565b86610b2b7f000000000000000000000000000000000000000000000000000000000000000082611710565b3414610b495760405162461bcd60e51b81526004016109b6906126b3565b60003411610b695760405162461bcd60e51b81526004016109b690612668565b86338787600c54610beb838380806020026020016040519081016040528093929190818152602001838360200280828437600092019190915250506040516bffffffffffffffffffffffff1960608a901b166020820152603481018a905285925060540190505b6040516020818303038152906040528051906020012061171c565b610c075760405162461bcd60e51b81526004016109b6906126ed565b610c11338e611732565b50506001600a555050505050505050505050565b610981838383611783565b610c3861167b565b600c55565b610c4561167b565b6002600a541415610c685760405162461bcd60e51b81526004016109b690612536565b6002600a55610c7681611973565b506001600a55565b6002600a541415610ca15760405162461bcd60e51b81526004016109b690612536565b6002600a55600f548015801590610cb757508042115b610cd35760405162461bcd60e51b81526004016109b69061256d565b817f0000000000000000000000000000000000000000000000000000000000000000323314610d145760405162461bcd60e51b81526004016109b6906125a6565b7f0000000000000000000000000000000000000000000000000000000000000000610d4683610a446001546000540390565b1115610d645760405162461bcd60e51b81526004016109b6906125e1565b80610d7283610a44336116e1565b1115610d905760405162461bcd60e51b81526004016109b69061261d565b7f0000000000000000000000000000000000000000000000000000000000000000610dbe83610a44336116e1565b1115610ddc5760405162461bcd60e51b81526004016109b69061261d565b60008211610dfc5760405162461bcd60e51b81526004016109b690612668565b83610e277f000000000000000000000000000000000000000000000000000000000000000082611710565b3414610e455760405162461bcd60e51b81526004016109b6906126b3565b60003411610e655760405162461bcd60e51b81526004016109b690612668565b610e6f3386611732565b50506001600a55505050565b610e8361167b565b600d55565b61098183838360405180602001604052806000815250611106565b610eab61167b565b600e55565b610eb861167b565b610ef782828080601f016020809104026020016040519081016040528093929190818152602001838380828437600092019190915250611aab92505050565b5050565b6000610f0682611abe565b5192915050565b606060108054610831906124fb565b60006001600160a01b038216610f45576040516323d3ad8160e21b815260040160405180910390fd5b506001600160a01b031660009081526005602052604090205467ffffffffffffffff1690565b610f7361167b565b610f7d6000611bda565b565b606060038054610831906124fb565b6001600160a01b038216331415610fb85760405163b06307db60e01b815260040160405180910390fd5b3360008181526007602090815260408083206001600160a01b03871680855290835292819020805460ff191686151590811790915590519081529192917f17307eab39ab6107e8899845ad3d59bd9653f200f220920489ca2b5937696c31910160405180910390a35050565b61102c61167b565b6002600a54141561104f5760405162461bcd60e51b81526004016109b690612536565b6002600a55604051600090339047908381818185875af1925050503d8060008114611096576040519150601f19603f3d011682016040523d82523d6000602084013e61109b565b606091505b5050905080610c765760405162461bcd60e51b815260206004820152602660248201527f52686170736f647943726561746f722f696e76616c69642d77697468647261776044820152652d6d6f6e657960d01b60648201526084016109b6565b600061081c826116e1565b611111848484611783565b6001600160a01b0383163b15158015611133575061113184848484611c2c565b155b15611151576040516368d2bf6b60e11b815260040160405180910390fd5b50505050565b61115f61167b565b7f000000000000000000000000000000000000000000000000000000000000000061119182610a446001546000540390565b11156111f05760405162461bcd60e51b815260206004820152602860248201527f52686170736f647943726561746f722f696e76616c69642d70726f6d6f74696f6044820152676e2d737570706c7960c01b60648201526084016109b6565b7f000000000000000000000000000000000000000000000000000000000000000061121b8282611d24565b156112775760405162461bcd60e51b815260206004820152602660248201527f52686170736f647943726561746f722f696e76616c69642d62617463682d6d756044820152656c7469706c6560d01b60648201526084016109b6565b60006112838383611d30565b905060005b818110156112ac5761129a3384611d3c565b806112a481612740565b915050611288565b5060405183815233907f0ce3610e89a4bb9ec9359763f99110ed52a4abaea0b62028a1637e242ca2768b9060200160405180910390a2505050565b60606112f2826115f4565b61130f57604051630a14c4b560e41b815260040160405180910390fd5b6000611319611d56565b905080516000141561133a5760405180602001604052806000815250611365565b8061134484611d65565b60405160200161135592919061275b565b6040516020818303038152906040525b9392505050565b6002600a54141561138f5760405162461bcd60e51b81526004016109b690612536565b6002600a55600d5480158015906113a557508042115b6113c15760405162461bcd60e51b81526004016109b69061256d565b84843233146113e25760405162461bcd60e51b81526004016109b6906125a6565b7f000000000000000000000000000000000000000000000000000000000000000061141483610a446001546000540390565b11156114325760405162461bcd60e51b81526004016109b6906125e1565b8061144083610a44336116e1565b111561145e5760405162461bcd60e51b81526004016109b69061261d565b7f000000000000000000000000000000000000000000000000000000000000000061148c83610a44336116e1565b11156114aa5760405162461bcd60e51b81526004016109b69061261d565b600082116114ca5760405162461bcd60e51b81526004016109b690612668565b85338686600b54611535838380806020026020016040519081016040528093929190818152602001838360200280828437600092019190915250506040516bffffffffffffffffffffffff1960608a901b166020820152603481018a90528592506054019050610bd0565b6115515760405162461bcd60e51b81526004016109b6906126ed565b61155b338d611732565b50506001600a5550505050505050505050565b61157661167b565b6001600160a01b0381166115db5760405162461bcd60e51b815260206004820152602660248201527f4f776e61626c653a206e6577206f776e657220697320746865207a65726f206160448201526564647265737360d01b60648201526084016109b6565b6115e481611bda565b50565b6115ef61167b565b600b55565b600080548210801561081c575050600090815260046020526040902054600160e01b900460ff161590565b60008281526006602052604080822080546001600160a01b0319166001600160a01b0387811691821790925591518593918516917f8c5be1e5ebec7d5bd14f71427d1e84f3dd0314c0f7b2291e5b200ac8c7c3b92591a4505050565b6009546001600160a01b03163314610f7d5760405162461bcd60e51b815260206004820181905260248201527f4f776e61626c653a2063616c6c6572206973206e6f7420746865206f776e657260448201526064016109b6565b6000611365828461278a565b6001600160a01b038116600090815260056020526040812054600160401b900467ffffffffffffffff1661081c565b600061136582846127a2565b6000826117298584611e63565b14949350505050565b61173c8282611d3c565b816001600160a01b03167f0ce3610e89a4bb9ec9359763f99110ed52a4abaea0b62028a1637e242ca2768b8260405161177791815260200190565b60405180910390a25050565b600061178e82611abe565b9050836001600160a01b031681600001516001600160a01b0316146117c55760405162a1148160e81b815260040160405180910390fd5b6000336001600160a01b03861614806117e357506117e38533610762565b806117fe5750336117f3846108b4565b6001600160a01b0316145b90508061181e57604051632ce44b5f60e11b815260040160405180910390fd5b6001600160a01b03841661184557604051633a954ecd60e21b815260040160405180910390fd5b6118516000848761161f565b6001600160a01b038581166000908152600560209081526040808320805467ffffffffffffffff1980821667ffffffffffffffff92831660001901831617909255898616808652838620805493841693831660019081018416949094179055898652600490945282852080546001600160e01b031916909417600160a01b42909216919091021783558701808452922080549193909116611927576000548214611927578054602086015167ffffffffffffffff16600160a01b026001600160e01b03199091166001600160a01b038a16171781555b50505082846001600160a01b0316866001600160a01b03167fddf252ad1be2c89b69c2b068fc378daa952ba7f163c4a11628f55a4df523b3ef60405160405180910390a45b5050505050565b80611991576040516356be441560e01b815260040160405180910390fd5b6000546119b15760405163c0367cab60e01b815260040160405180910390fd5b600854806119bd575060005b60005481106119df576040516370e89b1b60e01b815260040160405180910390fd5b60005482820160001981019110156119fa5750600054600019015b815b818111611aa0576000818152600460205260409020546001600160a01b0316158015611a3e5750600081815260046020526040902054600160e01b900460ff16155b15611a98576000611a4e82611abe565b805160008481526004602090815260409091208054919093015167ffffffffffffffff16600160a01b026001600160e01b03199091166001600160a01b0390921691909117179055505b6001016119fc565b506001016008555050565b8051610ef79060109060208401906120b8565b604080516060810182526000808252602082018190529181019190915281600054811015611bc157600081815260046020908152604091829020825160608101845290546001600160a01b0381168252600160a01b810467ffffffffffffffff1692820192909252600160e01b90910460ff16151591810182905290611bbf5780516001600160a01b031615611b55579392505050565b5060001901600081815260046020908152604091829020825160608101845290546001600160a01b038116808352600160a01b820467ffffffffffffffff1693830193909352600160e01b900460ff1615159281019290925215611bba579392505050565b611b55565b505b604051636f96cda160e11b815260040160405180910390fd5b600980546001600160a01b038381166001600160a01b0319831681179093556040519116919082907f8be0079c531659141344cd1fd0a4f28419497f9722a3daafe3b4186f6b6457e090600090a35050565b604051630a85bd0160e11b81526000906001600160a01b0385169063150b7a0290611c619033908990889088906004016127c1565b602060405180830381600087803b158015611c7b57600080fd5b505af1925050508015611cab575060408051601f3d908101601f19168201909252611ca8918101906127fe565b60015b611d06573d808015611cd9576040519150601f19603f3d011682016040523d82523d6000602084013e611cde565b606091505b508051611cfe576040516368d2bf6b60e11b815260040160405180910390fd5b805181602001fd5b6001600160e01b031916630a85bd0160e11b1490505b949350505050565b60006113658284612831565b60006113658284612845565b610ef7828260405180602001604052806000815250611eb0565b6060611d60610f0d565b905090565b606081611d895750506040805180820190915260018152600360fc1b602082015290565b8160005b8115611db35780611d9d81612740565b9150611dac9050600a83612845565b9150611d8d565b60008167ffffffffffffffff811115611dce57611dce6123d6565b6040519080825280601f01601f191660200182016040528015611df8576020820181803683370190505b5090505b8415611d1c57611e0d600183612859565b9150611e1a600a86612831565b611e2590603061278a565b60f81b818381518110611e3a57611e3a612870565b60200101906001600160f81b031916908160001a905350611e5c600a86612845565b9450611dfc565b600081815b8451811015611ea857611e9482868381518110611e8757611e87612870565b6020026020010151611ebd565b915080611ea081612740565b915050611e68565b509392505050565b6109818383836001611eec565b6000818310611ed9576000828152602084905260409020611365565b6000838152602083905260409020611365565b6000546001600160a01b038516611f1557604051622e076360e81b815260040160405180910390fd5b83611f335760405163b562e8dd60e01b815260040160405180910390fd5b6001600160a01b038516600081815260056020908152604080832080546fffffffffffffffffffffffffffffffff19811667ffffffffffffffff8083168c018116918217600160401b67ffffffffffffffff1990941690921783900481168c01811690920217909155858452600490925290912080546001600160e01b031916909217600160a01b429092169190910217905580808501838015611fe057506001600160a01b0387163b15155b15612069575b60405182906001600160a01b038916906000907fddf252ad1be2c89b69c2b068fc378daa952ba7f163c4a11628f55a4df523b3ef908290a46120316000888480600101955088611c2c565b61204e576040516368d2bf6b60e11b815260040160405180910390fd5b80821415611fe657826000541461206457600080fd5b6120af565b5b6040516001830192906001600160a01b038916906000907fddf252ad1be2c89b69c2b068fc378daa952ba7f163c4a11628f55a4df523b3ef908290a48082141561206a575b5060005561196c565b8280546120c4906124fb565b90600052602060002090601f0160209004810192826120e6576000855561212c565b82601f106120ff57805160ff191683800117855561212c565b8280016001018555821561212c579182015b8281111561212c578251825591602001919060010190612111565b5061213892915061213c565b5090565b5b80821115612138576000815560010161213d565b6001600160e01b0319811681146115e457600080fd5b60006020828403121561217957600080fd5b813561136581612151565b60005b8381101561219f578181015183820152602001612187565b838111156111515750506000910152565b600081518084526121c8816020860160208601612184565b601f01601f19169290920160200192915050565b60208152600061136560208301846121b0565b60006020828403121561220157600080fd5b5035919050565b80356001600160a01b038116811461221f57600080fd5b919050565b6000806040838503121561223757600080fd5b61224083612208565b946020939093013593505050565b6000806000806060858703121561226457600080fd5b8435935060208501359250604085013567ffffffffffffffff8082111561228a57600080fd5b818701915087601f83011261229e57600080fd5b8135818111156122ad57600080fd5b8860208260051b85010111156122c257600080fd5b95989497505060200194505050565b6000806000606084860312156122e657600080fd5b6122ef84612208565b92506122fd60208501612208565b9150604084013590509250925092565b6000806020838503121561232057600080fd5b823567ffffffffffffffff8082111561233857600080fd5b818501915085601f83011261234c57600080fd5b81358181111561235b57600080fd5b86602082850101111561236d57600080fd5b60209290920196919550909350505050565b60006020828403121561239157600080fd5b61136582612208565b600080604083850312156123ad57600080fd5b6123b683612208565b9150602083013580151581146123cb57600080fd5b809150509250929050565b634e487b7160e01b600052604160045260246000fd5b6000806000806080858703121561240257600080fd5b61240b85612208565b935061241960208601612208565b925060408501359150606085013567ffffffffffffffff8082111561243d57600080fd5b818701915087601f83011261245157600080fd5b813581811115612463576124636123d6565b604051601f8201601f19908116603f0116810190838211818310171561248b5761248b6123d6565b816040528281528a60208487010111156124a457600080fd5b82602086016020830137600060208483010152809550505050505092959194509250565b600080604083850312156124db57600080fd5b6124e483612208565b91506124f260208401612208565b90509250929050565b600181811c9082168061250f57607f821691505b6020821081141561253057634e487b7160e01b600052602260045260246000fd5b50919050565b6020808252601f908201527f5265656e7472616e637947756172643a207265656e7472616e742063616c6c00604082015260600190565b6020808252602b9082015260008051602061288783398151915260408201526a642d6d696e742d74696d6560a81b606082015260800190565b6020808252602d9082015260008051602061288783398151915260408201526c3216b6b4b73a16b1b0b63632b960991b606082015260800190565b6020808252602e9082015260008051602061288783398151915260408201526d642d746f74616c2d737570706c7960901b606082015260800190565b6020808252603b9082015260008051602061288783398151915260408201527f642d696e766f636174696f6e2d75707065722d626f756e646172790000000000606082015260800190565b6020808252603b9082015260008051602061288783398151915260408201527f642d696e766f636174696f6e2d6c6f7765722d626f756e646172790000000000606082015260800190565b6020808252602c9082015260008051602061288783398151915260408201526b642d6d696e742d76616c756560a01b606082015260800190565b6020808252602f9082015260008051602061288783398151915260408201526e3216b0b2323932b9b996b83937b7b360891b606082015260800190565b634e487b7160e01b600052601160045260246000fd5b60006000198214156127545761275461272a565b5060010190565b6000835161276d818460208801612184565b835190830190612781818360208801612184565b01949350505050565b6000821982111561279d5761279d61272a565b500190565b60008160001904831182151516156127bc576127bc61272a565b500290565b6001600160a01b03858116825284166020820152604081018390526080606082018190526000906127f4908301846121b0565b9695505050505050565b60006020828403121561281057600080fd5b815161136581612151565b634e487b7160e01b600052601260045260246000fd5b6000826128405761284061281b565b500690565b6000826128545761285461281b565b500490565b60008282101561286b5761286b61272a565b500390565b634e487b7160e01b600052603260045260246000fdfe52686170736f647943726561746f7247656e657261746976652f696e76616c69a26469706673582212202ec3cde5792f8973ae064957487ee21e69d781b3bd0c2c97781b99e7f1bb55fd64736f6c63430008090033",
  "linkReferences": {},
  "deployedLinkReferences": {}
}