{
  "_format": "hh-sol-artifact-1",
  "contractName": "RhapsodyCreatorGenerative",
  "sourceName": "contracts/RhapsodyCreatorGenerative.sol",
  "abi": [
    {
      "inputs": [
        {
          "internalType": "string",
          "name": "_name",
          "type": "string"
        },
        {
          "internalType": "string",
          "name": "_symbol",
          "type": "string"
        },
        {
          "internalType": "address",
          "name": "_randomizerContract",
          "type": "address"
        },
        {
          "internalType": "uint256",
          "name": "_collectionSize",
          "type": "uint256"
        },
        {
          "internalType": "uint256",
          "name": "_maxMintPerAddress",
          "type": "uint256"
        },
        {
          "internalType": "uint256",
          "name": "_amountForPromotion",
          "type": "uint256"
        },
        {
          "internalType": "uint256",
          "name": "_mintPrice",
          "type": "uint256"
        },
        {
          "internalType": "uint256",
          "name": "_claimTime",
          "type": "uint256"
        },
        {
          "internalType": "uint256",
          "name": "_presaleTime",
          "type": "uint256"
        },
        {
          "internalType": "uint256",
          "name": "_publicTime",
          "type": "uint256"
        }
      ],
      "stateMutability": "nonpayable",
      "type": "constructor"
    },
    {
      "inputs": [],
      "name": "AllOwnershipsHaveBeenSet",
      "type": "error"
    },
    {
      "inputs": [],
      "name": "ApprovalCallerNotOwnerNorApproved",
      "type": "error"
    },
    {
      "inputs": [],
      "name": "ApprovalQueryForNonexistentToken",
      "type": "error"
    },
    {
      "inputs": [],
      "name": "ApprovalToCurrentOwner",
      "type": "error"
    },
    {
      "inputs": [],
      "name": "ApproveToCaller",
      "type": "error"
    },
    {
      "inputs": [],
      "name": "BalanceQueryForZeroAddress",
      "type": "error"
    },
    {
      "inputs": [],
      "name": "HashQueryForNonexistentToken",
      "type": "error"
    },
    {
      "inputs": [],
      "name": "MintToZeroAddress",
      "type": "error"
    },
    {
      "inputs": [],
      "name": "MintZeroQuantity",
      "type": "error"
    },
    {
      "inputs": [],
      "name": "NoTokensMintedYet",
      "type": "error"
    },
    {
      "inputs": [],
      "name": "OwnerQueryForNonexistentToken",
      "type": "error"
    },
    {
      "inputs": [],
      "name": "QuantityMustBeNonZero",
      "type": "error"
    },
    {
      "inputs": [],
      "name": "TransferCallerNotOwnerNorApproved",
      "type": "error"
    },
    {
      "inputs": [],
      "name": "TransferFromIncorrectOwner",
      "type": "error"
    },
    {
      "inputs": [],
      "name": "TransferToNonERC721ReceiverImplementer",
      "type": "error"
    },
    {
      "inputs": [],
      "name": "TransferToZeroAddress",
      "type": "error"
    },
    {
      "inputs": [],
      "name": "URIQueryForNonexistentToken",
      "type": "error"
    },
    {
      "anonymous": false,
      "inputs": [
        {
          "indexed": true,
          "internalType": "address",
          "name": "owner",
          "type": "address"
        },
        {
          "indexed": true,
          "internalType": "address",
          "name": "approved",
          "type": "address"
        },
        {
          "indexed": true,
          "internalType": "uint256",
          "name": "tokenId",
          "type": "uint256"
        }
      ],
      "name": "Approval",
      "type": "event"
    },
    {
      "anonymous": false,
      "inputs": [
        {
          "indexed": true,
          "internalType": "address",
          "name": "owner",
          "type": "address"
        },
        {
          "indexed": true,
          "internalType": "address",
          "name": "operator",
          "type": "address"
        },
        {
          "indexed": false,
          "internalType": "bool",
          "name": "approved",
          "type": "bool"
        }
      ],
      "name": "ApprovalForAll",
      "type": "event"
    },
    {
      "anonymous": false,
      "inputs": [
        {
          "indexed": true,
          "internalType": "address",
          "name": "to",
          "type": "address"
        },
        {
          "indexed": false,
          "internalType": "uint256",
          "name": "currentTotalSupply",
          "type": "uint256"
        },
        {
          "indexed": false,
          "internalType": "uint256",
          "name": "invocations",
          "type": "uint256"
        },
        {
          "indexed": false,
          "internalType": "bytes32[]",
          "name": "identifiers",
          "type": "bytes32[]"
        }
      ],
      "name": "Created",
      "type": "event"
    },
    {
      "anonymous": false,
      "inputs": [
        {
          "indexed": true,
          "internalType": "address",
          "name": "previousOwner",
          "type": "address"
        },
        {
          "indexed": true,
          "internalType": "address",
          "name": "newOwner",
          "type": "address"
        }
      ],
      "name": "OwnershipTransferred",
      "type": "event"
    },
    {
      "anonymous": false,
      "inputs": [
        {
          "indexed": true,
          "internalType": "address",
          "name": "from",
          "type": "address"
        },
        {
          "indexed": true,
          "internalType": "address",
          "name": "to",
          "type": "address"
        },
        {
          "indexed": true,
          "internalType": "uint256",
          "name": "tokenId",
          "type": "uint256"
        }
      ],
      "name": "Transfer",
      "type": "event"
    },
    {
      "inputs": [],
      "name": "amountForPromotion",
      "outputs": [
        {
          "internalType": "uint256",
          "name": "",
          "type": "uint256"
        }
      ],
      "stateMutability": "view",
      "type": "function"
    },
    {
      "inputs": [
        {
          "internalType": "address",
          "name": "to",
          "type": "address"
        },
        {
          "internalType": "uint256",
          "name": "tokenId",
          "type": "uint256"
        }
      ],
      "name": "approve",
      "outputs": [],
      "stateMutability": "nonpayable",
      "type": "function"
    },
    {
      "inputs": [
        {
          "internalType": "address",
          "name": "owner",
          "type": "address"
        }
      ],
      "name": "balanceOf",
      "outputs": [
        {
          "internalType": "uint256",
          "name": "",
          "type": "uint256"
        }
      ],
      "stateMutability": "view",
      "type": "function"
    },
    {
      "inputs": [],
      "name": "baseURI",
      "outputs": [
        {
          "internalType": "string",
          "name": "",
          "type": "string"
        }
      ],
      "stateMutability": "view",
      "type": "function"
    },
    {
      "inputs": [],
      "name": "claimMerkleRoot",
      "outputs": [
        {
          "internalType": "bytes32",
          "name": "",
          "type": "bytes32"
        }
      ],
      "stateMutability": "view",
      "type": "function"
    },
    {
      "inputs": [
        {
          "internalType": "uint256",
          "name": "invocations",
          "type": "uint256"
        },
        {
          "internalType": "uint256",
          "name": "maxInvocation",
          "type": "uint256"
        },
        {
          "internalType": "bytes32[]",
          "name": "proof",
          "type": "bytes32[]"
        }
      ],
      "name": "claimMint",
      "outputs": [],
      "stateMutability": "nonpayable",
      "type": "function"
    },
    {
      "inputs": [],
      "name": "claimTime",
      "outputs": [
        {
          "internalType": "uint256",
          "name": "",
          "type": "uint256"
        }
      ],
      "stateMutability": "view",
      "type": "function"
    },
    {
      "inputs": [],
      "name": "collectionSize",
      "outputs": [
        {
          "internalType": "uint256",
          "name": "",
          "type": "uint256"
        }
      ],
      "stateMutability": "view",
      "type": "function"
    },
    {
      "inputs": [
        {
          "internalType": "uint256",
          "name": "tokenId",
          "type": "uint256"
        }
      ],
      "name": "getApproved",
      "outputs": [
        {
          "internalType": "address",
          "name": "",
          "type": "address"
        }
      ],
      "stateMutability": "view",
      "type": "function"
    },
    {
      "inputs": [
        {
          "internalType": "address",
          "name": "owner",
          "type": "address"
        },
        {
          "internalType": "address",
          "name": "operator",
          "type": "address"
        }
      ],
      "name": "isApprovedForAll",
      "outputs": [
        {
          "internalType": "bool",
          "name": "",
          "type": "bool"
        }
      ],
      "stateMutability": "view",
      "type": "function"
    },
    {
      "inputs": [],
      "name": "maxMintPerAddress",
      "outputs": [
        {
          "internalType": "uint256",
          "name": "",
          "type": "uint256"
        }
      ],
      "stateMutability": "view",
      "type": "function"
    },
    {
      "inputs": [
        {
          "internalType": "address",
          "name": "_owner",
          "type": "address"
        }
      ],
      "name": "mintOf",
      "outputs": [
        {
          "internalType": "uint256",
          "name": "",
          "type": "uint256"
        }
      ],
      "stateMutability": "view",
      "type": "function"
    },
    {
      "inputs": [],
      "name": "mintPrice",
      "outputs": [
        {
          "internalType": "uint256",
          "name": "",
          "type": "uint256"
        }
      ],
      "stateMutability": "view",
      "type": "function"
    },
    {
      "inputs": [],
      "name": "mintRandomizerContract",
      "outputs": [
        {
          "internalType": "contract IRandomizer",
          "name": "",
          "type": "address"
        }
      ],
      "stateMutability": "view",
      "type": "function"
    },
    {
      "inputs": [],
      "name": "name",
      "outputs": [
        {
          "internalType": "string",
          "name": "",
          "type": "string"
        }
      ],
      "stateMutability": "view",
      "type": "function"
    },
    {
      "inputs": [],
      "name": "nextOwnerToExplicitlySet",
      "outputs": [
        {
          "internalType": "uint256",
          "name": "",
          "type": "uint256"
        }
      ],
      "stateMutability": "view",
      "type": "function"
    },
    {
      "inputs": [],
      "name": "owner",
      "outputs": [
        {
          "internalType": "address",
          "name": "",
          "type": "address"
        }
      ],
      "stateMutability": "view",
      "type": "function"
    },
    {
      "inputs": [
        {
          "internalType": "uint256",
          "name": "tokenId",
          "type": "uint256"
        }
      ],
      "name": "ownerOf",
      "outputs": [
        {
          "internalType": "address",
          "name": "",
          "type": "address"
        }
      ],
      "stateMutability": "view",
      "type": "function"
    },
    {
      "inputs": [],
      "name": "presaleMerkleRoot",
      "outputs": [
        {
          "internalType": "bytes32",
          "name": "",
          "type": "bytes32"
        }
      ],
      "stateMutability": "view",
      "type": "function"
    },
    {
      "inputs": [
        {
          "internalType": "uint256",
          "name": "invocations",
          "type": "uint256"
        },
        {
          "internalType": "uint256",
          "name": "maxInvocation",
          "type": "uint256"
        },
        {
          "internalType": "bytes32[]",
          "name": "proof",
          "type": "bytes32[]"
        }
      ],
      "name": "presaleMint",
      "outputs": [],
      "stateMutability": "payable",
      "type": "function"
    },
    {
      "inputs": [],
      "name": "presaleTime",
      "outputs": [
        {
          "internalType": "uint256",
          "name": "",
          "type": "uint256"
        }
      ],
      "stateMutability": "view",
      "type": "function"
    },
    {
      "inputs": [
        {
          "internalType": "uint256",
          "name": "invocations",
          "type": "uint256"
        }
      ],
      "name": "promotionMint",
      "outputs": [],
      "stateMutability": "nonpayable",
      "type": "function"
    },
    {
      "inputs": [
        {
          "internalType": "uint256",
          "name": "invocations",
          "type": "uint256"
        }
      ],
      "name": "publicMint",
      "outputs": [],
      "stateMutability": "payable",
      "type": "function"
    },
    {
      "inputs": [],
      "name": "publicTime",
      "outputs": [
        {
          "internalType": "uint256",
          "name": "",
          "type": "uint256"
        }
      ],
      "stateMutability": "view",
      "type": "function"
    },
    {
      "inputs": [],
      "name": "renounceOwnership",
      "outputs": [],
      "stateMutability": "nonpayable",
      "type": "function"
    },
    {
      "inputs": [
        {
          "internalType": "address",
          "name": "from",
          "type": "address"
        },
        {
          "internalType": "address",
          "name": "to",
          "type": "address"
        },
        {
          "internalType": "uint256",
          "name": "tokenId",
          "type": "uint256"
        }
      ],
      "name": "safeTransferFrom",
      "outputs": [],
      "stateMutability": "nonpayable",
      "type": "function"
    },
    {
      "inputs": [
        {
          "internalType": "address",
          "name": "from",
          "type": "address"
        },
        {
          "internalType": "address",
          "name": "to",
          "type": "address"
        },
        {
          "internalType": "uint256",
          "name": "tokenId",
          "type": "uint256"
        },
        {
          "internalType": "bytes",
          "name": "_data",
          "type": "bytes"
        }
      ],
      "name": "safeTransferFrom",
      "outputs": [],
      "stateMutability": "nonpayable",
      "type": "function"
    },
    {
      "inputs": [
        {
          "internalType": "address",
          "name": "operator",
          "type": "address"
        },
        {
          "internalType": "bool",
          "name": "approved",
          "type": "bool"
        }
      ],
      "name": "setApprovalForAll",
      "outputs": [],
      "stateMutability": "nonpayable",
      "type": "function"
    },
    {
      "inputs": [
        {
          "internalType": "string",
          "name": "newBaseURI",
          "type": "string"
        }
      ],
      "name": "setBaseURI",
      "outputs": [],
      "stateMutability": "nonpayable",
      "type": "function"
    },
    {
      "inputs": [
        {
          "internalType": "bytes32",
          "name": "_claimMerkleRoot",
          "type": "bytes32"
        }
      ],
      "name": "setClaimMerkleRoot",
      "outputs": [],
      "stateMutability": "nonpayable",
      "type": "function"
    },
    {
      "inputs": [
        {
          "internalType": "uint256",
          "name": "_claimTime",
          "type": "uint256"
        }
      ],
      "name": "setClaimTime",
      "outputs": [],
      "stateMutability": "nonpayable",
      "type": "function"
    },
    {
      "inputs": [
        {
          "internalType": "address",
          "name": "_mintRandomizerContract",
          "type": "address"
        }
      ],
      "name": "setMintRandomizerContract",
      "outputs": [],
      "stateMutability": "nonpayable",
      "type": "function"
    },
    {
      "inputs": [
        {
          "internalType": "uint256",
          "name": "quantity",
          "type": "uint256"
        }
      ],
      "name": "setOwnersExplicit",
      "outputs": [],
      "stateMutability": "nonpayable",
      "type": "function"
    },
    {
      "inputs": [
        {
          "internalType": "bytes32",
          "name": "_presaleMerkleRoot",
          "type": "bytes32"
        }
      ],
      "name": "setPresaleMerkleRoot",
      "outputs": [],
      "stateMutability": "nonpayable",
      "type": "function"
    },
    {
      "inputs": [
        {
          "internalType": "uint256",
          "name": "_presaleTime",
          "type": "uint256"
        }
      ],
      "name": "setPresaleTime",
      "outputs": [],
      "stateMutability": "nonpayable",
      "type": "function"
    },
    {
      "inputs": [
        {
          "internalType": "uint256",
          "name": "_publicTime",
          "type": "uint256"
        }
      ],
      "name": "setPublicTime",
      "outputs": [],
      "stateMutability": "nonpayable",
      "type": "function"
    },
    {
      "inputs": [
        {
          "internalType": "uint256",
          "name": "_presaleTime",
          "type": "uint256"
        }
      ],
      "name": "setPresaleTime",
      "outputs": [],
      "stateMutability": "nonpayable",
      "type": "function"
    },
    {
      "inputs": [
        {
          "internalType": "uint256",
          "name": "_publicTime",
          "type": "uint256"
        }
      ],
      "name": "setPublicTime",
      "outputs": [],
      "stateMutability": "nonpayable",
      "type": "function"
    },
    {
      "inputs": [
        {
          "internalType": "bytes4",
          "name": "interfaceId",
          "type": "bytes4"
        }
      ],
      "name": "supportsInterface",
      "outputs": [
        {
          "internalType": "bool",
          "name": "",
          "type": "bool"
        }
      ],
      "stateMutability": "view",
      "type": "function"
    },
    {
      "inputs": [],
      "name": "symbol",
      "outputs": [
        {
          "internalType": "string",
          "name": "",
          "type": "string"
        }
      ],
      "stateMutability": "view",
      "type": "function"
    },
    {
      "inputs": [
        {
          "internalType": "uint256",
          "name": "_tokenId",
          "type": "uint256"
        }
      ],
      "name": "tokenHash",
      "outputs": [
        {
          "internalType": "bytes32",
          "name": "",
          "type": "bytes32"
        }
      ],
      "stateMutability": "view",
      "type": "function"
    },
    {
      "inputs": [
        {
          "internalType": "uint256",
          "name": "tokenId",
          "type": "uint256"
        }
      ],
      "name": "tokenURI",
      "outputs": [
        {
          "internalType": "string",
          "name": "",
          "type": "string"
        }
      ],
      "stateMutability": "view",
      "type": "function"
    },
    {
      "inputs": [],
      "name": "totalSupply",
      "outputs": [
        {
          "internalType": "uint256",
          "name": "",
          "type": "uint256"
        }
      ],
      "stateMutability": "view",
      "type": "function"
    },
    {
      "inputs": [
        {
          "internalType": "address",
          "name": "from",
          "type": "address"
        },
        {
          "internalType": "address",
          "name": "to",
          "type": "address"
        },
        {
          "internalType": "uint256",
          "name": "tokenId",
          "type": "uint256"
        }
      ],
      "name": "transferFrom",
      "outputs": [],
      "stateMutability": "nonpayable",
      "type": "function"
    },
    {
      "inputs": [
        {
          "internalType": "address",
          "name": "newOwner",
          "type": "address"
        }
      ],
      "name": "transferOwnership",
      "outputs": [],
      "stateMutability": "nonpayable",
      "type": "function"
    },
    {
      "inputs": [],
      "name": "version",
      "outputs": [
        {
          "internalType": "string",
          "name": "",
          "type": "string"
        }
      ],
      "stateMutability": "view",
      "type": "function"
    },
    {
      "inputs": [],
      "name": "withdrawMoney",
      "outputs": [],
      "stateMutability": "nonpayable",
      "type": "function"
    }
  ],
  "bytecode": "0x6101006040523480156200001257600080fd5b5060405162003251380380620032518339810160408190526200003591620004c9565b89518a908a906200004e90600290602085019062000339565b5080516200006490600390602084019062000339565b5050600080555062000076336200025c565b6001600a5586620000d75760405162461bcd60e51b8152602060048201526031602482015260008051602062003231833981519152604482015270642d636f6c6c656374696f6e2d73697a6560781b60648201526084015b60405180910390fd5b86851115620001335760405162461bcd60e51b8152602060048201526032602482015260008051602062003231833981519152604482015271190b5c1c9bdb5bdd1a5bdb8b585b5bdd5b9d60721b6064820152608401620000ce565b60008411620001895760405162461bcd60e51b815260206004820152602c60248201526000805160206200323183398151915260448201526b642d6d696e742d707269636560a01b6064820152608401620000ce565b6001600160a01b038816620001f65760405162461bcd60e51b815260206004820152603460248201526000805160206200323183398151915260448201527f642d72616e646f6d697a65722d616464726573730000000000000000000000006064820152608401620000ce565b60e087905260a0869052608085905260c08490526200021583620002ae565b6200022082620002bd565b6200022b81620002cc565b5050601280546001600160a01b0319166001600160a01b03979097169690961790955550620005c895505050505050565b600980546001600160a01b038381166001600160a01b0319831681179093556040519116919082907f8be0079c531659141344cd1fd0a4f28419497f9722a3daafe3b4186f6b6457e090600090a35050565b620002b8620002db565b600d55565b620002c7620002db565b600e55565b620002d6620002db565b600f55565b6009546001600160a01b03163314620003375760405162461bcd60e51b815260206004820181905260248201527f4f776e61626c653a2063616c6c6572206973206e6f7420746865206f776e65726044820152606401620000ce565b565b82805462000347906200058b565b90600052602060002090601f0160209004810192826200036b5760008555620003b6565b82601f106200038657805160ff1916838001178555620003b6565b82800160010185558215620003b6579182015b82811115620003b657825182559160200191906001019062000399565b50620003c4929150620003c8565b5090565b5b80821115620003c45760008155600101620003c9565b634e487b7160e01b600052604160045260246000fd5b600082601f8301126200040757600080fd5b81516001600160401b0380821115620004245762000424620003df565b604051601f8301601f19908116603f011681019082821181831017156200044f576200044f620003df565b816040528381526020925086838588010111156200046c57600080fd5b600091505b8382101562000490578582018301518183018401529082019062000471565b83821115620004a25760008385830101525b9695505050505050565b80516001600160a01b0381168114620004c457600080fd5b919050565b6000806000806000806000806000806101408b8d031215620004ea57600080fd5b8a516001600160401b03808211156200050257600080fd5b620005108e838f01620003f5565b9b5060208d01519150808211156200052757600080fd5b50620005368d828e01620003f5565b9950506200054760408c01620004ac565b975060608b0151965060808b0151955060a08b0151945060c08b0151935060e08b015192506101008b015191506101208b015190509295989b9194979a5092959850565b600181811c90821680620005a057607f821691505b60208210811415620005c257634e487b7160e01b600052602260045260246000fd5b50919050565b60805160a05160c05160e051612be26200064f600039600081816104a501528181610abf01528181610dbc015261147101526000818161059e01528181610bb10152610ea801526000818161054a01528181610b4101528181610d7c01528181610e38015281816112c201526114ed01526000818161061c01526112390152612be26000f3fe6080604052600436106102725760003560e01c80636352211e1161014f578063a3864397116100c1578063c87b56dd1161007a578063c87b56dd14610772578063d7224ba014610792578063e7d51611146107a8578063e985e9c5146107c8578063f2fde38b14610811578063fd1e29621461083157600080fd5b8063a3864397146106c7578063ac446002146106e7578063b1f536fa146106fc578063b88d4fde1461071c578063ba2f59c81461073c578063c6e62e0b1461075c57600080fd5b806376972db21161011357806376972db21461060a5780638da5cb5b1461063e57806395d89b411461065c578063993670f2146106715780639c4dab5214610691578063a22cb465146106a757600080fd5b80636352211e1461056c5780636817c76c1461058c5780636c0360eb146105c057806370a08231146105d5578063715018a6146105f557600080fd5b806327b3bf11116101e857806342842e0e116101ac57806342842e0e1461047357806345c0f5331461049357806348ce8584146104c757806354fd4d50146104e757806355f804b314610518578063572849c41461053857600080fd5b806327b3bf11146103ea57806328d7b276146104005780632d20fb60146104205780632db1154414610440578063421cc3371461045357600080fd5b806317ccc54b1161023a57806317ccc54b1461034857806318160ddd146103685780631b59169d1461038b5780631bdc608e1461039e57806322212e2b146103b457806323b872dd146103ca57600080fd5b806301ffc9a71461027757806306fdde03146102ac578063081812fc146102ce578063095ea7b314610306578063150c5c2614610328575b600080fd5b34801561028357600080fd5b506102976102923660046123aa565b610851565b60405190151581526020015b60405180910390f35b3480156102b857600080fd5b506102c16108a3565b6040516102a3919061241f565b3480156102da57600080fd5b506102ee6102e9366004612432565b610935565b6040516001600160a01b0390911681526020016102a3565b34801561031257600080fd5b50610326610321366004612467565b610979565b005b34801561033457600080fd5b50610326610343366004612432565b610a07565b34801561035457600080fd5b50610326610363366004612491565b610a14565b34801561037457600080fd5b50600154600054035b6040519081526020016102a3565b6103266103993660046124ac565b610a3e565b3480156103aa57600080fd5b5061037d600f5481565b3480156103c057600080fd5b5061037d600b5481565b3480156103d657600080fd5b506103266103e536600461252e565b610ccb565b3480156103f657600080fd5b5061037d600d5481565b34801561040c57600080fd5b5061032661041b366004612432565b610cd6565b34801561042c57600080fd5b5061032661043b366004612432565b610ce3565b61032661044e366004612432565b610d24565b34801561045f57600080fd5b5061032661046e366004612432565b610f21565b34801561047f57600080fd5b5061032661048e36600461252e565b610f2e565b34801561049f57600080fd5b5061037d7f000000000000000000000000000000000000000000000000000000000000000081565b3480156104d357600080fd5b506103266104e2366004612432565b610f49565b3480156104f357600080fd5b506102c1604051806040016040528060058152602001640312e302e360dc1b81525081565b34801561052457600080fd5b5061032661053336600461256a565b610f56565b34801561054457600080fd5b5061037d7f000000000000000000000000000000000000000000000000000000000000000081565b34801561057857600080fd5b506102ee610587366004612432565b610fa1565b34801561059857600080fd5b5061037d7f000000000000000000000000000000000000000000000000000000000000000081565b3480156105cc57600080fd5b506102c1610fb3565b3480156105e157600080fd5b5061037d6105f0366004612491565b610fc2565b34801561060157600080fd5b50610326611010565b34801561061657600080fd5b5061037d7f000000000000000000000000000000000000000000000000000000000000000081565b34801561064a57600080fd5b506009546001600160a01b03166102ee565b34801561066857600080fd5b506102c1611024565b34801561067d57600080fd5b506012546102ee906001600160a01b031681565b34801561069d57600080fd5b5061037d600c5481565b3480156106b357600080fd5b506103266106c23660046125db565b611033565b3480156106d357600080fd5b5061037d6106e2366004612432565b6110c9565b3480156106f357600080fd5b50610326611104565b34801561070857600080fd5b5061037d610717366004612491565b6111d3565b34801561072857600080fd5b5061032661073736600461262d565b6111de565b34801561074857600080fd5b50610326610757366004612432565b61122f565b34801561076857600080fd5b5061037d600e5481565b34801561077e57600080fd5b506102c161078d366004612432565b611374565b34801561079e57600080fd5b5061037d60085481565b3480156107b457600080fd5b506103266107c33660046124ac565b6113f9565b3480156107d457600080fd5b506102976107e3366004612708565b6001600160a01b03918216600090815260076020908152604080832093909416825291909152205460ff1690565b34801561081d57600080fd5b5061032661082c366004612491565b6115f6565b34801561083d57600080fd5b5061032661084c366004612432565b61166f565b60006001600160e01b031982166380ac58cd60e01b148061088257506001600160e01b03198216635b5e139f60e01b145b8061089d57506301ffc9a760e01b6001600160e01b03198316145b92915050565b6060600280546108b29061273b565b80601f01602080910402602001604051908101604052809291908181526020018280546108de9061273b565b801561092b5780601f106109005761010080835404028352916020019161092b565b820191906000526020600020905b81548152906001019060200180831161090e57829003601f168201915b5050505050905090565b60006109408261167c565b61095d576040516333d1c03960e21b815260040160405180910390fd5b506000908152600660205260409020546001600160a01b031690565b600061098482610fa1565b9050806001600160a01b0316836001600160a01b031614156109b95760405163250fdee360e21b815260040160405180910390fd5b336001600160a01b038216148015906109d957506109d781336107e3565b155b156109f7576040516367d9dca160e11b815260040160405180910390fd5b610a028383836116a7565b505050565b610a0f611703565b600f55565b610a1c611703565b601280546001600160a01b0319166001600160a01b0392909216919091179055565b6002600a541415610a6a5760405162461bcd60e51b8152600401610a6190612776565b60405180910390fd5b6002600a55600e548015801590610a8057508042115b610a9c5760405162461bcd60e51b8152600401610a61906127ad565b8484323314610abd5760405162461bcd60e51b8152600401610a61906127e6565b7f0000000000000000000000000000000000000000000000000000000000000000610af583610aef6001546000540390565b9061175d565b1115610b135760405162461bcd60e51b8152600401610a6190612821565b80610b2183610aef33611769565b1115610b3f5760405162461bcd60e51b8152600401610a619061285d565b7f0000000000000000000000000000000000000000000000000000000000000000610b6d83610aef33611769565b1115610b8b5760405162461bcd60e51b8152600401610a61906128a8565b60008211610bab5760405162461bcd60e51b8152600401610a6190612900565b86610bd67f000000000000000000000000000000000000000000000000000000000000000082611797565b3414610bf45760405162461bcd60e51b8152600401610a619061294b565b60003411610c145760405162461bcd60e51b8152600401610a6190612900565b86338787600b54610c91838380806020026020016040519081016040528093929190818152602001838360200280828437600092019190915250506040516001600160601b031960608a901b166020820152603481018a905285925060540190505b604051602081830303815290604052805190602001206117a3565b610cad5760405162461bcd60e51b8152600401610a6190612985565b610cb7338e6117b9565b50506001600a555050505050505050505050565b610a028383836118de565b610cde611703565b600b55565b610ceb611703565b6002600a541415610d0e5760405162461bcd60e51b8152600401610a6190612776565b6002600a55610d1c81611acc565b506001600a55565b6002600a541415610d475760405162461bcd60e51b8152600401610a6190612776565b6002600a55600f548015801590610d5d57508042115b610d795760405162461bcd60e51b8152600401610a61906127ad565b817f0000000000000000000000000000000000000000000000000000000000000000323314610dba5760405162461bcd60e51b8152600401610a61906127e6565b7f0000000000000000000000000000000000000000000000000000000000000000610dec83610aef6001546000540390565b1115610e0a5760405162461bcd60e51b8152600401610a6190612821565b80610e1883610aef33611769565b1115610e365760405162461bcd60e51b8152600401610a619061285d565b7f0000000000000000000000000000000000000000000000000000000000000000610e6483610aef33611769565b1115610e825760405162461bcd60e51b8152600401610a61906128a8565b60008211610ea25760405162461bcd60e51b8152600401610a6190612900565b83610ecd7f000000000000000000000000000000000000000000000000000000000000000082611797565b3414610eeb5760405162461bcd60e51b8152600401610a619061294b565b60003411610f0b5760405162461bcd60e51b8152600401610a6190612900565b610f1533866117b9565b50506001600a55505050565b610f29611703565b600d55565b610a02838383604051806020016040528060008152506111de565b610f51611703565b600e55565b610f5e611703565b610f9d82828080601f016020809104026020016040519081016040528093929190818152602001838380828437600092019190915250611c0392505050565b5050565b6000610fac82611c16565b5192915050565b6060601180546108b29061273b565b60006001600160a01b038216610feb576040516323d3ad8160e21b815260040160405180910390fd5b506001600160a01b03166000908152600560205260409020546001600160401b031690565b611018611703565b6110226000611d30565b565b6060600380546108b29061273b565b6001600160a01b03821633141561105d5760405163b06307db60e01b815260040160405180910390fd5b3360008181526007602090815260408083206001600160a01b03871680855290835292819020805460ff191686151590811790915590519081529192917f17307eab39ab6107e8899845ad3d59bd9653f200f220920489ca2b5937696c31910160405180910390a35050565b60006110d48261167c565b6110f15760405163963eb14f60e01b815260040160405180910390fd5b5060009081526010602052604090205490565b61110c611703565b6002600a54141561112f5760405162461bcd60e51b8152600401610a6190612776565b6002600a55604051600090339047908381818185875af1925050503d8060008114611176576040519150601f19603f3d011682016040523d82523d6000602084013e61117b565b606091505b5050905080610d1c5760405162461bcd60e51b81526020600482015260306024820152600080516020612b8d83398151915260448201526f642d77697468647261772d6d6f6e657960801b6064820152608401610a61565b600061089d82611769565b6111e98484846118de565b6001600160a01b0383163b1515801561120b575061120984848484611d82565b155b15611229576040516368d2bf6b60e11b815260040160405180910390fd5b50505050565b611237611703565b7f000000000000000000000000000000000000000000000000000000000000000061126982610aef6001546000540390565b11156112c05760405162461bcd60e51b81526020600482015260326024820152600080516020612b8d833981519152604482015271642d70726f6d6f74696f6e2d737570706c7960701b6064820152608401610a61565b7f00000000000000000000000000000000000000000000000000000000000000006112eb8282611e7a565b1561133f5760405162461bcd60e51b81526020600482015260306024820152600080516020612b8d83398151915260448201526f642d62617463682d6d756c7469706c6560801b6064820152608401610a61565b600061134b8383611e86565b905060005b818110156112295761136233846117b9565b8061136c816129d8565b915050611350565b606061137f8261167c565b61139c57604051630a14c4b560e41b815260040160405180910390fd5b60006113a6611e92565b90508051600014156113c757604051806020016040528060008152506113f2565b806113d184611ea1565b6040516020016113e29291906129f3565b6040516020818303038152906040525b9392505050565b6002600a54141561141c5760405162461bcd60e51b8152600401610a6190612776565b6002600a55600d54801580159061143257508042115b61144e5760405162461bcd60e51b8152600401610a61906127ad565b848432331461146f5760405162461bcd60e51b8152600401610a61906127e6565b7f00000000000000000000000000000000000000000000000000000000000000006114a183610aef6001546000540390565b11156114bf5760405162461bcd60e51b8152600401610a6190612821565b806114cd83610aef33611769565b11156114eb5760405162461bcd60e51b8152600401610a619061285d565b7f000000000000000000000000000000000000000000000000000000000000000061151983610aef33611769565b11156115375760405162461bcd60e51b8152600401610a61906128a8565b600082116115575760405162461bcd60e51b8152600401610a6190612900565b85338686600c546115bd838380806020026020016040519081016040528093929190818152602001838360200280828437600092019190915250506040516001600160601b031960608a901b166020820152603481018a90528592506054019050610c76565b6115d95760405162461bcd60e51b8152600401610a6190612985565b6115e3338d6117b9565b50506001600a5550505050505050505050565b6115fe611703565b6001600160a01b0381166116635760405162461bcd60e51b815260206004820152602660248201527f4f776e61626c653a206e6577206f776e657220697320746865207a65726f206160448201526564647265737360d01b6064820152608401610a61565b61166c81611d30565b50565b611677611703565b600c55565b600080548210801561089d575050600090815260046020526040902054600160e01b900460ff161590565b60008281526006602052604080822080546001600160a01b0319166001600160a01b0387811691821790925591518593918516917f8c5be1e5ebec7d5bd14f71427d1e84f3dd0314c0f7b2291e5b200ac8c7c3b92591a4505050565b6009546001600160a01b031633146110225760405162461bcd60e51b815260206004820181905260248201527f4f776e61626c653a2063616c6c6572206973206e6f7420746865206f776e65726044820152606401610a61565b60006113f28284612a22565b6001600160a01b038116600090815260056020526040812054600160401b90046001600160401b031661089d565b60006113f28284612a3a565b6000826117b08584611f9e565b14949350505050565b6117c38282611feb565b60006117d26001546000540390565b905060006117e08284612005565b90506000836001600160401b038111156117fc576117fc612617565b604051908082528060200260200182016040528015611825578160200160208202803683370190505b50905060005b8481101561189157600061183f848361175d565b9050600061184c82612011565b90508084848151811061186157611861612a59565b60209081029190910181019190915260009283526010905260409091205580611889816129d8565b91505061182b565b50846001600160a01b03167f5cb27d2833c0b1f5f25192224a4f5c4573f3c2a9394c0a0a9a31c092e8879eb48486846040516118cf93929190612a6f565b60405180910390a25050505050565b60006118e982611c16565b9050836001600160a01b031681600001516001600160a01b0316146119205760405162a1148160e81b815260040160405180910390fd5b6000336001600160a01b038616148061193e575061193e85336107e3565b8061195957503361194e84610935565b6001600160a01b0316145b90508061197957604051632ce44b5f60e11b815260040160405180910390fd5b6001600160a01b0384166119a057604051633a954ecd60e21b815260040160405180910390fd5b6119ac600084876116a7565b6001600160a01b038581166000908152600560209081526040808320805467ffffffffffffffff198082166001600160401b0392831660001901831617909255898616808652838620805493841693831660019081018416949094179055898652600490945282852080546001600160e01b031916909417600160a01b42909216919091021783558701808452922080549193909116611a80576000548214611a8057805460208601516001600160401b0316600160a01b026001600160e01b03199091166001600160a01b038a16171781555b50505082846001600160a01b0316866001600160a01b03167fddf252ad1be2c89b69c2b068fc378daa952ba7f163c4a11628f55a4df523b3ef60405160405180910390a45b5050505050565b80611aea576040516356be441560e01b815260040160405180910390fd5b600054611b0a5760405163c0367cab60e01b815260040160405180910390fd5b60085480611b16575060005b6000548110611b38576040516370e89b1b60e01b815260040160405180910390fd5b6000548282016000198101911015611b535750600054600019015b815b818111611bf8576000818152600460205260409020546001600160a01b0316158015611b975750600081815260046020526040902054600160e01b900460ff16155b15611bf0576000611ba782611c16565b80516000848152600460209081526040909120805491909301516001600160401b0316600160a01b026001600160e01b03199091166001600160a01b0390921691909117179055505b600101611b55565b506001016008555050565b8051610f9d9060119060208401906122fb565b604080516060810182526000808252602082018190529181019190915281600054811015611d1757600081815260046020908152604091829020825160608101845290546001600160a01b0381168252600160a01b81046001600160401b031692820192909252600160e01b90910460ff16151591810182905290611d155780516001600160a01b031615611cac579392505050565b5060001901600081815260046020908152604091829020825160608101845290546001600160a01b038116808352600160a01b82046001600160401b031693830193909352600160e01b900460ff1615159281019290925215611d10579392505050565b611cac565b505b604051636f96cda160e11b815260040160405180910390fd5b600980546001600160a01b038381166001600160a01b0319831681179093556040519116919082907f8be0079c531659141344cd1fd0a4f28419497f9722a3daafe3b4186f6b6457e090600090a35050565b604051630a85bd0160e11b81526000906001600160a01b0385169063150b7a0290611db7903390899088908890600401612ac4565b602060405180830381600087803b158015611dd157600080fd5b505af1925050508015611e01575060408051601f3d908101601f19168201909252611dfe91810190612b01565b60015b611e5c573d808015611e2f576040519150601f19603f3d011682016040523d82523d6000602084013e611e34565b606091505b508051611e54576040516368d2bf6b60e11b815260040160405180910390fd5b805181602001fd5b6001600160e01b031916630a85bd0160e11b1490505b949350505050565b60006113f28284612b34565b60006113f28284612b48565b6060611e9c610fb3565b905090565b606081611ec55750506040805180820190915260018152600360fc1b602082015290565b8160005b8115611eef5780611ed9816129d8565b9150611ee89050600a83612b48565b9150611ec9565b6000816001600160401b03811115611f0957611f09612617565b6040519080825280601f01601f191660200182016040528015611f33576020820181803683370190505b5090505b8415611e7257611f48600183612b5c565b9150611f55600a86612b34565b611f60906030612a22565b60f81b818381518110611f7557611f75612a59565b60200101906001600160f81b031916908160001a905350611f97600a86612b48565b9450611f37565b600081815b8451811015611fe357611fcf82868381518110611fc257611fc2612a59565b60200260200101516120f9565b915080611fdb816129d8565b915050611fa3565b509392505050565b610f9d828260405180602001604052806000815250612128565b60006113f28284612b5c565b60008132612020600143612b5c565b601260009054906101000a90046001600160a01b03166001600160a01b0316631486a2766040518163ffffffff1660e01b815260040160206040518083038186803b15801561206e57600080fd5b505afa158015612082573d6000803e3d6000fd5b505050506040513d601f19601f820116820180604052508101906120a69190612b73565b6040516020016120dc949392919093845260609290921b6001600160601b03191660208401526034830152605482015260740190565b604051602081830303815290604052805190602001209050919050565b60008183106121155760008281526020849052604090206113f2565b60008381526020839052604090206113f2565b610a0283838360016000546001600160a01b03851661215957604051622e076360e81b815260040160405180910390fd5b836121775760405163b562e8dd60e01b815260040160405180910390fd5b6001600160a01b038516600081815260056020908152604080832080546fffffffffffffffffffffffffffffffff1981166001600160401b038083168c018116918217600160401b67ffffffffffffffff1990941690921783900481168c01811690920217909155858452600490925290912080546001600160e01b031916909217600160a01b42909216919091021790558080850183801561222357506001600160a01b0387163b15155b156122ac575b60405182906001600160a01b038916906000907fddf252ad1be2c89b69c2b068fc378daa952ba7f163c4a11628f55a4df523b3ef908290a46122746000888480600101955088611d82565b612291576040516368d2bf6b60e11b815260040160405180910390fd5b808214156122295782600054146122a757600080fd5b6122f2565b5b6040516001830192906001600160a01b038916906000907fddf252ad1be2c89b69c2b068fc378daa952ba7f163c4a11628f55a4df523b3ef908290a4808214156122ad575b50600055611ac5565b8280546123079061273b565b90600052602060002090601f016020900481019282612329576000855561236f565b82601f1061234257805160ff191683800117855561236f565b8280016001018555821561236f579182015b8281111561236f578251825591602001919060010190612354565b5061237b92915061237f565b5090565b5b8082111561237b5760008155600101612380565b6001600160e01b03198116811461166c57600080fd5b6000602082840312156123bc57600080fd5b81356113f281612394565b60005b838110156123e25781810151838201526020016123ca565b838111156112295750506000910152565b6000815180845261240b8160208601602086016123c7565b601f01601f19169290920160200192915050565b6020815260006113f260208301846123f3565b60006020828403121561244457600080fd5b5035919050565b80356001600160a01b038116811461246257600080fd5b919050565b6000806040838503121561247a57600080fd5b6124838361244b565b946020939093013593505050565b6000602082840312156124a357600080fd5b6113f28261244b565b600080600080606085870312156124c257600080fd5b843593506020850135925060408501356001600160401b03808211156124e757600080fd5b818701915087601f8301126124fb57600080fd5b81358181111561250a57600080fd5b8860208260051b850101111561251f57600080fd5b95989497505060200194505050565b60008060006060848603121561254357600080fd5b61254c8461244b565b925061255a6020850161244b565b9150604084013590509250925092565b6000806020838503121561257d57600080fd5b82356001600160401b038082111561259457600080fd5b818501915085601f8301126125a857600080fd5b8135818111156125b757600080fd5b8660208285010111156125c957600080fd5b60209290920196919550909350505050565b600080604083850312156125ee57600080fd5b6125f78361244b565b91506020830135801515811461260c57600080fd5b809150509250929050565b634e487b7160e01b600052604160045260246000fd5b6000806000806080858703121561264357600080fd5b61264c8561244b565b935061265a6020860161244b565b92506040850135915060608501356001600160401b038082111561267d57600080fd5b818701915087601f83011261269157600080fd5b8135818111156126a3576126a3612617565b604051601f8201601f19908116603f011681019083821181831017156126cb576126cb612617565b816040528281528a60208487010111156126e457600080fd5b82602086016020830137600060208483010152809550505050505092959194509250565b6000806040838503121561271b57600080fd5b6127248361244b565b91506127326020840161244b565b90509250929050565b600181811c9082168061274f57607f821691505b6020821081141561277057634e487b7160e01b600052602260045260246000fd5b50919050565b6020808252601f908201527f5265656e7472616e637947756172643a207265656e7472616e742063616c6c00604082015260600190565b6020808252602b90820152600080516020612b8d83398151915260408201526a642d6d696e742d74696d6560a81b606082015260800190565b6020808252602d90820152600080516020612b8d83398151915260408201526c3216b6b4b73a16b1b0b63632b960991b606082015260800190565b6020808252602e90820152600080516020612b8d83398151915260408201526d642d746f74616c2d737570706c7960901b606082015260800190565b6020808252603b90820152600080516020612b8d83398151915260408201527f642d696e766f636174696f6e2d75707065722d626f756e646172790000000000606082015260800190565b6020808252604490820152600080516020612b8d83398151915260408201527f642d696e766f636174696f6e2d75707065722d626f756e646172792d6d61782d6060820152631b5a5b9d60e21b608082015260a00190565b6020808252603b90820152600080516020612b8d83398151915260408201527f642d696e766f636174696f6e2d6c6f7765722d626f756e646172790000000000606082015260800190565b6020808252602c90820152600080516020612b8d83398151915260408201526b642d6d696e742d76616c756560a01b606082015260800190565b6020808252602f90820152600080516020612b8d83398151915260408201526e3216b0b2323932b9b996b83937b7b360891b606082015260800190565b634e487b7160e01b600052601160045260246000fd5b60006000198214156129ec576129ec6129c2565b5060010190565b60008351612a058184602088016123c7565b835190830190612a198183602088016123c7565b01949350505050565b60008219821115612a3557612a356129c2565b500190565b6000816000190483118215151615612a5457612a546129c2565b500290565b634e487b7160e01b600052603260045260246000fd5b6000606082018583526020858185015260606040850152818551808452608086019150828701935060005b81811015612ab657845183529383019391830191600101612a9a565b509098975050505050505050565b6001600160a01b0385811682528416602082015260408101839052608060608201819052600090612af7908301846123f3565b9695505050505050565b600060208284031215612b1357600080fd5b81516113f281612394565b634e487b7160e01b600052601260045260246000fd5b600082612b4357612b43612b1e565b500690565b600082612b5757612b57612b1e565b500490565b600082821015612b6e57612b6e6129c2565b500390565b600060208284031215612b8557600080fd5b505191905056fe52686170736f647943726561746f7247656e657261746976652f696e76616c69a2646970667358221220835b5738c9bfb33ab0e166f03c5d7be91e11b13834f979939b02f94d8d87071664736f6c6343000809003352686170736f647943726561746f7247656e657261746976652f696e76616c69",
  "linkReferences": {},
  "deployedLinkReferences": {}
}