{
  "_format": "hh-sol-artifact-1",
  "contractName": "RhapsodyCreatorBasic",
  "sourceName": "contracts/RhapsodyCreatorBasic.sol",
  "abi": [
    {
      "inputs": [
        {
          "internalType": "string",
          "name": "_name",
          "type": "string"
        },
        {
          "internalType": "string",
          "name": "_symbol",
          "type": "string"
        },
        {
          "internalType": "string",
          "name": "_baseURI",
          "type": "string"
        },
        {
          "internalType": "uint256",
          "name": "_collectionSize",
          "type": "uint256"
        },
        {
          "internalType": "uint256",
          "name": "_maxMintPerAddress",
          "type": "uint256"
        },
        {
          "internalType": "uint256",
          "name": "_amountForPromotion",
          "type": "uint256"
        },
        {
          "internalType": "uint256",
          "name": "_mintPrice",
          "type": "uint256"
        },
        {
          "internalType": "uint256",
          "name": "_claimTime",
          "type": "uint256"
        },
        {
          "internalType": "uint256",
          "name": "_presaleTime",
          "type": "uint256"
        },
        {
          "internalType": "uint256",
          "name": "_publicTime",
          "type": "uint256"
        }
      ],
      "stateMutability": "nonpayable",
      "type": "constructor"
    },
    {
      "inputs": [],
      "name": "AllOwnershipsHaveBeenSet",
      "type": "error"
    },
    {
      "inputs": [],
      "name": "ApprovalCallerNotOwnerNorApproved",
      "type": "error"
    },
    {
      "inputs": [],
      "name": "ApprovalQueryForNonexistentToken",
      "type": "error"
    },
    {
      "inputs": [],
      "name": "ApprovalToCurrentOwner",
      "type": "error"
    },
    {
      "inputs": [],
      "name": "ApproveToCaller",
      "type": "error"
    },
    {
      "inputs": [],
      "name": "BalanceQueryForZeroAddress",
      "type": "error"
    },
    {
      "inputs": [],
      "name": "MintToZeroAddress",
      "type": "error"
    },
    {
      "inputs": [],
      "name": "MintZeroQuantity",
      "type": "error"
    },
    {
      "inputs": [],
      "name": "NoTokensMintedYet",
      "type": "error"
    },
    {
      "inputs": [],
      "name": "OwnerQueryForNonexistentToken",
      "type": "error"
    },
    {
      "inputs": [],
      "name": "QuantityMustBeNonZero",
      "type": "error"
    },
    {
      "inputs": [],
      "name": "TransferCallerNotOwnerNorApproved",
      "type": "error"
    },
    {
      "inputs": [],
      "name": "TransferFromIncorrectOwner",
      "type": "error"
    },
    {
      "inputs": [],
      "name": "TransferToNonERC721ReceiverImplementer",
      "type": "error"
    },
    {
      "inputs": [],
      "name": "TransferToZeroAddress",
      "type": "error"
    },
    {
      "inputs": [],
      "name": "URIQueryForNonexistentToken",
      "type": "error"
    },
    {
      "anonymous": false,
      "inputs": [
        {
          "indexed": true,
          "internalType": "address",
          "name": "owner",
          "type": "address"
        },
        {
          "indexed": true,
          "internalType": "address",
          "name": "approved",
          "type": "address"
        },
        {
          "indexed": true,
          "internalType": "uint256",
          "name": "tokenId",
          "type": "uint256"
        }
      ],
      "name": "Approval",
      "type": "event"
    },
    {
      "anonymous": false,
      "inputs": [
        {
          "indexed": true,
          "internalType": "address",
          "name": "owner",
          "type": "address"
        },
        {
          "indexed": true,
          "internalType": "address",
          "name": "operator",
          "type": "address"
        },
        {
          "indexed": false,
          "internalType": "bool",
          "name": "approved",
          "type": "bool"
        }
      ],
      "name": "ApprovalForAll",
      "type": "event"
    },
    {
      "anonymous": false,
      "inputs": [
        {
          "indexed": true,
          "internalType": "address",
          "name": "to",
          "type": "address"
        },
        {
          "indexed": false,
          "internalType": "uint256",
          "name": "amount",
          "type": "uint256"
        }
      ],
      "name": "Created",
      "type": "event"
    },
    {
      "anonymous": false,
      "inputs": [
        {
          "indexed": true,
          "internalType": "address",
          "name": "previousOwner",
          "type": "address"
        },
        {
          "indexed": true,
          "internalType": "address",
          "name": "newOwner",
          "type": "address"
        }
      ],
      "name": "OwnershipTransferred",
      "type": "event"
    },
    {
      "anonymous": false,
      "inputs": [
        {
          "indexed": true,
          "internalType": "address",
          "name": "from",
          "type": "address"
        },
        {
          "indexed": true,
          "internalType": "address",
          "name": "to",
          "type": "address"
        },
        {
          "indexed": true,
          "internalType": "uint256",
          "name": "tokenId",
          "type": "uint256"
        }
      ],
      "name": "Transfer",
      "type": "event"
    },
    {
      "inputs": [],
      "name": "amountForPromotion",
      "outputs": [
        {
          "internalType": "uint256",
          "name": "",
          "type": "uint256"
        }
      ],
      "stateMutability": "view",
      "type": "function"
    },
    {
      "inputs": [
        {
          "internalType": "address",
          "name": "to",
          "type": "address"
        },
        {
          "internalType": "uint256",
          "name": "tokenId",
          "type": "uint256"
        }
      ],
      "name": "approve",
      "outputs": [],
      "stateMutability": "nonpayable",
      "type": "function"
    },
    {
      "inputs": [
        {
          "internalType": "address",
          "name": "owner",
          "type": "address"
        }
      ],
      "name": "balanceOf",
      "outputs": [
        {
          "internalType": "uint256",
          "name": "",
          "type": "uint256"
        }
      ],
      "stateMutability": "view",
      "type": "function"
    },
    {
      "inputs": [],
      "name": "baseURI",
      "outputs": [
        {
          "internalType": "string",
          "name": "",
          "type": "string"
        }
      ],
      "stateMutability": "view",
      "type": "function"
    },
    {
      "inputs": [],
      "name": "claimMerkleRoot",
      "outputs": [
        {
          "internalType": "bytes32",
          "name": "",
          "type": "bytes32"
        }
      ],
      "stateMutability": "view",
      "type": "function"
    },
    {
      "inputs": [
        {
          "internalType": "uint256",
          "name": "invocations",
          "type": "uint256"
        },
        {
          "internalType": "bytes32[]",
          "name": "proof",
          "type": "bytes32[]"
        }
      ],
      "name": "claimMint",
      "outputs": [],
      "stateMutability": "nonpayable",
      "type": "function"
    },
    {
      "inputs": [],
      "name": "claimTime",
      "outputs": [
        {
          "internalType": "uint256",
          "name": "",
          "type": "uint256"
        }
      ],
      "stateMutability": "view",
      "type": "function"
    },
    {
      "inputs": [],
      "name": "collectionSize",
      "outputs": [
        {
          "internalType": "uint256",
          "name": "",
          "type": "uint256"
        }
      ],
      "stateMutability": "view",
      "type": "function"
    },
    {
      "inputs": [
        {
          "internalType": "uint256",
          "name": "tokenId",
          "type": "uint256"
        }
      ],
      "name": "getApproved",
      "outputs": [
        {
          "internalType": "address",
          "name": "",
          "type": "address"
        }
      ],
      "stateMutability": "view",
      "type": "function"
    },
    {
      "inputs": [
        {
          "internalType": "address",
          "name": "owner",
          "type": "address"
        },
        {
          "internalType": "address",
          "name": "operator",
          "type": "address"
        }
      ],
      "name": "isApprovedForAll",
      "outputs": [
        {
          "internalType": "bool",
          "name": "",
          "type": "bool"
        }
      ],
      "stateMutability": "view",
      "type": "function"
    },
    {
      "inputs": [],
      "name": "maxMintPerAddress",
      "outputs": [
        {
          "internalType": "uint256",
          "name": "",
          "type": "uint256"
        }
      ],
      "stateMutability": "view",
      "type": "function"
    },
    {
      "inputs": [
        {
          "internalType": "address",
          "name": "_owner",
          "type": "address"
        }
      ],
      "name": "mintOf",
      "outputs": [
        {
          "internalType": "uint256",
          "name": "",
          "type": "uint256"
        }
      ],
      "stateMutability": "view",
      "type": "function"
    },
    {
      "inputs": [],
      "name": "mintPrice",
      "outputs": [
        {
          "internalType": "uint256",
          "name": "",
          "type": "uint256"
        }
      ],
      "stateMutability": "view",
      "type": "function"
    },
    {
      "inputs": [],
      "name": "name",
      "outputs": [
        {
          "internalType": "string",
          "name": "",
          "type": "string"
        }
      ],
      "stateMutability": "view",
      "type": "function"
    },
    {
      "inputs": [],
      "name": "nextOwnerToExplicitlySet",
      "outputs": [
        {
          "internalType": "uint256",
          "name": "",
          "type": "uint256"
        }
      ],
      "stateMutability": "view",
      "type": "function"
    },
    {
      "inputs": [],
      "name": "owner",
      "outputs": [
        {
          "internalType": "address",
          "name": "",
          "type": "address"
        }
      ],
      "stateMutability": "view",
      "type": "function"
    },
    {
      "inputs": [
        {
          "internalType": "uint256",
          "name": "tokenId",
          "type": "uint256"
        }
      ],
      "name": "ownerOf",
      "outputs": [
        {
          "internalType": "address",
          "name": "",
          "type": "address"
        }
      ],
      "stateMutability": "view",
      "type": "function"
    },
    {
      "inputs": [],
      "name": "presaleMerkleRoot",
      "outputs": [
        {
          "internalType": "bytes32",
          "name": "",
          "type": "bytes32"
        }
      ],
      "stateMutability": "view",
      "type": "function"
    },
    {
      "inputs": [
        {
          "internalType": "uint256",
          "name": "invocations",
          "type": "uint256"
        },
        {
          "internalType": "uint256",
          "name": "maxInvocation",
          "type": "uint256"
        },
        {
          "internalType": "bytes32[]",
          "name": "proof",
          "type": "bytes32[]"
        }
      ],
      "name": "presaleMint",
      "outputs": [],
      "stateMutability": "payable",
      "type": "function"
    },
    {
      "inputs": [],
      "name": "presaleTime",
      "outputs": [
        {
          "internalType": "uint256",
          "name": "",
          "type": "uint256"
        }
      ],
      "stateMutability": "view",
      "type": "function"
    },
    {
      "inputs": [
        {
          "internalType": "uint256",
          "name": "invocations",
          "type": "uint256"
        }
      ],
      "name": "promotionMint",
      "outputs": [],
      "stateMutability": "nonpayable",
      "type": "function"
    },
    {
      "inputs": [
        {
          "internalType": "uint256",
          "name": "invocations",
          "type": "uint256"
        }
      ],
      "name": "publicMint",
      "outputs": [],
      "stateMutability": "payable",
      "type": "function"
    },
    {
      "inputs": [],
      "name": "publicTime",
      "outputs": [
        {
          "internalType": "uint256",
          "name": "",
          "type": "uint256"
        }
      ],
      "stateMutability": "view",
      "type": "function"
    },
    {
      "inputs": [],
      "name": "renounceOwnership",
      "outputs": [],
      "stateMutability": "nonpayable",
      "type": "function"
    },
    {
      "inputs": [
        {
          "internalType": "address",
          "name": "from",
          "type": "address"
        },
        {
          "internalType": "address",
          "name": "to",
          "type": "address"
        },
        {
          "internalType": "uint256",
          "name": "tokenId",
          "type": "uint256"
        }
      ],
      "name": "safeTransferFrom",
      "outputs": [],
      "stateMutability": "nonpayable",
      "type": "function"
    },
    {
      "inputs": [
        {
          "internalType": "address",
          "name": "from",
          "type": "address"
        },
        {
          "internalType": "address",
          "name": "to",
          "type": "address"
        },
        {
          "internalType": "uint256",
          "name": "tokenId",
          "type": "uint256"
        },
        {
          "internalType": "bytes",
          "name": "_data",
          "type": "bytes"
        }
      ],
      "name": "safeTransferFrom",
      "outputs": [],
      "stateMutability": "nonpayable",
      "type": "function"
    },
    {
      "inputs": [
        {
          "internalType": "address",
          "name": "operator",
          "type": "address"
        },
        {
          "internalType": "bool",
          "name": "approved",
          "type": "bool"
        }
      ],
      "name": "setApprovalForAll",
      "outputs": [],
      "stateMutability": "nonpayable",
      "type": "function"
    },
    {
      "inputs": [
        {
          "internalType": "string",
          "name": "newBaseURI",
          "type": "string"
        }
      ],
      "name": "setBaseURI",
      "outputs": [],
      "stateMutability": "nonpayable",
      "type": "function"
    },
    {
      "inputs": [
        {
          "internalType": "bytes32",
          "name": "_claimMerkleRoot",
          "type": "bytes32"
        }
      ],
      "name": "setClaimMerkleRoot",
      "outputs": [],
      "stateMutability": "nonpayable",
      "type": "function"
    },
    {
      "inputs": [
        {
          "internalType": "uint256",
          "name": "_claimTime",
          "type": "uint256"
        }
      ],
      "name": "setClaimTime",
      "outputs": [],
      "stateMutability": "nonpayable",
      "type": "function"
    },
    {
      "inputs": [
        {
          "internalType": "uint256",
          "name": "quantity",
          "type": "uint256"
        }
      ],
      "name": "setOwnersExplicit",
      "outputs": [],
      "stateMutability": "nonpayable",
      "type": "function"
    },
    {
      "inputs": [
        {
          "internalType": "bytes32",
          "name": "_presaleMerkleRoot",
          "type": "bytes32"
        }
      ],
      "name": "setPresaleMerkleRoot",
      "outputs": [],
      "stateMutability": "nonpayable",
      "type": "function"
    },
    {
      "inputs": [
        {
          "internalType": "uint256",
          "name": "_presaleTime",
          "type": "uint256"
        }
      ],
      "name": "setPresaleTime",
      "outputs": [],
      "stateMutability": "nonpayable",
      "type": "function"
    },
    {
      "inputs": [
        {
          "internalType": "uint256",
          "name": "_publicTime",
          "type": "uint256"
        }
      ],
      "name": "setPublicTime",
      "outputs": [],
      "stateMutability": "nonpayable",
      "type": "function"
    },
    {
      "inputs": [
        {
          "internalType": "bytes4",
          "name": "interfaceId",
          "type": "bytes4"
        }
      ],
      "name": "supportsInterface",
      "outputs": [
        {
          "internalType": "bool",
          "name": "",
          "type": "bool"
        }
      ],
      "stateMutability": "view",
      "type": "function"
    },
    {
      "inputs": [],
      "name": "symbol",
      "outputs": [
        {
          "internalType": "string",
          "name": "",
          "type": "string"
        }
      ],
      "stateMutability": "view",
      "type": "function"
    },
    {
      "inputs": [
        {
          "internalType": "uint256",
          "name": "tokenId",
          "type": "uint256"
        }
      ],
      "name": "tokenURI",
      "outputs": [
        {
          "internalType": "string",
          "name": "",
          "type": "string"
        }
      ],
      "stateMutability": "view",
      "type": "function"
    },
    {
      "inputs": [],
      "name": "totalSupply",
      "outputs": [
        {
          "internalType": "uint256",
          "name": "",
          "type": "uint256"
        }
      ],
      "stateMutability": "view",
      "type": "function"
    },
    {
      "inputs": [
        {
          "internalType": "address",
          "name": "from",
          "type": "address"
        },
        {
          "internalType": "address",
          "name": "to",
          "type": "address"
        },
        {
          "internalType": "uint256",
          "name": "tokenId",
          "type": "uint256"
        }
      ],
      "name": "transferFrom",
      "outputs": [],
      "stateMutability": "nonpayable",
      "type": "function"
    },
    {
      "inputs": [
        {
          "internalType": "address",
          "name": "newOwner",
          "type": "address"
        }
      ],
      "name": "transferOwnership",
      "outputs": [],
      "stateMutability": "nonpayable",
      "type": "function"
    },
    {
      "inputs": [],
      "name": "version",
      "outputs": [
        {
          "internalType": "string",
          "name": "",
          "type": "string"
        }
      ],
      "stateMutability": "view",
      "type": "function"
    },
    {
      "inputs": [],
      "name": "withdrawMoney",
      "outputs": [],
      "stateMutability": "nonpayable",
      "type": "function"
    }
  ],
  "bytecode": "0x6101006040523480156200001257600080fd5b5060405162002e7a38038062002e7a833981016040819052620000359162000457565b89518a908a906200004e906002906020850190620002e4565b50805162000064906003906020840190620002e4565b505060008055506200007633620001ee565b6001600a5586620000de5760405162461bcd60e51b815260206004820152602760248201527f52686170736f647943726561746f722f696e76616c69642d636f6c6c656374696044820152666f6e2d73697a6560c81b60648201526084015b60405180910390fd5b86851115620001415760405162461bcd60e51b815260206004820152602860248201527f52686170736f647943726561746f722f696e76616c69642d70726f6d6f74696f6044820152671b8b585b5bdd5b9d60c21b6064820152608401620000d5565b600084116200019e5760405162461bcd60e51b815260206004820152602260248201527f52686170736f647943726561746f722f696e76616c69642d6d696e742d707269604482015261636560f01b6064820152608401620000d5565b60e087905260a0869052608085905260c0849052620001bd8862000240565b620001c88362000259565b620001d38262000268565b620001de8162000277565b505050505050505050506200056b565b600980546001600160a01b038381166001600160a01b0319831681179093556040519116919082907f8be0079c531659141344cd1fd0a4f28419497f9722a3daafe3b4186f6b6457e090600090a35050565b805162000255906010906020840190620002e4565b5050565b6200026362000286565b600d55565b6200027262000286565b600e55565b6200028162000286565b600f55565b6009546001600160a01b03163314620002e25760405162461bcd60e51b815260206004820181905260248201527f4f776e61626c653a2063616c6c6572206973206e6f7420746865206f776e65726044820152606401620000d5565b565b828054620002f2906200052e565b90600052602060002090601f01602090048101928262000316576000855562000361565b82601f106200033157805160ff191683800117855562000361565b8280016001018555821562000361579182015b828111156200036157825182559160200191906001019062000344565b506200036f92915062000373565b5090565b5b808211156200036f576000815560010162000374565b634e487b7160e01b600052604160045260246000fd5b600082601f830112620003b257600080fd5b81516001600160401b0380821115620003cf57620003cf6200038a565b604051601f8301601f19908116603f01168101908282118183101715620003fa57620003fa6200038a565b816040528381526020925086838588010111156200041757600080fd5b600091505b838210156200043b57858201830151818301840152908201906200041c565b838211156200044d5760008385830101525b9695505050505050565b6000806000806000806000806000806101408b8d0312156200047857600080fd5b8a516001600160401b03808211156200049057600080fd5b6200049e8e838f01620003a0565b9b5060208d0151915080821115620004b557600080fd5b620004c38e838f01620003a0565b9a5060408d0151915080821115620004da57600080fd5b50620004e98d828e01620003a0565b98505060608b0151965060808b0151955060a08b0151945060c08b0151935060e08b015192506101008b015191506101208b015190509295989b9194979a5092959850565b600181811c908216806200054357607f821691505b602082108114156200056557634e487b7160e01b600052602260045260246000fd5b50919050565b60805160a05160c05160e05161288f620005eb6000396000818161046401528181610a3401528181610cea0152610f9e01526000818161055d01528181610ada0152610d8a015260008181610509015281816109f401528181610caa01528181610f5e015261134e0152600081816105fb01526112bd015261288f6000f3fe6080604052600436106102515760003560e01c80636352211e11610139578063a22cb465116100b6578063c6e62e0b1161007a578063c6e62e0b146106fb578063c87b56dd14610711578063d7224ba014610731578063e985e9c514610747578063f2fde38b14610790578063fd1e2962146107b057600080fd5b8063a22cb46514610666578063ac44600214610686578063b1f536fa1461069b578063b88d4fde146106bb578063ba2f59c8146106db57600080fd5b806372830dfd116100fd57806372830dfd146105c957806376972db2146105e95780638da5cb5b1461061d57806395d89b411461063b5780639c4dab521461065057600080fd5b80636352211e1461052b5780636817c76c1461054b5780636c0360eb1461057f57806370a0823114610594578063715018a6146105b457600080fd5b806327b3bf11116101d257806342842e0e1161019657806342842e0e1461043257806345c0f5331461045257806348ce85841461048657806354fd4d50146104a657806355f804b3146104d7578063572849c4146104f757600080fd5b806327b3bf11146103a957806328d7b276146103bf5780632d20fb60146103df5780632db11544146103ff578063421cc3371461041257600080fd5b806318160ddd1161021957806318160ddd146103275780631b59169d1461034a5780631bdc608e1461035d57806322212e2b1461037357806323b872dd1461038957600080fd5b806301ffc9a71461025657806306fdde031461028b578063081812fc146102ad578063095ea7b3146102e5578063150c5c2614610307575b600080fd5b34801561026257600080fd5b506102766102713660046120b7565b6107d0565b60405190151581526020015b60405180910390f35b34801561029757600080fd5b506102a0610822565b604051610282919061212c565b3480156102b957600080fd5b506102cd6102c836600461213f565b6108b4565b6040516001600160a01b039091168152602001610282565b3480156102f157600080fd5b50610305610300366004612174565b6108f8565b005b34801561031357600080fd5b5061030561032236600461213f565b610986565b34801561033357600080fd5b50600154600054035b604051908152602001610282565b6103056103583660046121e9565b610993565b34801561036957600080fd5b5061033c600f5481565b34801561037f57600080fd5b5061033c600c5481565b34801561039557600080fd5b506103056103a436600461223b565b610bf9565b3480156103b557600080fd5b5061033c600d5481565b3480156103cb57600080fd5b506103056103da36600461213f565b610c04565b3480156103eb57600080fd5b506103056103fa36600461213f565b610c11565b61030561040d36600461213f565b610c52565b34801561041e57600080fd5b5061030561042d36600461213f565b610e03565b34801561043e57600080fd5b5061030561044d36600461223b565b610e10565b34801561045e57600080fd5b5061033c7f000000000000000000000000000000000000000000000000000000000000000081565b34801561049257600080fd5b506103056104a136600461213f565b610e2b565b3480156104b257600080fd5b506102a0604051806040016040528060058152602001640312e302e360dc1b81525081565b3480156104e357600080fd5b506103056104f2366004612277565b610e38565b34801561050357600080fd5b5061033c7f000000000000000000000000000000000000000000000000000000000000000081565b34801561053757600080fd5b506102cd61054636600461213f565b610e83565b34801561055757600080fd5b5061033c7f000000000000000000000000000000000000000000000000000000000000000081565b34801561058b57600080fd5b506102a0610e95565b3480156105a057600080fd5b5061033c6105af3660046122e8565b610ea4565b3480156105c057600080fd5b50610305610ef2565b3480156105d557600080fd5b506103056105e4366004612303565b610f06565b3480156105f557600080fd5b5061033c7f000000000000000000000000000000000000000000000000000000000000000081565b34801561062957600080fd5b506009546001600160a01b03166102cd565b34801561064757600080fd5b506102a06110db565b34801561065c57600080fd5b5061033c600b5481565b34801561067257600080fd5b5061030561068136600461234e565b6110ea565b34801561069257600080fd5b50610305611180565b3480156106a757600080fd5b5061033c6106b63660046122e8565b611257565b3480156106c757600080fd5b506103056106d63660046123a0565b611262565b3480156106e757600080fd5b506103056106f636600461213f565b6112b3565b34801561070757600080fd5b5061033c600e5481565b34801561071d57600080fd5b506102a061072c36600461213f565b611443565b34801561073d57600080fd5b5061033c60085481565b34801561075357600080fd5b5061027661076236600461247b565b6001600160a01b03918216600090815260076020908152604080832093909416825291909152205460ff1690565b34801561079c57600080fd5b506103056107ab3660046122e8565b6114d5565b3480156107bc57600080fd5b506103056107cb36600461213f565b61154e565b60006001600160e01b031982166380ac58cd60e01b148061080157506001600160e01b03198216635b5e139f60e01b145b8061081c57506301ffc9a760e01b6001600160e01b03198316145b92915050565b606060028054610831906124ae565b80601f016020809104026020016040519081016040528092919081815260200182805461085d906124ae565b80156108aa5780601f1061087f576101008083540402835291602001916108aa565b820191906000526020600020905b81548152906001019060200180831161088d57829003601f168201915b5050505050905090565b60006108bf8261155b565b6108dc576040516333d1c03960e21b815260040160405180910390fd5b506000908152600660205260409020546001600160a01b031690565b600061090382610e83565b9050806001600160a01b0316836001600160a01b031614156109385760405163250fdee360e21b815260040160405180910390fd5b336001600160a01b0382161480159061095857506109568133610762565b155b15610976576040516367d9dca160e11b815260040160405180910390fd5b610981838383611586565b505050565b61098e6115e2565b600f55565b6002600a5414156109bf5760405162461bcd60e51b81526004016109b6906124e9565b60405180910390fd5b6002600a55600e5480158015906109d557508042115b6109f15760405162461bcd60e51b81526004016109b690612520565b847f0000000000000000000000000000000000000000000000000000000000000000323314610a325760405162461bcd60e51b81526004016109b690612559565b7f0000000000000000000000000000000000000000000000000000000000000000610a6a83610a646001546000540390565b9061163c565b1115610a885760405162461bcd60e51b81526004016109b690612594565b80610a9683610a6433611648565b1115610ab45760405162461bcd60e51b81526004016109b6906125d0565b60008211610ad45760405162461bcd60e51b81526004016109b69061261b565b86610aff7f000000000000000000000000000000000000000000000000000000000000000082611676565b3414610b1d5760405162461bcd60e51b81526004016109b690612666565b60003411610b3d5760405162461bcd60e51b81526004016109b69061261b565b86338787600c54610bbf838380806020026020016040519081016040528093929190818152602001838360200280828437600092019190915250506040516bffffffffffffffffffffffff1960608a901b166020820152603481018a905285925060540190505b60405160208183030381529060405280519060200120611682565b610bdb5760405162461bcd60e51b81526004016109b6906126a0565b610be5338e611698565b50506001600a555050505050505050505050565b6109818383836116e9565b610c0c6115e2565b600c55565b610c196115e2565b6002600a541415610c3c5760405162461bcd60e51b81526004016109b6906124e9565b6002600a55610c4a816118d7565b506001600a55565b6002600a541415610c755760405162461bcd60e51b81526004016109b6906124e9565b6002600a55600f548015801590610c8b57508042115b610ca75760405162461bcd60e51b81526004016109b690612520565b817f0000000000000000000000000000000000000000000000000000000000000000323314610ce85760405162461bcd60e51b81526004016109b690612559565b7f0000000000000000000000000000000000000000000000000000000000000000610d1a83610a646001546000540390565b1115610d385760405162461bcd60e51b81526004016109b690612594565b80610d4683610a6433611648565b1115610d645760405162461bcd60e51b81526004016109b6906125d0565b60008211610d845760405162461bcd60e51b81526004016109b69061261b565b83610daf7f000000000000000000000000000000000000000000000000000000000000000082611676565b3414610dcd5760405162461bcd60e51b81526004016109b690612666565b60003411610ded5760405162461bcd60e51b81526004016109b69061261b565b610df73386611698565b50506001600a55505050565b610e0b6115e2565b600d55565b61098183838360405180602001604052806000815250611262565b610e336115e2565b600e55565b610e406115e2565b610e7f82828080601f016020809104026020016040519081016040528093929190818152602001838380828437600092019190915250611a0e92505050565b5050565b6000610e8e82611a21565b5192915050565b606060108054610831906124ae565b60006001600160a01b038216610ecd576040516323d3ad8160e21b815260040160405180910390fd5b506001600160a01b03166000908152600560205260409020546001600160401b031690565b610efa6115e2565b610f046000611b3b565b565b6002600a541415610f295760405162461bcd60e51b81526004016109b6906124e9565b6002600a55600d548015801590610f3f57508042115b610f5b5760405162461bcd60e51b81526004016109b690612520565b837f0000000000000000000000000000000000000000000000000000000000000000323314610f9c5760405162461bcd60e51b81526004016109b690612559565b7f0000000000000000000000000000000000000000000000000000000000000000610fce83610a646001546000540390565b1115610fec5760405162461bcd60e51b81526004016109b690612594565b80610ffa83610a6433611648565b11156110185760405162461bcd60e51b81526004016109b6906125d0565b600082116110385760405162461bcd60e51b81526004016109b69061261b565b85338686600b546110a3838380806020026020016040519081016040528093929190818152602001838360200280828437600092019190915250506040516bffffffffffffffffffffffff1960608a901b166020820152603481018a90528592506054019050610ba4565b6110bf5760405162461bcd60e51b81526004016109b6906126a0565b6110c9338c611698565b50506001600a55505050505050505050565b606060038054610831906124ae565b6001600160a01b0382163314156111145760405163b06307db60e01b815260040160405180910390fd5b3360008181526007602090815260408083206001600160a01b03871680855290835292819020805460ff191686151590811790915590519081529192917f17307eab39ab6107e8899845ad3d59bd9653f200f220920489ca2b5937696c31910160405180910390a35050565b6111886115e2565b6002600a5414156111ab5760405162461bcd60e51b81526004016109b6906124e9565b6002600a55604051600090339047908381818185875af1925050503d80600081146111f2576040519150601f19603f3d011682016040523d82523d6000602084013e6111f7565b606091505b5050905080610c4a5760405162461bcd60e51b815260206004820152602660248201527f52686170736f647943726561746f722f696e76616c69642d77697468647261776044820152652d6d6f6e657960d01b60648201526084016109b6565b600061081c82611648565b61126d8484846116e9565b6001600160a01b0383163b1515801561128f575061128d84848484611b8d565b155b156112ad576040516368d2bf6b60e11b815260040160405180910390fd5b50505050565b6112bb6115e2565b7f00000000000000000000000000000000000000000000000000000000000000006112ed82610a646001546000540390565b111561134c5760405162461bcd60e51b815260206004820152602860248201527f52686170736f647943726561746f722f696e76616c69642d70726f6d6f74696f6044820152676e2d737570706c7960c01b60648201526084016109b6565b7f00000000000000000000000000000000000000000000000000000000000000006113778282611c85565b156113d35760405162461bcd60e51b815260206004820152602660248201527f52686170736f647943726561746f722f696e76616c69642d62617463682d6d756044820152656c7469706c6560d01b60648201526084016109b6565b60006113df8383611c91565b905060005b81811015611408576113f63384611c9d565b80611400816126f3565b9150506113e4565b5060405183815233907f0ce3610e89a4bb9ec9359763f99110ed52a4abaea0b62028a1637e242ca2768b9060200160405180910390a2505050565b606061144e8261155b565b61146b57604051630a14c4b560e41b815260040160405180910390fd5b600061148260408051602081019091526000815290565b90508051600014156114a357604051806020016040528060008152506114ce565b806114ad84611cb7565b6040516020016114be92919061270e565b6040516020818303038152906040525b9392505050565b6114dd6115e2565b6001600160a01b0381166115425760405162461bcd60e51b815260206004820152602660248201527f4f776e61626c653a206e6577206f776e657220697320746865207a65726f206160448201526564647265737360d01b60648201526084016109b6565b61154b81611b3b565b50565b6115566115e2565b600b55565b600080548210801561081c575050600090815260046020526040902054600160e01b900460ff161590565b60008281526006602052604080822080546001600160a01b0319166001600160a01b0387811691821790925591518593918516917f8c5be1e5ebec7d5bd14f71427d1e84f3dd0314c0f7b2291e5b200ac8c7c3b92591a4505050565b6009546001600160a01b03163314610f045760405162461bcd60e51b815260206004820181905260248201527f4f776e61626c653a2063616c6c6572206973206e6f7420746865206f776e657260448201526064016109b6565b60006114ce828461273d565b6001600160a01b038116600090815260056020526040812054600160401b90046001600160401b031661081c565b60006114ce8284612755565b60008261168f8584611db4565b14949350505050565b6116a28282611c9d565b816001600160a01b03167f0ce3610e89a4bb9ec9359763f99110ed52a4abaea0b62028a1637e242ca2768b826040516116dd91815260200190565b60405180910390a25050565b60006116f482611a21565b9050836001600160a01b031681600001516001600160a01b03161461172b5760405162a1148160e81b815260040160405180910390fd5b6000336001600160a01b038616148061174957506117498533610762565b80611764575033611759846108b4565b6001600160a01b0316145b90508061178457604051632ce44b5f60e11b815260040160405180910390fd5b6001600160a01b0384166117ab57604051633a954ecd60e21b815260040160405180910390fd5b6117b760008487611586565b6001600160a01b038581166000908152600560209081526040808320805467ffffffffffffffff198082166001600160401b0392831660001901831617909255898616808652838620805493841693831660019081018416949094179055898652600490945282852080546001600160e01b031916909417600160a01b4290921691909102178355870180845292208054919390911661188b57600054821461188b57805460208601516001600160401b0316600160a01b026001600160e01b03199091166001600160a01b038a16171781555b50505082846001600160a01b0316866001600160a01b03167fddf252ad1be2c89b69c2b068fc378daa952ba7f163c4a11628f55a4df523b3ef60405160405180910390a45b5050505050565b806118f5576040516356be441560e01b815260040160405180910390fd5b6000546119155760405163c0367cab60e01b815260040160405180910390fd5b60085480611921575060005b6000548110611943576040516370e89b1b60e01b815260040160405180910390fd5b600054828201600019810191101561195e5750600054600019015b815b818111611a03576000818152600460205260409020546001600160a01b03161580156119a25750600081815260046020526040902054600160e01b900460ff16155b156119fb5760006119b282611a21565b80516000848152600460209081526040909120805491909301516001600160401b0316600160a01b026001600160e01b03199091166001600160a01b0390921691909117179055505b600101611960565b506001016008555050565b8051610e7f906010906020840190612008565b604080516060810182526000808252602082018190529181019190915281600054811015611b2257600081815260046020908152604091829020825160608101845290546001600160a01b0381168252600160a01b81046001600160401b031692820192909252600160e01b90910460ff16151591810182905290611b205780516001600160a01b031615611ab7579392505050565b5060001901600081815260046020908152604091829020825160608101845290546001600160a01b038116808352600160a01b82046001600160401b031693830193909352600160e01b900460ff1615159281019290925215611b1b579392505050565b611ab7565b505b604051636f96cda160e11b815260040160405180910390fd5b600980546001600160a01b038381166001600160a01b0319831681179093556040519116919082907f8be0079c531659141344cd1fd0a4f28419497f9722a3daafe3b4186f6b6457e090600090a35050565b604051630a85bd0160e11b81526000906001600160a01b0385169063150b7a0290611bc2903390899088908890600401612774565b602060405180830381600087803b158015611bdc57600080fd5b505af1925050508015611c0c575060408051601f3d908101601f19168201909252611c09918101906127b1565b60015b611c67573d808015611c3a576040519150601f19603f3d011682016040523d82523d6000602084013e611c3f565b606091505b508051611c5f576040516368d2bf6b60e11b815260040160405180910390fd5b805181602001fd5b6001600160e01b031916630a85bd0160e11b1490505b949350505050565b60006114ce82846127e4565b60006114ce82846127f8565b610e7f828260405180602001604052806000815250611e01565b606081611cdb5750506040805180820190915260018152600360fc1b602082015290565b8160005b8115611d055780611cef816126f3565b9150611cfe9050600a836127f8565b9150611cdf565b6000816001600160401b03811115611d1f57611d1f61238a565b6040519080825280601f01601f191660200182016040528015611d49576020820181803683370190505b5090505b8415611c7d57611d5e60018361280c565b9150611d6b600a866127e4565b611d7690603061273d565b60f81b818381518110611d8b57611d8b612823565b60200101906001600160f81b031916908160001a905350611dad600a866127f8565b9450611d4d565b600081815b8451811015611df957611de582868381518110611dd857611dd8612823565b6020026020010151611e0e565b915080611df1816126f3565b915050611db9565b509392505050565b6109818383836001611e3d565b6000818310611e2a5760008281526020849052604090206114ce565b60008381526020839052604090206114ce565b6000546001600160a01b038516611e6657604051622e076360e81b815260040160405180910390fd5b83611e845760405163b562e8dd60e01b815260040160405180910390fd5b6001600160a01b038516600081815260056020908152604080832080546fffffffffffffffffffffffffffffffff1981166001600160401b038083168c018116918217600160401b67ffffffffffffffff1990941690921783900481168c01811690920217909155858452600490925290912080546001600160e01b031916909217600160a01b429092169190910217905580808501838015611f3057506001600160a01b0387163b15155b15611fb9575b60405182906001600160a01b038916906000907fddf252ad1be2c89b69c2b068fc378daa952ba7f163c4a11628f55a4df523b3ef908290a4611f816000888480600101955088611b8d565b611f9e576040516368d2bf6b60e11b815260040160405180910390fd5b80821415611f36578260005414611fb457600080fd5b611fff565b5b6040516001830192906001600160a01b038916906000907fddf252ad1be2c89b69c2b068fc378daa952ba7f163c4a11628f55a4df523b3ef908290a480821415611fba575b506000556118d0565b828054612014906124ae565b90600052602060002090601f016020900481019282612036576000855561207c565b82601f1061204f57805160ff191683800117855561207c565b8280016001018555821561207c579182015b8281111561207c578251825591602001919060010190612061565b5061208892915061208c565b5090565b5b80821115612088576000815560010161208d565b6001600160e01b03198116811461154b57600080fd5b6000602082840312156120c957600080fd5b81356114ce816120a1565b60005b838110156120ef5781810151838201526020016120d7565b838111156112ad5750506000910152565b600081518084526121188160208601602086016120d4565b601f01601f19169290920160200192915050565b6020815260006114ce6020830184612100565b60006020828403121561215157600080fd5b5035919050565b80356001600160a01b038116811461216f57600080fd5b919050565b6000806040838503121561218757600080fd5b61219083612158565b946020939093013593505050565b60008083601f8401126121b057600080fd5b5081356001600160401b038111156121c757600080fd5b6020830191508360208260051b85010111156121e257600080fd5b9250929050565b600080600080606085870312156121ff57600080fd5b843593506020850135925060408501356001600160401b0381111561222357600080fd5b61222f8782880161219e565b95989497509550505050565b60008060006060848603121561225057600080fd5b61225984612158565b925061226760208501612158565b9150604084013590509250925092565b6000806020838503121561228a57600080fd5b82356001600160401b03808211156122a157600080fd5b818501915085601f8301126122b557600080fd5b8135818111156122c457600080fd5b8660208285010111156122d657600080fd5b60209290920196919550909350505050565b6000602082840312156122fa57600080fd5b6114ce82612158565b60008060006040848603121561231857600080fd5b8335925060208401356001600160401b0381111561233557600080fd5b6123418682870161219e565b9497909650939450505050565b6000806040838503121561236157600080fd5b61236a83612158565b91506020830135801515811461237f57600080fd5b809150509250929050565b634e487b7160e01b600052604160045260246000fd5b600080600080608085870312156123b657600080fd5b6123bf85612158565b93506123cd60208601612158565b92506040850135915060608501356001600160401b03808211156123f057600080fd5b818701915087601f83011261240457600080fd5b8135818111156124165761241661238a565b604051601f8201601f19908116603f0116810190838211818310171561243e5761243e61238a565b816040528281528a602084870101111561245757600080fd5b82602086016020830137600060208483010152809550505050505092959194509250565b6000806040838503121561248e57600080fd5b61249783612158565b91506124a560208401612158565b90509250929050565b600181811c908216806124c257607f821691505b602082108114156124e357634e487b7160e01b600052602260045260246000fd5b50919050565b6020808252601f908201527f5265656e7472616e637947756172643a207265656e7472616e742063616c6c00604082015260600190565b6020808252602b9082015260008051602061283a83398151915260408201526a642d6d696e742d74696d6560a81b606082015260800190565b6020808252602d9082015260008051602061283a83398151915260408201526c3216b6b4b73a16b1b0b63632b960991b606082015260800190565b6020808252602e9082015260008051602061283a83398151915260408201526d642d746f74616c2d737570706c7960901b606082015260800190565b6020808252603b9082015260008051602061283a83398151915260408201527f642d696e766f636174696f6e2d75707065722d626f756e646172790000000000606082015260800190565b6020808252603b9082015260008051602061283a83398151915260408201527f642d696e766f636174696f6e2d6c6f7765722d626f756e646172790000000000606082015260800190565b6020808252602c9082015260008051602061283a83398151915260408201526b642d6d696e742d76616c756560a01b606082015260800190565b6020808252602f9082015260008051602061283a83398151915260408201526e3216b0b2323932b9b996b83937b7b360891b606082015260800190565b634e487b7160e01b600052601160045260246000fd5b6000600019821415612707576127076126dd565b5060010190565b600083516127208184602088016120d4565b8351908301906127348183602088016120d4565b01949350505050565b60008219821115612750576127506126dd565b500190565b600081600019048311821515161561276f5761276f6126dd565b500290565b6001600160a01b03858116825284166020820152604081018390526080606082018190526000906127a790830184612100565b9695505050505050565b6000602082840312156127c357600080fd5b81516114ce816120a1565b634e487b7160e01b600052601260045260246000fd5b6000826127f3576127f36127ce565b500690565b600082612807576128076127ce565b500490565b60008282101561281e5761281e6126dd565b500390565b634e487b7160e01b600052603260045260246000fdfe52686170736f647943726561746f7247656e657261746976652f696e76616c69a26469706673582212209f3c7640867ceb4f6b8bf66567a01375f071d1016a210dc41ad5a1f5bda25d3564736f6c63430008090033",
  "linkReferences": {},
  "deployedLinkReferences": {}
}