{
  "_format": "hh-sol-artifact-1",
  "contractName": "RhapsodyCreatorGenerative",
  "sourceName": "contracts/RhapsodyCreatorGenerative.sol",
  "abi": [
    {
      "inputs": [
        {
          "internalType": "string",
          "name": "_name",
          "type": "string"
        },
        {
          "internalType": "string",
          "name": "_symbol",
          "type": "string"
        },
        {
          "internalType": "uint256",
          "name": "_collectionSize",
          "type": "uint256"
        },
        {
          "internalType": "uint256",
          "name": "_maxMintPerAddress",
          "type": "uint256"
        },
        {
          "internalType": "uint256",
          "name": "_amountForPromotion",
          "type": "uint256"
        },
        {
          "internalType": "uint256",
          "name": "_mintPrice",
          "type": "uint256"
        },
        {
          "internalType": "uint256",
          "name": "_claimTime",
          "type": "uint256"
        },
        {
          "internalType": "uint256",
          "name": "_presaleTime",
          "type": "uint256"
        },
        {
          "internalType": "uint256",
          "name": "_publicTime",
          "type": "uint256"
        }
      ],
      "stateMutability": "nonpayable",
      "type": "constructor"
    },
    {
      "inputs": [],
      "name": "AllOwnershipsHaveBeenSet",
      "type": "error"
    },
    {
      "inputs": [],
      "name": "ApprovalCallerNotOwnerNorApproved",
      "type": "error"
    },
    {
      "inputs": [],
      "name": "ApprovalQueryForNonexistentToken",
      "type": "error"
    },
    {
      "inputs": [],
      "name": "ApprovalToCurrentOwner",
      "type": "error"
    },
    {
      "inputs": [],
      "name": "ApproveToCaller",
      "type": "error"
    },
    {
      "inputs": [],
      "name": "BalanceQueryForZeroAddress",
      "type": "error"
    },
    {
      "inputs": [],
      "name": "HashQueryForNonexistentToken",
      "type": "error"
    },
    {
      "inputs": [],
      "name": "MintToZeroAddress",
      "type": "error"
    },
    {
      "inputs": [],
      "name": "MintZeroQuantity",
      "type": "error"
    },
    {
      "inputs": [],
      "name": "NoTokensMintedYet",
      "type": "error"
    },
    {
      "inputs": [],
      "name": "OwnerQueryForNonexistentToken",
      "type": "error"
    },
    {
      "inputs": [],
      "name": "QuantityMustBeNonZero",
      "type": "error"
    },
    {
      "inputs": [],
      "name": "TransferCallerNotOwnerNorApproved",
      "type": "error"
    },
    {
      "inputs": [],
      "name": "TransferFromIncorrectOwner",
      "type": "error"
    },
    {
      "inputs": [],
      "name": "TransferToNonERC721ReceiverImplementer",
      "type": "error"
    },
    {
      "inputs": [],
      "name": "TransferToZeroAddress",
      "type": "error"
    },
    {
      "inputs": [],
      "name": "URIQueryForNonexistentToken",
      "type": "error"
    },
    {
      "anonymous": false,
      "inputs": [
        {
          "indexed": true,
          "internalType": "address",
          "name": "owner",
          "type": "address"
        },
        {
          "indexed": true,
          "internalType": "address",
          "name": "approved",
          "type": "address"
        },
        {
          "indexed": true,
          "internalType": "uint256",
          "name": "tokenId",
          "type": "uint256"
        }
      ],
      "name": "Approval",
      "type": "event"
    },
    {
      "anonymous": false,
      "inputs": [
        {
          "indexed": true,
          "internalType": "address",
          "name": "owner",
          "type": "address"
        },
        {
          "indexed": true,
          "internalType": "address",
          "name": "operator",
          "type": "address"
        },
        {
          "indexed": false,
          "internalType": "bool",
          "name": "approved",
          "type": "bool"
        }
      ],
      "name": "ApprovalForAll",
      "type": "event"
    },
    {
      "anonymous": false,
      "inputs": [
        {
          "indexed": true,
          "internalType": "address",
          "name": "to",
          "type": "address"
        },
        {
          "indexed": false,
          "internalType": "uint256",
          "name": "currentTotalSupply",
          "type": "uint256"
        },
        {
          "indexed": false,
          "internalType": "uint256",
          "name": "invocations",
          "type": "uint256"
        },
        {
          "indexed": false,
          "internalType": "bytes32[]",
          "name": "identifiers",
          "type": "bytes32[]"
        }
      ],
      "name": "Created",
      "type": "event"
    },
    {
      "anonymous": false,
      "inputs": [
        {
          "indexed": true,
          "internalType": "address",
          "name": "previousOwner",
          "type": "address"
        },
        {
          "indexed": true,
          "internalType": "address",
          "name": "newOwner",
          "type": "address"
        }
      ],
      "name": "OwnershipTransferred",
      "type": "event"
    },
    {
      "anonymous": false,
      "inputs": [
        {
          "indexed": true,
          "internalType": "address",
          "name": "from",
          "type": "address"
        },
        {
          "indexed": true,
          "internalType": "address",
          "name": "to",
          "type": "address"
        },
        {
          "indexed": true,
          "internalType": "uint256",
          "name": "tokenId",
          "type": "uint256"
        }
      ],
      "name": "Transfer",
      "type": "event"
    },
    {
      "inputs": [],
      "name": "amountForPromotion",
      "outputs": [
        {
          "internalType": "uint256",
          "name": "",
          "type": "uint256"
        }
      ],
      "stateMutability": "view",
      "type": "function"
    },
    {
      "inputs": [
        {
          "internalType": "address",
          "name": "to",
          "type": "address"
        },
        {
          "internalType": "uint256",
          "name": "tokenId",
          "type": "uint256"
        }
      ],
      "name": "approve",
      "outputs": [],
      "stateMutability": "nonpayable",
      "type": "function"
    },
    {
      "inputs": [
        {
          "internalType": "address",
          "name": "owner",
          "type": "address"
        }
      ],
      "name": "balanceOf",
      "outputs": [
        {
          "internalType": "uint256",
          "name": "",
          "type": "uint256"
        }
      ],
      "stateMutability": "view",
      "type": "function"
    },
    {
      "inputs": [],
      "name": "baseURI",
      "outputs": [
        {
          "internalType": "string",
          "name": "",
          "type": "string"
        }
      ],
      "stateMutability": "view",
      "type": "function"
    },
    {
      "inputs": [],
      "name": "claimMerkleRoot",
      "outputs": [
        {
          "internalType": "bytes32",
          "name": "",
          "type": "bytes32"
        }
      ],
      "stateMutability": "view",
      "type": "function"
    },
    {
      "inputs": [
        {
          "internalType": "uint256",
          "name": "invocations",
          "type": "uint256"
        },
        {
          "internalType": "uint256",
          "name": "maxInvocation",
          "type": "uint256"
        },
        {
          "internalType": "bytes32[]",
          "name": "proof",
          "type": "bytes32[]"
        }
      ],
      "name": "claimMint",
      "outputs": [],
      "stateMutability": "nonpayable",
      "type": "function"
    },
    {
      "inputs": [],
      "name": "claimTime",
      "outputs": [
        {
          "internalType": "uint256",
          "name": "",
          "type": "uint256"
        }
      ],
      "stateMutability": "view",
      "type": "function"
    },
    {
      "inputs": [],
      "name": "collectionSize",
      "outputs": [
        {
          "internalType": "uint256",
          "name": "",
          "type": "uint256"
        }
      ],
      "stateMutability": "view",
      "type": "function"
    },
    {
      "inputs": [
        {
          "internalType": "uint256",
          "name": "tokenId",
          "type": "uint256"
        }
      ],
      "name": "getApproved",
      "outputs": [
        {
          "internalType": "address",
          "name": "",
          "type": "address"
        }
      ],
      "stateMutability": "view",
      "type": "function"
    },
    {
      "inputs": [
        {
          "internalType": "address",
          "name": "owner",
          "type": "address"
        },
        {
          "internalType": "address",
          "name": "operator",
          "type": "address"
        }
      ],
      "name": "isApprovedForAll",
      "outputs": [
        {
          "internalType": "bool",
          "name": "",
          "type": "bool"
        }
      ],
      "stateMutability": "view",
      "type": "function"
    },
    {
      "inputs": [],
      "name": "maxMintPerAddress",
      "outputs": [
        {
          "internalType": "uint256",
          "name": "",
          "type": "uint256"
        }
      ],
      "stateMutability": "view",
      "type": "function"
    },
    {
      "inputs": [
        {
          "internalType": "address",
          "name": "_owner",
          "type": "address"
        }
      ],
      "name": "mintOf",
      "outputs": [
        {
          "internalType": "uint256",
          "name": "",
          "type": "uint256"
        }
      ],
      "stateMutability": "view",
      "type": "function"
    },
    {
      "inputs": [],
      "name": "mintPrice",
      "outputs": [
        {
          "internalType": "uint256",
          "name": "",
          "type": "uint256"
        }
      ],
      "stateMutability": "view",
      "type": "function"
    },
    {
      "inputs": [],
      "name": "name",
      "outputs": [
        {
          "internalType": "string",
          "name": "",
          "type": "string"
        }
      ],
      "stateMutability": "view",
      "type": "function"
    },
    {
      "inputs": [],
      "name": "nextOwnerToExplicitlySet",
      "outputs": [
        {
          "internalType": "uint256",
          "name": "",
          "type": "uint256"
        }
      ],
      "stateMutability": "view",
      "type": "function"
    },
    {
      "inputs": [],
      "name": "owner",
      "outputs": [
        {
          "internalType": "address",
          "name": "",
          "type": "address"
        }
      ],
      "stateMutability": "view",
      "type": "function"
    },
    {
      "inputs": [
        {
          "internalType": "uint256",
          "name": "tokenId",
          "type": "uint256"
        }
      ],
      "name": "ownerOf",
      "outputs": [
        {
          "internalType": "address",
          "name": "",
          "type": "address"
        }
      ],
      "stateMutability": "view",
      "type": "function"
    },
    {
      "inputs": [],
      "name": "presaleMerkleRoot",
      "outputs": [
        {
          "internalType": "bytes32",
          "name": "",
          "type": "bytes32"
        }
      ],
      "stateMutability": "view",
      "type": "function"
    },
    {
      "inputs": [
        {
          "internalType": "uint256",
          "name": "invocations",
          "type": "uint256"
        },
        {
          "internalType": "uint256",
          "name": "maxInvocation",
          "type": "uint256"
        },
        {
          "internalType": "bytes32[]",
          "name": "proof",
          "type": "bytes32[]"
        }
      ],
      "name": "presaleMint",
      "outputs": [],
      "stateMutability": "payable",
      "type": "function"
    },
    {
      "inputs": [],
      "name": "presaleTime",
      "outputs": [
        {
          "internalType": "uint256",
          "name": "",
          "type": "uint256"
        }
      ],
      "stateMutability": "view",
      "type": "function"
    },
    {
      "inputs": [
        {
          "internalType": "uint256",
          "name": "invocations",
          "type": "uint256"
        }
      ],
      "name": "promotionMint",
      "outputs": [],
      "stateMutability": "nonpayable",
      "type": "function"
    },
    {
      "inputs": [
        {
          "internalType": "uint256",
          "name": "invocations",
          "type": "uint256"
        }
      ],
      "name": "publicMint",
      "outputs": [],
      "stateMutability": "payable",
      "type": "function"
    },
    {
      "inputs": [],
      "name": "publicTime",
      "outputs": [
        {
          "internalType": "uint256",
          "name": "",
          "type": "uint256"
        }
      ],
      "stateMutability": "view",
      "type": "function"
    },
    {
      "inputs": [],
      "name": "renounceOwnership",
      "outputs": [],
      "stateMutability": "nonpayable",
      "type": "function"
    },
    {
      "inputs": [
        {
          "internalType": "address",
          "name": "from",
          "type": "address"
        },
        {
          "internalType": "address",
          "name": "to",
          "type": "address"
        },
        {
          "internalType": "uint256",
          "name": "tokenId",
          "type": "uint256"
        }
      ],
      "name": "safeTransferFrom",
      "outputs": [],
      "stateMutability": "nonpayable",
      "type": "function"
    },
    {
      "inputs": [
        {
          "internalType": "address",
          "name": "from",
          "type": "address"
        },
        {
          "internalType": "address",
          "name": "to",
          "type": "address"
        },
        {
          "internalType": "uint256",
          "name": "tokenId",
          "type": "uint256"
        },
        {
          "internalType": "bytes",
          "name": "_data",
          "type": "bytes"
        }
      ],
      "name": "safeTransferFrom",
      "outputs": [],
      "stateMutability": "nonpayable",
      "type": "function"
    },
    {
      "inputs": [
        {
          "internalType": "address",
          "name": "operator",
          "type": "address"
        },
        {
          "internalType": "bool",
          "name": "approved",
          "type": "bool"
        }
      ],
      "name": "setApprovalForAll",
      "outputs": [],
      "stateMutability": "nonpayable",
      "type": "function"
    },
    {
      "inputs": [
        {
          "internalType": "string",
          "name": "newBaseURI",
          "type": "string"
        }
      ],
      "name": "setBaseURI",
      "outputs": [],
      "stateMutability": "nonpayable",
      "type": "function"
    },
    {
      "inputs": [
        {
          "internalType": "bytes32",
          "name": "_claimMerkleRoot",
          "type": "bytes32"
        }
      ],
      "name": "setClaimMerkleRoot",
      "outputs": [],
      "stateMutability": "nonpayable",
      "type": "function"
    },
    {
      "inputs": [
        {
          "internalType": "uint256",
          "name": "_claimTime",
          "type": "uint256"
        }
      ],
      "name": "setClaimTime",
      "outputs": [],
      "stateMutability": "nonpayable",
      "type": "function"
    },
    {
      "inputs": [
        {
          "internalType": "uint256",
          "name": "quantity",
          "type": "uint256"
        }
      ],
      "name": "setOwnersExplicit",
      "outputs": [],
      "stateMutability": "nonpayable",
      "type": "function"
    },
    {
      "inputs": [
        {
          "internalType": "bytes32",
          "name": "_presaleMerkleRoot",
          "type": "bytes32"
        }
      ],
      "name": "setPresaleMerkleRoot",
      "outputs": [],
      "stateMutability": "nonpayable",
      "type": "function"
    },
    {
      "inputs": [
        {
          "internalType": "uint256",
          "name": "_presaleTime",
          "type": "uint256"
        }
      ],
      "name": "setPresaleTime",
      "outputs": [],
      "stateMutability": "nonpayable",
      "type": "function"
    },
    {
      "inputs": [
        {
          "internalType": "uint256",
          "name": "_publicTime",
          "type": "uint256"
        }
      ],
      "name": "setPublicTime",
      "outputs": [],
      "stateMutability": "nonpayable",
      "type": "function"
    },
    {
      "inputs": [
        {
          "internalType": "bytes4",
          "name": "interfaceId",
          "type": "bytes4"
        }
      ],
      "name": "supportsInterface",
      "outputs": [
        {
          "internalType": "bool",
          "name": "",
          "type": "bool"
        }
      ],
      "stateMutability": "view",
      "type": "function"
    },
    {
      "inputs": [],
      "name": "symbol",
      "outputs": [
        {
          "internalType": "string",
          "name": "",
          "type": "string"
        }
      ],
      "stateMutability": "view",
      "type": "function"
    },
    {
      "inputs": [
        {
          "internalType": "uint256",
          "name": "_tokenId",
          "type": "uint256"
        }
      ],
      "name": "tokenHash",
      "outputs": [
        {
          "internalType": "bytes32",
          "name": "",
          "type": "bytes32"
        }
      ],
      "stateMutability": "view",
      "type": "function"
    },
    {
      "inputs": [
        {
          "internalType": "uint256",
          "name": "tokenId",
          "type": "uint256"
        }
      ],
      "name": "tokenURI",
      "outputs": [
        {
          "internalType": "string",
          "name": "",
          "type": "string"
        }
      ],
      "stateMutability": "view",
      "type": "function"
    },
    {
      "inputs": [],
      "name": "totalSupply",
      "outputs": [
        {
          "internalType": "uint256",
          "name": "",
          "type": "uint256"
        }
      ],
      "stateMutability": "view",
      "type": "function"
    },
    {
      "inputs": [
        {
          "internalType": "address",
          "name": "from",
          "type": "address"
        },
        {
          "internalType": "address",
          "name": "to",
          "type": "address"
        },
        {
          "internalType": "uint256",
          "name": "tokenId",
          "type": "uint256"
        }
      ],
      "name": "transferFrom",
      "outputs": [],
      "stateMutability": "nonpayable",
      "type": "function"
    },
    {
      "inputs": [
        {
          "internalType": "address",
          "name": "newOwner",
          "type": "address"
        }
      ],
      "name": "transferOwnership",
      "outputs": [],
      "stateMutability": "nonpayable",
      "type": "function"
    },
    {
      "inputs": [],
      "name": "version",
      "outputs": [
        {
          "internalType": "string",
          "name": "",
          "type": "string"
        }
      ],
      "stateMutability": "view",
      "type": "function"
    },
    {
      "inputs": [],
      "name": "withdrawMoney",
      "outputs": [],
      "stateMutability": "nonpayable",
      "type": "function"
    }
  ],
  "bytecode": "0x6101006040523480156200001257600080fd5b50604051620030143803806200301483398101604081905262000035916200041d565b8851899089906200004e906002906020850190620002aa565b50805162000064906003906020840190620002aa565b505060008055506200007633620001cd565b6001600a5586620000d75760405162461bcd60e51b8152602060048201526031602482015260008051602062002ff4833981519152604482015270642d636f6c6c656374696f6e2d73697a6560781b60648201526084015b60405180910390fd5b86851115620001335760405162461bcd60e51b8152602060048201526032602482015260008051602062002ff4833981519152604482015271190b5c1c9bdb5bdd1a5bdb8b585b5bdd5b9d60721b6064820152608401620000ce565b60008411620001895760405162461bcd60e51b815260206004820152602c602482015260008051602062002ff483398151915260448201526b642d6d696e742d707269636560a01b6064820152608401620000ce565b60e087905260a0869052608085905260c0849052620001a8836200021f565b620001b3826200022e565b620001be816200023d565b50505050505050505062000508565b600980546001600160a01b038381166001600160a01b0319831681179093556040519116919082907f8be0079c531659141344cd1fd0a4f28419497f9722a3daafe3b4186f6b6457e090600090a35050565b620002296200024c565b600d55565b620002386200024c565b600e55565b620002476200024c565b600f55565b6009546001600160a01b03163314620002a85760405162461bcd60e51b815260206004820181905260248201527f4f776e61626c653a2063616c6c6572206973206e6f7420746865206f776e65726044820152606401620000ce565b565b828054620002b890620004cb565b90600052602060002090601f016020900481019282620002dc576000855562000327565b82601f10620002f757805160ff191683800117855562000327565b8280016001018555821562000327579182015b82811115620003275782518255916020019190600101906200030a565b506200033592915062000339565b5090565b5b808211156200033557600081556001016200033a565b634e487b7160e01b600052604160045260246000fd5b600082601f8301126200037857600080fd5b81516001600160401b038082111562000395576200039562000350565b604051601f8301601f19908116603f01168101908282118183101715620003c057620003c062000350565b81604052838152602092508683858801011115620003dd57600080fd5b600091505b83821015620004015785820183015181830184015290820190620003e2565b83821115620004135760008385830101525b9695505050505050565b60008060008060008060008060006101208a8c0312156200043d57600080fd5b89516001600160401b03808211156200045557600080fd5b620004638d838e0162000366565b9a5060208c01519150808211156200047a57600080fd5b50620004898c828d0162000366565b98505060408a0151965060608a0151955060808a0151945060a08a0151935060c08a0151925060e08a015191506101008a015190509295985092959850929598565b600181811c90821680620004e057607f821691505b602082108114156200050257634e487b7160e01b600052602260045260246000fd5b50919050565b60805160a05160c05160e051612a656200058f6000396000818161046f01528181610a3f01528181610d3c01526113f101526000818161056801528181610b310152610e2801526000818161051401528181610ac101528181610cfc01528181610db801528181611242015261146d0152600081816105e601526111b90152612a656000f3fe60806040526004361061025c5760003560e01c80636352211e11610144578063ac446002116100b6578063c87b56dd1161007a578063c87b56dd1461071c578063d7224ba01461073c578063e7d5161114610752578063e985e9c514610772578063f2fde38b146107bb578063fd1e2962146107db57600080fd5b8063ac44600214610691578063b1f536fa146106a6578063b88d4fde146106c6578063ba2f59c8146106e6578063c6e62e0b1461070657600080fd5b806376972db21161010857806376972db2146105d45780638da5cb5b1461060857806395d89b41146106265780639c4dab521461063b578063a22cb46514610651578063a38643971461067157600080fd5b80636352211e146105365780636817c76c146105565780636c0360eb1461058a57806370a082311461059f578063715018a6146105bf57600080fd5b806327b3bf11116101dd57806342842e0e116101a157806342842e0e1461043d57806345c0f5331461045d57806348ce85841461049157806354fd4d50146104b157806355f804b3146104e2578063572849c41461050257600080fd5b806327b3bf11146103b457806328d7b276146103ca5780632d20fb60146103ea5780632db115441461040a578063421cc3371461041d57600080fd5b806318160ddd1161022457806318160ddd146103325780631b59169d146103555780631bdc608e1461036857806322212e2b1461037e57806323b872dd1461039457600080fd5b806301ffc9a71461026157806306fdde0314610296578063081812fc146102b8578063095ea7b3146102f0578063150c5c2614610312575b600080fd5b34801561026d57600080fd5b5061028161027c36600461229e565b6107fb565b60405190151581526020015b60405180910390f35b3480156102a257600080fd5b506102ab61084d565b60405161028d9190612313565b3480156102c457600080fd5b506102d86102d3366004612326565b6108df565b6040516001600160a01b03909116815260200161028d565b3480156102fc57600080fd5b5061031061030b36600461235b565b610923565b005b34801561031e57600080fd5b5061031061032d366004612326565b6109b1565b34801561033e57600080fd5b50600154600054035b60405190815260200161028d565b610310610363366004612385565b6109be565b34801561037457600080fd5b50610347600f5481565b34801561038a57600080fd5b50610347600b5481565b3480156103a057600080fd5b506103106103af366004612407565b610c4b565b3480156103c057600080fd5b50610347600d5481565b3480156103d657600080fd5b506103106103e5366004612326565b610c56565b3480156103f657600080fd5b50610310610405366004612326565b610c63565b610310610418366004612326565b610ca4565b34801561042957600080fd5b50610310610438366004612326565b610ea1565b34801561044957600080fd5b50610310610458366004612407565b610eae565b34801561046957600080fd5b506103477f000000000000000000000000000000000000000000000000000000000000000081565b34801561049d57600080fd5b506103106104ac366004612326565b610ec9565b3480156104bd57600080fd5b506102ab604051806040016040528060058152602001640312e302e360dc1b81525081565b3480156104ee57600080fd5b506103106104fd366004612443565b610ed6565b34801561050e57600080fd5b506103477f000000000000000000000000000000000000000000000000000000000000000081565b34801561054257600080fd5b506102d8610551366004612326565b610f21565b34801561056257600080fd5b506103477f000000000000000000000000000000000000000000000000000000000000000081565b34801561059657600080fd5b506102ab610f33565b3480156105ab57600080fd5b506103476105ba3660046124b4565b610f42565b3480156105cb57600080fd5b50610310610f90565b3480156105e057600080fd5b506103477f000000000000000000000000000000000000000000000000000000000000000081565b34801561061457600080fd5b506009546001600160a01b03166102d8565b34801561063257600080fd5b506102ab610fa4565b34801561064757600080fd5b50610347600c5481565b34801561065d57600080fd5b5061031061066c3660046124cf565b610fb3565b34801561067d57600080fd5b5061034761068c366004612326565b611049565b34801561069d57600080fd5b50610310611084565b3480156106b257600080fd5b506103476106c13660046124b4565b611153565b3480156106d257600080fd5b506103106106e1366004612521565b61115e565b3480156106f257600080fd5b50610310610701366004612326565b6111af565b34801561071257600080fd5b50610347600e5481565b34801561072857600080fd5b506102ab610737366004612326565b6112f4565b34801561074857600080fd5b5061034760085481565b34801561075e57600080fd5b5061031061076d366004612385565b611379565b34801561077e57600080fd5b5061028161078d3660046125fc565b6001600160a01b03918216600090815260076020908152604080832093909416825291909152205460ff1690565b3480156107c757600080fd5b506103106107d63660046124b4565b611576565b3480156107e757600080fd5b506103106107f6366004612326565b6115ef565b60006001600160e01b031982166380ac58cd60e01b148061082c57506001600160e01b03198216635b5e139f60e01b145b8061084757506301ffc9a760e01b6001600160e01b03198316145b92915050565b60606002805461085c9061262f565b80601f01602080910402602001604051908101604052809291908181526020018280546108889061262f565b80156108d55780601f106108aa576101008083540402835291602001916108d5565b820191906000526020600020905b8154815290600101906020018083116108b857829003601f168201915b5050505050905090565b60006108ea826115fc565b610907576040516333d1c03960e21b815260040160405180910390fd5b506000908152600660205260409020546001600160a01b031690565b600061092e82610f21565b9050806001600160a01b0316836001600160a01b031614156109635760405163250fdee360e21b815260040160405180910390fd5b336001600160a01b038216148015906109835750610981813361078d565b155b156109a1576040516367d9dca160e11b815260040160405180910390fd5b6109ac838383611627565b505050565b6109b9611683565b600f55565b6002600a5414156109ea5760405162461bcd60e51b81526004016109e19061266a565b60405180910390fd5b6002600a55600e548015801590610a0057508042115b610a1c5760405162461bcd60e51b81526004016109e1906126a1565b8484323314610a3d5760405162461bcd60e51b81526004016109e1906126da565b7f0000000000000000000000000000000000000000000000000000000000000000610a7583610a6f6001546000540390565b906116dd565b1115610a935760405162461bcd60e51b81526004016109e190612715565b80610aa183610a6f336116e9565b1115610abf5760405162461bcd60e51b81526004016109e190612751565b7f0000000000000000000000000000000000000000000000000000000000000000610aed83610a6f336116e9565b1115610b0b5760405162461bcd60e51b81526004016109e190612751565b60008211610b2b5760405162461bcd60e51b81526004016109e19061279c565b86610b567f000000000000000000000000000000000000000000000000000000000000000082611717565b3414610b745760405162461bcd60e51b81526004016109e1906127e7565b60003411610b945760405162461bcd60e51b81526004016109e19061279c565b86338787600b54610c11838380806020026020016040519081016040528093929190818152602001838360200280828437600092019190915250506040516001600160601b031960608a901b166020820152603481018a905285925060540190505b60405160208183030381529060405280519060200120611723565b610c2d5760405162461bcd60e51b81526004016109e190612821565b610c37338e611739565b50506001600a555050505050505050505050565b6109ac83838361185e565b610c5e611683565b600b55565b610c6b611683565b6002600a541415610c8e5760405162461bcd60e51b81526004016109e19061266a565b6002600a55610c9c81611a4c565b506001600a55565b6002600a541415610cc75760405162461bcd60e51b81526004016109e19061266a565b6002600a55600f548015801590610cdd57508042115b610cf95760405162461bcd60e51b81526004016109e1906126a1565b817f0000000000000000000000000000000000000000000000000000000000000000323314610d3a5760405162461bcd60e51b81526004016109e1906126da565b7f0000000000000000000000000000000000000000000000000000000000000000610d6c83610a6f6001546000540390565b1115610d8a5760405162461bcd60e51b81526004016109e190612715565b80610d9883610a6f336116e9565b1115610db65760405162461bcd60e51b81526004016109e190612751565b7f0000000000000000000000000000000000000000000000000000000000000000610de483610a6f336116e9565b1115610e025760405162461bcd60e51b81526004016109e190612751565b60008211610e225760405162461bcd60e51b81526004016109e19061279c565b83610e4d7f000000000000000000000000000000000000000000000000000000000000000082611717565b3414610e6b5760405162461bcd60e51b81526004016109e1906127e7565b60003411610e8b5760405162461bcd60e51b81526004016109e19061279c565b610e953386611739565b50506001600a55505050565b610ea9611683565b600d55565b6109ac8383836040518060200160405280600081525061115e565b610ed1611683565b600e55565b610ede611683565b610f1d82828080601f016020809104026020016040519081016040528093929190818152602001838380828437600092019190915250611b8392505050565b5050565b6000610f2c82611b96565b5192915050565b60606011805461085c9061262f565b60006001600160a01b038216610f6b576040516323d3ad8160e21b815260040160405180910390fd5b506001600160a01b03166000908152600560205260409020546001600160401b031690565b610f98611683565b610fa26000611cb0565b565b60606003805461085c9061262f565b6001600160a01b038216331415610fdd5760405163b06307db60e01b815260040160405180910390fd5b3360008181526007602090815260408083206001600160a01b03871680855290835292819020805460ff191686151590811790915590519081529192917f17307eab39ab6107e8899845ad3d59bd9653f200f220920489ca2b5937696c31910160405180910390a35050565b6000611054826115fc565b6110715760405163963eb14f60e01b815260040160405180910390fd5b5060009081526010602052604090205490565b61108c611683565b6002600a5414156110af5760405162461bcd60e51b81526004016109e19061266a565b6002600a55604051600090339047908381818185875af1925050503d80600081146110f6576040519150601f19603f3d011682016040523d82523d6000602084013e6110fb565b606091505b5050905080610c9c5760405162461bcd60e51b81526020600482015260306024820152600080516020612a1083398151915260448201526f642d77697468647261772d6d6f6e657960801b60648201526084016109e1565b6000610847826116e9565b61116984848461185e565b6001600160a01b0383163b1515801561118b575061118984848484611d02565b155b156111a9576040516368d2bf6b60e11b815260040160405180910390fd5b50505050565b6111b7611683565b7f00000000000000000000000000000000000000000000000000000000000000006111e982610a6f6001546000540390565b11156112405760405162461bcd60e51b81526020600482015260326024820152600080516020612a10833981519152604482015271642d70726f6d6f74696f6e2d737570706c7960701b60648201526084016109e1565b7f000000000000000000000000000000000000000000000000000000000000000061126b8282611dfa565b156112bf5760405162461bcd60e51b81526020600482015260306024820152600080516020612a1083398151915260448201526f642d62617463682d6d756c7469706c6560801b60648201526084016109e1565b60006112cb8383611e06565b905060005b818110156111a9576112e23384611739565b806112ec81612874565b9150506112d0565b60606112ff826115fc565b61131c57604051630a14c4b560e41b815260040160405180910390fd5b6000611326611e12565b90508051600014156113475760405180602001604052806000815250611372565b8061135184611e21565b60405160200161136292919061288f565b6040516020818303038152906040525b9392505050565b6002600a54141561139c5760405162461bcd60e51b81526004016109e19061266a565b6002600a55600d5480158015906113b257508042115b6113ce5760405162461bcd60e51b81526004016109e1906126a1565b84843233146113ef5760405162461bcd60e51b81526004016109e1906126da565b7f000000000000000000000000000000000000000000000000000000000000000061142183610a6f6001546000540390565b111561143f5760405162461bcd60e51b81526004016109e190612715565b8061144d83610a6f336116e9565b111561146b5760405162461bcd60e51b81526004016109e190612751565b7f000000000000000000000000000000000000000000000000000000000000000061149983610a6f336116e9565b11156114b75760405162461bcd60e51b81526004016109e190612751565b600082116114d75760405162461bcd60e51b81526004016109e19061279c565b85338686600c5461153d838380806020026020016040519081016040528093929190818152602001838360200280828437600092019190915250506040516001600160601b031960608a901b166020820152603481018a90528592506054019050610bf6565b6115595760405162461bcd60e51b81526004016109e190612821565b611563338d611739565b50506001600a5550505050505050505050565b61157e611683565b6001600160a01b0381166115e35760405162461bcd60e51b815260206004820152602660248201527f4f776e61626c653a206e6577206f776e657220697320746865207a65726f206160448201526564647265737360d01b60648201526084016109e1565b6115ec81611cb0565b50565b6115f7611683565b600c55565b6000805482108015610847575050600090815260046020526040902054600160e01b900460ff161590565b60008281526006602052604080822080546001600160a01b0319166001600160a01b0387811691821790925591518593918516917f8c5be1e5ebec7d5bd14f71427d1e84f3dd0314c0f7b2291e5b200ac8c7c3b92591a4505050565b6009546001600160a01b03163314610fa25760405162461bcd60e51b815260206004820181905260248201527f4f776e61626c653a2063616c6c6572206973206e6f7420746865206f776e657260448201526064016109e1565b600061137282846128be565b6001600160a01b038116600090815260056020526040812054600160401b90046001600160401b0316610847565b600061137282846128d6565b6000826117308584611f1e565b14949350505050565b6117438282611f6b565b60006117526001546000540390565b905060006117608284611f85565b90506000836001600160401b0381111561177c5761177c61250b565b6040519080825280602002602001820160405280156117a5578160200160208202803683370190505b50905060005b848110156118115760006117bf84836116dd565b905060006117cc82611f91565b9050808484815181106117e1576117e16128f5565b6020908102919091018101919091526000928352601090526040909120558061180981612874565b9150506117ab565b50846001600160a01b03167f5cb27d2833c0b1f5f25192224a4f5c4573f3c2a9394c0a0a9a31c092e8879eb484868460405161184f9392919061290b565b60405180910390a25050505050565b600061186982611b96565b9050836001600160a01b031681600001516001600160a01b0316146118a05760405162a1148160e81b815260040160405180910390fd5b6000336001600160a01b03861614806118be57506118be853361078d565b806118d95750336118ce846108df565b6001600160a01b0316145b9050806118f957604051632ce44b5f60e11b815260040160405180910390fd5b6001600160a01b03841661192057604051633a954ecd60e21b815260040160405180910390fd5b61192c60008487611627565b6001600160a01b038581166000908152600560209081526040808320805467ffffffffffffffff198082166001600160401b0392831660001901831617909255898616808652838620805493841693831660019081018416949094179055898652600490945282852080546001600160e01b031916909417600160a01b42909216919091021783558701808452922080549193909116611a00576000548214611a0057805460208601516001600160401b0316600160a01b026001600160e01b03199091166001600160a01b038a16171781555b50505082846001600160a01b0316866001600160a01b03167fddf252ad1be2c89b69c2b068fc378daa952ba7f163c4a11628f55a4df523b3ef60405160405180910390a45b5050505050565b80611a6a576040516356be441560e01b815260040160405180910390fd5b600054611a8a5760405163c0367cab60e01b815260040160405180910390fd5b60085480611a96575060005b6000548110611ab8576040516370e89b1b60e01b815260040160405180910390fd5b6000548282016000198101911015611ad35750600054600019015b815b818111611b78576000818152600460205260409020546001600160a01b0316158015611b175750600081815260046020526040902054600160e01b900460ff16155b15611b70576000611b2782611b96565b80516000848152600460209081526040909120805491909301516001600160401b0316600160a01b026001600160e01b03199091166001600160a01b0390921691909117179055505b600101611ad5565b506001016008555050565b8051610f1d9060119060208401906121ef565b604080516060810182526000808252602082018190529181019190915281600054811015611c9757600081815260046020908152604091829020825160608101845290546001600160a01b0381168252600160a01b81046001600160401b031692820192909252600160e01b90910460ff16151591810182905290611c955780516001600160a01b031615611c2c579392505050565b5060001901600081815260046020908152604091829020825160608101845290546001600160a01b038116808352600160a01b82046001600160401b031693830193909352600160e01b900460ff1615159281019290925215611c90579392505050565b611c2c565b505b604051636f96cda160e11b815260040160405180910390fd5b600980546001600160a01b038381166001600160a01b0319831681179093556040519116919082907f8be0079c531659141344cd1fd0a4f28419497f9722a3daafe3b4186f6b6457e090600090a35050565b604051630a85bd0160e11b81526000906001600160a01b0385169063150b7a0290611d37903390899088908890600401612960565b602060405180830381600087803b158015611d5157600080fd5b505af1925050508015611d81575060408051601f3d908101601f19168201909252611d7e9181019061299d565b60015b611ddc573d808015611daf576040519150601f19603f3d011682016040523d82523d6000602084013e611db4565b606091505b508051611dd4576040516368d2bf6b60e11b815260040160405180910390fd5b805181602001fd5b6001600160e01b031916630a85bd0160e11b1490505b949350505050565b600061137282846129d0565b600061137282846129e4565b6060611e1c610f33565b905090565b606081611e455750506040805180820190915260018152600360fc1b602082015290565b8160005b8115611e6f5780611e5981612874565b9150611e689050600a836129e4565b9150611e49565b6000816001600160401b03811115611e8957611e8961250b565b6040519080825280601f01601f191660200182016040528015611eb3576020820181803683370190505b5090505b8415611df257611ec86001836129f8565b9150611ed5600a866129d0565b611ee09060306128be565b60f81b818381518110611ef557611ef56128f5565b60200101906001600160f81b031916908160001a905350611f17600a866129e4565b9450611eb7565b600081815b8451811015611f6357611f4f82868381518110611f4257611f426128f5565b6020026020010151611fed565b915080611f5b81612874565b915050611f23565b509392505050565b610f1d82826040518060200160405280600081525061201c565b600061137282846129f8565b60008132611fa06001436129f8565b604051602001611fd09392919092835260609190911b6001600160601b0319166020830152603482015260540190565b604051602081830303815290604052805190602001209050919050565b6000818310612009576000828152602084905260409020611372565b6000838152602083905260409020611372565b6109ac83838360016000546001600160a01b03851661204d57604051622e076360e81b815260040160405180910390fd5b8361206b5760405163b562e8dd60e01b815260040160405180910390fd5b6001600160a01b038516600081815260056020908152604080832080546fffffffffffffffffffffffffffffffff1981166001600160401b038083168c018116918217600160401b67ffffffffffffffff1990941690921783900481168c01811690920217909155858452600490925290912080546001600160e01b031916909217600160a01b42909216919091021790558080850183801561211757506001600160a01b0387163b15155b156121a0575b60405182906001600160a01b038916906000907fddf252ad1be2c89b69c2b068fc378daa952ba7f163c4a11628f55a4df523b3ef908290a46121686000888480600101955088611d02565b612185576040516368d2bf6b60e11b815260040160405180910390fd5b8082141561211d57826000541461219b57600080fd5b6121e6565b5b6040516001830192906001600160a01b038916906000907fddf252ad1be2c89b69c2b068fc378daa952ba7f163c4a11628f55a4df523b3ef908290a4808214156121a1575b50600055611a45565b8280546121fb9061262f565b90600052602060002090601f01602090048101928261221d5760008555612263565b82601f1061223657805160ff1916838001178555612263565b82800160010185558215612263579182015b82811115612263578251825591602001919060010190612248565b5061226f929150612273565b5090565b5b8082111561226f5760008155600101612274565b6001600160e01b0319811681146115ec57600080fd5b6000602082840312156122b057600080fd5b813561137281612288565b60005b838110156122d65781810151838201526020016122be565b838111156111a95750506000910152565b600081518084526122ff8160208601602086016122bb565b601f01601f19169290920160200192915050565b60208152600061137260208301846122e7565b60006020828403121561233857600080fd5b5035919050565b80356001600160a01b038116811461235657600080fd5b919050565b6000806040838503121561236e57600080fd5b6123778361233f565b946020939093013593505050565b6000806000806060858703121561239b57600080fd5b843593506020850135925060408501356001600160401b03808211156123c057600080fd5b818701915087601f8301126123d457600080fd5b8135818111156123e357600080fd5b8860208260051b85010111156123f857600080fd5b95989497505060200194505050565b60008060006060848603121561241c57600080fd5b6124258461233f565b92506124336020850161233f565b9150604084013590509250925092565b6000806020838503121561245657600080fd5b82356001600160401b038082111561246d57600080fd5b818501915085601f83011261248157600080fd5b81358181111561249057600080fd5b8660208285010111156124a257600080fd5b60209290920196919550909350505050565b6000602082840312156124c657600080fd5b6113728261233f565b600080604083850312156124e257600080fd5b6124eb8361233f565b91506020830135801515811461250057600080fd5b809150509250929050565b634e487b7160e01b600052604160045260246000fd5b6000806000806080858703121561253757600080fd5b6125408561233f565b935061254e6020860161233f565b92506040850135915060608501356001600160401b038082111561257157600080fd5b818701915087601f83011261258557600080fd5b8135818111156125975761259761250b565b604051601f8201601f19908116603f011681019083821181831017156125bf576125bf61250b565b816040528281528a60208487010111156125d857600080fd5b82602086016020830137600060208483010152809550505050505092959194509250565b6000806040838503121561260f57600080fd5b6126188361233f565b91506126266020840161233f565b90509250929050565b600181811c9082168061264357607f821691505b6020821081141561266457634e487b7160e01b600052602260045260246000fd5b50919050565b6020808252601f908201527f5265656e7472616e637947756172643a207265656e7472616e742063616c6c00604082015260600190565b6020808252602b90820152600080516020612a1083398151915260408201526a642d6d696e742d74696d6560a81b606082015260800190565b6020808252602d90820152600080516020612a1083398151915260408201526c3216b6b4b73a16b1b0b63632b960991b606082015260800190565b6020808252602e90820152600080516020612a1083398151915260408201526d642d746f74616c2d737570706c7960901b606082015260800190565b6020808252603b90820152600080516020612a1083398151915260408201527f642d696e766f636174696f6e2d75707065722d626f756e646172790000000000606082015260800190565b6020808252603b90820152600080516020612a1083398151915260408201527f642d696e766f636174696f6e2d6c6f7765722d626f756e646172790000000000606082015260800190565b6020808252602c90820152600080516020612a1083398151915260408201526b642d6d696e742d76616c756560a01b606082015260800190565b6020808252602f90820152600080516020612a1083398151915260408201526e3216b0b2323932b9b996b83937b7b360891b606082015260800190565b634e487b7160e01b600052601160045260246000fd5b60006000198214156128885761288861285e565b5060010190565b600083516128a18184602088016122bb565b8351908301906128b58183602088016122bb565b01949350505050565b600082198211156128d1576128d161285e565b500190565b60008160001904831182151516156128f0576128f061285e565b500290565b634e487b7160e01b600052603260045260246000fd5b6000606082018583526020858185015260606040850152818551808452608086019150828701935060005b8181101561295257845183529383019391830191600101612936565b509098975050505050505050565b6001600160a01b0385811682528416602082015260408101839052608060608201819052600090612993908301846122e7565b9695505050505050565b6000602082840312156129af57600080fd5b815161137281612288565b634e487b7160e01b600052601260045260246000fd5b6000826129df576129df6129ba565b500690565b6000826129f3576129f36129ba565b500490565b600082821015612a0a57612a0a61285e565b50039056fe52686170736f647943726561746f7247656e657261746976652f696e76616c69a264697066735822122070e084702a851b792315a314de07fb08bd7c4f12676793d344318eb7ff67d4a864736f6c6343000809003352686170736f647943726561746f7247656e657261746976652f696e76616c69",
  "linkReferences": {},
  "deployedLinkReferences": {}
}