{
  "_format": "hh-sol-artifact-1",
  "contractName": "RhapsodyCreatorGenerative",
  "sourceName": "contracts/RhapsodyCreatorGenerative.sol",
  "abi": [
    {
      "inputs": [
        {
          "internalType": "string",
          "name": "_name",
          "type": "string"
        },
        {
          "internalType": "string",
          "name": "_symbol",
          "type": "string"
        },
        {
          "internalType": "uint256",
          "name": "_collectionSize",
          "type": "uint256"
        },
        {
          "internalType": "uint256",
          "name": "_maxMintPerAddress",
          "type": "uint256"
        },
        {
          "internalType": "uint256",
          "name": "_amountForPromotion",
          "type": "uint256"
        },
        {
          "internalType": "uint256",
          "name": "_mintPrice",
          "type": "uint256"
        },
        {
          "internalType": "uint256",
          "name": "_claimTime",
          "type": "uint256"
        },
        {
          "internalType": "uint256",
          "name": "_presaleTime",
          "type": "uint256"
        },
        {
          "internalType": "uint256",
          "name": "_publicTime",
          "type": "uint256"
        }
      ],
      "stateMutability": "nonpayable",
      "type": "constructor"
    },
    {
      "inputs": [],
      "name": "AllOwnershipsHaveBeenSet",
      "type": "error"
    },
    {
      "inputs": [],
      "name": "ApprovalCallerNotOwnerNorApproved",
      "type": "error"
    },
    {
      "inputs": [],
      "name": "ApprovalQueryForNonexistentToken",
      "type": "error"
    },
    {
      "inputs": [],
      "name": "ApprovalToCurrentOwner",
      "type": "error"
    },
    {
      "inputs": [],
      "name": "ApproveToCaller",
      "type": "error"
    },
    {
      "inputs": [],
      "name": "BalanceQueryForZeroAddress",
      "type": "error"
    },
    {
      "inputs": [],
      "name": "HashQueryForNonexistentToken",
      "type": "error"
    },
    {
      "inputs": [],
      "name": "MintToZeroAddress",
      "type": "error"
    },
    {
      "inputs": [],
      "name": "MintZeroQuantity",
      "type": "error"
    },
    {
      "inputs": [],
      "name": "NoTokensMintedYet",
      "type": "error"
    },
    {
      "inputs": [],
      "name": "OwnerQueryForNonexistentToken",
      "type": "error"
    },
    {
      "inputs": [],
      "name": "QuantityMustBeNonZero",
      "type": "error"
    },
    {
      "inputs": [],
      "name": "TransferCallerNotOwnerNorApproved",
      "type": "error"
    },
    {
      "inputs": [],
      "name": "TransferFromIncorrectOwner",
      "type": "error"
    },
    {
      "inputs": [],
      "name": "TransferToNonERC721ReceiverImplementer",
      "type": "error"
    },
    {
      "inputs": [],
      "name": "TransferToZeroAddress",
      "type": "error"
    },
    {
      "inputs": [],
      "name": "URIQueryForNonexistentToken",
      "type": "error"
    },
    {
      "anonymous": false,
      "inputs": [
        {
          "indexed": true,
          "internalType": "address",
          "name": "owner",
          "type": "address"
        },
        {
          "indexed": true,
          "internalType": "address",
          "name": "approved",
          "type": "address"
        },
        {
          "indexed": true,
          "internalType": "uint256",
          "name": "tokenId",
          "type": "uint256"
        }
      ],
      "name": "Approval",
      "type": "event"
    },
    {
      "anonymous": false,
      "inputs": [
        {
          "indexed": true,
          "internalType": "address",
          "name": "owner",
          "type": "address"
        },
        {
          "indexed": true,
          "internalType": "address",
          "name": "operator",
          "type": "address"
        },
        {
          "indexed": false,
          "internalType": "bool",
          "name": "approved",
          "type": "bool"
        }
      ],
      "name": "ApprovalForAll",
      "type": "event"
    },
    {
      "anonymous": false,
      "inputs": [
        {
          "indexed": true,
          "internalType": "address",
          "name": "to",
          "type": "address"
        },
        {
          "indexed": false,
          "internalType": "uint256",
          "name": "currentTotalSupply",
          "type": "uint256"
        },
        {
          "indexed": false,
          "internalType": "uint256",
          "name": "invocations",
          "type": "uint256"
        },
        {
          "indexed": false,
          "internalType": "bytes32[]",
          "name": "identifiers",
          "type": "bytes32[]"
        }
      ],
      "name": "Created",
      "type": "event"
    },
    {
      "anonymous": false,
      "inputs": [
        {
          "indexed": true,
          "internalType": "address",
          "name": "previousOwner",
          "type": "address"
        },
        {
          "indexed": true,
          "internalType": "address",
          "name": "newOwner",
          "type": "address"
        }
      ],
      "name": "OwnershipTransferred",
      "type": "event"
    },
    {
      "anonymous": false,
      "inputs": [
        {
          "indexed": true,
          "internalType": "address",
          "name": "from",
          "type": "address"
        },
        {
          "indexed": true,
          "internalType": "address",
          "name": "to",
          "type": "address"
        },
        {
          "indexed": true,
          "internalType": "uint256",
          "name": "tokenId",
          "type": "uint256"
        }
      ],
      "name": "Transfer",
      "type": "event"
    },
    {
      "inputs": [],
      "name": "amountForPromotion",
      "outputs": [
        {
          "internalType": "uint256",
          "name": "",
          "type": "uint256"
        }
      ],
      "stateMutability": "view",
      "type": "function"
    },
    {
      "inputs": [
        {
          "internalType": "address",
          "name": "to",
          "type": "address"
        },
        {
          "internalType": "uint256",
          "name": "tokenId",
          "type": "uint256"
        }
      ],
      "name": "approve",
      "outputs": [],
      "stateMutability": "nonpayable",
      "type": "function"
    },
    {
      "inputs": [
        {
          "internalType": "address",
          "name": "owner",
          "type": "address"
        }
      ],
      "name": "balanceOf",
      "outputs": [
        {
          "internalType": "uint256",
          "name": "",
          "type": "uint256"
        }
      ],
      "stateMutability": "view",
      "type": "function"
    },
    {
      "inputs": [],
      "name": "baseURI",
      "outputs": [
        {
          "internalType": "string",
          "name": "",
          "type": "string"
        }
      ],
      "stateMutability": "view",
      "type": "function"
    },
    {
      "inputs": [],
      "name": "claimMerkleRoot",
      "outputs": [
        {
          "internalType": "bytes32",
          "name": "",
          "type": "bytes32"
        }
      ],
      "stateMutability": "view",
      "type": "function"
    },
    {
      "inputs": [
        {
          "internalType": "uint256",
          "name": "invocations",
          "type": "uint256"
        },
        {
          "internalType": "bytes32[]",
          "name": "proof",
          "type": "bytes32[]"
        }
      ],
      "name": "claimMint",
      "outputs": [],
      "stateMutability": "nonpayable",
      "type": "function"
    },
    {
      "inputs": [],
      "name": "claimTime",
      "outputs": [
        {
          "internalType": "uint256",
          "name": "",
          "type": "uint256"
        }
      ],
      "stateMutability": "view",
      "type": "function"
    },
    {
      "inputs": [],
      "name": "collectionSize",
      "outputs": [
        {
          "internalType": "uint256",
          "name": "",
          "type": "uint256"
        }
      ],
      "stateMutability": "view",
      "type": "function"
    },
    {
      "inputs": [
        {
          "internalType": "uint256",
          "name": "tokenId",
          "type": "uint256"
        }
      ],
      "name": "getApproved",
      "outputs": [
        {
          "internalType": "address",
          "name": "",
          "type": "address"
        }
      ],
      "stateMutability": "view",
      "type": "function"
    },
    {
      "inputs": [
        {
          "internalType": "address",
          "name": "owner",
          "type": "address"
        },
        {
          "internalType": "address",
          "name": "operator",
          "type": "address"
        }
      ],
      "name": "isApprovedForAll",
      "outputs": [
        {
          "internalType": "bool",
          "name": "",
          "type": "bool"
        }
      ],
      "stateMutability": "view",
      "type": "function"
    },
    {
      "inputs": [],
      "name": "maxMintPerAddress",
      "outputs": [
        {
          "internalType": "uint256",
          "name": "",
          "type": "uint256"
        }
      ],
      "stateMutability": "view",
      "type": "function"
    },
    {
      "inputs": [
        {
          "internalType": "address",
          "name": "_owner",
          "type": "address"
        }
      ],
      "name": "mintOf",
      "outputs": [
        {
          "internalType": "uint256",
          "name": "",
          "type": "uint256"
        }
      ],
      "stateMutability": "view",
      "type": "function"
    },
    {
      "inputs": [],
      "name": "mintPrice",
      "outputs": [
        {
          "internalType": "uint256",
          "name": "",
          "type": "uint256"
        }
      ],
      "stateMutability": "view",
      "type": "function"
    },
    {
      "inputs": [],
      "name": "name",
      "outputs": [
        {
          "internalType": "string",
          "name": "",
          "type": "string"
        }
      ],
      "stateMutability": "view",
      "type": "function"
    },
    {
      "inputs": [],
      "name": "nextOwnerToExplicitlySet",
      "outputs": [
        {
          "internalType": "uint256",
          "name": "",
          "type": "uint256"
        }
      ],
      "stateMutability": "view",
      "type": "function"
    },
    {
      "inputs": [],
      "name": "owner",
      "outputs": [
        {
          "internalType": "address",
          "name": "",
          "type": "address"
        }
      ],
      "stateMutability": "view",
      "type": "function"
    },
    {
      "inputs": [
        {
          "internalType": "uint256",
          "name": "tokenId",
          "type": "uint256"
        }
      ],
      "name": "ownerOf",
      "outputs": [
        {
          "internalType": "address",
          "name": "",
          "type": "address"
        }
      ],
      "stateMutability": "view",
      "type": "function"
    },
    {
      "inputs": [],
      "name": "presaleMerkleRoot",
      "outputs": [
        {
          "internalType": "bytes32",
          "name": "",
          "type": "bytes32"
        }
      ],
      "stateMutability": "view",
      "type": "function"
    },
    {
      "inputs": [
        {
          "internalType": "uint256",
          "name": "invocations",
          "type": "uint256"
        },
        {
          "internalType": "uint256",
          "name": "maxInvocation",
          "type": "uint256"
        },
        {
          "internalType": "bytes32[]",
          "name": "proof",
          "type": "bytes32[]"
        }
      ],
      "name": "presaleMint",
      "outputs": [],
      "stateMutability": "payable",
      "type": "function"
    },
    {
      "inputs": [],
      "name": "presaleTime",
      "outputs": [
        {
          "internalType": "uint256",
          "name": "",
          "type": "uint256"
        }
      ],
      "stateMutability": "view",
      "type": "function"
    },
    {
      "inputs": [
        {
          "internalType": "uint256",
          "name": "invocations",
          "type": "uint256"
        }
      ],
      "name": "promotionMint",
      "outputs": [],
      "stateMutability": "nonpayable",
      "type": "function"
    },
    {
      "inputs": [
        {
          "internalType": "uint256",
          "name": "invocations",
          "type": "uint256"
        }
      ],
      "name": "publicMint",
      "outputs": [],
      "stateMutability": "payable",
      "type": "function"
    },
    {
      "inputs": [],
      "name": "publicTime",
      "outputs": [
        {
          "internalType": "uint256",
          "name": "",
          "type": "uint256"
        }
      ],
      "stateMutability": "view",
      "type": "function"
    },
    {
      "inputs": [],
      "name": "renounceOwnership",
      "outputs": [],
      "stateMutability": "nonpayable",
      "type": "function"
    },
    {
      "inputs": [
        {
          "internalType": "address",
          "name": "from",
          "type": "address"
        },
        {
          "internalType": "address",
          "name": "to",
          "type": "address"
        },
        {
          "internalType": "uint256",
          "name": "tokenId",
          "type": "uint256"
        }
      ],
      "name": "safeTransferFrom",
      "outputs": [],
      "stateMutability": "nonpayable",
      "type": "function"
    },
    {
      "inputs": [
        {
          "internalType": "address",
          "name": "from",
          "type": "address"
        },
        {
          "internalType": "address",
          "name": "to",
          "type": "address"
        },
        {
          "internalType": "uint256",
          "name": "tokenId",
          "type": "uint256"
        },
        {
          "internalType": "bytes",
          "name": "_data",
          "type": "bytes"
        }
      ],
      "name": "safeTransferFrom",
      "outputs": [],
      "stateMutability": "nonpayable",
      "type": "function"
    },
    {
      "inputs": [
        {
          "internalType": "address",
          "name": "operator",
          "type": "address"
        },
        {
          "internalType": "bool",
          "name": "approved",
          "type": "bool"
        }
      ],
      "name": "setApprovalForAll",
      "outputs": [],
      "stateMutability": "nonpayable",
      "type": "function"
    },
    {
      "inputs": [
        {
          "internalType": "string",
          "name": "newBaseURI",
          "type": "string"
        }
      ],
      "name": "setBaseURI",
      "outputs": [],
      "stateMutability": "nonpayable",
      "type": "function"
    },
    {
      "inputs": [
        {
          "internalType": "bytes32",
          "name": "_claimMerkleRoot",
          "type": "bytes32"
        }
      ],
      "name": "setClaimMerkleRoot",
      "outputs": [],
      "stateMutability": "nonpayable",
      "type": "function"
    },
    {
      "inputs": [
        {
          "internalType": "uint256",
          "name": "_claimTime",
          "type": "uint256"
        }
      ],
      "name": "setClaimTime",
      "outputs": [],
      "stateMutability": "nonpayable",
      "type": "function"
    },
    {
      "inputs": [
        {
          "internalType": "uint256",
          "name": "quantity",
          "type": "uint256"
        }
      ],
      "name": "setOwnersExplicit",
      "outputs": [],
      "stateMutability": "nonpayable",
      "type": "function"
    },
    {
      "inputs": [
        {
          "internalType": "bytes32",
          "name": "_presaleMerkleRoot",
          "type": "bytes32"
        }
      ],
      "name": "setPresaleMerkleRoot",
      "outputs": [],
      "stateMutability": "nonpayable",
      "type": "function"
    },
    {
      "inputs": [
        {
          "internalType": "uint256",
          "name": "_presaleTime",
          "type": "uint256"
        }
      ],
      "name": "setPresaleTime",
      "outputs": [],
      "stateMutability": "nonpayable",
      "type": "function"
    },
    {
      "inputs": [
        {
          "internalType": "uint256",
          "name": "_publicTime",
          "type": "uint256"
        }
      ],
      "name": "setPublicTime",
      "outputs": [],
      "stateMutability": "nonpayable",
      "type": "function"
    },
    {
      "inputs": [
        {
          "internalType": "uint256",
          "name": "_presaleTime",
          "type": "uint256"
        }
      ],
      "name": "setPresaleTime",
      "outputs": [],
      "stateMutability": "nonpayable",
      "type": "function"
    },
    {
      "inputs": [
        {
          "internalType": "uint256",
          "name": "_publicTime",
          "type": "uint256"
        }
      ],
      "name": "setPublicTime",
      "outputs": [],
      "stateMutability": "nonpayable",
      "type": "function"
    },
    {
      "inputs": [
        {
          "internalType": "bytes4",
          "name": "interfaceId",
          "type": "bytes4"
        }
      ],
      "name": "supportsInterface",
      "outputs": [
        {
          "internalType": "bool",
          "name": "",
          "type": "bool"
        }
      ],
      "stateMutability": "view",
      "type": "function"
    },
    {
      "inputs": [],
      "name": "symbol",
      "outputs": [
        {
          "internalType": "string",
          "name": "",
          "type": "string"
        }
      ],
      "stateMutability": "view",
      "type": "function"
    },
    {
      "inputs": [
        {
          "internalType": "uint256",
          "name": "_tokenId",
          "type": "uint256"
        }
      ],
      "name": "tokenHash",
      "outputs": [
        {
          "internalType": "bytes32",
          "name": "",
          "type": "bytes32"
        }
      ],
      "stateMutability": "view",
      "type": "function"
    },
    {
      "inputs": [
        {
          "internalType": "uint256",
          "name": "tokenId",
          "type": "uint256"
        }
      ],
      "name": "tokenURI",
      "outputs": [
        {
          "internalType": "string",
          "name": "",
          "type": "string"
        }
      ],
      "stateMutability": "view",
      "type": "function"
    },
    {
      "inputs": [],
      "name": "totalSupply",
      "outputs": [
        {
          "internalType": "uint256",
          "name": "",
          "type": "uint256"
        }
      ],
      "stateMutability": "view",
      "type": "function"
    },
    {
      "inputs": [
        {
          "internalType": "address",
          "name": "from",
          "type": "address"
        },
        {
          "internalType": "address",
          "name": "to",
          "type": "address"
        },
        {
          "internalType": "uint256",
          "name": "tokenId",
          "type": "uint256"
        }
      ],
      "name": "transferFrom",
      "outputs": [],
      "stateMutability": "nonpayable",
      "type": "function"
    },
    {
      "inputs": [
        {
          "internalType": "address",
          "name": "newOwner",
          "type": "address"
        }
      ],
      "name": "transferOwnership",
      "outputs": [],
      "stateMutability": "nonpayable",
      "type": "function"
    },
    {
      "inputs": [],
      "name": "version",
      "outputs": [
        {
          "internalType": "string",
          "name": "",
          "type": "string"
        }
      ],
      "stateMutability": "view",
      "type": "function"
    },
    {
      "inputs": [],
      "name": "withdrawMoney",
      "outputs": [],
      "stateMutability": "nonpayable",
      "type": "function"
    }
  ],
  "bytecode": "0x6101006040523480156200001257600080fd5b506040516200301a3803806200301a833981016040819052620000359162000442565b89518a908a906200004e906002906020850190620002cf565b50805162000064906003906020840190620002cf565b505060008055506200007633620001d9565b6001600a5586620000d75760405162461bcd60e51b8152602060048201526031602482015260008051602062002ffa833981519152604482015270642d636f6c6c656374696f6e2d73697a6560781b60648201526084015b60405180910390fd5b86851115620001335760405162461bcd60e51b8152602060048201526032602482015260008051602062002ffa833981519152604482015271190b5c1c9bdb5bdd1a5bdb8b585b5bdd5b9d60721b6064820152608401620000ce565b60008411620001895760405162461bcd60e51b815260206004820152602c602482015260008051602062002ffa83398151915260448201526b642d6d696e742d707269636560a01b6064820152608401620000ce565b60e087905260a0869052608085905260c0849052620001a8886200022b565b620001b38362000244565b620001be8262000253565b620001c98162000262565b5050505050505050505062000556565b600980546001600160a01b038381166001600160a01b0319831681179093556040519116919082907f8be0079c531659141344cd1fd0a4f28419497f9722a3daafe3b4186f6b6457e090600090a35050565b805162000240906011906020840190620002cf565b5050565b6200024e62000271565b600d55565b6200025d62000271565b600e55565b6200026c62000271565b600f55565b6009546001600160a01b03163314620002cd5760405162461bcd60e51b815260206004820181905260248201527f4f776e61626c653a2063616c6c6572206973206e6f7420746865206f776e65726044820152606401620000ce565b565b828054620002dd9062000519565b90600052602060002090601f0160209004810192826200030157600085556200034c565b82601f106200031c57805160ff19168380011785556200034c565b828001600101855582156200034c579182015b828111156200034c5782518255916020019190600101906200032f565b506200035a9291506200035e565b5090565b5b808211156200035a57600081556001016200035f565b634e487b7160e01b600052604160045260246000fd5b600082601f8301126200039d57600080fd5b81516001600160401b0380821115620003ba57620003ba62000375565b604051601f8301601f19908116603f01168101908282118183101715620003e557620003e562000375565b816040528381526020925086838588010111156200040257600080fd5b600091505b8382101562000426578582018301518183018401529082019062000407565b83821115620004385760008385830101525b9695505050505050565b6000806000806000806000806000806101408b8d0312156200046357600080fd5b8a516001600160401b03808211156200047b57600080fd5b620004898e838f016200038b565b9b5060208d0151915080821115620004a057600080fd5b620004ae8e838f016200038b565b9a5060408d0151915080821115620004c557600080fd5b50620004d48d828e016200038b565b98505060608b0151965060808b0151955060a08b0151945060c08b0151935060e08b015192506101008b015191506101208b015190509295989b9194979a5092959850565b600181811c908216806200052e57607f821691505b602082108114156200055057634e487b7160e01b600052602260045260246000fd5b50919050565b60805160a05160c05160e051612a24620005d66000396000818161046f01528181610a5f01528181610d100152610fc401526000818161056801528181610b050152610db001526000818161051401528181610a1f01528181610cd001528181610f84015261139a01526000818161060601526113110152612a246000f3fe60806040526004361061025c5760003560e01c80636352211e11610144578063a3864397116100b6578063c6e62e0b1161007a578063c6e62e0b14610726578063c87b56dd1461073c578063d7224ba01461075c578063e985e9c514610772578063f2fde38b146107bb578063fd1e2962146107db57600080fd5b8063a386439714610691578063ac446002146106b1578063b1f536fa146106c6578063b88d4fde146106e6578063ba2f59c81461070657600080fd5b806372830dfd1161010857806372830dfd146105d457806376972db2146105f45780638da5cb5b1461062857806395d89b41146106465780639c4dab521461065b578063a22cb4651461067157600080fd5b80636352211e146105365780636817c76c146105565780636c0360eb1461058a57806370a082311461059f578063715018a6146105bf57600080fd5b806327b3bf11116101dd57806342842e0e116101a157806342842e0e1461043d57806345c0f5331461045d57806348ce85841461049157806354fd4d50146104b157806355f804b3146104e2578063572849c41461050257600080fd5b806327b3bf11146103b457806328d7b276146103ca5780632d20fb60146103ea5780632db115441461040a578063421cc3371461041d57600080fd5b806318160ddd1161022457806318160ddd146103325780631b59169d146103555780631bdc608e1461036857806322212e2b1461037e57806323b872dd1461039457600080fd5b806301ffc9a71461026157806306fdde0314610296578063081812fc146102b8578063095ea7b3146102f0578063150c5c2614610312575b600080fd5b34801561026d57600080fd5b5061028161027c3660046121f7565b6107fb565b60405190151581526020015b60405180910390f35b3480156102a257600080fd5b506102ab61084d565b60405161028d919061226c565b3480156102c457600080fd5b506102d86102d336600461227f565b6108df565b6040516001600160a01b03909116815260200161028d565b3480156102fc57600080fd5b5061031061030b3660046122b4565b610923565b005b34801561031e57600080fd5b5061031061032d36600461227f565b6109b1565b34801561033e57600080fd5b50600154600054035b60405190815260200161028d565b610310610363366004612329565b6109be565b34801561037457600080fd5b50610347600f5481565b34801561038a57600080fd5b50610347600b5481565b3480156103a057600080fd5b506103106103af36600461237b565b610c1f565b3480156103c057600080fd5b50610347600d5481565b3480156103d657600080fd5b506103106103e536600461227f565b610c2a565b3480156103f657600080fd5b5061031061040536600461227f565b610c37565b61031061041836600461227f565b610c78565b34801561042957600080fd5b5061031061043836600461227f565b610e29565b34801561044957600080fd5b5061031061045836600461237b565b610e36565b34801561046957600080fd5b506103477f000000000000000000000000000000000000000000000000000000000000000081565b34801561049d57600080fd5b506103106104ac36600461227f565b610e51565b3480156104bd57600080fd5b506102ab604051806040016040528060058152602001640312e302e360dc1b81525081565b3480156104ee57600080fd5b506103106104fd3660046123b7565b610e5e565b34801561050e57600080fd5b506103477f000000000000000000000000000000000000000000000000000000000000000081565b34801561054257600080fd5b506102d861055136600461227f565b610ea9565b34801561056257600080fd5b506103477f000000000000000000000000000000000000000000000000000000000000000081565b34801561059657600080fd5b506102ab610ebb565b3480156105ab57600080fd5b506103476105ba366004612428565b610eca565b3480156105cb57600080fd5b50610310610f18565b3480156105e057600080fd5b506103106105ef366004612443565b610f2c565b34801561060057600080fd5b506103477f000000000000000000000000000000000000000000000000000000000000000081565b34801561063457600080fd5b506009546001600160a01b03166102d8565b34801561065257600080fd5b506102ab6110fc565b34801561066757600080fd5b50610347600c5481565b34801561067d57600080fd5b5061031061068c36600461248e565b61110b565b34801561069d57600080fd5b506103476106ac36600461227f565b6111a1565b3480156106bd57600080fd5b506103106111dc565b3480156106d257600080fd5b506103476106e1366004612428565b6112ab565b3480156106f257600080fd5b506103106107013660046124e0565b6112b6565b34801561071257600080fd5b5061031061072136600461227f565b611307565b34801561073257600080fd5b50610347600e5481565b34801561074857600080fd5b506102ab61075736600461227f565b61144c565b34801561076857600080fd5b5061034760085481565b34801561077e57600080fd5b5061028161078d3660046125bb565b6001600160a01b03918216600090815260076020908152604080832093909416825291909152205460ff1690565b3480156107c757600080fd5b506103106107d6366004612428565b6114de565b3480156107e757600080fd5b506103106107f636600461227f565b611557565b60006001600160e01b031982166380ac58cd60e01b148061082c57506001600160e01b03198216635b5e139f60e01b145b8061084757506301ffc9a760e01b6001600160e01b03198316145b92915050565b60606002805461085c906125ee565b80601f0160208091040260200160405190810160405280929190818152602001828054610888906125ee565b80156108d55780601f106108aa576101008083540402835291602001916108d5565b820191906000526020600020905b8154815290600101906020018083116108b857829003601f168201915b5050505050905090565b60006108ea82611564565b610907576040516333d1c03960e21b815260040160405180910390fd5b506000908152600660205260409020546001600160a01b031690565b600061092e82610ea9565b9050806001600160a01b0316836001600160a01b031614156109635760405163250fdee360e21b815260040160405180910390fd5b336001600160a01b038216148015906109835750610981813361078d565b155b156109a1576040516367d9dca160e11b815260040160405180910390fd5b6109ac83838361158f565b505050565b6109b96115eb565b600f55565b6002600a5414156109ea5760405162461bcd60e51b81526004016109e190612629565b60405180910390fd5b6002600a55600e548015801590610a0057508042115b610a1c5760405162461bcd60e51b81526004016109e190612660565b847f0000000000000000000000000000000000000000000000000000000000000000323314610a5d5760405162461bcd60e51b81526004016109e190612699565b7f0000000000000000000000000000000000000000000000000000000000000000610a9583610a8f6001546000540390565b90611645565b1115610ab35760405162461bcd60e51b81526004016109e1906126d4565b80610ac183610a8f33611651565b1115610adf5760405162461bcd60e51b81526004016109e190612710565b60008211610aff5760405162461bcd60e51b81526004016109e19061275b565b86610b2a7f00000000000000000000000000000000000000000000000000000000000000008261167f565b3414610b485760405162461bcd60e51b81526004016109e1906127a6565b60003411610b685760405162461bcd60e51b81526004016109e19061275b565b86338787600b54610be5838380806020026020016040519081016040528093929190818152602001838360200280828437600092019190915250506040516001600160601b031960608a901b166020820152603481018a905285925060540190505b6040516020818303038152906040528051906020012061168b565b610c015760405162461bcd60e51b81526004016109e1906127e0565b610c0b338e6116a1565b50506001600a555050505050505050505050565b6109ac8383836117c6565b610c326115eb565b600b55565b610c3f6115eb565b6002600a541415610c625760405162461bcd60e51b81526004016109e190612629565b6002600a55610c70816119b4565b506001600a55565b6002600a541415610c9b5760405162461bcd60e51b81526004016109e190612629565b6002600a55600f548015801590610cb157508042115b610ccd5760405162461bcd60e51b81526004016109e190612660565b817f0000000000000000000000000000000000000000000000000000000000000000323314610d0e5760405162461bcd60e51b81526004016109e190612699565b7f0000000000000000000000000000000000000000000000000000000000000000610d4083610a8f6001546000540390565b1115610d5e5760405162461bcd60e51b81526004016109e1906126d4565b80610d6c83610a8f33611651565b1115610d8a5760405162461bcd60e51b81526004016109e190612710565b60008211610daa5760405162461bcd60e51b81526004016109e19061275b565b83610dd57f00000000000000000000000000000000000000000000000000000000000000008261167f565b3414610df35760405162461bcd60e51b81526004016109e1906127a6565b60003411610e135760405162461bcd60e51b81526004016109e19061275b565b610e1d33866116a1565b50506001600a55505050565b610e316115eb565b600d55565b6109ac838383604051806020016040528060008152506112b6565b610e596115eb565b600e55565b610e666115eb565b610ea582828080601f016020809104026020016040519081016040528093929190818152602001838380828437600092019190915250611aeb92505050565b5050565b6000610eb482611afe565b5192915050565b60606011805461085c906125ee565b60006001600160a01b038216610ef3576040516323d3ad8160e21b815260040160405180910390fd5b506001600160a01b03166000908152600560205260409020546001600160401b031690565b610f206115eb565b610f2a6000611c18565b565b6002600a541415610f4f5760405162461bcd60e51b81526004016109e190612629565b6002600a55600d548015801590610f6557508042115b610f815760405162461bcd60e51b81526004016109e190612660565b837f0000000000000000000000000000000000000000000000000000000000000000323314610fc25760405162461bcd60e51b81526004016109e190612699565b7f0000000000000000000000000000000000000000000000000000000000000000610ff483610a8f6001546000540390565b11156110125760405162461bcd60e51b81526004016109e1906126d4565b8061102083610a8f33611651565b111561103e5760405162461bcd60e51b81526004016109e190612710565b6000821161105e5760405162461bcd60e51b81526004016109e19061275b565b85338686600c546110c4838380806020026020016040519081016040528093929190818152602001838360200280828437600092019190915250506040516001600160601b031960608a901b166020820152603481018a90528592506054019050610bca565b6110e05760405162461bcd60e51b81526004016109e1906127e0565b6110ea338c6116a1565b50506001600a55505050505050505050565b60606003805461085c906125ee565b6001600160a01b0382163314156111355760405163b06307db60e01b815260040160405180910390fd5b3360008181526007602090815260408083206001600160a01b03871680855290835292819020805460ff191686151590811790915590519081529192917f17307eab39ab6107e8899845ad3d59bd9653f200f220920489ca2b5937696c31910160405180910390a35050565b60006111ac82611564565b6111c95760405163963eb14f60e01b815260040160405180910390fd5b5060009081526010602052604090205490565b6111e46115eb565b6002600a5414156112075760405162461bcd60e51b81526004016109e190612629565b6002600a55604051600090339047908381818185875af1925050503d806000811461124e576040519150601f19603f3d011682016040523d82523d6000602084013e611253565b606091505b5050905080610c705760405162461bcd60e51b815260206004820152603060248201526000805160206129cf83398151915260448201526f642d77697468647261772d6d6f6e657960801b60648201526084016109e1565b600061084782611651565b6112c18484846117c6565b6001600160a01b0383163b151580156112e357506112e184848484611c6a565b155b15611301576040516368d2bf6b60e11b815260040160405180910390fd5b50505050565b61130f6115eb565b7f000000000000000000000000000000000000000000000000000000000000000061134182610a8f6001546000540390565b11156113985760405162461bcd60e51b815260206004820152603260248201526000805160206129cf833981519152604482015271642d70726f6d6f74696f6e2d737570706c7960701b60648201526084016109e1565b7f00000000000000000000000000000000000000000000000000000000000000006113c38282611d62565b156114175760405162461bcd60e51b815260206004820152603060248201526000805160206129cf83398151915260448201526f642d62617463682d6d756c7469706c6560801b60648201526084016109e1565b60006114238383611d6e565b905060005b818110156113015761143a33846116a1565b8061144481612833565b915050611428565b606061145782611564565b61147457604051630a14c4b560e41b815260040160405180910390fd5b600061148b60408051602081019091526000815290565b90508051600014156114ac57604051806020016040528060008152506114d7565b806114b684611d7a565b6040516020016114c792919061284e565b6040516020818303038152906040525b9392505050565b6114e66115eb565b6001600160a01b03811661154b5760405162461bcd60e51b815260206004820152602660248201527f4f776e61626c653a206e6577206f776e657220697320746865207a65726f206160448201526564647265737360d01b60648201526084016109e1565b61155481611c18565b50565b61155f6115eb565b600c55565b6000805482108015610847575050600090815260046020526040902054600160e01b900460ff161590565b60008281526006602052604080822080546001600160a01b0319166001600160a01b0387811691821790925591518593918516917f8c5be1e5ebec7d5bd14f71427d1e84f3dd0314c0f7b2291e5b200ac8c7c3b92591a4505050565b6009546001600160a01b03163314610f2a5760405162461bcd60e51b815260206004820181905260248201527f4f776e61626c653a2063616c6c6572206973206e6f7420746865206f776e657260448201526064016109e1565b60006114d7828461287d565b6001600160a01b038116600090815260056020526040812054600160401b90046001600160401b0316610847565b60006114d78284612895565b6000826116988584611e77565b14949350505050565b6116ab8282611ec4565b60006116ba6001546000540390565b905060006116c88284611ede565b90506000836001600160401b038111156116e4576116e46124ca565b60405190808252806020026020018201604052801561170d578160200160208202803683370190505b50905060005b848110156117795760006117278483611645565b9050600061173482611eea565b905080848481518110611749576117496128b4565b6020908102919091018101919091526000928352601090526040909120558061177181612833565b915050611713565b50846001600160a01b03167f5cb27d2833c0b1f5f25192224a4f5c4573f3c2a9394c0a0a9a31c092e8879eb48486846040516117b7939291906128ca565b60405180910390a25050505050565b60006117d182611afe565b9050836001600160a01b031681600001516001600160a01b0316146118085760405162a1148160e81b815260040160405180910390fd5b6000336001600160a01b03861614806118265750611826853361078d565b80611841575033611836846108df565b6001600160a01b0316145b90508061186157604051632ce44b5f60e11b815260040160405180910390fd5b6001600160a01b03841661188857604051633a954ecd60e21b815260040160405180910390fd5b6118946000848761158f565b6001600160a01b038581166000908152600560209081526040808320805467ffffffffffffffff198082166001600160401b0392831660001901831617909255898616808652838620805493841693831660019081018416949094179055898652600490945282852080546001600160e01b031916909417600160a01b4290921691909102178355870180845292208054919390911661196857600054821461196857805460208601516001600160401b0316600160a01b026001600160e01b03199091166001600160a01b038a16171781555b50505082846001600160a01b0316866001600160a01b03167fddf252ad1be2c89b69c2b068fc378daa952ba7f163c4a11628f55a4df523b3ef60405160405180910390a45b5050505050565b806119d2576040516356be441560e01b815260040160405180910390fd5b6000546119f25760405163c0367cab60e01b815260040160405180910390fd5b600854806119fe575060005b6000548110611a20576040516370e89b1b60e01b815260040160405180910390fd5b6000548282016000198101911015611a3b5750600054600019015b815b818111611ae0576000818152600460205260409020546001600160a01b0316158015611a7f5750600081815260046020526040902054600160e01b900460ff16155b15611ad8576000611a8f82611afe565b80516000848152600460209081526040909120805491909301516001600160401b0316600160a01b026001600160e01b03199091166001600160a01b0390921691909117179055505b600101611a3d565b506001016008555050565b8051610ea5906011906020840190612148565b604080516060810182526000808252602082018190529181019190915281600054811015611bff57600081815260046020908152604091829020825160608101845290546001600160a01b0381168252600160a01b81046001600160401b031692820192909252600160e01b90910460ff16151591810182905290611bfd5780516001600160a01b031615611b94579392505050565b5060001901600081815260046020908152604091829020825160608101845290546001600160a01b038116808352600160a01b82046001600160401b031693830193909352600160e01b900460ff1615159281019290925215611bf8579392505050565b611b94565b505b604051636f96cda160e11b815260040160405180910390fd5b600980546001600160a01b038381166001600160a01b0319831681179093556040519116919082907f8be0079c531659141344cd1fd0a4f28419497f9722a3daafe3b4186f6b6457e090600090a35050565b604051630a85bd0160e11b81526000906001600160a01b0385169063150b7a0290611c9f90339089908890889060040161291f565b602060405180830381600087803b158015611cb957600080fd5b505af1925050508015611ce9575060408051601f3d908101601f19168201909252611ce69181019061295c565b60015b611d44573d808015611d17576040519150601f19603f3d011682016040523d82523d6000602084013e611d1c565b606091505b508051611d3c576040516368d2bf6b60e11b815260040160405180910390fd5b805181602001fd5b6001600160e01b031916630a85bd0160e11b1490505b949350505050565b60006114d7828461298f565b60006114d782846129a3565b606081611d9e5750506040805180820190915260018152600360fc1b602082015290565b8160005b8115611dc85780611db281612833565b9150611dc19050600a836129a3565b9150611da2565b6000816001600160401b03811115611de257611de26124ca565b6040519080825280601f01601f191660200182016040528015611e0c576020820181803683370190505b5090505b8415611d5a57611e216001836129b7565b9150611e2e600a8661298f565b611e3990603061287d565b60f81b818381518110611e4e57611e4e6128b4565b60200101906001600160f81b031916908160001a905350611e70600a866129a3565b9450611e10565b600081815b8451811015611ebc57611ea882868381518110611e9b57611e9b6128b4565b6020026020010151611f46565b915080611eb481612833565b915050611e7c565b509392505050565b610ea5828260405180602001604052806000815250611f75565b60006114d782846129b7565b60008132611ef96001436129b7565b604051602001611f299392919092835260609190911b6001600160601b0319166020830152603482015260540190565b604051602081830303815290604052805190602001209050919050565b6000818310611f625760008281526020849052604090206114d7565b60008381526020839052604090206114d7565b6109ac83838360016000546001600160a01b038516611fa657604051622e076360e81b815260040160405180910390fd5b83611fc45760405163b562e8dd60e01b815260040160405180910390fd5b6001600160a01b038516600081815260056020908152604080832080546fffffffffffffffffffffffffffffffff1981166001600160401b038083168c018116918217600160401b67ffffffffffffffff1990941690921783900481168c01811690920217909155858452600490925290912080546001600160e01b031916909217600160a01b42909216919091021790558080850183801561207057506001600160a01b0387163b15155b156120f9575b60405182906001600160a01b038916906000907fddf252ad1be2c89b69c2b068fc378daa952ba7f163c4a11628f55a4df523b3ef908290a46120c16000888480600101955088611c6a565b6120de576040516368d2bf6b60e11b815260040160405180910390fd5b808214156120765782600054146120f457600080fd5b61213f565b5b6040516001830192906001600160a01b038916906000907fddf252ad1be2c89b69c2b068fc378daa952ba7f163c4a11628f55a4df523b3ef908290a4808214156120fa575b506000556119ad565b828054612154906125ee565b90600052602060002090601f01602090048101928261217657600085556121bc565b82601f1061218f57805160ff19168380011785556121bc565b828001600101855582156121bc579182015b828111156121bc5782518255916020019190600101906121a1565b506121c89291506121cc565b5090565b5b808211156121c857600081556001016121cd565b6001600160e01b03198116811461155457600080fd5b60006020828403121561220957600080fd5b81356114d7816121e1565b60005b8381101561222f578181015183820152602001612217565b838111156113015750506000910152565b60008151808452612258816020860160208601612214565b601f01601f19169290920160200192915050565b6020815260006114d76020830184612240565b60006020828403121561229157600080fd5b5035919050565b80356001600160a01b03811681146122af57600080fd5b919050565b600080604083850312156122c757600080fd5b6122d083612298565b946020939093013593505050565b60008083601f8401126122f057600080fd5b5081356001600160401b0381111561230757600080fd5b6020830191508360208260051b850101111561232257600080fd5b9250929050565b6000806000806060858703121561233f57600080fd5b843593506020850135925060408501356001600160401b0381111561236357600080fd5b61236f878288016122de565b95989497509550505050565b60008060006060848603121561239057600080fd5b61239984612298565b92506123a760208501612298565b9150604084013590509250925092565b600080602083850312156123ca57600080fd5b82356001600160401b03808211156123e157600080fd5b818501915085601f8301126123f557600080fd5b81358181111561240457600080fd5b86602082850101111561241657600080fd5b60209290920196919550909350505050565b60006020828403121561243a57600080fd5b6114d782612298565b60008060006040848603121561245857600080fd5b8335925060208401356001600160401b0381111561247557600080fd5b612481868287016122de565b9497909650939450505050565b600080604083850312156124a157600080fd5b6124aa83612298565b9150602083013580151581146124bf57600080fd5b809150509250929050565b634e487b7160e01b600052604160045260246000fd5b600080600080608085870312156124f657600080fd5b6124ff85612298565b935061250d60208601612298565b92506040850135915060608501356001600160401b038082111561253057600080fd5b818701915087601f83011261254457600080fd5b813581811115612556576125566124ca565b604051601f8201601f19908116603f0116810190838211818310171561257e5761257e6124ca565b816040528281528a602084870101111561259757600080fd5b82602086016020830137600060208483010152809550505050505092959194509250565b600080604083850312156125ce57600080fd5b6125d783612298565b91506125e560208401612298565b90509250929050565b600181811c9082168061260257607f821691505b6020821081141561262357634e487b7160e01b600052602260045260246000fd5b50919050565b6020808252601f908201527f5265656e7472616e637947756172643a207265656e7472616e742063616c6c00604082015260600190565b6020808252602b908201526000805160206129cf83398151915260408201526a642d6d696e742d74696d6560a81b606082015260800190565b6020808252602d908201526000805160206129cf83398151915260408201526c3216b6b4b73a16b1b0b63632b960991b606082015260800190565b6020808252602e908201526000805160206129cf83398151915260408201526d642d746f74616c2d737570706c7960901b606082015260800190565b6020808252603b908201526000805160206129cf83398151915260408201527f642d696e766f636174696f6e2d75707065722d626f756e646172790000000000606082015260800190565b6020808252603b908201526000805160206129cf83398151915260408201527f642d696e766f636174696f6e2d6c6f7765722d626f756e646172790000000000606082015260800190565b6020808252602c908201526000805160206129cf83398151915260408201526b642d6d696e742d76616c756560a01b606082015260800190565b6020808252602f908201526000805160206129cf83398151915260408201526e3216b0b2323932b9b996b83937b7b360891b606082015260800190565b634e487b7160e01b600052601160045260246000fd5b60006000198214156128475761284761281d565b5060010190565b60008351612860818460208801612214565b835190830190612874818360208801612214565b01949350505050565b600082198211156128905761289061281d565b500190565b60008160001904831182151516156128af576128af61281d565b500290565b634e487b7160e01b600052603260045260246000fd5b6000606082018583526020858185015260606040850152818551808452608086019150828701935060005b81811015612911578451835293830193918301916001016128f5565b509098975050505050505050565b6001600160a01b038581168252841660208201526040810183905260806060820181905260009061295290830184612240565b9695505050505050565b60006020828403121561296e57600080fd5b81516114d7816121e1565b634e487b7160e01b600052601260045260246000fd5b60008261299e5761299e612979565b500690565b6000826129b2576129b2612979565b500490565b6000828210156129c9576129c961281d565b50039056fe52686170736f647943726561746f7247656e657261746976652f696e76616c69a2646970667358221220dafd470723b2d64813ba69497ace3befdff1eb9efe95c626154e157b184ed3cc64736f6c6343000809003352686170736f647943726561746f7247656e657261746976652f696e76616c69",
  "linkReferences": {},
  "deployedLinkReferences": {}
}