{
  "_format": "hh-sol-artifact-1",
  "contractName": "RhapsodyCreator",
  "sourceName": "contracts/RhapsodyCreator.sol",
  "abi": [
    {
      "inputs": [
        {
          "internalType": "string",
          "name": "_name",
          "type": "string"
        },
        {
          "internalType": "string",
          "name": "_symbol",
          "type": "string"
        },
        {
          "internalType": "string",
          "name": "_baseURI",
          "type": "string"
        },
        {
          "internalType": "uint256",
          "name": "_collectionSize",
          "type": "uint256"
        },
        {
          "internalType": "uint256",
          "name": "_maxPublicBatchPerAddress",
          "type": "uint256"
        },
        {
          "internalType": "uint256",
          "name": "_amountForPromotion",
          "type": "uint256"
        },
        {
          "internalType": "uint256",
          "name": "_mintPrice",
          "type": "uint256"
        },
        {
          "internalType": "uint256",
          "name": "_presaleTime",
          "type": "uint256"
        },
        {
          "internalType": "uint256",
          "name": "_publicTime",
          "type": "uint256"
        }
      ],
      "stateMutability": "nonpayable",
      "type": "constructor"
    },
    {
      "inputs": [],
      "name": "AllOwnershipsHaveBeenSet",
      "type": "error"
    },
    {
      "inputs": [],
      "name": "ApprovalCallerNotOwnerNorApproved",
      "type": "error"
    },
    {
      "inputs": [],
      "name": "ApprovalQueryForNonexistentToken",
      "type": "error"
    },
    {
      "inputs": [],
      "name": "ApprovalToCurrentOwner",
      "type": "error"
    },
    {
      "inputs": [],
      "name": "ApproveToCaller",
      "type": "error"
    },
    {
      "inputs": [],
      "name": "BalanceQueryForZeroAddress",
      "type": "error"
    },
    {
      "inputs": [],
      "name": "MintToZeroAddress",
      "type": "error"
    },
    {
      "inputs": [],
      "name": "MintZeroQuantity",
      "type": "error"
    },
    {
      "inputs": [],
      "name": "NoTokensMintedYet",
      "type": "error"
    },
    {
      "inputs": [],
      "name": "OwnerQueryForNonexistentToken",
      "type": "error"
    },
    {
      "inputs": [],
      "name": "QuantityMustBeNonZero",
      "type": "error"
    },
    {
      "inputs": [],
      "name": "TransferCallerNotOwnerNorApproved",
      "type": "error"
    },
    {
      "inputs": [],
      "name": "TransferFromIncorrectOwner",
      "type": "error"
    },
    {
      "inputs": [],
      "name": "TransferToNonERC721ReceiverImplementer",
      "type": "error"
    },
    {
      "inputs": [],
      "name": "TransferToZeroAddress",
      "type": "error"
    },
    {
      "inputs": [],
      "name": "URIQueryForNonexistentToken",
      "type": "error"
    },
    {
      "anonymous": false,
      "inputs": [
        {
          "indexed": true,
          "internalType": "address",
          "name": "owner",
          "type": "address"
        },
        {
          "indexed": true,
          "internalType": "address",
          "name": "approved",
          "type": "address"
        },
        {
          "indexed": true,
          "internalType": "uint256",
          "name": "tokenId",
          "type": "uint256"
        }
      ],
      "name": "Approval",
      "type": "event"
    },
    {
      "anonymous": false,
      "inputs": [
        {
          "indexed": true,
          "internalType": "address",
          "name": "owner",
          "type": "address"
        },
        {
          "indexed": true,
          "internalType": "address",
          "name": "operator",
          "type": "address"
        },
        {
          "indexed": false,
          "internalType": "bool",
          "name": "approved",
          "type": "bool"
        }
      ],
      "name": "ApprovalForAll",
      "type": "event"
    },
    {
      "anonymous": false,
      "inputs": [
        {
          "indexed": true,
          "internalType": "address",
          "name": "to",
          "type": "address"
        },
        {
          "indexed": false,
          "internalType": "uint256",
          "name": "amount",
          "type": "uint256"
        }
      ],
      "name": "Created",
      "type": "event"
    },
    {
      "anonymous": false,
      "inputs": [
        {
          "indexed": true,
          "internalType": "address",
          "name": "previousOwner",
          "type": "address"
        },
        {
          "indexed": true,
          "internalType": "address",
          "name": "newOwner",
          "type": "address"
        }
      ],
      "name": "OwnershipTransferred",
      "type": "event"
    },
    {
      "anonymous": false,
      "inputs": [
        {
          "indexed": true,
          "internalType": "address",
          "name": "from",
          "type": "address"
        },
        {
          "indexed": true,
          "internalType": "address",
          "name": "to",
          "type": "address"
        },
        {
          "indexed": true,
          "internalType": "uint256",
          "name": "tokenId",
          "type": "uint256"
        }
      ],
      "name": "Transfer",
      "type": "event"
    },
    {
      "inputs": [],
      "name": "amountForPromotion",
      "outputs": [
        {
          "internalType": "uint256",
          "name": "",
          "type": "uint256"
        }
      ],
      "stateMutability": "view",
      "type": "function"
    },
    {
      "inputs": [
        {
          "internalType": "address",
          "name": "to",
          "type": "address"
        },
        {
          "internalType": "uint256",
          "name": "tokenId",
          "type": "uint256"
        }
      ],
      "name": "approve",
      "outputs": [],
      "stateMutability": "nonpayable",
      "type": "function"
    },
    {
      "inputs": [
        {
          "internalType": "address",
          "name": "owner",
          "type": "address"
        }
      ],
      "name": "balanceOf",
      "outputs": [
        {
          "internalType": "uint256",
          "name": "",
          "type": "uint256"
        }
      ],
      "stateMutability": "view",
      "type": "function"
    },
    {
      "inputs": [],
      "name": "baseURI",
      "outputs": [
        {
          "internalType": "string",
          "name": "",
          "type": "string"
        }
      ],
      "stateMutability": "view",
      "type": "function"
    },
    {
      "inputs": [],
      "name": "collectionSize",
      "outputs": [
        {
          "internalType": "uint256",
          "name": "",
          "type": "uint256"
        }
      ],
      "stateMutability": "view",
      "type": "function"
    },
    {
      "inputs": [
        {
          "internalType": "uint256",
          "name": "tokenId",
          "type": "uint256"
        }
      ],
      "name": "getApproved",
      "outputs": [
        {
          "internalType": "address",
          "name": "",
          "type": "address"
        }
      ],
      "stateMutability": "view",
      "type": "function"
    },
    {
      "inputs": [
        {
          "internalType": "address",
          "name": "owner",
          "type": "address"
        },
        {
          "internalType": "address",
          "name": "operator",
          "type": "address"
        }
      ],
      "name": "isApprovedForAll",
      "outputs": [
        {
          "internalType": "bool",
          "name": "",
          "type": "bool"
        }
      ],
      "stateMutability": "view",
      "type": "function"
    },
    {
      "inputs": [],
      "name": "maxPublicBatchPerAddress",
      "outputs": [
        {
          "internalType": "uint256",
          "name": "",
          "type": "uint256"
        }
      ],
      "stateMutability": "view",
      "type": "function"
    },
    {
      "inputs": [
        {
          "internalType": "address",
          "name": "_owner",
          "type": "address"
        }
      ],
      "name": "mintOf",
      "outputs": [
        {
          "internalType": "uint256",
          "name": "",
          "type": "uint256"
        }
      ],
      "stateMutability": "view",
      "type": "function"
    },
    {
      "inputs": [],
      "name": "mintPrice",
      "outputs": [
        {
          "internalType": "uint256",
          "name": "",
          "type": "uint256"
        }
      ],
      "stateMutability": "view",
      "type": "function"
    },
    {
      "inputs": [],
      "name": "name",
      "outputs": [
        {
          "internalType": "string",
          "name": "",
          "type": "string"
        }
      ],
      "stateMutability": "view",
      "type": "function"
    },
    {
      "inputs": [],
      "name": "nextOwnerToExplicitlySet",
      "outputs": [
        {
          "internalType": "uint256",
          "name": "",
          "type": "uint256"
        }
      ],
      "stateMutability": "view",
      "type": "function"
    },
    {
      "inputs": [],
      "name": "owner",
      "outputs": [
        {
          "internalType": "address",
          "name": "",
          "type": "address"
        }
      ],
      "stateMutability": "view",
      "type": "function"
    },
    {
      "inputs": [
        {
          "internalType": "uint256",
          "name": "tokenId",
          "type": "uint256"
        }
      ],
      "name": "ownerOf",
      "outputs": [
        {
          "internalType": "address",
          "name": "",
          "type": "address"
        }
      ],
      "stateMutability": "view",
      "type": "function"
    },
    {
      "inputs": [],
      "name": "presaleMerkleRoot",
      "outputs": [
        {
          "internalType": "bytes32",
          "name": "",
          "type": "bytes32"
        }
      ],
      "stateMutability": "view",
      "type": "function"
    },
    {
      "inputs": [
        {
          "internalType": "uint256",
          "name": "invocations",
          "type": "uint256"
        },
        {
          "internalType": "uint256",
          "name": "maxInvocation",
          "type": "uint256"
        },
        {
          "internalType": "bytes32[]",
          "name": "proof",
          "type": "bytes32[]"
        }
      ],
      "name": "presaleMint",
      "outputs": [],
      "stateMutability": "payable",
      "type": "function"
    },
    {
      "inputs": [],
      "name": "presaleTime",
      "outputs": [
        {
          "internalType": "uint256",
          "name": "",
          "type": "uint256"
        }
      ],
      "stateMutability": "view",
      "type": "function"
    },
    {
      "inputs": [
        {
          "internalType": "uint256",
          "name": "invocations",
          "type": "uint256"
        }
      ],
      "name": "promotionMint",
      "outputs": [],
      "stateMutability": "nonpayable",
      "type": "function"
    },
    {
      "inputs": [
        {
          "internalType": "uint256",
          "name": "invocations",
          "type": "uint256"
        }
      ],
      "name": "publicMint",
      "outputs": [],
      "stateMutability": "payable",
      "type": "function"
    },
    {
      "inputs": [],
      "name": "publicTime",
      "outputs": [
        {
          "internalType": "uint256",
          "name": "",
          "type": "uint256"
        }
      ],
      "stateMutability": "view",
      "type": "function"
    },
    {
      "inputs": [],
      "name": "renounceOwnership",
      "outputs": [],
      "stateMutability": "nonpayable",
      "type": "function"
    },
    {
      "inputs": [
        {
          "internalType": "address",
          "name": "from",
          "type": "address"
        },
        {
          "internalType": "address",
          "name": "to",
          "type": "address"
        },
        {
          "internalType": "uint256",
          "name": "tokenId",
          "type": "uint256"
        }
      ],
      "name": "safeTransferFrom",
      "outputs": [],
      "stateMutability": "nonpayable",
      "type": "function"
    },
    {
      "inputs": [
        {
          "internalType": "address",
          "name": "from",
          "type": "address"
        },
        {
          "internalType": "address",
          "name": "to",
          "type": "address"
        },
        {
          "internalType": "uint256",
          "name": "tokenId",
          "type": "uint256"
        },
        {
          "internalType": "bytes",
          "name": "_data",
          "type": "bytes"
        }
      ],
      "name": "safeTransferFrom",
      "outputs": [],
      "stateMutability": "nonpayable",
      "type": "function"
    },
    {
      "inputs": [
        {
          "internalType": "address",
          "name": "operator",
          "type": "address"
        },
        {
          "internalType": "bool",
          "name": "approved",
          "type": "bool"
        }
      ],
      "name": "setApprovalForAll",
      "outputs": [],
      "stateMutability": "nonpayable",
      "type": "function"
    },
    {
      "inputs": [
        {
          "internalType": "string",
          "name": "newBaseURI",
          "type": "string"
        }
      ],
      "name": "setBaseURI",
      "outputs": [],
      "stateMutability": "nonpayable",
      "type": "function"
    },
    {
      "inputs": [
        {
          "internalType": "bytes32",
          "name": "_presaleMerkleRoot",
          "type": "bytes32"
        }
      ],
      "name": "setMintMerkleRoot",
      "outputs": [],
      "stateMutability": "nonpayable",
      "type": "function"
    },
    {
      "inputs": [
        {
          "internalType": "uint256",
          "name": "_presaleTime",
          "type": "uint256"
        },
        {
          "internalType": "uint256",
          "name": "_publicTime",
          "type": "uint256"
        }
      ],
      "name": "setMintTime",
      "outputs": [],
      "stateMutability": "nonpayable",
      "type": "function"
    },
    {
      "inputs": [
        {
          "internalType": "uint256",
          "name": "quantity",
          "type": "uint256"
        }
      ],
      "name": "setOwnersExplicit",
      "outputs": [],
      "stateMutability": "nonpayable",
      "type": "function"
    },
    {
      "inputs": [
        {
          "internalType": "bytes4",
          "name": "interfaceId",
          "type": "bytes4"
        }
      ],
      "name": "supportsInterface",
      "outputs": [
        {
          "internalType": "bool",
          "name": "",
          "type": "bool"
        }
      ],
      "stateMutability": "view",
      "type": "function"
    },
    {
      "inputs": [],
      "name": "symbol",
      "outputs": [
        {
          "internalType": "string",
          "name": "",
          "type": "string"
        }
      ],
      "stateMutability": "view",
      "type": "function"
    },
    {
      "inputs": [
        {
          "internalType": "uint256",
          "name": "tokenId",
          "type": "uint256"
        }
      ],
      "name": "tokenURI",
      "outputs": [
        {
          "internalType": "string",
          "name": "",
          "type": "string"
        }
      ],
      "stateMutability": "view",
      "type": "function"
    },
    {
      "inputs": [],
      "name": "totalSupply",
      "outputs": [
        {
          "internalType": "uint256",
          "name": "",
          "type": "uint256"
        }
      ],
      "stateMutability": "view",
      "type": "function"
    },
    {
      "inputs": [
        {
          "internalType": "address",
          "name": "from",
          "type": "address"
        },
        {
          "internalType": "address",
          "name": "to",
          "type": "address"
        },
        {
          "internalType": "uint256",
          "name": "tokenId",
          "type": "uint256"
        }
      ],
      "name": "transferFrom",
      "outputs": [],
      "stateMutability": "nonpayable",
      "type": "function"
    },
    {
      "inputs": [
        {
          "internalType": "address",
          "name": "newOwner",
          "type": "address"
        }
      ],
      "name": "transferOwnership",
      "outputs": [],
      "stateMutability": "nonpayable",
      "type": "function"
    },
    {
      "inputs": [],
      "name": "withdrawMoney",
      "outputs": [],
      "stateMutability": "nonpayable",
      "type": "function"
    }
  ],
  "bytecode": "0x6101006040523480156200001257600080fd5b5060405162002be838038062002be883398101604081905262000035916200047b565b8851899089906200004e90600290602085019062000308565b5080516200006490600390602084019062000308565b505060008055506200007633620001d8565b6001600a5585620000de5760405162461bcd60e51b815260206004820152602760248201527f52686170736f647943726561746f722f696e76616c69642d636f6c6c656374696044820152666f6e2d73697a6560c81b60648201526084015b60405180910390fd5b85841115620001415760405162461bcd60e51b815260206004820152602860248201527f52686170736f647943726561746f722f696e76616c69642d70726f6d6f74696f6044820152671b8b585b5bdd5b9d60c21b6064820152608401620000d5565b600083116200019e5760405162461bcd60e51b815260206004820152602260248201527f52686170736f647943726561746f722f696e76616c69642d6d696e742d707269604482015261636560f01b6064820152608401620000d5565b60e086905260a0859052608084905260c0839052620001bd876200022a565b620001c9828262000243565b50505050505050505062000584565b600980546001600160a01b038381166001600160a01b0319831681179093556040519116919082907f8be0079c531659141344cd1fd0a4f28419497f9722a3daafe3b4186f6b6457e090600090a35050565b80516200023f90600e90602084019062000308565b5050565b428211620002a05760405162461bcd60e51b8152602060048201526024808201527f52686170736f647943726561746f722f696e76616c69642d70726573616c652d60448201526374696d6560e01b6064820152608401620000d5565b818111620002fd5760405162461bcd60e51b815260206004820152602360248201527f52686170736f647943726561746f722f696e76616c69642d7075626c69632d74604482015262696d6560e81b6064820152608401620000d5565b600c91909155600d55565b828054620003169062000547565b90600052602060002090601f0160209004810192826200033a576000855562000385565b82601f106200035557805160ff191683800117855562000385565b8280016001018555821562000385579182015b828111156200038557825182559160200191906001019062000368565b506200039392915062000397565b5090565b5b8082111562000393576000815560010162000398565b634e487b7160e01b600052604160045260246000fd5b600082601f830112620003d657600080fd5b81516001600160401b0380821115620003f357620003f3620003ae565b604051601f8301601f19908116603f011681019082821181831017156200041e576200041e620003ae565b816040528381526020925086838588010111156200043b57600080fd5b600091505b838210156200045f578582018301518183018401529082019062000440565b83821115620004715760008385830101525b9695505050505050565b60008060008060008060008060006101208a8c0312156200049b57600080fd5b89516001600160401b0380821115620004b357600080fd5b620004c18d838e01620003c4565b9a5060208c0151915080821115620004d857600080fd5b620004e68d838e01620003c4565b995060408c0151915080821115620004fd57600080fd5b506200050c8c828d01620003c4565b97505060608a0151955060808a0151945060a08a0151935060c08a0151925060e08a015191506101008a015190509295985092959850929598565b600181811c908216806200055c57607f821691505b602082108114156200057e57634e487b7160e01b600052602260045260246000fd5b50919050565b60805160a05160c05160e0516125f9620005ef600039600081816103c1015281816108880152610be9015260008181610435015281816108e10152610c3c01526000818161055a01528181610ba901526110f60152600081816104b3015261106501526125f96000f3fe6080604052600436106102045760003560e01c80636c0360eb11610118578063ac446002116100a0578063c6e62e0b1161006f578063c6e62e0b146105f1578063c87b56dd14610607578063d7224ba014610627578063e985e9c51461063d578063f2fde38b1461068657600080fd5b8063ac4460021461057c578063b1f536fa14610591578063b88d4fde146105b1578063ba2f59c8146105d157600080fd5b80638da5cb5b116100e75780638da5cb5b146104d5578063910401c5146104f357806395d89b4114610513578063a22cb46514610528578063a4babffd1461054857600080fd5b80636c0360eb1461045757806370a082311461046c578063715018a61461048c57806376972db2146104a157600080fd5b806323b872dd1161019b57806342842e0e1161016a57806342842e0e1461038f57806345c0f533146103af57806355f804b3146103e35780636352211e146104035780636817c76c1461042357600080fd5b806323b872dd1461031c5780632d20fb601461033c5780632db115441461035c5780633a4710c41461036f57600080fd5b806318160ddd116101d757806318160ddd146102ba5780631b59169d146102dd5780631bdc608e146102f057806322212e2b1461030657600080fd5b806301ffc9a71461020957806306fdde031461023e578063081812fc14610260578063095ea7b314610298575b600080fd5b34801561021557600080fd5b50610229610224366004611eca565b6106a6565b60405190151581526020015b60405180910390f35b34801561024a57600080fd5b506102536106f8565b6040516102359190611f3f565b34801561026c57600080fd5b5061028061027b366004611f52565b61078a565b6040516001600160a01b039091168152602001610235565b3480156102a457600080fd5b506102b86102b3366004611f87565b6107ce565b005b3480156102c657600080fd5b50600154600054035b604051908152602001610235565b6102b86102eb366004611fb1565b61085c565b3480156102fc57600080fd5b506102cf600d5481565b34801561031257600080fd5b506102cf600b5481565b34801561032857600080fd5b506102b8610337366004612034565b610b2a565b34801561034857600080fd5b506102b8610357366004611f52565b610b35565b6102b861036a366004611f52565b610ba6565b34801561037b57600080fd5b506102b861038a366004611f52565b610d4a565b34801561039b57600080fd5b506102b86103aa366004612034565b610d57565b3480156103bb57600080fd5b506102cf7f000000000000000000000000000000000000000000000000000000000000000081565b3480156103ef57600080fd5b506102b86103fe366004612070565b610d72565b34801561040f57600080fd5b5061028061041e366004611f52565b610dbd565b34801561042f57600080fd5b506102cf7f000000000000000000000000000000000000000000000000000000000000000081565b34801561046357600080fd5b50610253610dcf565b34801561047857600080fd5b506102cf6104873660046120e2565b610dde565b34801561049857600080fd5b506102b8610e2d565b3480156104ad57600080fd5b506102cf7f000000000000000000000000000000000000000000000000000000000000000081565b3480156104e157600080fd5b506009546001600160a01b0316610280565b3480156104ff57600080fd5b506102b861050e3660046120fd565b610e41565b34801561051f57600080fd5b50610253610e53565b34801561053457600080fd5b506102b861054336600461211f565b610e62565b34801561055457600080fd5b506102cf7f000000000000000000000000000000000000000000000000000000000000000081565b34801561058857600080fd5b506102b8610ef8565b34801561059d57600080fd5b506102cf6105ac3660046120e2565b610fff565b3480156105bd57600080fd5b506102b86105cc366004612171565b61100a565b3480156105dd57600080fd5b506102b86105ec366004611f52565b61105b565b3480156105fd57600080fd5b506102cf600c5481565b34801561061357600080fd5b50610253610622366004611f52565b6111eb565b34801561063357600080fd5b506102cf60085481565b34801561064957600080fd5b5061022961065836600461224d565b6001600160a01b03918216600090815260076020908152604080832093909416825291909152205460ff1690565b34801561069257600080fd5b506102b86106a13660046120e2565b61127d565b60006001600160e01b031982166380ac58cd60e01b14806106d757506001600160e01b03198216635b5e139f60e01b145b806106f257506301ffc9a760e01b6001600160e01b03198316145b92915050565b60606002805461070790612280565b80601f016020809104026020016040519081016040528092919081815260200182805461073390612280565b80156107805780601f1061075557610100808354040283529160200191610780565b820191906000526020600020905b81548152906001019060200180831161076357829003601f168201915b5050505050905090565b6000610795826112f6565b6107b2576040516333d1c03960e21b815260040160405180910390fd5b506000908152600660205260409020546001600160a01b031690565b60006107d982610dbd565b9050806001600160a01b0316836001600160a01b0316141561080e5760405163250fdee360e21b815260040160405180910390fd5b336001600160a01b0382161480159061082e575061082c8133610658565b155b1561084c576040516367d9dca160e11b815260040160405180910390fd5b610857838383611321565b505050565b83833233146108865760405162461bcd60e51b815260040161087d906122bb565b60405180910390fd5b7f00000000000000000000000000000000000000000000000000000000000000006108be836108b86001546000540390565b9061137d565b11156108dc5760405162461bcd60e51b815260040161087d906122fe565b6109067f000000000000000000000000000000000000000000000000000000000000000083611389565b34146109245760405162461bcd60e51b815260040161087d90612342565b6000341180156109345750600082115b6109505760405162461bcd60e51b815260040161087d90612384565b8061095e836108b833611395565b111561097c5760405162461bcd60e51b815260040161087d906123d5565b600c5460008111801561098e57508042115b6109aa5760405162461bcd60e51b815260040161087d90612426565b6109b333611395565b15610a0c5760405162461bcd60e51b815260206004820152602360248201527f52686170736f647943726561746f722f696e76616c69642d646f75626c652d6d6044820152621a5b9d60ea1b606482015260840161087d565b610a8885858080602002602001604051908101604052809392919081815260200183836020028082843760009201919091525050600b546040516bffffffffffffffffffffffff193360601b166020820152603481018c90529092506054019050604051602081830303815290604052805190602001206113c4565b610ae25760405162461bcd60e51b815260206004820152602560248201527f52686170736f647943726561746f722f696e76616c69642d616464726573732d604482015264383937b7b360d91b606482015260840161087d565b610aec33886113da565b60405187815233907f0ce3610e89a4bb9ec9359763f99110ed52a4abaea0b62028a1637e242ca2768b9060200160405180910390a250505050505050565b6108578383836113f4565b610b3d6115e4565b6002600a541415610b905760405162461bcd60e51b815260206004820152601f60248201527f5265656e7472616e637947756172643a207265656e7472616e742063616c6c00604482015260640161087d565b6002600a55610b9e8161163e565b506001600a55565b807f0000000000000000000000000000000000000000000000000000000000000000323314610be75760405162461bcd60e51b815260040161087d906122bb565b7f0000000000000000000000000000000000000000000000000000000000000000610c19836108b86001546000540390565b1115610c375760405162461bcd60e51b815260040161087d906122fe565b610c617f000000000000000000000000000000000000000000000000000000000000000083611389565b3414610c7f5760405162461bcd60e51b815260040161087d90612342565b600034118015610c8f5750600082115b610cab5760405162461bcd60e51b815260040161087d90612384565b80610cb9836108b833611395565b1115610cd75760405162461bcd60e51b815260040161087d906123d5565b600d54600081118015610ce957508042115b610d055760405162461bcd60e51b815260040161087d90612426565b610d0f33856113da565b60405184815233907f0ce3610e89a4bb9ec9359763f99110ed52a4abaea0b62028a1637e242ca2768b9060200160405180910390a250505050565b610d526115e4565b600b55565b6108578383836040518060200160405280600081525061100a565b610d7a6115e4565b610db982828080601f01602080910402602001604051908101604052809392919081815260200183838082843760009201919091525061177692505050565b5050565b6000610dc882611789565b5192915050565b6060600e805461070790612280565b60006001600160a01b038216610e07576040516323d3ad8160e21b815260040160405180910390fd5b506001600160a01b031660009081526005602052604090205467ffffffffffffffff1690565b610e356115e4565b610e3f60006118a5565b565b610e496115e4565b610db982826118f7565b60606003805461070790612280565b6001600160a01b038216331415610e8c5760405163b06307db60e01b815260040160405180910390fd5b3360008181526007602090815260408083206001600160a01b03871680855290835292819020805460ff191686151590811790915590519081529192917f17307eab39ab6107e8899845ad3d59bd9653f200f220920489ca2b5937696c31910160405180910390a35050565b610f006115e4565b6002600a541415610f535760405162461bcd60e51b815260206004820152601f60248201527f5265656e7472616e637947756172643a207265656e7472616e742063616c6c00604482015260640161087d565b6002600a55604051600090339047908381818185875af1925050503d8060008114610f9a576040519150601f19603f3d011682016040523d82523d6000602084013e610f9f565b606091505b5050905080610b9e5760405162461bcd60e51b815260206004820152602660248201527f52686170736f647943726561746f722f696e76616c69642d77697468647261776044820152652d6d6f6e657960d01b606482015260840161087d565b60006106f282611395565b6110158484846113f4565b6001600160a01b0383163b151580156110375750611035848484846119b8565b155b15611055576040516368d2bf6b60e11b815260040160405180910390fd5b50505050565b6110636115e4565b7f0000000000000000000000000000000000000000000000000000000000000000611095826108b86001546000540390565b11156110f45760405162461bcd60e51b815260206004820152602860248201527f52686170736f647943726561746f722f696e76616c69642d70726f6d6f74696f6044820152676e2d737570706c7960c01b606482015260840161087d565b7f000000000000000000000000000000000000000000000000000000000000000061111f8282611ab0565b1561117b5760405162461bcd60e51b815260206004820152602660248201527f52686170736f647943726561746f722f696e76616c69642d62617463682d6d756044820152656c7469706c6560d01b606482015260840161087d565b60006111878383611abc565b905060005b818110156111b05761119e33846113da565b806111a88161247d565b91505061118c565b5060405183815233907f0ce3610e89a4bb9ec9359763f99110ed52a4abaea0b62028a1637e242ca2768b9060200160405180910390a2505050565b60606111f6826112f6565b61121357604051630a14c4b560e41b815260040160405180910390fd5b600061122a60408051602081019091526000815290565b905080516000141561124b5760405180602001604052806000815250611276565b8061125584611ac8565b604051602001611266929190612498565b6040516020818303038152906040525b9392505050565b6112856115e4565b6001600160a01b0381166112ea5760405162461bcd60e51b815260206004820152602660248201527f4f776e61626c653a206e6577206f776e657220697320746865207a65726f206160448201526564647265737360d01b606482015260840161087d565b6112f3816118a5565b50565b60008054821080156106f2575050600090815260046020526040902054600160e01b900460ff161590565b60008281526006602052604080822080546001600160a01b0319166001600160a01b0387811691821790925591518593918516917f8c5be1e5ebec7d5bd14f71427d1e84f3dd0314c0f7b2291e5b200ac8c7c3b92591a4505050565b600061127682846124c7565b600061127682846124df565b6001600160a01b038116600090815260056020526040812054600160401b900467ffffffffffffffff166106f2565b6000826113d18584611bc6565b14949350505050565b610db9828260405180602001604052806000815250611c13565b60006113ff82611789565b9050836001600160a01b031681600001516001600160a01b0316146114365760405162a1148160e81b815260040160405180910390fd5b6000336001600160a01b038616148061145457506114548533610658565b8061146f5750336114648461078a565b6001600160a01b0316145b90508061148f57604051632ce44b5f60e11b815260040160405180910390fd5b6001600160a01b0384166114b657604051633a954ecd60e21b815260040160405180910390fd5b6114c260008487611321565b6001600160a01b038581166000908152600560209081526040808320805467ffffffffffffffff1980821667ffffffffffffffff92831660001901831617909255898616808652838620805493841693831660019081018416949094179055898652600490945282852080546001600160e01b031916909417600160a01b42909216919091021783558701808452922080549193909116611598576000548214611598578054602086015167ffffffffffffffff16600160a01b026001600160e01b03199091166001600160a01b038a16171781555b50505082846001600160a01b0316866001600160a01b03167fddf252ad1be2c89b69c2b068fc378daa952ba7f163c4a11628f55a4df523b3ef60405160405180910390a45b5050505050565b6009546001600160a01b03163314610e3f5760405162461bcd60e51b815260206004820181905260248201527f4f776e61626c653a2063616c6c6572206973206e6f7420746865206f776e6572604482015260640161087d565b8061165c576040516356be441560e01b815260040160405180910390fd5b60005461167c5760405163c0367cab60e01b815260040160405180910390fd5b60085480611688575060005b60005481106116aa576040516370e89b1b60e01b815260040160405180910390fd5b60005482820160001981019110156116c55750600054600019015b815b81811161176b576000818152600460205260409020546001600160a01b03161580156117095750600081815260046020526040902054600160e01b900460ff16155b1561176357600061171982611789565b805160008481526004602090815260409091208054919093015167ffffffffffffffff16600160a01b026001600160e01b03199091166001600160a01b0390921691909117179055505b6001016116c7565b506001016008555050565b8051610db990600e906020840190611e1b565b60408051606081018252600080825260208201819052918101919091528160005481101561188c57600081815260046020908152604091829020825160608101845290546001600160a01b0381168252600160a01b810467ffffffffffffffff1692820192909252600160e01b90910460ff1615159181018290529061188a5780516001600160a01b031615611820579392505050565b5060001901600081815260046020908152604091829020825160608101845290546001600160a01b038116808352600160a01b820467ffffffffffffffff1693830193909352600160e01b900460ff1615159281019290925215611885579392505050565b611820565b505b604051636f96cda160e11b815260040160405180910390fd5b600980546001600160a01b038381166001600160a01b0319831681179093556040519116919082907f8be0079c531659141344cd1fd0a4f28419497f9722a3daafe3b4186f6b6457e090600090a35050565b4282116119525760405162461bcd60e51b8152602060048201526024808201527f52686170736f647943726561746f722f696e76616c69642d70726573616c652d60448201526374696d6560e01b606482015260840161087d565b8181116119ad5760405162461bcd60e51b815260206004820152602360248201527f52686170736f647943726561746f722f696e76616c69642d7075626c69632d74604482015262696d6560e81b606482015260840161087d565b600c91909155600d55565b604051630a85bd0160e11b81526000906001600160a01b0385169063150b7a02906119ed9033908990889088906004016124fe565b602060405180830381600087803b158015611a0757600080fd5b505af1925050508015611a37575060408051601f3d908101601f19168201909252611a349181019061253b565b60015b611a92573d808015611a65576040519150601f19603f3d011682016040523d82523d6000602084013e611a6a565b606091505b508051611a8a576040516368d2bf6b60e11b815260040160405180910390fd5b805181602001fd5b6001600160e01b031916630a85bd0160e11b1490505b949350505050565b6000611276828461256e565b60006112768284612582565b606081611aec5750506040805180820190915260018152600360fc1b602082015290565b8160005b8115611b165780611b008161247d565b9150611b0f9050600a83612582565b9150611af0565b60008167ffffffffffffffff811115611b3157611b3161215b565b6040519080825280601f01601f191660200182016040528015611b5b576020820181803683370190505b5090505b8415611aa857611b70600183612596565b9150611b7d600a8661256e565b611b889060306124c7565b60f81b818381518110611b9d57611b9d6125ad565b60200101906001600160f81b031916908160001a905350611bbf600a86612582565b9450611b5f565b600081815b8451811015611c0b57611bf782868381518110611bea57611bea6125ad565b6020026020010151611c20565b915080611c038161247d565b915050611bcb565b509392505050565b6108578383836001611c4f565b6000818310611c3c576000828152602084905260409020611276565b6000838152602083905260409020611276565b6000546001600160a01b038516611c7857604051622e076360e81b815260040160405180910390fd5b83611c965760405163b562e8dd60e01b815260040160405180910390fd5b6001600160a01b038516600081815260056020908152604080832080546fffffffffffffffffffffffffffffffff19811667ffffffffffffffff8083168c018116918217600160401b67ffffffffffffffff1990941690921783900481168c01811690920217909155858452600490925290912080546001600160e01b031916909217600160a01b429092169190910217905580808501838015611d4357506001600160a01b0387163b15155b15611dcc575b60405182906001600160a01b038916906000907fddf252ad1be2c89b69c2b068fc378daa952ba7f163c4a11628f55a4df523b3ef908290a4611d9460008884806001019550886119b8565b611db1576040516368d2bf6b60e11b815260040160405180910390fd5b80821415611d49578260005414611dc757600080fd5b611e12565b5b6040516001830192906001600160a01b038916906000907fddf252ad1be2c89b69c2b068fc378daa952ba7f163c4a11628f55a4df523b3ef908290a480821415611dcd575b506000556115dd565b828054611e2790612280565b90600052602060002090601f016020900481019282611e495760008555611e8f565b82601f10611e6257805160ff1916838001178555611e8f565b82800160010185558215611e8f579182015b82811115611e8f578251825591602001919060010190611e74565b50611e9b929150611e9f565b5090565b5b80821115611e9b5760008155600101611ea0565b6001600160e01b0319811681146112f357600080fd5b600060208284031215611edc57600080fd5b813561127681611eb4565b60005b83811015611f02578181015183820152602001611eea565b838111156110555750506000910152565b60008151808452611f2b816020860160208601611ee7565b601f01601f19169290920160200192915050565b6020815260006112766020830184611f13565b600060208284031215611f6457600080fd5b5035919050565b80356001600160a01b0381168114611f8257600080fd5b919050565b60008060408385031215611f9a57600080fd5b611fa383611f6b565b946020939093013593505050565b60008060008060608587031215611fc757600080fd5b8435935060208501359250604085013567ffffffffffffffff80821115611fed57600080fd5b818701915087601f83011261200157600080fd5b81358181111561201057600080fd5b8860208260051b850101111561202557600080fd5b95989497505060200194505050565b60008060006060848603121561204957600080fd5b61205284611f6b565b925061206060208501611f6b565b9150604084013590509250925092565b6000806020838503121561208357600080fd5b823567ffffffffffffffff8082111561209b57600080fd5b818501915085601f8301126120af57600080fd5b8135818111156120be57600080fd5b8660208285010111156120d057600080fd5b60209290920196919550909350505050565b6000602082840312156120f457600080fd5b61127682611f6b565b6000806040838503121561211057600080fd5b50508035926020909101359150565b6000806040838503121561213257600080fd5b61213b83611f6b565b91506020830135801515811461215057600080fd5b809150509250929050565b634e487b7160e01b600052604160045260246000fd5b6000806000806080858703121561218757600080fd5b61219085611f6b565b935061219e60208601611f6b565b925060408501359150606085013567ffffffffffffffff808211156121c257600080fd5b818701915087601f8301126121d657600080fd5b8135818111156121e8576121e861215b565b604051601f8201601f19908116603f011681019083821181831017156122105761221061215b565b816040528281528a602084870101111561222957600080fd5b82602086016020830137600060208483010152809550505050505092959194509250565b6000806040838503121561226057600080fd5b61226983611f6b565b915061227760208401611f6b565b90509250929050565b600181811c9082168061229457607f821691505b602082108114156122b557634e487b7160e01b600052602260045260246000fd5b50919050565b60208082526023908201527f52686170736f647943726561746f722f696e76616c69642d6d696e742d63616c6040820152623632b960e91b606082015260800190565b60208082526024908201527f52686170736f647943726561746f722f696e76616c69642d746f74616c2d737560408201526370706c7960e01b606082015260800190565b60208082526022908201527f52686170736f647943726561746f722f696e76616c69642d6d696e742d76616c604082015261756560f01b606082015260800190565b60208082526031908201527f52686170736f647943726561746f722f696e76616c69642d696e766f636174696040820152706f6e2d6c6f7765722d626f756e6461727960781b606082015260800190565b60208082526031908201527f52686170736f647943726561746f722f696e76616c69642d696e766f636174696040820152706f6e2d75707065722d626f756e6461727960781b606082015260800190565b60208082526021908201527f52686170736f647943726561746f722f696e76616c69642d6d696e742d74696d6040820152606560f81b606082015260800190565b634e487b7160e01b600052601160045260246000fd5b600060001982141561249157612491612467565b5060010190565b600083516124aa818460208801611ee7565b8351908301906124be818360208801611ee7565b01949350505050565b600082198211156124da576124da612467565b500190565b60008160001904831182151516156124f9576124f9612467565b500290565b6001600160a01b038581168252841660208201526040810183905260806060820181905260009061253190830184611f13565b9695505050505050565b60006020828403121561254d57600080fd5b815161127681611eb4565b634e487b7160e01b600052601260045260246000fd5b60008261257d5761257d612558565b500690565b60008261259157612591612558565b500490565b6000828210156125a8576125a8612467565b500390565b634e487b7160e01b600052603260045260246000fdfea264697066735822122003d5fd63e1231179e1c717d19547817159e2b7677b7f2e151fbc97183d2889f764736f6c63430008090033",
  "linkReferences": {},
  "deployedLinkReferences": {}
}