{
    "_format": "hh-sol-artifact-1",
    "contractName": "RhapsodyCreator",
    "sourceName": "contracts/RhapsodyCreator.sol",
    "abi": [
        {
            "inputs": [
                {
                    "internalType": "string",
                    "name": "_name",
                    "type": "string"
                },
                {
                    "internalType": "string",
                    "name": "_symbol",
                    "type": "string"
                },
                {
                    "internalType": "uint256",
                    "name": "_collectionSize",
                    "type": "uint256"
                },
                {
                    "internalType": "uint256",
                    "name": "_maxPublicBatchPerAddress",
                    "type": "uint256"
                },
                {
                    "internalType": "uint256",
                    "name": "_amountForPromotion",
                    "type": "uint256"
                },
                {
                    "internalType": "uint256",
                    "name": "_mintPrice",
                    "type": "uint256"
                }
            ],
            "stateMutability": "nonpayable",
            "type": "constructor"
        },
        {
            "inputs": [],
            "name": "AllOwnershipsHaveBeenSet",
            "type": "error"
        },
        {
            "inputs": [],
            "name": "ApprovalCallerNotOwnerNorApproved",
            "type": "error"
        },
        {
            "inputs": [],
            "name": "ApprovalQueryForNonexistentToken",
            "type": "error"
        },
        {
            "inputs": [],
            "name": "ApprovalToCurrentOwner",
            "type": "error"
        },
        {
            "inputs": [],
            "name": "ApproveToCaller",
            "type": "error"
        },
        {
            "inputs": [],
            "name": "BalanceQueryForZeroAddress",
            "type": "error"
        },
        {
            "inputs": [],
            "name": "MintToZeroAddress",
            "type": "error"
        },
        {
            "inputs": [],
            "name": "MintZeroQuantity",
            "type": "error"
        },
        {
            "inputs": [],
            "name": "NoTokensMintedYet",
            "type": "error"
        },
        {
            "inputs": [],
            "name": "OwnerQueryForNonexistentToken",
            "type": "error"
        },
        {
            "inputs": [],
            "name": "QuantityMustBeNonZero",
            "type": "error"
        },
        {
            "inputs": [],
            "name": "TransferCallerNotOwnerNorApproved",
            "type": "error"
        },
        {
            "inputs": [],
            "name": "TransferFromIncorrectOwner",
            "type": "error"
        },
        {
            "inputs": [],
            "name": "TransferToNonERC721ReceiverImplementer",
            "type": "error"
        },
        {
            "inputs": [],
            "name": "TransferToZeroAddress",
            "type": "error"
        },
        {
            "inputs": [],
            "name": "URIQueryForNonexistentToken",
            "type": "error"
        },
        {
            "anonymous": false,
            "inputs": [
                {
                    "indexed": true,
                    "internalType": "address",
                    "name": "owner",
                    "type": "address"
                },
                {
                    "indexed": true,
                    "internalType": "address",
                    "name": "approved",
                    "type": "address"
                },
                {
                    "indexed": true,
                    "internalType": "uint256",
                    "name": "tokenId",
                    "type": "uint256"
                }
            ],
            "name": "Approval",
            "type": "event"
        },
        {
            "anonymous": false,
            "inputs": [
                {
                    "indexed": true,
                    "internalType": "address",
                    "name": "owner",
                    "type": "address"
                },
                {
                    "indexed": true,
                    "internalType": "address",
                    "name": "operator",
                    "type": "address"
                },
                {
                    "indexed": false,
                    "internalType": "bool",
                    "name": "approved",
                    "type": "bool"
                }
            ],
            "name": "ApprovalForAll",
            "type": "event"
        },
        {
            "anonymous": false,
            "inputs": [
                {
                    "indexed": true,
                    "internalType": "address",
                    "name": "to",
                    "type": "address"
                },
                {
                    "indexed": false,
                    "internalType": "uint256",
                    "name": "amount",
                    "type": "uint256"
                }
            ],
            "name": "Created",
            "type": "event"
        },
        {
            "anonymous": false,
            "inputs": [
                {
                    "indexed": true,
                    "internalType": "address",
                    "name": "previousOwner",
                    "type": "address"
                },
                {
                    "indexed": true,
                    "internalType": "address",
                    "name": "newOwner",
                    "type": "address"
                }
            ],
            "name": "OwnershipTransferred",
            "type": "event"
        },
        {
            "anonymous": false,
            "inputs": [
                {
                    "indexed": true,
                    "internalType": "address",
                    "name": "from",
                    "type": "address"
                },
                {
                    "indexed": true,
                    "internalType": "address",
                    "name": "to",
                    "type": "address"
                },
                {
                    "indexed": true,
                    "internalType": "uint256",
                    "name": "tokenId",
                    "type": "uint256"
                }
            ],
            "name": "Transfer",
            "type": "event"
        },
        {
            "inputs": [],
            "name": "amountForPromotion",
            "outputs": [
                {
                    "internalType": "uint256",
                    "name": "",
                    "type": "uint256"
                }
            ],
            "stateMutability": "view",
            "type": "function"
        },
        {
            "inputs": [
                {
                    "internalType": "address",
                    "name": "to",
                    "type": "address"
                },
                {
                    "internalType": "uint256",
                    "name": "tokenId",
                    "type": "uint256"
                }
            ],
            "name": "approve",
            "outputs": [],
            "stateMutability": "nonpayable",
            "type": "function"
        },
        {
            "inputs": [
                {
                    "internalType": "address",
                    "name": "owner",
                    "type": "address"
                }
            ],
            "name": "balanceOf",
            "outputs": [
                {
                    "internalType": "uint256",
                    "name": "",
                    "type": "uint256"
                }
            ],
            "stateMutability": "view",
            "type": "function"
        },
        {
            "inputs": [],
            "name": "baseURI",
            "outputs": [
                {
                    "internalType": "string",
                    "name": "",
                    "type": "string"
                }
            ],
            "stateMutability": "view",
            "type": "function"
        },
        {
            "inputs": [
                {
                    "internalType": "uint256",
                    "name": "tokenId",
                    "type": "uint256"
                }
            ],
            "name": "getApproved",
            "outputs": [
                {
                    "internalType": "address",
                    "name": "",
                    "type": "address"
                }
            ],
            "stateMutability": "view",
            "type": "function"
        },
        {
            "inputs": [
                {
                    "internalType": "address",
                    "name": "owner",
                    "type": "address"
                },
                {
                    "internalType": "address",
                    "name": "operator",
                    "type": "address"
                }
            ],
            "name": "isApprovedForAll",
            "outputs": [
                {
                    "internalType": "bool",
                    "name": "",
                    "type": "bool"
                }
            ],
            "stateMutability": "view",
            "type": "function"
        },
        {
            "inputs": [],
            "name": "maxPublicBatchPerAddress",
            "outputs": [
                {
                    "internalType": "uint256",
                    "name": "",
                    "type": "uint256"
                }
            ],
            "stateMutability": "view",
            "type": "function"
        },
        {
            "inputs": [
                {
                    "internalType": "address",
                    "name": "_owner",
                    "type": "address"
                }
            ],
            "name": "mintOf",
            "outputs": [
                {
                    "internalType": "uint256",
                    "name": "",
                    "type": "uint256"
                }
            ],
            "stateMutability": "view",
            "type": "function"
        },
        {
            "inputs": [],
            "name": "mintPrice",
            "outputs": [
                {
                    "internalType": "uint256",
                    "name": "",
                    "type": "uint256"
                }
            ],
            "stateMutability": "view",
            "type": "function"
        },
        {
            "inputs": [],
            "name": "name",
            "outputs": [
                {
                    "internalType": "string",
                    "name": "",
                    "type": "string"
                }
            ],
            "stateMutability": "view",
            "type": "function"
        },
        {
            "inputs": [],
            "name": "nextOwnerToExplicitlySet",
            "outputs": [
                {
                    "internalType": "uint256",
                    "name": "",
                    "type": "uint256"
                }
            ],
            "stateMutability": "view",
            "type": "function"
        },
        {
            "inputs": [],
            "name": "owner",
            "outputs": [
                {
                    "internalType": "address",
                    "name": "",
                    "type": "address"
                }
            ],
            "stateMutability": "view",
            "type": "function"
        },
        {
            "inputs": [
                {
                    "internalType": "uint256",
                    "name": "tokenId",
                    "type": "uint256"
                }
            ],
            "name": "ownerOf",
            "outputs": [
                {
                    "internalType": "address",
                    "name": "",
                    "type": "address"
                }
            ],
            "stateMutability": "view",
            "type": "function"
        },
        {
            "inputs": [],
            "name": "presaleMerkleRoot",
            "outputs": [
                {
                    "internalType": "bytes32",
                    "name": "",
                    "type": "bytes32"
                }
            ],
            "stateMutability": "view",
            "type": "function"
        },
        {
            "inputs": [
                {
                    "internalType": "uint256",
                    "name": "invocations",
                    "type": "uint256"
                },
                {
                    "internalType": "uint256",
                    "name": "maxInvocation",
                    "type": "uint256"
                },
                {
                    "internalType": "bytes32[]",
                    "name": "proof",
                    "type": "bytes32[]"
                }
            ],
            "name": "presaleMint",
            "outputs": [],
            "stateMutability": "payable",
            "type": "function"
        },
        {
            "inputs": [],
            "name": "presaleTime",
            "outputs": [
                {
                    "internalType": "uint256",
                    "name": "",
                    "type": "uint256"
                }
            ],
            "stateMutability": "view",
            "type": "function"
        },
        {
            "inputs": [
                {
                    "internalType": "uint256",
                    "name": "invocations",
                    "type": "uint256"
                }
            ],
            "name": "promotionMint",
            "outputs": [],
            "stateMutability": "nonpayable",
            "type": "function"
        },
        {
            "inputs": [
                {
                    "internalType": "uint256",
                    "name": "invocations",
                    "type": "uint256"
                }
            ],
            "name": "publicMint",
            "outputs": [],
            "stateMutability": "payable",
            "type": "function"
        },
        {
            "inputs": [],
            "name": "publicTime",
            "outputs": [
                {
                    "internalType": "uint256",
                    "name": "",
                    "type": "uint256"
                }
            ],
            "stateMutability": "view",
            "type": "function"
        },
        {
            "inputs": [],
            "name": "renounceOwnership",
            "outputs": [],
            "stateMutability": "nonpayable",
            "type": "function"
        },
        {
            "inputs": [
                {
                    "internalType": "address",
                    "name": "from",
                    "type": "address"
                },
                {
                    "internalType": "address",
                    "name": "to",
                    "type": "address"
                },
                {
                    "internalType": "uint256",
                    "name": "tokenId",
                    "type": "uint256"
                }
            ],
            "name": "safeTransferFrom",
            "outputs": [],
            "stateMutability": "nonpayable",
            "type": "function"
        },
        {
            "inputs": [
                {
                    "internalType": "address",
                    "name": "from",
                    "type": "address"
                },
                {
                    "internalType": "address",
                    "name": "to",
                    "type": "address"
                },
                {
                    "internalType": "uint256",
                    "name": "tokenId",
                    "type": "uint256"
                },
                {
                    "internalType": "bytes",
                    "name": "_data",
                    "type": "bytes"
                }
            ],
            "name": "safeTransferFrom",
            "outputs": [],
            "stateMutability": "nonpayable",
            "type": "function"
        },
        {
            "inputs": [
                {
                    "internalType": "address",
                    "name": "operator",
                    "type": "address"
                },
                {
                    "internalType": "bool",
                    "name": "approved",
                    "type": "bool"
                }
            ],
            "name": "setApprovalForAll",
            "outputs": [],
            "stateMutability": "nonpayable",
            "type": "function"
        },
        {
            "inputs": [
                {
                    "internalType": "string",
                    "name": "newBaseURI",
                    "type": "string"
                }
            ],
            "name": "setBaseURI",
            "outputs": [],
            "stateMutability": "nonpayable",
            "type": "function"
        },
        {
            "inputs": [
                {
                    "internalType": "bytes32",
                    "name": "_presaleMerkleRoot",
                    "type": "bytes32"
                }
            ],
            "name": "setMintMerkleRoot",
            "outputs": [],
            "stateMutability": "nonpayable",
            "type": "function"
        },
        {
            "inputs": [
                {
                    "internalType": "uint256",
                    "name": "_presaleTime",
                    "type": "uint256"
                },
                {
                    "internalType": "uint256",
                    "name": "_publicTime",
                    "type": "uint256"
                }
            ],
            "name": "setMintTime",
            "outputs": [],
            "stateMutability": "nonpayable",
            "type": "function"
        },
        {
            "inputs": [
                {
                    "internalType": "uint256",
                    "name": "quantity",
                    "type": "uint256"
                }
            ],
            "name": "setOwnersExplicit",
            "outputs": [],
            "stateMutability": "nonpayable",
            "type": "function"
        },
        {
            "inputs": [
                {
                    "internalType": "bytes4",
                    "name": "interfaceId",
                    "type": "bytes4"
                }
            ],
            "name": "supportsInterface",
            "outputs": [
                {
                    "internalType": "bool",
                    "name": "",
                    "type": "bool"
                }
            ],
            "stateMutability": "view",
            "type": "function"
        },
        {
            "inputs": [],
            "name": "symbol",
            "outputs": [
                {
                    "internalType": "string",
                    "name": "",
                    "type": "string"
                }
            ],
            "stateMutability": "view",
            "type": "function"
        },
        {
            "inputs": [
                {
                    "internalType": "uint256",
                    "name": "tokenId",
                    "type": "uint256"
                }
            ],
            "name": "tokenURI",
            "outputs": [
                {
                    "internalType": "string",
                    "name": "",
                    "type": "string"
                }
            ],
            "stateMutability": "view",
            "type": "function"
        },
        {
            "inputs": [],
            "name": "totalSupply",
            "outputs": [
                {
                    "internalType": "uint256",
                    "name": "",
                    "type": "uint256"
                }
            ],
            "stateMutability": "view",
            "type": "function"
        },
        {
            "inputs": [
                {
                    "internalType": "address",
                    "name": "from",
                    "type": "address"
                },
                {
                    "internalType": "address",
                    "name": "to",
                    "type": "address"
                },
                {
                    "internalType": "uint256",
                    "name": "tokenId",
                    "type": "uint256"
                }
            ],
            "name": "transferFrom",
            "outputs": [],
            "stateMutability": "nonpayable",
            "type": "function"
        },
        {
            "inputs": [
                {
                    "internalType": "address",
                    "name": "newOwner",
                    "type": "address"
                }
            ],
            "name": "transferOwnership",
            "outputs": [],
            "stateMutability": "nonpayable",
            "type": "function"
        },
        {
            "inputs": [],
            "name": "withdrawMoney",
            "outputs": [],
            "stateMutability": "nonpayable",
            "type": "function"
        }
    ],
    "bytecode": "0x6101006040523480156200001257600080fd5b5060405162002af838038062002af883398101604081905262000035916200037e565b8551869086906200004e9060029060208501906200020b565b508051620000649060039060208401906200020b565b505060008055506200007633620001b9565b6001600a5583620000de5760405162461bcd60e51b815260206004820152602760248201527f52686170736f647943726561746f722f696e76616c69642d636f6c6c656374696044820152666f6e2d73697a6560c81b60648201526084015b60405180910390fd5b83821115620001415760405162461bcd60e51b815260206004820152602860248201527f52686170736f647943726561746f722f696e76616c69642d70726f6d6f74696f6044820152671b8b585b5bdd5b9d60c21b6064820152608401620000d5565b600081116200019e5760405162461bcd60e51b815260206004820152602260248201527f52686170736f647943726561746f722f696e76616c69642d6d696e742d707269604482015261636560f01b6064820152608401620000d5565b60e09390935260a09190915260805260c052506200044a9050565b600980546001600160a01b038381166001600160a01b0319831681179093556040519116919082907f8be0079c531659141344cd1fd0a4f28419497f9722a3daafe3b4186f6b6457e090600090a35050565b82805462000219906200040d565b90600052602060002090601f0160209004810192826200023d576000855562000288565b82601f106200025857805160ff191683800117855562000288565b8280016001018555821562000288579182015b82811115620002885782518255916020019190600101906200026b565b50620002969291506200029a565b5090565b5b808211156200029657600081556001016200029b565b634e487b7160e01b600052604160045260246000fd5b600082601f830112620002d957600080fd5b81516001600160401b0380821115620002f657620002f6620002b1565b604051601f8301601f19908116603f01168101908282118183101715620003215762000321620002b1565b816040528381526020925086838588010111156200033e57600080fd5b600091505b8382101562000362578582018301518183018401529082019062000343565b83821115620003745760008385830101525b9695505050505050565b60008060008060008060c087890312156200039857600080fd5b86516001600160401b0380821115620003b057600080fd5b620003be8a838b01620002c7565b97506020890151915080821115620003d557600080fd5b50620003e489828a01620002c7565b95505060408701519350606087015192506080870151915060a087015190509295509295509295565b600181811c908216806200042257607f821691505b602082108114156200044457634e487b7160e01b600052602260045260246000fd5b50919050565b60805160a05160c05160e05161264a620004ae600039600081816108490152610bcc0152600081816103f6015281816108a20152610c1f01526000818161051b01528181610b8c01526112250152600081816104740152611194015261264a6000f3fe6080604052600436106101f95760003560e01c806370a082311161010d578063ac446002116100a0578063c6e62e0b1161006f578063c6e62e0b146105b2578063c87b56dd146105c8578063d7224ba0146105e8578063e985e9c5146105fe578063f2fde38b1461064757600080fd5b8063ac4460021461053d578063b1f536fa14610552578063b88d4fde14610572578063ba2f59c81461059257600080fd5b8063910401c5116100dc578063910401c5146104b457806395d89b41146104d4578063a22cb465146104e9578063a4babffd1461050957600080fd5b806370a082311461042d578063715018a61461044d57806376972db2146104625780638da5cb5b1461049657600080fd5b806323b872dd1161019057806342842e0e1161015f57806342842e0e1461038457806355f804b3146103a45780636352211e146103c45780636817c76c146103e45780636c0360eb1461041857600080fd5b806323b872dd146103115780632d20fb60146103315780632db11544146103515780633a4710c41461036457600080fd5b806318160ddd116101cc57806318160ddd146102af5780631b59169d146102d25780631bdc608e146102e557806322212e2b146102fb57600080fd5b806301ffc9a7146101fe57806306fdde0314610233578063081812fc14610255578063095ea7b31461028d575b600080fd5b34801561020a57600080fd5b5061021e610219366004611ee6565b610667565b60405190151581526020015b60405180910390f35b34801561023f57600080fd5b506102486106b9565b60405161022a9190611f5b565b34801561026157600080fd5b50610275610270366004611f6e565b61074b565b6040516001600160a01b03909116815260200161022a565b34801561029957600080fd5b506102ad6102a8366004611fa3565b61078f565b005b3480156102bb57600080fd5b50600154600054035b60405190815260200161022a565b6102ad6102e0366004611fcd565b61081d565b3480156102f157600080fd5b506102c4600d5481565b34801561030757600080fd5b506102c4600b5481565b34801561031d57600080fd5b506102ad61032c366004612050565b610aeb565b34801561033d57600080fd5b506102ad61034c366004611f6e565b610af6565b6102ad61035f366004611f6e565b610b89565b34801561037057600080fd5b506102ad61037f366004611f6e565b610d2d565b34801561039057600080fd5b506102ad61039f366004612050565b610d5c565b3480156103b057600080fd5b506102ad6103bf36600461208c565b610d77565b3480156103d057600080fd5b506102756103df366004611f6e565b610dad565b3480156103f057600080fd5b506102c47f000000000000000000000000000000000000000000000000000000000000000081565b34801561042457600080fd5b50610248610dbf565b34801561043957600080fd5b506102c46104483660046120fe565b610dce565b34801561045957600080fd5b506102ad610e1d565b34801561046e57600080fd5b506102c47f000000000000000000000000000000000000000000000000000000000000000081565b3480156104a257600080fd5b506009546001600160a01b0316610275565b3480156104c057600080fd5b506102ad6104cf366004612119565b610e53565b3480156104e057600080fd5b50610248610f3e565b3480156104f557600080fd5b506102ad61050436600461213b565b610f4d565b34801561051557600080fd5b506102c47f000000000000000000000000000000000000000000000000000000000000000081565b34801561054957600080fd5b506102ad610fe3565b34801561055e57600080fd5b506102c461056d3660046120fe565b61110c565b34801561057e57600080fd5b506102ad61058d36600461218d565b611117565b34801561059e57600080fd5b506102ad6105ad366004611f6e565b611168565b3480156105be57600080fd5b506102c4600c5481565b3480156105d457600080fd5b506102486105e3366004611f6e565b61131a565b3480156105f457600080fd5b506102c460085481565b34801561060a57600080fd5b5061021e610619366004612269565b6001600160a01b03918216600090815260076020908152604080832093909416825291909152205460ff1690565b34801561065357600080fd5b506102ad6106623660046120fe565b61139f565b60006001600160e01b031982166380ac58cd60e01b148061069857506001600160e01b03198216635b5e139f60e01b145b806106b357506301ffc9a760e01b6001600160e01b03198316145b92915050565b6060600280546106c89061229c565b80601f01602080910402602001604051908101604052809291908181526020018280546106f49061229c565b80156107415780601f1061071657610100808354040283529160200191610741565b820191906000526020600020905b81548152906001019060200180831161072457829003601f168201915b5050505050905090565b60006107568261143a565b610773576040516333d1c03960e21b815260040160405180910390fd5b506000908152600660205260409020546001600160a01b031690565b600061079a82610dad565b9050806001600160a01b0316836001600160a01b031614156107cf5760405163250fdee360e21b815260040160405180910390fd5b336001600160a01b038216148015906107ef57506107ed8133610619565b155b1561080d576040516367d9dca160e11b815260040160405180910390fd5b610818838383611465565b505050565b83833233146108475760405162461bcd60e51b815260040161083e906122d7565b60405180910390fd5b7f000000000000000000000000000000000000000000000000000000000000000061087f836108796001546000540390565b906114c1565b111561089d5760405162461bcd60e51b815260040161083e9061231a565b6108c77f0000000000000000000000000000000000000000000000000000000000000000836114cd565b34146108e55760405162461bcd60e51b815260040161083e9061235e565b6000341180156108f55750600082115b6109115760405162461bcd60e51b815260040161083e906123a0565b8061091f83610879336114d9565b111561093d5760405162461bcd60e51b815260040161083e906123f1565b600c5460008111801561094f57508042115b61096b5760405162461bcd60e51b815260040161083e90612442565b610974336114d9565b156109cd5760405162461bcd60e51b815260206004820152602360248201527f52686170736f647943726561746f722f696e76616c69642d646f75626c652d6d6044820152621a5b9d60ea1b606482015260840161083e565b610a4985858080602002602001604051908101604052809392919081815260200183836020028082843760009201919091525050600b546040516bffffffffffffffffffffffff193360601b166020820152603481018c9052909250605401905060405160208183030381529060405280519060200120611508565b610aa35760405162461bcd60e51b815260206004820152602560248201527f52686170736f647943726561746f722f696e76616c69642d616464726573732d604482015264383937b7b360d91b606482015260840161083e565b610aad338861151e565b60405187815233907f0ce3610e89a4bb9ec9359763f99110ed52a4abaea0b62028a1637e242ca2768b9060200160405180910390a250505050505050565b61081883838361153c565b6009546001600160a01b03163314610b205760405162461bcd60e51b815260040161083e90612483565b6002600a541415610b735760405162461bcd60e51b815260206004820152601f60248201527f5265656e7472616e637947756172643a207265656e7472616e742063616c6c00604482015260640161083e565b6002600a55610b818161172c565b506001600a55565b807f0000000000000000000000000000000000000000000000000000000000000000323314610bca5760405162461bcd60e51b815260040161083e906122d7565b7f0000000000000000000000000000000000000000000000000000000000000000610bfc836108796001546000540390565b1115610c1a5760405162461bcd60e51b815260040161083e9061231a565b610c447f0000000000000000000000000000000000000000000000000000000000000000836114cd565b3414610c625760405162461bcd60e51b815260040161083e9061235e565b600034118015610c725750600082115b610c8e5760405162461bcd60e51b815260040161083e906123a0565b80610c9c83610879336114d9565b1115610cba5760405162461bcd60e51b815260040161083e906123f1565b600d54600081118015610ccc57508042115b610ce85760405162461bcd60e51b815260040161083e90612442565b610cf2338561151e565b60405184815233907f0ce3610e89a4bb9ec9359763f99110ed52a4abaea0b62028a1637e242ca2768b9060200160405180910390a250505050565b6009546001600160a01b03163314610d575760405162461bcd60e51b815260040161083e90612483565b600b55565b61081883838360405180602001604052806000815250611117565b6009546001600160a01b03163314610da15760405162461bcd60e51b815260040161083e90612483565b610818600e8383611e37565b6000610db882611864565b5192915050565b6060610dc9611980565b905090565b60006001600160a01b038216610df7576040516323d3ad8160e21b815260040160405180910390fd5b506001600160a01b031660009081526005602052604090205467ffffffffffffffff1690565b6009546001600160a01b03163314610e475760405162461bcd60e51b815260040161083e90612483565b610e51600061198f565b565b6009546001600160a01b03163314610e7d5760405162461bcd60e51b815260040161083e90612483565b428211610ed85760405162461bcd60e51b8152602060048201526024808201527f52686170736f647943726561746f722f696e76616c69642d70726573616c652d60448201526374696d6560e01b606482015260840161083e565b818111610f335760405162461bcd60e51b815260206004820152602360248201527f52686170736f647943726561746f722f696e76616c69642d7075626c69632d74604482015262696d6560e81b606482015260840161083e565b600c91909155600d55565b6060600380546106c89061229c565b6001600160a01b038216331415610f775760405163b06307db60e01b815260040160405180910390fd5b3360008181526007602090815260408083206001600160a01b03871680855290835292819020805460ff191686151590811790915590519081529192917f17307eab39ab6107e8899845ad3d59bd9653f200f220920489ca2b5937696c31910160405180910390a35050565b6009546001600160a01b0316331461100d5760405162461bcd60e51b815260040161083e90612483565b6002600a5414156110605760405162461bcd60e51b815260206004820152601f60248201527f5265656e7472616e637947756172643a207265656e7472616e742063616c6c00604482015260640161083e565b6002600a55604051600090339047908381818185875af1925050503d80600081146110a7576040519150601f19603f3d011682016040523d82523d6000602084013e6110ac565b606091505b5050905080610b815760405162461bcd60e51b815260206004820152602660248201527f52686170736f647943726561746f722f696e76616c69642d77697468647261776044820152652d6d6f6e657960d01b606482015260840161083e565b60006106b3826114d9565b61112284848461153c565b6001600160a01b0383163b151580156111445750611142848484846119e1565b155b15611162576040516368d2bf6b60e11b815260040160405180910390fd5b50505050565b6009546001600160a01b031633146111925760405162461bcd60e51b815260040161083e90612483565b7f00000000000000000000000000000000000000000000000000000000000000006111c4826108796001546000540390565b11156112235760405162461bcd60e51b815260206004820152602860248201527f52686170736f647943726561746f722f696e76616c69642d70726f6d6f74696f6044820152676e2d737570706c7960c01b606482015260840161083e565b7f000000000000000000000000000000000000000000000000000000000000000061124e8282611ad9565b156112aa5760405162461bcd60e51b815260206004820152602660248201527f52686170736f647943726561746f722f696e76616c69642d62617463682d6d756044820152656c7469706c6560d01b606482015260840161083e565b60006112b68383611ae5565b905060005b818110156112df576112cd338461151e565b806112d7816124ce565b9150506112bb565b5060405183815233907f0ce3610e89a4bb9ec9359763f99110ed52a4abaea0b62028a1637e242ca2768b9060200160405180910390a2505050565b60606113258261143a565b61134257604051630a14c4b560e41b815260040160405180910390fd5b600061134c611980565b905080516000141561136d5760405180602001604052806000815250611398565b8061137784611af1565b6040516020016113889291906124e9565b6040516020818303038152906040525b9392505050565b6009546001600160a01b031633146113c95760405162461bcd60e51b815260040161083e90612483565b6001600160a01b03811661142e5760405162461bcd60e51b815260206004820152602660248201527f4f776e61626c653a206e6577206f776e657220697320746865207a65726f206160448201526564647265737360d01b606482015260840161083e565b6114378161198f565b50565b60008054821080156106b3575050600090815260046020526040902054600160e01b900460ff161590565b60008281526006602052604080822080546001600160a01b0319166001600160a01b0387811691821790925591518593918516917f8c5be1e5ebec7d5bd14f71427d1e84f3dd0314c0f7b2291e5b200ac8c7c3b92591a4505050565b60006113988284612518565b60006113988284612530565b6001600160a01b038116600090815260056020526040812054600160401b900467ffffffffffffffff166106b3565b6000826115158584611bef565b14949350505050565b611538828260405180602001604052806000815250611c63565b5050565b600061154782611864565b9050836001600160a01b031681600001516001600160a01b03161461157e5760405162a1148160e81b815260040160405180910390fd5b6000336001600160a01b038616148061159c575061159c8533610619565b806115b75750336115ac8461074b565b6001600160a01b0316145b9050806115d757604051632ce44b5f60e11b815260040160405180910390fd5b6001600160a01b0384166115fe57604051633a954ecd60e21b815260040160405180910390fd5b61160a60008487611465565b6001600160a01b038581166000908152600560209081526040808320805467ffffffffffffffff1980821667ffffffffffffffff92831660001901831617909255898616808652838620805493841693831660019081018416949094179055898652600490945282852080546001600160e01b031916909417600160a01b429092169190910217835587018084529220805491939091166116e05760005482146116e0578054602086015167ffffffffffffffff16600160a01b026001600160e01b03199091166001600160a01b038a16171781555b50505082846001600160a01b0316866001600160a01b03167fddf252ad1be2c89b69c2b068fc378daa952ba7f163c4a11628f55a4df523b3ef60405160405180910390a45b5050505050565b8061174a576040516356be441560e01b815260040160405180910390fd5b60005461176a5760405163c0367cab60e01b815260040160405180910390fd5b60085480611776575060005b6000548110611798576040516370e89b1b60e01b815260040160405180910390fd5b60005482820160001981019110156117b35750600054600019015b815b818111611859576000818152600460205260409020546001600160a01b03161580156117f75750600081815260046020526040902054600160e01b900460ff16155b1561185157600061180782611864565b805160008481526004602090815260409091208054919093015167ffffffffffffffff16600160a01b026001600160e01b03199091166001600160a01b0390921691909117179055505b6001016117b5565b506001016008555050565b60408051606081018252600080825260208201819052918101919091528160005481101561196757600081815260046020908152604091829020825160608101845290546001600160a01b0381168252600160a01b810467ffffffffffffffff1692820192909252600160e01b90910460ff161515918101829052906119655780516001600160a01b0316156118fb579392505050565b5060001901600081815260046020908152604091829020825160608101845290546001600160a01b038116808352600160a01b820467ffffffffffffffff1693830193909352600160e01b900460ff1615159281019290925215611960579392505050565b6118fb565b505b604051636f96cda160e11b815260040160405180910390fd5b6060600e80546106c89061229c565b600980546001600160a01b038381166001600160a01b0319831681179093556040519116919082907f8be0079c531659141344cd1fd0a4f28419497f9722a3daafe3b4186f6b6457e090600090a35050565b604051630a85bd0160e11b81526000906001600160a01b0385169063150b7a0290611a1690339089908890889060040161254f565b602060405180830381600087803b158015611a3057600080fd5b505af1925050508015611a60575060408051601f3d908101601f19168201909252611a5d9181019061258c565b60015b611abb573d808015611a8e576040519150601f19603f3d011682016040523d82523d6000602084013e611a93565b606091505b508051611ab3576040516368d2bf6b60e11b815260040160405180910390fd5b805181602001fd5b6001600160e01b031916630a85bd0160e11b1490505b949350505050565b600061139882846125bf565b600061139882846125d3565b606081611b155750506040805180820190915260018152600360fc1b602082015290565b8160005b8115611b3f5780611b29816124ce565b9150611b389050600a836125d3565b9150611b19565b60008167ffffffffffffffff811115611b5a57611b5a612177565b6040519080825280601f01601f191660200182016040528015611b84576020820181803683370190505b5090505b8415611ad157611b996001836125e7565b9150611ba6600a866125bf565b611bb1906030612518565b60f81b818381518110611bc657611bc66125fe565b60200101906001600160f81b031916908160001a905350611be8600a866125d3565b9450611b88565b600081815b8451811015611c5b576000858281518110611c1157611c116125fe565b60200260200101519050808311611c375760008381526020829052604090209250611c48565b600081815260208490526040902092505b5080611c53816124ce565b915050611bf4565b509392505050565b61081883838360016000546001600160a01b038516611c9457604051622e076360e81b815260040160405180910390fd5b83611cb25760405163b562e8dd60e01b815260040160405180910390fd5b6001600160a01b038516600081815260056020908152604080832080546fffffffffffffffffffffffffffffffff19811667ffffffffffffffff8083168c018116918217600160401b67ffffffffffffffff1990941690921783900481168c01811690920217909155858452600490925290912080546001600160e01b031916909217600160a01b429092169190910217905580808501838015611d5f57506001600160a01b0387163b15155b15611de8575b60405182906001600160a01b038916906000907fddf252ad1be2c89b69c2b068fc378daa952ba7f163c4a11628f55a4df523b3ef908290a4611db060008884806001019550886119e1565b611dcd576040516368d2bf6b60e11b815260040160405180910390fd5b80821415611d65578260005414611de357600080fd5b611e2e565b5b6040516001830192906001600160a01b038916906000907fddf252ad1be2c89b69c2b068fc378daa952ba7f163c4a11628f55a4df523b3ef908290a480821415611de9575b50600055611725565b828054611e439061229c565b90600052602060002090601f016020900481019282611e655760008555611eab565b82601f10611e7e5782800160ff19823516178555611eab565b82800160010185558215611eab579182015b82811115611eab578235825591602001919060010190611e90565b50611eb7929150611ebb565b5090565b5b80821115611eb75760008155600101611ebc565b6001600160e01b03198116811461143757600080fd5b600060208284031215611ef857600080fd5b813561139881611ed0565b60005b83811015611f1e578181015183820152602001611f06565b838111156111625750506000910152565b60008151808452611f47816020860160208601611f03565b601f01601f19169290920160200192915050565b6020815260006113986020830184611f2f565b600060208284031215611f8057600080fd5b5035919050565b80356001600160a01b0381168114611f9e57600080fd5b919050565b60008060408385031215611fb657600080fd5b611fbf83611f87565b946020939093013593505050565b60008060008060608587031215611fe357600080fd5b8435935060208501359250604085013567ffffffffffffffff8082111561200957600080fd5b818701915087601f83011261201d57600080fd5b81358181111561202c57600080fd5b8860208260051b850101111561204157600080fd5b95989497505060200194505050565b60008060006060848603121561206557600080fd5b61206e84611f87565b925061207c60208501611f87565b9150604084013590509250925092565b6000806020838503121561209f57600080fd5b823567ffffffffffffffff808211156120b757600080fd5b818501915085601f8301126120cb57600080fd5b8135818111156120da57600080fd5b8660208285010111156120ec57600080fd5b60209290920196919550909350505050565b60006020828403121561211057600080fd5b61139882611f87565b6000806040838503121561212c57600080fd5b50508035926020909101359150565b6000806040838503121561214e57600080fd5b61215783611f87565b91506020830135801515811461216c57600080fd5b809150509250929050565b634e487b7160e01b600052604160045260246000fd5b600080600080608085870312156121a357600080fd5b6121ac85611f87565b93506121ba60208601611f87565b925060408501359150606085013567ffffffffffffffff808211156121de57600080fd5b818701915087601f8301126121f257600080fd5b81358181111561220457612204612177565b604051601f8201601f19908116603f0116810190838211818310171561222c5761222c612177565b816040528281528a602084870101111561224557600080fd5b82602086016020830137600060208483010152809550505050505092959194509250565b6000806040838503121561227c57600080fd5b61228583611f87565b915061229360208401611f87565b90509250929050565b600181811c908216806122b057607f821691505b602082108114156122d157634e487b7160e01b600052602260045260246000fd5b50919050565b60208082526023908201527f52686170736f647943726561746f722f696e76616c69642d6d696e742d63616c6040820152623632b960e91b606082015260800190565b60208082526024908201527f52686170736f647943726561746f722f696e76616c69642d746f74616c2d737560408201526370706c7960e01b606082015260800190565b60208082526022908201527f52686170736f647943726561746f722f696e76616c69642d6d696e742d76616c604082015261756560f01b606082015260800190565b60208082526031908201527f52686170736f647943726561746f722f696e76616c69642d696e766f636174696040820152706f6e2d6c6f7765722d626f756e6461727960781b606082015260800190565b60208082526031908201527f52686170736f647943726561746f722f696e76616c69642d696e766f636174696040820152706f6e2d75707065722d626f756e6461727960781b606082015260800190565b60208082526021908201527f52686170736f647943726561746f722f696e76616c69642d6d696e742d74696d6040820152606560f81b606082015260800190565b6020808252818101527f4f776e61626c653a2063616c6c6572206973206e6f7420746865206f776e6572604082015260600190565b634e487b7160e01b600052601160045260246000fd5b60006000198214156124e2576124e26124b8565b5060010190565b600083516124fb818460208801611f03565b83519083019061250f818360208801611f03565b01949350505050565b6000821982111561252b5761252b6124b8565b500190565b600081600019048311821515161561254a5761254a6124b8565b500290565b6001600160a01b038581168252841660208201526040810183905260806060820181905260009061258290830184611f2f565b9695505050505050565b60006020828403121561259e57600080fd5b815161139881611ed0565b634e487b7160e01b600052601260045260246000fd5b6000826125ce576125ce6125a9565b500690565b6000826125e2576125e26125a9565b500490565b6000828210156125f9576125f96124b8565b500390565b634e487b7160e01b600052603260045260246000fdfea26469706673582212200517aa64d22ec669f8c1a00d0a9b83f2fffdeb7e18a8ae4f29374a55e78793d864736f6c63430008090033",
    "linkReferences": {},
    "deployedLinkReferences": {}
}