{
    "_format": "hh-sol-artifact-1",
    "contractName": "RhapsodyCreatorGenerative",
    "sourceName": "contracts/RhapsodyCreatorGenerative.sol",
    "abi": [
        {
            "inputs": [
                {
                    "internalType": "string",
                    "name": "_name",
                    "type": "string"
                },
                {
                    "internalType": "string",
                    "name": "_symbol",
                    "type": "string"
                },
                {
                    "internalType": "string",
                    "name": "_baseURI",
                    "type": "string"
                },
                {
                    "internalType": "uint256",
                    "name": "_collectionSize",
                    "type": "uint256"
                },
                {
                    "internalType": "uint256",
                    "name": "_maxPublicBatchPerAddress",
                    "type": "uint256"
                },
                {
                    "internalType": "uint256",
                    "name": "_amountForPromotion",
                    "type": "uint256"
                },
                {
                    "internalType": "uint256",
                    "name": "_mintPrice",
                    "type": "uint256"
                },
                {
                    "internalType": "uint256",
                    "name": "_claimTime",
                    "type": "uint256"
                },
                {
                    "internalType": "uint256",
                    "name": "_presaleTime",
                    "type": "uint256"
                },
                {
                    "internalType": "uint256",
                    "name": "_publicTime",
                    "type": "uint256"
                }
            ],
            "stateMutability": "nonpayable",
            "type": "constructor"
        },
        {
            "inputs": [],
            "name": "AllOwnershipsHaveBeenSet",
            "type": "error"
        },
        {
            "inputs": [],
            "name": "ApprovalCallerNotOwnerNorApproved",
            "type": "error"
        },
        {
            "inputs": [],
            "name": "ApprovalQueryForNonexistentToken",
            "type": "error"
        },
        {
            "inputs": [],
            "name": "ApprovalToCurrentOwner",
            "type": "error"
        },
        {
            "inputs": [],
            "name": "ApproveToCaller",
            "type": "error"
        },
        {
            "inputs": [],
            "name": "BalanceQueryForZeroAddress",
            "type": "error"
        },
        {
            "inputs": [],
            "name": "HashQueryForNonexistentToken",
            "type": "error"
        },
        {
            "inputs": [],
            "name": "MintToZeroAddress",
            "type": "error"
        },
        {
            "inputs": [],
            "name": "MintZeroQuantity",
            "type": "error"
        },
        {
            "inputs": [],
            "name": "NoTokensMintedYet",
            "type": "error"
        },
        {
            "inputs": [],
            "name": "OwnerQueryForNonexistentToken",
            "type": "error"
        },
        {
            "inputs": [],
            "name": "QuantityMustBeNonZero",
            "type": "error"
        },
        {
            "inputs": [],
            "name": "TransferCallerNotOwnerNorApproved",
            "type": "error"
        },
        {
            "inputs": [],
            "name": "TransferFromIncorrectOwner",
            "type": "error"
        },
        {
            "inputs": [],
            "name": "TransferToNonERC721ReceiverImplementer",
            "type": "error"
        },
        {
            "inputs": [],
            "name": "TransferToZeroAddress",
            "type": "error"
        },
        {
            "inputs": [],
            "name": "URIQueryForNonexistentToken",
            "type": "error"
        },
        {
            "anonymous": false,
            "inputs": [
                {
                    "indexed": true,
                    "internalType": "address",
                    "name": "owner",
                    "type": "address"
                },
                {
                    "indexed": true,
                    "internalType": "address",
                    "name": "approved",
                    "type": "address"
                },
                {
                    "indexed": true,
                    "internalType": "uint256",
                    "name": "tokenId",
                    "type": "uint256"
                }
            ],
            "name": "Approval",
            "type": "event"
        },
        {
            "anonymous": false,
            "inputs": [
                {
                    "indexed": true,
                    "internalType": "address",
                    "name": "owner",
                    "type": "address"
                },
                {
                    "indexed": true,
                    "internalType": "address",
                    "name": "operator",
                    "type": "address"
                },
                {
                    "indexed": false,
                    "internalType": "bool",
                    "name": "approved",
                    "type": "bool"
                }
            ],
            "name": "ApprovalForAll",
            "type": "event"
        },
        {
            "anonymous": false,
            "inputs": [
                {
                    "indexed": true,
                    "internalType": "address",
                    "name": "to",
                    "type": "address"
                },
                {
                    "indexed": false,
                    "internalType": "uint256",
                    "name": "currentTotalSupply",
                    "type": "uint256"
                },
                {
                    "indexed": false,
                    "internalType": "uint256",
                    "name": "invocations",
                    "type": "uint256"
                },
                {
                    "indexed": false,
                    "internalType": "bytes32[]",
                    "name": "identifiers",
                    "type": "bytes32[]"
                }
            ],
            "name": "Created",
            "type": "event"
        },
        {
            "anonymous": false,
            "inputs": [
                {
                    "indexed": true,
                    "internalType": "address",
                    "name": "previousOwner",
                    "type": "address"
                },
                {
                    "indexed": true,
                    "internalType": "address",
                    "name": "newOwner",
                    "type": "address"
                }
            ],
            "name": "OwnershipTransferred",
            "type": "event"
        },
        {
            "anonymous": false,
            "inputs": [
                {
                    "indexed": true,
                    "internalType": "address",
                    "name": "from",
                    "type": "address"
                },
                {
                    "indexed": true,
                    "internalType": "address",
                    "name": "to",
                    "type": "address"
                },
                {
                    "indexed": true,
                    "internalType": "uint256",
                    "name": "tokenId",
                    "type": "uint256"
                }
            ],
            "name": "Transfer",
            "type": "event"
        },
        {
            "inputs": [],
            "name": "amountForPromotion",
            "outputs": [
                {
                    "internalType": "uint256",
                    "name": "",
                    "type": "uint256"
                }
            ],
            "stateMutability": "view",
            "type": "function"
        },
        {
            "inputs": [
                {
                    "internalType": "address",
                    "name": "to",
                    "type": "address"
                },
                {
                    "internalType": "uint256",
                    "name": "tokenId",
                    "type": "uint256"
                }
            ],
            "name": "approve",
            "outputs": [],
            "stateMutability": "nonpayable",
            "type": "function"
        },
        {
            "inputs": [
                {
                    "internalType": "address",
                    "name": "owner",
                    "type": "address"
                }
            ],
            "name": "balanceOf",
            "outputs": [
                {
                    "internalType": "uint256",
                    "name": "",
                    "type": "uint256"
                }
            ],
            "stateMutability": "view",
            "type": "function"
        },
        {
            "inputs": [],
            "name": "baseURI",
            "outputs": [
                {
                    "internalType": "string",
                    "name": "",
                    "type": "string"
                }
            ],
            "stateMutability": "view",
            "type": "function"
        },
        {
            "inputs": [],
            "name": "claimMerkleRoot",
            "outputs": [
                {
                    "internalType": "bytes32",
                    "name": "",
                    "type": "bytes32"
                }
            ],
            "stateMutability": "view",
            "type": "function"
        },
        {
            "inputs": [
                {
                    "internalType": "uint256",
                    "name": "invocations",
                    "type": "uint256"
                },
                {
                    "internalType": "bytes32[]",
                    "name": "proof",
                    "type": "bytes32[]"
                }
            ],
            "name": "claimMint",
            "outputs": [],
            "stateMutability": "nonpayable",
            "type": "function"
        },
        {
            "inputs": [],
            "name": "claimTime",
            "outputs": [
                {
                    "internalType": "uint256",
                    "name": "",
                    "type": "uint256"
                }
            ],
            "stateMutability": "view",
            "type": "function"
        },
        {
            "inputs": [],
            "name": "collectionSize",
            "outputs": [
                {
                    "internalType": "uint256",
                    "name": "",
                    "type": "uint256"
                }
            ],
            "stateMutability": "view",
            "type": "function"
        },
        {
            "inputs": [
                {
                    "internalType": "uint256",
                    "name": "tokenId",
                    "type": "uint256"
                }
            ],
            "name": "getApproved",
            "outputs": [
                {
                    "internalType": "address",
                    "name": "",
                    "type": "address"
                }
            ],
            "stateMutability": "view",
            "type": "function"
        },
        {
            "inputs": [
                {
                    "internalType": "address",
                    "name": "owner",
                    "type": "address"
                },
                {
                    "internalType": "address",
                    "name": "operator",
                    "type": "address"
                }
            ],
            "name": "isApprovedForAll",
            "outputs": [
                {
                    "internalType": "bool",
                    "name": "",
                    "type": "bool"
                }
            ],
            "stateMutability": "view",
            "type": "function"
        },
        {
            "inputs": [],
            "name": "maxPublicBatchPerAddress",
            "outputs": [
                {
                    "internalType": "uint256",
                    "name": "",
                    "type": "uint256"
                }
            ],
            "stateMutability": "view",
            "type": "function"
        },
        {
            "inputs": [
                {
                    "internalType": "address",
                    "name": "_owner",
                    "type": "address"
                }
            ],
            "name": "mintOf",
            "outputs": [
                {
                    "internalType": "uint256",
                    "name": "",
                    "type": "uint256"
                }
            ],
            "stateMutability": "view",
            "type": "function"
        },
        {
            "inputs": [],
            "name": "mintPrice",
            "outputs": [
                {
                    "internalType": "uint256",
                    "name": "",
                    "type": "uint256"
                }
            ],
            "stateMutability": "view",
            "type": "function"
        },
        {
            "inputs": [],
            "name": "mintRandomizerContract",
            "outputs": [
                {
                    "internalType": "contract IRandomizer",
                    "name": "",
                    "type": "address"
                }
            ],
            "stateMutability": "view",
            "type": "function"
        },
        {
            "inputs": [],
            "name": "name",
            "outputs": [
                {
                    "internalType": "string",
                    "name": "",
                    "type": "string"
                }
            ],
            "stateMutability": "view",
            "type": "function"
        },
        {
            "inputs": [],
            "name": "nextOwnerToExplicitlySet",
            "outputs": [
                {
                    "internalType": "uint256",
                    "name": "",
                    "type": "uint256"
                }
            ],
            "stateMutability": "view",
            "type": "function"
        },
        {
            "inputs": [],
            "name": "owner",
            "outputs": [
                {
                    "internalType": "address",
                    "name": "",
                    "type": "address"
                }
            ],
            "stateMutability": "view",
            "type": "function"
        },
        {
            "inputs": [
                {
                    "internalType": "uint256",
                    "name": "tokenId",
                    "type": "uint256"
                }
            ],
            "name": "ownerOf",
            "outputs": [
                {
                    "internalType": "address",
                    "name": "",
                    "type": "address"
                }
            ],
            "stateMutability": "view",
            "type": "function"
        },
        {
            "inputs": [],
            "name": "presaleMerkleRoot",
            "outputs": [
                {
                    "internalType": "bytes32",
                    "name": "",
                    "type": "bytes32"
                }
            ],
            "stateMutability": "view",
            "type": "function"
        },
        {
            "inputs": [
                {
                    "internalType": "uint256",
                    "name": "invocations",
                    "type": "uint256"
                },
                {
                    "internalType": "uint256",
                    "name": "maxInvocation",
                    "type": "uint256"
                },
                {
                    "internalType": "bytes32[]",
                    "name": "proof",
                    "type": "bytes32[]"
                }
            ],
            "name": "presaleMint",
            "outputs": [],
            "stateMutability": "payable",
            "type": "function"
        },
        {
            "inputs": [],
            "name": "presaleTime",
            "outputs": [
                {
                    "internalType": "uint256",
                    "name": "",
                    "type": "uint256"
                }
            ],
            "stateMutability": "view",
            "type": "function"
        },
        {
            "inputs": [
                {
                    "internalType": "uint256",
                    "name": "invocations",
                    "type": "uint256"
                }
            ],
            "name": "promotionMint",
            "outputs": [],
            "stateMutability": "nonpayable",
            "type": "function"
        },
        {
            "inputs": [
                {
                    "internalType": "uint256",
                    "name": "invocations",
                    "type": "uint256"
                }
            ],
            "name": "publicMint",
            "outputs": [],
            "stateMutability": "payable",
            "type": "function"
        },
        {
            "inputs": [],
            "name": "publicTime",
            "outputs": [
                {
                    "internalType": "uint256",
                    "name": "",
                    "type": "uint256"
                }
            ],
            "stateMutability": "view",
            "type": "function"
        },
        {
            "inputs": [],
            "name": "renounceOwnership",
            "outputs": [],
            "stateMutability": "nonpayable",
            "type": "function"
        },
        {
            "inputs": [
                {
                    "internalType": "address",
                    "name": "from",
                    "type": "address"
                },
                {
                    "internalType": "address",
                    "name": "to",
                    "type": "address"
                },
                {
                    "internalType": "uint256",
                    "name": "tokenId",
                    "type": "uint256"
                }
            ],
            "name": "safeTransferFrom",
            "outputs": [],
            "stateMutability": "nonpayable",
            "type": "function"
        },
        {
            "inputs": [
                {
                    "internalType": "address",
                    "name": "from",
                    "type": "address"
                },
                {
                    "internalType": "address",
                    "name": "to",
                    "type": "address"
                },
                {
                    "internalType": "uint256",
                    "name": "tokenId",
                    "type": "uint256"
                },
                {
                    "internalType": "bytes",
                    "name": "_data",
                    "type": "bytes"
                }
            ],
            "name": "safeTransferFrom",
            "outputs": [],
            "stateMutability": "nonpayable",
            "type": "function"
        },
        {
            "inputs": [
                {
                    "internalType": "address",
                    "name": "operator",
                    "type": "address"
                },
                {
                    "internalType": "bool",
                    "name": "approved",
                    "type": "bool"
                }
            ],
            "name": "setApprovalForAll",
            "outputs": [],
            "stateMutability": "nonpayable",
            "type": "function"
        },
        {
            "inputs": [
                {
                    "internalType": "string",
                    "name": "newBaseURI",
                    "type": "string"
                }
            ],
            "name": "setBaseURI",
            "outputs": [],
            "stateMutability": "nonpayable",
            "type": "function"
        },
        {
            "inputs": [
                {
                    "internalType": "bytes32",
                    "name": "_claimMerkleRoot",
                    "type": "bytes32"
                }
            ],
            "name": "setClaimMerkleRoot",
            "outputs": [],
            "stateMutability": "nonpayable",
            "type": "function"
        },
        {
            "inputs": [
                {
                    "internalType": "address",
                    "name": "_mintRandomizerContract",
                    "type": "address"
                }
            ],
            "name": "setMintRandomizerContract",
            "outputs": [],
            "stateMutability": "nonpayable",
            "type": "function"
        },
        {
            "inputs": [
                {
                    "internalType": "uint256",
                    "name": "_claimTime",
                    "type": "uint256"
                },
                {
                    "internalType": "uint256",
                    "name": "_presaleTime",
                    "type": "uint256"
                },
                {
                    "internalType": "uint256",
                    "name": "_publicTime",
                    "type": "uint256"
                }
            ],
            "name": "setMintTime",
            "outputs": [],
            "stateMutability": "nonpayable",
            "type": "function"
        },
        {
            "inputs": [
                {
                    "internalType": "uint256",
                    "name": "quantity",
                    "type": "uint256"
                }
            ],
            "name": "setOwnersExplicit",
            "outputs": [],
            "stateMutability": "nonpayable",
            "type": "function"
        },
        {
            "inputs": [
                {
                    "internalType": "bytes32",
                    "name": "_presaleMerkleRoot",
                    "type": "bytes32"
                }
            ],
            "name": "setPresaleMerkleRoot",
            "outputs": [],
            "stateMutability": "nonpayable",
            "type": "function"
        },
        {
            "inputs": [
                {
                    "internalType": "bytes4",
                    "name": "interfaceId",
                    "type": "bytes4"
                }
            ],
            "name": "supportsInterface",
            "outputs": [
                {
                    "internalType": "bool",
                    "name": "",
                    "type": "bool"
                }
            ],
            "stateMutability": "view",
            "type": "function"
        },
        {
            "inputs": [],
            "name": "symbol",
            "outputs": [
                {
                    "internalType": "string",
                    "name": "",
                    "type": "string"
                }
            ],
            "stateMutability": "view",
            "type": "function"
        },
        {
            "inputs": [
                {
                    "internalType": "uint256",
                    "name": "_tokenId",
                    "type": "uint256"
                }
            ],
            "name": "tokenHash",
            "outputs": [
                {
                    "internalType": "bytes32",
                    "name": "",
                    "type": "bytes32"
                }
            ],
            "stateMutability": "view",
            "type": "function"
        },
        {
            "inputs": [
                {
                    "internalType": "uint256",
                    "name": "tokenId",
                    "type": "uint256"
                }
            ],
            "name": "tokenURI",
            "outputs": [
                {
                    "internalType": "string",
                    "name": "",
                    "type": "string"
                }
            ],
            "stateMutability": "view",
            "type": "function"
        },
        {
            "inputs": [],
            "name": "totalSupply",
            "outputs": [
                {
                    "internalType": "uint256",
                    "name": "",
                    "type": "uint256"
                }
            ],
            "stateMutability": "view",
            "type": "function"
        },
        {
            "inputs": [
                {
                    "internalType": "address",
                    "name": "from",
                    "type": "address"
                },
                {
                    "internalType": "address",
                    "name": "to",
                    "type": "address"
                },
                {
                    "internalType": "uint256",
                    "name": "tokenId",
                    "type": "uint256"
                }
            ],
            "name": "transferFrom",
            "outputs": [],
            "stateMutability": "nonpayable",
            "type": "function"
        },
        {
            "inputs": [
                {
                    "internalType": "address",
                    "name": "newOwner",
                    "type": "address"
                }
            ],
            "name": "transferOwnership",
            "outputs": [],
            "stateMutability": "nonpayable",
            "type": "function"
        },
        {
            "inputs": [],
            "name": "version",
            "outputs": [
                {
                    "internalType": "string",
                    "name": "",
                    "type": "string"
                }
            ],
            "stateMutability": "view",
            "type": "function"
        },
        {
            "inputs": [],
            "name": "withdrawMoney",
            "outputs": [],
            "stateMutability": "nonpayable",
            "type": "function"
        }
    ],
    "bytecode": "0x6101006040523480156200001257600080fd5b50604051620031a0380380620031a083398101604081905262000035916200046b565b89518a908a906200004e906002906020850190620002f8565b50805162000064906003906020840190620002f8565b505060008055506200007633620001c5565b6001600a5586620000d75760405162461bcd60e51b8152602060048201526031602482015260008051602062003180833981519152604482015270642d636f6c6c656374696f6e2d73697a6560781b60648201526084015b60405180910390fd5b86851115620001335760405162461bcd60e51b8152602060048201526032602482015260008051602062003180833981519152604482015271190b5c1c9bdb5bdd1a5bdb8b585b5bdd5b9d60721b6064820152608401620000ce565b60008411620001895760405162461bcd60e51b815260206004820152602c60248201526000805160206200318083398151915260448201526b642d6d696e742d707269636560a01b6064820152608401620000ce565b60e087905260a0869052608085905260c0849052620001a88862000217565b620001b583838362000230565b505050505050505050506200057f565b600980546001600160a01b038381166001600160a01b0319831681179093556040519116919082907f8be0079c531659141344cd1fd0a4f28419497f9722a3daafe3b4186f6b6457e090600090a35050565b80516200022c906011906020840190620002f8565b5050565b8282116200028d5760405162461bcd60e51b8152602060048201526024808201527f52686170736f647943726561746f722f696e76616c69642d70726573616c652d60448201526374696d6560e01b6064820152608401620000ce565b818111620002ea5760405162461bcd60e51b815260206004820152602360248201527f52686170736f647943726561746f722f696e76616c69642d7075626c69632d74604482015262696d6560e81b6064820152608401620000ce565b600d92909255600e55600f55565b828054620003069062000542565b90600052602060002090601f0160209004810192826200032a576000855562000375565b82601f106200034557805160ff191683800117855562000375565b8280016001018555821562000375579182015b828111156200037557825182559160200191906001019062000358565b506200038392915062000387565b5090565b5b8082111562000383576000815560010162000388565b634e487b7160e01b600052604160045260246000fd5b600082601f830112620003c657600080fd5b81516001600160401b0380821115620003e357620003e36200039e565b604051601f8301601f19908116603f011681019082821181831017156200040e576200040e6200039e565b816040528381526020925086838588010111156200042b57600080fd5b600091505b838210156200044f578582018301518183018401529082019062000430565b83821115620004615760008385830101525b9695505050505050565b6000806000806000806000806000806101408b8d0312156200048c57600080fd5b8a516001600160401b0380821115620004a457600080fd5b620004b28e838f01620003b4565b9b5060208d0151915080821115620004c957600080fd5b620004d78e838f01620003b4565b9a5060408d0151915080821115620004ee57600080fd5b50620004fd8d828e01620003b4565b98505060608b0151965060808b0151955060a08b0151945060c08b0151935060e08b015192506101008b015191506101208b015190509295989b9194979a5092959850565b600181811c908216806200055757607f821691505b602082108114156200057957634e487b7160e01b600052602260045260246000fd5b50919050565b60805160a05160c05160e051612b8f620005f16000396000818161044f01528181610a5c01528181610d0d0152610f9a01526000818161051401528181610b020152610dad01526000818161068f01528181610ccd01526113700152600081816105b201526112e70152612b8f6000f3fe60806040526004361061025c5760003560e01c80636c0360eb11610144578063a4babffd116100b6578063c6e62e0b1161007a578063c6e62e0b14610726578063c87b56dd1461073c578063d7224ba01461075c578063e985e9c514610772578063f2fde38b146107bb578063fd1e2962146107db57600080fd5b8063a4babffd1461067d578063ac446002146106b1578063b1f536fa146106c6578063b88d4fde146106e6578063ba2f59c81461070657600080fd5b80638da5cb5b116101085780638da5cb5b146105d457806395d89b41146105f2578063993670f2146106075780639c4dab5214610627578063a22cb4651461063d578063a38643971461065d57600080fd5b80636c0360eb1461053657806370a082311461054b578063715018a61461056b57806372830dfd1461058057806376972db2146105a057600080fd5b806327b3bf11116101dd57806345c0f533116101a157806345c0f5331461043d57806354fd4d501461047157806355f804b3146104a2578063617aa43c146104c25780636352211e146104e25780636817c76c1461050257600080fd5b806327b3bf11146103b457806328d7b276146103ca5780632d20fb60146103ea5780632db115441461040a57806342842e0e1461041d57600080fd5b806318160ddd1161022457806318160ddd146103325780631b59169d146103555780631bdc608e1461036857806322212e2b1461037e57806323b872dd1461039457600080fd5b806301ffc9a71461026157806306fdde0314610296578063081812fc146102b8578063095ea7b3146102f057806317ccc54b14610312575b600080fd5b34801561026d57600080fd5b5061028161027c36600461231d565b6107fb565b60405190151581526020015b60405180910390f35b3480156102a257600080fd5b506102ab61084d565b60405161028d9190612392565b3480156102c457600080fd5b506102d86102d33660046123a5565b6108df565b6040516001600160a01b03909116815260200161028d565b3480156102fc57600080fd5b5061031061030b3660046123da565b610923565b005b34801561031e57600080fd5b5061031061032d366004612404565b6109b1565b34801561033e57600080fd5b50600154600054035b60405190815260200161028d565b61031061036336600461246a565b6109db565b34801561037457600080fd5b50610347600f5481565b34801561038a57600080fd5b50610347600b5481565b3480156103a057600080fd5b506103106103af3660046124bc565b610c1c565b3480156103c057600080fd5b50610347600d5481565b3480156103d657600080fd5b506103106103e53660046123a5565b610c27565b3480156103f657600080fd5b506103106104053660046123a5565b610c34565b6103106104183660046123a5565b610c75565b34801561042957600080fd5b506103106104383660046124bc565b610e26565b34801561044957600080fd5b506103477f000000000000000000000000000000000000000000000000000000000000000081565b34801561047d57600080fd5b506102ab604051806040016040528060058152602001640312e302e360dc1b81525081565b3480156104ae57600080fd5b506103106104bd3660046124f8565b610e41565b3480156104ce57600080fd5b506103106104dd366004612569565b610e8c565b3480156104ee57600080fd5b506102d86104fd3660046123a5565b610e9f565b34801561050e57600080fd5b506103477f000000000000000000000000000000000000000000000000000000000000000081565b34801561054257600080fd5b506102ab610eb1565b34801561055757600080fd5b50610347610566366004612404565b610ec0565b34801561057757600080fd5b50610310610f0e565b34801561058c57600080fd5b5061031061059b366004612595565b610f22565b3480156105ac57600080fd5b506103477f000000000000000000000000000000000000000000000000000000000000000081565b3480156105e057600080fd5b506009546001600160a01b03166102d8565b3480156105fe57600080fd5b506102ab6110d2565b34801561061357600080fd5b506012546102d8906001600160a01b031681565b34801561063357600080fd5b50610347600c5481565b34801561064957600080fd5b506103106106583660046125e0565b6110e1565b34801561066957600080fd5b506103476106783660046123a5565b611177565b34801561068957600080fd5b506103477f000000000000000000000000000000000000000000000000000000000000000081565b3480156106bd57600080fd5b506103106111b2565b3480156106d257600080fd5b506103476106e1366004612404565b611281565b3480156106f257600080fd5b50610310610701366004612632565b61128c565b34801561071257600080fd5b506103106107213660046123a5565b6112dd565b34801561073257600080fd5b50610347600e5481565b34801561074857600080fd5b506102ab6107573660046123a5565b611422565b34801561076857600080fd5b5061034760085481565b34801561077e57600080fd5b5061028161078d36600461270d565b6001600160a01b03918216600090815260076020908152604080832093909416825291909152205460ff1690565b3480156107c757600080fd5b506103106107d6366004612404565b6114b4565b3480156107e757600080fd5b506103106107f63660046123a5565b61152d565b60006001600160e01b031982166380ac58cd60e01b148061082c57506001600160e01b03198216635b5e139f60e01b145b8061084757506301ffc9a760e01b6001600160e01b03198316145b92915050565b60606002805461085c90612740565b80601f016020809104026020016040519081016040528092919081815260200182805461088890612740565b80156108d55780601f106108aa576101008083540402835291602001916108d5565b820191906000526020600020905b8154815290600101906020018083116108b857829003601f168201915b5050505050905090565b60006108ea8261153a565b610907576040516333d1c03960e21b815260040160405180910390fd5b506000908152600660205260409020546001600160a01b031690565b600061092e82610e9f565b9050806001600160a01b0316836001600160a01b031614156109635760405163250fdee360e21b815260040160405180910390fd5b336001600160a01b038216148015906109835750610981813361078d565b155b156109a1576040516367d9dca160e11b815260040160405180910390fd5b6109ac838383611565565b505050565b6109b96115c1565b601280546001600160a01b0319166001600160a01b0392909216919091179055565b6002600a541415610a075760405162461bcd60e51b81526004016109fe9061277b565b60405180910390fd5b6002600a55600e548015801590610a1d57508042115b610a395760405162461bcd60e51b81526004016109fe906127b2565b8484323314610a5a5760405162461bcd60e51b81526004016109fe906127eb565b7f0000000000000000000000000000000000000000000000000000000000000000610a9283610a8c6001546000540390565b9061161b565b1115610ab05760405162461bcd60e51b81526004016109fe90612826565b80610abe83610a8c33611627565b1115610adc5760405162461bcd60e51b81526004016109fe90612862565b60008211610afc5760405162461bcd60e51b81526004016109fe906128ad565b86610b277f000000000000000000000000000000000000000000000000000000000000000082611655565b3414610b455760405162461bcd60e51b81526004016109fe906128f8565b60003411610b655760405162461bcd60e51b81526004016109fe906128ad565b86338787600b54610be2838380806020026020016040519081016040528093929190818152602001838360200280828437600092019190915250506040516001600160601b031960608a901b166020820152603481018a905285925060540190505b60405160208183030381529060405280519060200120611661565b610bfe5760405162461bcd60e51b81526004016109fe90612932565b610c08338e611677565b50506001600a555050505050505050505050565b6109ac83838361179c565b610c2f6115c1565b600b55565b610c3c6115c1565b6002600a541415610c5f5760405162461bcd60e51b81526004016109fe9061277b565b6002600a55610c6d8161198a565b506001600a55565b6002600a541415610c985760405162461bcd60e51b81526004016109fe9061277b565b6002600a55600f548015801590610cae57508042115b610cca5760405162461bcd60e51b81526004016109fe906127b2565b817f0000000000000000000000000000000000000000000000000000000000000000323314610d0b5760405162461bcd60e51b81526004016109fe906127eb565b7f0000000000000000000000000000000000000000000000000000000000000000610d3d83610a8c6001546000540390565b1115610d5b5760405162461bcd60e51b81526004016109fe90612826565b80610d6983610a8c33611627565b1115610d875760405162461bcd60e51b81526004016109fe90612862565b60008211610da75760405162461bcd60e51b81526004016109fe906128ad565b83610dd27f000000000000000000000000000000000000000000000000000000000000000082611655565b3414610df05760405162461bcd60e51b81526004016109fe906128f8565b60003411610e105760405162461bcd60e51b81526004016109fe906128ad565b610e1a3386611677565b50506001600a55505050565b6109ac8383836040518060200160405280600081525061128c565b610e496115c1565b610e8882828080601f016020809104026020016040519081016040528093929190818152602001838380828437600092019190915250611ac192505050565b5050565b610e946115c1565b6109ac838383611ad4565b6000610eaa82611b98565b5192915050565b60606011805461085c90612740565b60006001600160a01b038216610ee9576040516323d3ad8160e21b815260040160405180910390fd5b506001600160a01b03166000908152600560205260409020546001600160401b031690565b610f166115c1565b610f206000611cb2565b565b6002600a541415610f455760405162461bcd60e51b81526004016109fe9061277b565b6002600a55600d548015801590610f5b57508042115b610f775760405162461bcd60e51b81526004016109fe906127b2565b8380323314610f985760405162461bcd60e51b81526004016109fe906127eb565b7f0000000000000000000000000000000000000000000000000000000000000000610fca83610a8c6001546000540390565b1115610fe85760405162461bcd60e51b81526004016109fe90612826565b80610ff683610a8c33611627565b11156110145760405162461bcd60e51b81526004016109fe90612862565b600082116110345760405162461bcd60e51b81526004016109fe906128ad565b85338686600c5461109a838380806020026020016040519081016040528093929190818152602001838360200280828437600092019190915250506040516001600160601b031960608a901b166020820152603481018a90528592506054019050610bc7565b6110b65760405162461bcd60e51b81526004016109fe90612932565b6110c0338c611677565b50506001600a55505050505050505050565b60606003805461085c90612740565b6001600160a01b03821633141561110b5760405163b06307db60e01b815260040160405180910390fd5b3360008181526007602090815260408083206001600160a01b03871680855290835292819020805460ff191686151590811790915590519081529192917f17307eab39ab6107e8899845ad3d59bd9653f200f220920489ca2b5937696c31910160405180910390a35050565b60006111828261153a565b61119f5760405163963eb14f60e01b815260040160405180910390fd5b5060009081526010602052604090205490565b6111ba6115c1565b6002600a5414156111dd5760405162461bcd60e51b81526004016109fe9061277b565b6002600a55604051600090339047908381818185875af1925050503d8060008114611224576040519150601f19603f3d011682016040523d82523d6000602084013e611229565b606091505b5050905080610c6d5760405162461bcd60e51b81526020600482015260306024820152600080516020612b3a83398151915260448201526f642d77697468647261772d6d6f6e657960801b60648201526084016109fe565b600061084782611627565b61129784848461179c565b6001600160a01b0383163b151580156112b957506112b784848484611d04565b155b156112d7576040516368d2bf6b60e11b815260040160405180910390fd5b50505050565b6112e56115c1565b7f000000000000000000000000000000000000000000000000000000000000000061131782610a8c6001546000540390565b111561136e5760405162461bcd60e51b81526020600482015260326024820152600080516020612b3a833981519152604482015271642d70726f6d6f74696f6e2d737570706c7960701b60648201526084016109fe565b7f00000000000000000000000000000000000000000000000000000000000000006113998282611dfc565b156113ed5760405162461bcd60e51b81526020600482015260306024820152600080516020612b3a83398151915260448201526f642d62617463682d6d756c7469706c6560801b60648201526084016109fe565b60006113f98383611e08565b905060005b818110156112d7576114103384611677565b8061141a81612985565b9150506113fe565b606061142d8261153a565b61144a57604051630a14c4b560e41b815260040160405180910390fd5b600061146160408051602081019091526000815290565b905080516000141561148257604051806020016040528060008152506114ad565b8061148c84611e14565b60405160200161149d9291906129a0565b6040516020818303038152906040525b9392505050565b6114bc6115c1565b6001600160a01b0381166115215760405162461bcd60e51b815260206004820152602660248201527f4f776e61626c653a206e6577206f776e657220697320746865207a65726f206160448201526564647265737360d01b60648201526084016109fe565b61152a81611cb2565b50565b6115356115c1565b600c55565b6000805482108015610847575050600090815260046020526040902054600160e01b900460ff161590565b60008281526006602052604080822080546001600160a01b0319166001600160a01b0387811691821790925591518593918516917f8c5be1e5ebec7d5bd14f71427d1e84f3dd0314c0f7b2291e5b200ac8c7c3b92591a4505050565b6009546001600160a01b03163314610f205760405162461bcd60e51b815260206004820181905260248201527f4f776e61626c653a2063616c6c6572206973206e6f7420746865206f776e657260448201526064016109fe565b60006114ad82846129cf565b6001600160a01b038116600090815260056020526040812054600160401b90046001600160401b0316610847565b60006114ad82846129e7565b60008261166e8584611f11565b14949350505050565b6116818282611f5e565b60006116906001546000540390565b9050600061169e8284611f78565b90506000836001600160401b038111156116ba576116ba61261c565b6040519080825280602002602001820160405280156116e3578160200160208202803683370190505b50905060005b8481101561174f5760006116fd848361161b565b9050600061170a82611f84565b90508084848151811061171f5761171f612a06565b6020908102919091018101919091526000928352601090526040909120558061174781612985565b9150506116e9565b50846001600160a01b03167f5cb27d2833c0b1f5f25192224a4f5c4573f3c2a9394c0a0a9a31c092e8879eb484868460405161178d93929190612a1c565b60405180910390a25050505050565b60006117a782611b98565b9050836001600160a01b031681600001516001600160a01b0316146117de5760405162a1148160e81b815260040160405180910390fd5b6000336001600160a01b03861614806117fc57506117fc853361078d565b8061181757503361180c846108df565b6001600160a01b0316145b90508061183757604051632ce44b5f60e11b815260040160405180910390fd5b6001600160a01b03841661185e57604051633a954ecd60e21b815260040160405180910390fd5b61186a60008487611565565b6001600160a01b038581166000908152600560209081526040808320805467ffffffffffffffff198082166001600160401b0392831660001901831617909255898616808652838620805493841693831660019081018416949094179055898652600490945282852080546001600160e01b031916909417600160a01b4290921691909102178355870180845292208054919390911661193e57600054821461193e57805460208601516001600160401b0316600160a01b026001600160e01b03199091166001600160a01b038a16171781555b50505082846001600160a01b0316866001600160a01b03167fddf252ad1be2c89b69c2b068fc378daa952ba7f163c4a11628f55a4df523b3ef60405160405180910390a45b5050505050565b806119a8576040516356be441560e01b815260040160405180910390fd5b6000546119c85760405163c0367cab60e01b815260040160405180910390fd5b600854806119d4575060005b60005481106119f6576040516370e89b1b60e01b815260040160405180910390fd5b6000548282016000198101911015611a115750600054600019015b815b818111611ab6576000818152600460205260409020546001600160a01b0316158015611a555750600081815260046020526040902054600160e01b900460ff16155b15611aae576000611a6582611b98565b80516000848152600460209081526040909120805491909301516001600160401b0316600160a01b026001600160e01b03199091166001600160a01b0390921691909117179055505b600101611a13565b506001016008555050565b8051610e8890601190602084019061226e565b828211611b2f5760405162461bcd60e51b8152602060048201526024808201527f52686170736f647943726561746f722f696e76616c69642d70726573616c652d60448201526374696d6560e01b60648201526084016109fe565b818111611b8a5760405162461bcd60e51b815260206004820152602360248201527f52686170736f647943726561746f722f696e76616c69642d7075626c69632d74604482015262696d6560e81b60648201526084016109fe565b600d92909255600e55600f55565b604080516060810182526000808252602082018190529181019190915281600054811015611c9957600081815260046020908152604091829020825160608101845290546001600160a01b0381168252600160a01b81046001600160401b031692820192909252600160e01b90910460ff16151591810182905290611c975780516001600160a01b031615611c2e579392505050565b5060001901600081815260046020908152604091829020825160608101845290546001600160a01b038116808352600160a01b82046001600160401b031693830193909352600160e01b900460ff1615159281019290925215611c92579392505050565b611c2e565b505b604051636f96cda160e11b815260040160405180910390fd5b600980546001600160a01b038381166001600160a01b0319831681179093556040519116919082907f8be0079c531659141344cd1fd0a4f28419497f9722a3daafe3b4186f6b6457e090600090a35050565b604051630a85bd0160e11b81526000906001600160a01b0385169063150b7a0290611d39903390899088908890600401612a71565b602060405180830381600087803b158015611d5357600080fd5b505af1925050508015611d83575060408051601f3d908101601f19168201909252611d8091810190612aae565b60015b611dde573d808015611db1576040519150601f19603f3d011682016040523d82523d6000602084013e611db6565b606091505b508051611dd6576040516368d2bf6b60e11b815260040160405180910390fd5b805181602001fd5b6001600160e01b031916630a85bd0160e11b1490505b949350505050565b60006114ad8284612ae1565b60006114ad8284612af5565b606081611e385750506040805180820190915260018152600360fc1b602082015290565b8160005b8115611e625780611e4c81612985565b9150611e5b9050600a83612af5565b9150611e3c565b6000816001600160401b03811115611e7c57611e7c61261c565b6040519080825280601f01601f191660200182016040528015611ea6576020820181803683370190505b5090505b8415611df457611ebb600183612b09565b9150611ec8600a86612ae1565b611ed39060306129cf565b60f81b818381518110611ee857611ee8612a06565b60200101906001600160f81b031916908160001a905350611f0a600a86612af5565b9450611eaa565b600081815b8451811015611f5657611f4282868381518110611f3557611f35612a06565b602002602001015161206c565b915080611f4e81612985565b915050611f16565b509392505050565b610e8882826040518060200160405280600081525061209b565b60006114ad8284612b09565b60008132611f93600143612b09565b601260009054906101000a90046001600160a01b03166001600160a01b0316631486a2766040518163ffffffff1660e01b815260040160206040518083038186803b158015611fe157600080fd5b505afa158015611ff5573d6000803e3d6000fd5b505050506040513d601f19601f820116820180604052508101906120199190612b20565b60405160200161204f949392919093845260609290921b6001600160601b03191660208401526034830152605482015260740190565b604051602081830303815290604052805190602001209050919050565b60008183106120885760008281526020849052604090206114ad565b60008381526020839052604090206114ad565b6109ac83838360016000546001600160a01b0385166120cc57604051622e076360e81b815260040160405180910390fd5b836120ea5760405163b562e8dd60e01b815260040160405180910390fd5b6001600160a01b038516600081815260056020908152604080832080546fffffffffffffffffffffffffffffffff1981166001600160401b038083168c018116918217600160401b67ffffffffffffffff1990941690921783900481168c01811690920217909155858452600490925290912080546001600160e01b031916909217600160a01b42909216919091021790558080850183801561219657506001600160a01b0387163b15155b1561221f575b60405182906001600160a01b038916906000907fddf252ad1be2c89b69c2b068fc378daa952ba7f163c4a11628f55a4df523b3ef908290a46121e76000888480600101955088611d04565b612204576040516368d2bf6b60e11b815260040160405180910390fd5b8082141561219c57826000541461221a57600080fd5b612265565b5b6040516001830192906001600160a01b038916906000907fddf252ad1be2c89b69c2b068fc378daa952ba7f163c4a11628f55a4df523b3ef908290a480821415612220575b50600055611983565b82805461227a90612740565b90600052602060002090601f01602090048101928261229c57600085556122e2565b82601f106122b557805160ff19168380011785556122e2565b828001600101855582156122e2579182015b828111156122e25782518255916020019190600101906122c7565b506122ee9291506122f2565b5090565b5b808211156122ee57600081556001016122f3565b6001600160e01b03198116811461152a57600080fd5b60006020828403121561232f57600080fd5b81356114ad81612307565b60005b8381101561235557818101518382015260200161233d565b838111156112d75750506000910152565b6000815180845261237e81602086016020860161233a565b601f01601f19169290920160200192915050565b6020815260006114ad6020830184612366565b6000602082840312156123b757600080fd5b5035919050565b80356001600160a01b03811681146123d557600080fd5b919050565b600080604083850312156123ed57600080fd5b6123f6836123be565b946020939093013593505050565b60006020828403121561241657600080fd5b6114ad826123be565b60008083601f84011261243157600080fd5b5081356001600160401b0381111561244857600080fd5b6020830191508360208260051b850101111561246357600080fd5b9250929050565b6000806000806060858703121561248057600080fd5b843593506020850135925060408501356001600160401b038111156124a457600080fd5b6124b08782880161241f565b95989497509550505050565b6000806000606084860312156124d157600080fd5b6124da846123be565b92506124e8602085016123be565b9150604084013590509250925092565b6000806020838503121561250b57600080fd5b82356001600160401b038082111561252257600080fd5b818501915085601f83011261253657600080fd5b81358181111561254557600080fd5b86602082850101111561255757600080fd5b60209290920196919550909350505050565b60008060006060848603121561257e57600080fd5b505081359360208301359350604090920135919050565b6000806000604084860312156125aa57600080fd5b8335925060208401356001600160401b038111156125c757600080fd5b6125d38682870161241f565b9497909650939450505050565b600080604083850312156125f357600080fd5b6125fc836123be565b91506020830135801515811461261157600080fd5b809150509250929050565b634e487b7160e01b600052604160045260246000fd5b6000806000806080858703121561264857600080fd5b612651856123be565b935061265f602086016123be565b92506040850135915060608501356001600160401b038082111561268257600080fd5b818701915087601f83011261269657600080fd5b8135818111156126a8576126a861261c565b604051601f8201601f19908116603f011681019083821181831017156126d0576126d061261c565b816040528281528a60208487010111156126e957600080fd5b82602086016020830137600060208483010152809550505050505092959194509250565b6000806040838503121561272057600080fd5b612729836123be565b9150612737602084016123be565b90509250929050565b600181811c9082168061275457607f821691505b6020821081141561277557634e487b7160e01b600052602260045260246000fd5b50919050565b6020808252601f908201527f5265656e7472616e637947756172643a207265656e7472616e742063616c6c00604082015260600190565b6020808252602b90820152600080516020612b3a83398151915260408201526a642d6d696e742d74696d6560a81b606082015260800190565b6020808252602d90820152600080516020612b3a83398151915260408201526c3216b6b4b73a16b1b0b63632b960991b606082015260800190565b6020808252602e90820152600080516020612b3a83398151915260408201526d642d746f74616c2d737570706c7960901b606082015260800190565b6020808252603b90820152600080516020612b3a83398151915260408201527f642d696e766f636174696f6e2d75707065722d626f756e646172790000000000606082015260800190565b6020808252603b90820152600080516020612b3a83398151915260408201527f642d696e766f636174696f6e2d6c6f7765722d626f756e646172790000000000606082015260800190565b6020808252602c90820152600080516020612b3a83398151915260408201526b642d6d696e742d76616c756560a01b606082015260800190565b6020808252602f90820152600080516020612b3a83398151915260408201526e3216b0b2323932b9b996b83937b7b360891b606082015260800190565b634e487b7160e01b600052601160045260246000fd5b60006000198214156129995761299961296f565b5060010190565b600083516129b281846020880161233a565b8351908301906129c681836020880161233a565b01949350505050565b600082198211156129e2576129e261296f565b500190565b6000816000190483118215151615612a0157612a0161296f565b500290565b634e487b7160e01b600052603260045260246000fd5b6000606082018583526020858185015260606040850152818551808452608086019150828701935060005b81811015612a6357845183529383019391830191600101612a47565b509098975050505050505050565b6001600160a01b0385811682528416602082015260408101839052608060608201819052600090612aa490830184612366565b9695505050505050565b600060208284031215612ac057600080fd5b81516114ad81612307565b634e487b7160e01b600052601260045260246000fd5b600082612af057612af0612acb565b500690565b600082612b0457612b04612acb565b500490565b600082821015612b1b57612b1b61296f565b500390565b600060208284031215612b3257600080fd5b505191905056fe52686170736f647943726561746f7247656e657261746976652f696e76616c69a26469706673582212205d33891dbf436713a147996ea6c0228116e99a77e37ba6476c6a44d95acea54864736f6c6343000809003352686170736f647943726561746f7247656e657261746976652f696e76616c69",
    "linkReferences": {},
    "deployedLinkReferences": {}
}