{
    "_format": "hh-sol-artifact-1",
    "contractName": "RhapsodyCreatorGenerative",
    "sourceName": "contracts/RhapsodyCreatorGenerative.sol",
    "abi": [
        {
            "inputs": [
                {
                    "internalType": "string",
                    "name": "_name",
                    "type": "string"
                },
                {
                    "internalType": "string",
                    "name": "_symbol",
                    "type": "string"
                },
                {
                    "internalType": "string",
                    "name": "_baseURI",
                    "type": "string"
                },
                {
                    "internalType": "uint256",
                    "name": "_collectionSize",
                    "type": "uint256"
                },
                {
                    "internalType": "uint256",
                    "name": "_maxPublicBatchPerAddress",
                    "type": "uint256"
                },
                {
                    "internalType": "uint256",
                    "name": "_amountForPromotion",
                    "type": "uint256"
                },
                {
                    "internalType": "uint256",
                    "name": "_mintPrice",
                    "type": "uint256"
                },
                {
                    "internalType": "uint256",
                    "name": "_claimTime",
                    "type": "uint256"
                },
                {
                    "internalType": "uint256",
                    "name": "_presaleTime",
                    "type": "uint256"
                },
                {
                    "internalType": "uint256",
                    "name": "_publicTime",
                    "type": "uint256"
                }
            ],
            "stateMutability": "nonpayable",
            "type": "constructor"
        },
        {
            "inputs": [],
            "name": "AllOwnershipsHaveBeenSet",
            "type": "error"
        },
        {
            "inputs": [],
            "name": "ApprovalCallerNotOwnerNorApproved",
            "type": "error"
        },
        {
            "inputs": [],
            "name": "ApprovalQueryForNonexistentToken",
            "type": "error"
        },
        {
            "inputs": [],
            "name": "ApprovalToCurrentOwner",
            "type": "error"
        },
        {
            "inputs": [],
            "name": "ApproveToCaller",
            "type": "error"
        },
        {
            "inputs": [],
            "name": "BalanceQueryForZeroAddress",
            "type": "error"
        },
        {
            "inputs": [],
            "name": "HashQueryForNonexistentToken",
            "type": "error"
        },
        {
            "inputs": [],
            "name": "MintToZeroAddress",
            "type": "error"
        },
        {
            "inputs": [],
            "name": "MintZeroQuantity",
            "type": "error"
        },
        {
            "inputs": [],
            "name": "NoTokensMintedYet",
            "type": "error"
        },
        {
            "inputs": [],
            "name": "OwnerQueryForNonexistentToken",
            "type": "error"
        },
        {
            "inputs": [],
            "name": "QuantityMustBeNonZero",
            "type": "error"
        },
        {
            "inputs": [],
            "name": "TransferCallerNotOwnerNorApproved",
            "type": "error"
        },
        {
            "inputs": [],
            "name": "TransferFromIncorrectOwner",
            "type": "error"
        },
        {
            "inputs": [],
            "name": "TransferToNonERC721ReceiverImplementer",
            "type": "error"
        },
        {
            "inputs": [],
            "name": "TransferToZeroAddress",
            "type": "error"
        },
        {
            "inputs": [],
            "name": "URIQueryForNonexistentToken",
            "type": "error"
        },
        {
            "anonymous": false,
            "inputs": [
                {
                    "indexed": true,
                    "internalType": "address",
                    "name": "owner",
                    "type": "address"
                },
                {
                    "indexed": true,
                    "internalType": "address",
                    "name": "approved",
                    "type": "address"
                },
                {
                    "indexed": true,
                    "internalType": "uint256",
                    "name": "tokenId",
                    "type": "uint256"
                }
            ],
            "name": "Approval",
            "type": "event"
        },
        {
            "anonymous": false,
            "inputs": [
                {
                    "indexed": true,
                    "internalType": "address",
                    "name": "owner",
                    "type": "address"
                },
                {
                    "indexed": true,
                    "internalType": "address",
                    "name": "operator",
                    "type": "address"
                },
                {
                    "indexed": false,
                    "internalType": "bool",
                    "name": "approved",
                    "type": "bool"
                }
            ],
            "name": "ApprovalForAll",
            "type": "event"
        },
        {
            "anonymous": false,
            "inputs": [
                {
                    "indexed": true,
                    "internalType": "address",
                    "name": "to",
                    "type": "address"
                },
                {
                    "indexed": false,
                    "internalType": "uint256",
                    "name": "currentTotalSupply",
                    "type": "uint256"
                },
                {
                    "indexed": false,
                    "internalType": "uint256",
                    "name": "invocations",
                    "type": "uint256"
                },
                {
                    "indexed": false,
                    "internalType": "bytes32[]",
                    "name": "identifiers",
                    "type": "bytes32[]"
                }
            ],
            "name": "Created",
            "type": "event"
        },
        {
            "anonymous": false,
            "inputs": [
                {
                    "indexed": true,
                    "internalType": "address",
                    "name": "previousOwner",
                    "type": "address"
                },
                {
                    "indexed": true,
                    "internalType": "address",
                    "name": "newOwner",
                    "type": "address"
                }
            ],
            "name": "OwnershipTransferred",
            "type": "event"
        },
        {
            "anonymous": false,
            "inputs": [
                {
                    "indexed": true,
                    "internalType": "address",
                    "name": "from",
                    "type": "address"
                },
                {
                    "indexed": true,
                    "internalType": "address",
                    "name": "to",
                    "type": "address"
                },
                {
                    "indexed": true,
                    "internalType": "uint256",
                    "name": "tokenId",
                    "type": "uint256"
                }
            ],
            "name": "Transfer",
            "type": "event"
        },
        {
            "inputs": [],
            "name": "amountForPromotion",
            "outputs": [
                {
                    "internalType": "uint256",
                    "name": "",
                    "type": "uint256"
                }
            ],
            "stateMutability": "view",
            "type": "function"
        },
        {
            "inputs": [
                {
                    "internalType": "address",
                    "name": "to",
                    "type": "address"
                },
                {
                    "internalType": "uint256",
                    "name": "tokenId",
                    "type": "uint256"
                }
            ],
            "name": "approve",
            "outputs": [],
            "stateMutability": "nonpayable",
            "type": "function"
        },
        {
            "inputs": [
                {
                    "internalType": "address",
                    "name": "owner",
                    "type": "address"
                }
            ],
            "name": "balanceOf",
            "outputs": [
                {
                    "internalType": "uint256",
                    "name": "",
                    "type": "uint256"
                }
            ],
            "stateMutability": "view",
            "type": "function"
        },
        {
            "inputs": [],
            "name": "baseURI",
            "outputs": [
                {
                    "internalType": "string",
                    "name": "",
                    "type": "string"
                }
            ],
            "stateMutability": "view",
            "type": "function"
        },
        {
            "inputs": [],
            "name": "claimMerkleRoot",
            "outputs": [
                {
                    "internalType": "bytes32",
                    "name": "",
                    "type": "bytes32"
                }
            ],
            "stateMutability": "view",
            "type": "function"
        },
        {
            "inputs": [
                {
                    "internalType": "uint256",
                    "name": "invocations",
                    "type": "uint256"
                },
                {
                    "internalType": "bytes32[]",
                    "name": "proof",
                    "type": "bytes32[]"
                }
            ],
            "name": "claimMint",
            "outputs": [],
            "stateMutability": "nonpayable",
            "type": "function"
        },
        {
            "inputs": [],
            "name": "claimTime",
            "outputs": [
                {
                    "internalType": "uint256",
                    "name": "",
                    "type": "uint256"
                }
            ],
            "stateMutability": "view",
            "type": "function"
        },
        {
            "inputs": [
                {
                    "internalType": "uint256",
                    "name": "tokenId",
                    "type": "uint256"
                }
            ],
            "name": "getApproved",
            "outputs": [
                {
                    "internalType": "address",
                    "name": "",
                    "type": "address"
                }
            ],
            "stateMutability": "view",
            "type": "function"
        },
        {
            "inputs": [
                {
                    "internalType": "address",
                    "name": "owner",
                    "type": "address"
                },
                {
                    "internalType": "address",
                    "name": "operator",
                    "type": "address"
                }
            ],
            "name": "isApprovedForAll",
            "outputs": [
                {
                    "internalType": "bool",
                    "name": "",
                    "type": "bool"
                }
            ],
            "stateMutability": "view",
            "type": "function"
        },
        {
            "inputs": [],
            "name": "maxPublicBatchPerAddress",
            "outputs": [
                {
                    "internalType": "uint256",
                    "name": "",
                    "type": "uint256"
                }
            ],
            "stateMutability": "view",
            "type": "function"
        },
        {
            "inputs": [
                {
                    "internalType": "address",
                    "name": "_owner",
                    "type": "address"
                }
            ],
            "name": "mintOf",
            "outputs": [
                {
                    "internalType": "uint256",
                    "name": "",
                    "type": "uint256"
                }
            ],
            "stateMutability": "view",
            "type": "function"
        },
        {
            "inputs": [],
            "name": "mintPrice",
            "outputs": [
                {
                    "internalType": "uint256",
                    "name": "",
                    "type": "uint256"
                }
            ],
            "stateMutability": "view",
            "type": "function"
        },
        {
            "inputs": [],
            "name": "mintRandomizerContract",
            "outputs": [
                {
                    "internalType": "contract IRandomizer",
                    "name": "",
                    "type": "address"
                }
            ],
            "stateMutability": "view",
            "type": "function"
        },
        {
            "inputs": [],
            "name": "name",
            "outputs": [
                {
                    "internalType": "string",
                    "name": "",
                    "type": "string"
                }
            ],
            "stateMutability": "view",
            "type": "function"
        },
        {
            "inputs": [],
            "name": "nextOwnerToExplicitlySet",
            "outputs": [
                {
                    "internalType": "uint256",
                    "name": "",
                    "type": "uint256"
                }
            ],
            "stateMutability": "view",
            "type": "function"
        },
        {
            "inputs": [],
            "name": "owner",
            "outputs": [
                {
                    "internalType": "address",
                    "name": "",
                    "type": "address"
                }
            ],
            "stateMutability": "view",
            "type": "function"
        },
        {
            "inputs": [
                {
                    "internalType": "uint256",
                    "name": "tokenId",
                    "type": "uint256"
                }
            ],
            "name": "ownerOf",
            "outputs": [
                {
                    "internalType": "address",
                    "name": "",
                    "type": "address"
                }
            ],
            "stateMutability": "view",
            "type": "function"
        },
        {
            "inputs": [],
            "name": "presaleMerkleRoot",
            "outputs": [
                {
                    "internalType": "bytes32",
                    "name": "",
                    "type": "bytes32"
                }
            ],
            "stateMutability": "view",
            "type": "function"
        },
        {
            "inputs": [
                {
                    "internalType": "uint256",
                    "name": "invocations",
                    "type": "uint256"
                },
                {
                    "internalType": "uint256",
                    "name": "maxInvocation",
                    "type": "uint256"
                },
                {
                    "internalType": "bytes32[]",
                    "name": "proof",
                    "type": "bytes32[]"
                }
            ],
            "name": "presaleMint",
            "outputs": [],
            "stateMutability": "payable",
            "type": "function"
        },
        {
            "inputs": [],
            "name": "presaleTime",
            "outputs": [
                {
                    "internalType": "uint256",
                    "name": "",
                    "type": "uint256"
                }
            ],
            "stateMutability": "view",
            "type": "function"
        },
        {
            "inputs": [
                {
                    "internalType": "uint256",
                    "name": "invocations",
                    "type": "uint256"
                }
            ],
            "name": "promotionMint",
            "outputs": [],
            "stateMutability": "nonpayable",
            "type": "function"
        },
        {
            "inputs": [
                {
                    "internalType": "uint256",
                    "name": "invocations",
                    "type": "uint256"
                }
            ],
            "name": "publicMint",
            "outputs": [],
            "stateMutability": "payable",
            "type": "function"
        },
        {
            "inputs": [],
            "name": "publicTime",
            "outputs": [
                {
                    "internalType": "uint256",
                    "name": "",
                    "type": "uint256"
                }
            ],
            "stateMutability": "view",
            "type": "function"
        },
        {
            "inputs": [],
            "name": "renounceOwnership",
            "outputs": [],
            "stateMutability": "nonpayable",
            "type": "function"
        },
        {
            "inputs": [
                {
                    "internalType": "address",
                    "name": "from",
                    "type": "address"
                },
                {
                    "internalType": "address",
                    "name": "to",
                    "type": "address"
                },
                {
                    "internalType": "uint256",
                    "name": "tokenId",
                    "type": "uint256"
                }
            ],
            "name": "safeTransferFrom",
            "outputs": [],
            "stateMutability": "nonpayable",
            "type": "function"
        },
        {
            "inputs": [
                {
                    "internalType": "address",
                    "name": "from",
                    "type": "address"
                },
                {
                    "internalType": "address",
                    "name": "to",
                    "type": "address"
                },
                {
                    "internalType": "uint256",
                    "name": "tokenId",
                    "type": "uint256"
                },
                {
                    "internalType": "bytes",
                    "name": "_data",
                    "type": "bytes"
                }
            ],
            "name": "safeTransferFrom",
            "outputs": [],
            "stateMutability": "nonpayable",
            "type": "function"
        },
        {
            "inputs": [
                {
                    "internalType": "address",
                    "name": "operator",
                    "type": "address"
                },
                {
                    "internalType": "bool",
                    "name": "approved",
                    "type": "bool"
                }
            ],
            "name": "setApprovalForAll",
            "outputs": [],
            "stateMutability": "nonpayable",
            "type": "function"
        },
        {
            "inputs": [
                {
                    "internalType": "string",
                    "name": "newBaseURI",
                    "type": "string"
                }
            ],
            "name": "setBaseURI",
            "outputs": [],
            "stateMutability": "nonpayable",
            "type": "function"
        },
        {
            "inputs": [
                {
                    "internalType": "bytes32",
                    "name": "_claimMerkleRoot",
                    "type": "bytes32"
                }
            ],
            "name": "setClaimMerkleRoot",
            "outputs": [],
            "stateMutability": "nonpayable",
            "type": "function"
        },
        {
            "inputs": [
                {
                    "internalType": "address",
                    "name": "_mintRandomizerContract",
                    "type": "address"
                }
            ],
            "name": "setMintRandomizerContract",
            "outputs": [],
            "stateMutability": "nonpayable",
            "type": "function"
        },
        {
            "inputs": [
                {
                    "internalType": "uint256",
                    "name": "_claimTime",
                    "type": "uint256"
                },
                {
                    "internalType": "uint256",
                    "name": "_presaleTime",
                    "type": "uint256"
                },
                {
                    "internalType": "uint256",
                    "name": "_publicTime",
                    "type": "uint256"
                }
            ],
            "name": "setMintTime",
            "outputs": [],
            "stateMutability": "nonpayable",
            "type": "function"
        },
        {
            "inputs": [
                {
                    "internalType": "uint256",
                    "name": "quantity",
                    "type": "uint256"
                }
            ],
            "name": "setOwnersExplicit",
            "outputs": [],
            "stateMutability": "nonpayable",
            "type": "function"
        },
        {
            "inputs": [
                {
                    "internalType": "bytes32",
                    "name": "_presaleMerkleRoot",
                    "type": "bytes32"
                }
            ],
            "name": "setPresaleMerkleRoot",
            "outputs": [],
            "stateMutability": "nonpayable",
            "type": "function"
        },
        {
            "inputs": [
                {
                    "internalType": "bytes4",
                    "name": "interfaceId",
                    "type": "bytes4"
                }
            ],
            "name": "supportsInterface",
            "outputs": [
                {
                    "internalType": "bool",
                    "name": "",
                    "type": "bool"
                }
            ],
            "stateMutability": "view",
            "type": "function"
        },
        {
            "inputs": [],
            "name": "symbol",
            "outputs": [
                {
                    "internalType": "string",
                    "name": "",
                    "type": "string"
                }
            ],
            "stateMutability": "view",
            "type": "function"
        },
        {
            "inputs": [
                {
                    "internalType": "uint256",
                    "name": "_tokenId",
                    "type": "uint256"
                }
            ],
            "name": "tokenHash",
            "outputs": [
                {
                    "internalType": "bytes32",
                    "name": "",
                    "type": "bytes32"
                }
            ],
            "stateMutability": "view",
            "type": "function"
        },
        {
            "inputs": [
                {
                    "internalType": "uint256",
                    "name": "tokenId",
                    "type": "uint256"
                }
            ],
            "name": "tokenURI",
            "outputs": [
                {
                    "internalType": "string",
                    "name": "",
                    "type": "string"
                }
            ],
            "stateMutability": "view",
            "type": "function"
        },
        {
            "inputs": [],
            "name": "totalSupply",
            "outputs": [
                {
                    "internalType": "uint256",
                    "name": "",
                    "type": "uint256"
                }
            ],
            "stateMutability": "view",
            "type": "function"
        },
        {
            "inputs": [
                {
                    "internalType": "address",
                    "name": "from",
                    "type": "address"
                },
                {
                    "internalType": "address",
                    "name": "to",
                    "type": "address"
                },
                {
                    "internalType": "uint256",
                    "name": "tokenId",
                    "type": "uint256"
                }
            ],
            "name": "transferFrom",
            "outputs": [],
            "stateMutability": "nonpayable",
            "type": "function"
        },
        {
            "inputs": [
                {
                    "internalType": "address",
                    "name": "newOwner",
                    "type": "address"
                }
            ],
            "name": "transferOwnership",
            "outputs": [],
            "stateMutability": "nonpayable",
            "type": "function"
        },
        {
            "inputs": [],
            "name": "withdrawMoney",
            "outputs": [],
            "stateMutability": "nonpayable",
            "type": "function"
        }
    ],
    "bytecode": "0x6101006040523480156200001257600080fd5b506040516200311e3803806200311e83398101604081905262000035916200046b565b89518a908a906200004e906002906020850190620002f8565b50805162000064906003906020840190620002f8565b505060008055506200007633620001c5565b6001600a5586620000d75760405162461bcd60e51b81526020600482015260316024820152600080516020620030fe833981519152604482015270642d636f6c6c656374696f6e2d73697a6560781b60648201526084015b60405180910390fd5b86851115620001335760405162461bcd60e51b81526020600482015260326024820152600080516020620030fe833981519152604482015271190b5c1c9bdb5bdd1a5bdb8b585b5bdd5b9d60721b6064820152608401620000ce565b60008411620001895760405162461bcd60e51b815260206004820152602c6024820152600080516020620030fe83398151915260448201526b642d6d696e742d707269636560a01b6064820152608401620000ce565b60e087905260a0869052608085905260c0849052620001a88862000217565b620001b583838362000230565b505050505050505050506200057f565b600980546001600160a01b038381166001600160a01b0319831681179093556040519116919082907f8be0079c531659141344cd1fd0a4f28419497f9722a3daafe3b4186f6b6457e090600090a35050565b80516200022c906011906020840190620002f8565b5050565b8282116200028d5760405162461bcd60e51b8152602060048201526024808201527f52686170736f647943726561746f722f696e76616c69642d70726573616c652d60448201526374696d6560e01b6064820152608401620000ce565b818111620002ea5760405162461bcd60e51b815260206004820152602360248201527f52686170736f647943726561746f722f696e76616c69642d7075626c69632d74604482015262696d6560e81b6064820152608401620000ce565b600d92909255600e55600f55565b828054620003069062000542565b90600052602060002090601f0160209004810192826200032a576000855562000375565b82601f106200034557805160ff191683800117855562000375565b8280016001018555821562000375579182015b828111156200037557825182559160200191906001019062000358565b506200038392915062000387565b5090565b5b8082111562000383576000815560010162000388565b634e487b7160e01b600052604160045260246000fd5b600082601f830112620003c657600080fd5b81516001600160401b0380821115620003e357620003e36200039e565b604051601f8301601f19908116603f011681019082821181831017156200040e576200040e6200039e565b816040528381526020925086838588010111156200042b57600080fd5b600091505b838210156200044f578582018301518183018401529082019062000430565b83821115620004615760008385830101525b9695505050505050565b6000806000806000806000806000806101408b8d0312156200048c57600080fd5b8a516001600160401b0380821115620004a457600080fd5b620004b28e838f01620003b4565b9b5060208d0151915080821115620004c957600080fd5b620004d78e838f01620003b4565b9a5060408d0151915080821115620004ee57600080fd5b50620004fd8d828e01620003b4565b98505060608b0151965060808b0151955060a08b0151945060c08b0151935060e08b015192506101008b015191506101208b015190509295989b9194979a5092959850565b600181811c908216806200055757607f821691505b602082108114156200057957634e487b7160e01b600052602260045260246000fd5b50919050565b60805160a05160c05160e051612b14620005ea600039600081816109e101528181610c920152610f1f01526000818161049901528181610a870152610d3201526000818161061401528181610c5201526112f5015260008181610537015261126c0152612b146000f3fe6080604052600436106102465760003560e01c806370a0823111610139578063a4babffd116100b6578063c6e62e0b1161007a578063c6e62e0b146106ab578063c87b56dd146106c1578063d7224ba0146106e1578063e985e9c5146106f7578063f2fde38b14610740578063fd1e29621461076057600080fd5b8063a4babffd14610602578063ac44600214610636578063b1f536fa1461064b578063b88d4fde1461066b578063ba2f59c81461068b57600080fd5b806395d89b41116100fd57806395d89b4114610577578063993670f21461058c5780639c4dab52146105ac578063a22cb465146105c2578063a3864397146105e257600080fd5b806370a08231146104d0578063715018a6146104f057806372830dfd1461050557806376972db2146105255780638da5cb5b1461055957600080fd5b806327b3bf11116101c757806355f804b31161018b57806355f804b314610427578063617aa43c146104475780636352211e146104675780636817c76c146104875780636c0360eb146104bb57600080fd5b806327b3bf111461039e57806328d7b276146103b45780632d20fb60146103d45780632db11544146103f457806342842e0e1461040757600080fd5b806318160ddd1161020e57806318160ddd1461031c5780631b59169d1461033f5780631bdc608e1461035257806322212e2b1461036857806323b872dd1461037e57600080fd5b806301ffc9a71461024b57806306fdde0314610280578063081812fc146102a2578063095ea7b3146102da57806317ccc54b146102fc575b600080fd5b34801561025757600080fd5b5061026b6102663660046122a2565b610780565b60405190151581526020015b60405180910390f35b34801561028c57600080fd5b506102956107d2565b6040516102779190612317565b3480156102ae57600080fd5b506102c26102bd36600461232a565b610864565b6040516001600160a01b039091168152602001610277565b3480156102e657600080fd5b506102fa6102f536600461235f565b6108a8565b005b34801561030857600080fd5b506102fa610317366004612389565b610936565b34801561032857600080fd5b50600154600054035b604051908152602001610277565b6102fa61034d3660046123ef565b610960565b34801561035e57600080fd5b50610331600f5481565b34801561037457600080fd5b50610331600b5481565b34801561038a57600080fd5b506102fa610399366004612441565b610ba1565b3480156103aa57600080fd5b50610331600d5481565b3480156103c057600080fd5b506102fa6103cf36600461232a565b610bac565b3480156103e057600080fd5b506102fa6103ef36600461232a565b610bb9565b6102fa61040236600461232a565b610bfa565b34801561041357600080fd5b506102fa610422366004612441565b610dab565b34801561043357600080fd5b506102fa61044236600461247d565b610dc6565b34801561045357600080fd5b506102fa6104623660046124ee565b610e11565b34801561047357600080fd5b506102c261048236600461232a565b610e24565b34801561049357600080fd5b506103317f000000000000000000000000000000000000000000000000000000000000000081565b3480156104c757600080fd5b50610295610e36565b3480156104dc57600080fd5b506103316104eb366004612389565b610e45565b3480156104fc57600080fd5b506102fa610e93565b34801561051157600080fd5b506102fa61052036600461251a565b610ea7565b34801561053157600080fd5b506103317f000000000000000000000000000000000000000000000000000000000000000081565b34801561056557600080fd5b506009546001600160a01b03166102c2565b34801561058357600080fd5b50610295611057565b34801561059857600080fd5b506012546102c2906001600160a01b031681565b3480156105b857600080fd5b50610331600c5481565b3480156105ce57600080fd5b506102fa6105dd366004612565565b611066565b3480156105ee57600080fd5b506103316105fd36600461232a565b6110fc565b34801561060e57600080fd5b506103317f000000000000000000000000000000000000000000000000000000000000000081565b34801561064257600080fd5b506102fa611137565b34801561065757600080fd5b50610331610666366004612389565b611206565b34801561067757600080fd5b506102fa6106863660046125b7565b611211565b34801561069757600080fd5b506102fa6106a636600461232a565b611262565b3480156106b757600080fd5b50610331600e5481565b3480156106cd57600080fd5b506102956106dc36600461232a565b6113a7565b3480156106ed57600080fd5b5061033160085481565b34801561070357600080fd5b5061026b610712366004612692565b6001600160a01b03918216600090815260076020908152604080832093909416825291909152205460ff1690565b34801561074c57600080fd5b506102fa61075b366004612389565b611439565b34801561076c57600080fd5b506102fa61077b36600461232a565b6114b2565b60006001600160e01b031982166380ac58cd60e01b14806107b157506001600160e01b03198216635b5e139f60e01b145b806107cc57506301ffc9a760e01b6001600160e01b03198316145b92915050565b6060600280546107e1906126c5565b80601f016020809104026020016040519081016040528092919081815260200182805461080d906126c5565b801561085a5780601f1061082f5761010080835404028352916020019161085a565b820191906000526020600020905b81548152906001019060200180831161083d57829003601f168201915b5050505050905090565b600061086f826114bf565b61088c576040516333d1c03960e21b815260040160405180910390fd5b506000908152600660205260409020546001600160a01b031690565b60006108b382610e24565b9050806001600160a01b0316836001600160a01b031614156108e85760405163250fdee360e21b815260040160405180910390fd5b336001600160a01b0382161480159061090857506109068133610712565b155b15610926576040516367d9dca160e11b815260040160405180910390fd5b6109318383836114ea565b505050565b61093e611546565b601280546001600160a01b0319166001600160a01b0392909216919091179055565b6002600a54141561098c5760405162461bcd60e51b815260040161098390612700565b60405180910390fd5b6002600a55600e5480158015906109a257508042115b6109be5760405162461bcd60e51b815260040161098390612737565b84843233146109df5760405162461bcd60e51b815260040161098390612770565b7f0000000000000000000000000000000000000000000000000000000000000000610a1783610a116001546000540390565b906115a0565b1115610a355760405162461bcd60e51b8152600401610983906127ab565b80610a4383610a11336115ac565b1115610a615760405162461bcd60e51b8152600401610983906127e7565b60008211610a815760405162461bcd60e51b815260040161098390612832565b86610aac7f0000000000000000000000000000000000000000000000000000000000000000826115da565b3414610aca5760405162461bcd60e51b81526004016109839061287d565b60003411610aea5760405162461bcd60e51b815260040161098390612832565b86338787600b54610b67838380806020026020016040519081016040528093929190818152602001838360200280828437600092019190915250506040516001600160601b031960608a901b166020820152603481018a905285925060540190505b604051602081830303815290604052805190602001206115e6565b610b835760405162461bcd60e51b8152600401610983906128b7565b610b8d338e6115fc565b50506001600a555050505050505050505050565b610931838383611721565b610bb4611546565b600b55565b610bc1611546565b6002600a541415610be45760405162461bcd60e51b815260040161098390612700565b6002600a55610bf28161190f565b506001600a55565b6002600a541415610c1d5760405162461bcd60e51b815260040161098390612700565b6002600a55600f548015801590610c3357508042115b610c4f5760405162461bcd60e51b815260040161098390612737565b817f0000000000000000000000000000000000000000000000000000000000000000323314610c905760405162461bcd60e51b815260040161098390612770565b7f0000000000000000000000000000000000000000000000000000000000000000610cc283610a116001546000540390565b1115610ce05760405162461bcd60e51b8152600401610983906127ab565b80610cee83610a11336115ac565b1115610d0c5760405162461bcd60e51b8152600401610983906127e7565b60008211610d2c5760405162461bcd60e51b815260040161098390612832565b83610d577f0000000000000000000000000000000000000000000000000000000000000000826115da565b3414610d755760405162461bcd60e51b81526004016109839061287d565b60003411610d955760405162461bcd60e51b815260040161098390612832565b610d9f33866115fc565b50506001600a55505050565b61093183838360405180602001604052806000815250611211565b610dce611546565b610e0d82828080601f016020809104026020016040519081016040528093929190818152602001838380828437600092019190915250611a4692505050565b5050565b610e19611546565b610931838383611a59565b6000610e2f82611b1d565b5192915050565b6060601180546107e1906126c5565b60006001600160a01b038216610e6e576040516323d3ad8160e21b815260040160405180910390fd5b506001600160a01b03166000908152600560205260409020546001600160401b031690565b610e9b611546565b610ea56000611c37565b565b6002600a541415610eca5760405162461bcd60e51b815260040161098390612700565b6002600a55600d548015801590610ee057508042115b610efc5760405162461bcd60e51b815260040161098390612737565b8380323314610f1d5760405162461bcd60e51b815260040161098390612770565b7f0000000000000000000000000000000000000000000000000000000000000000610f4f83610a116001546000540390565b1115610f6d5760405162461bcd60e51b8152600401610983906127ab565b80610f7b83610a11336115ac565b1115610f995760405162461bcd60e51b8152600401610983906127e7565b60008211610fb95760405162461bcd60e51b815260040161098390612832565b85338686600c5461101f838380806020026020016040519081016040528093929190818152602001838360200280828437600092019190915250506040516001600160601b031960608a901b166020820152603481018a90528592506054019050610b4c565b61103b5760405162461bcd60e51b8152600401610983906128b7565b611045338c6115fc565b50506001600a55505050505050505050565b6060600380546107e1906126c5565b6001600160a01b0382163314156110905760405163b06307db60e01b815260040160405180910390fd5b3360008181526007602090815260408083206001600160a01b03871680855290835292819020805460ff191686151590811790915590519081529192917f17307eab39ab6107e8899845ad3d59bd9653f200f220920489ca2b5937696c31910160405180910390a35050565b6000611107826114bf565b6111245760405163963eb14f60e01b815260040160405180910390fd5b5060009081526010602052604090205490565b61113f611546565b6002600a5414156111625760405162461bcd60e51b815260040161098390612700565b6002600a55604051600090339047908381818185875af1925050503d80600081146111a9576040519150601f19603f3d011682016040523d82523d6000602084013e6111ae565b606091505b5050905080610bf25760405162461bcd60e51b81526020600482015260306024820152600080516020612abf83398151915260448201526f642d77697468647261772d6d6f6e657960801b6064820152608401610983565b60006107cc826115ac565b61121c848484611721565b6001600160a01b0383163b1515801561123e575061123c84848484611c89565b155b1561125c576040516368d2bf6b60e11b815260040160405180910390fd5b50505050565b61126a611546565b7f000000000000000000000000000000000000000000000000000000000000000061129c82610a116001546000540390565b11156112f35760405162461bcd60e51b81526020600482015260326024820152600080516020612abf833981519152604482015271642d70726f6d6f74696f6e2d737570706c7960701b6064820152608401610983565b7f000000000000000000000000000000000000000000000000000000000000000061131e8282611d81565b156113725760405162461bcd60e51b81526020600482015260306024820152600080516020612abf83398151915260448201526f642d62617463682d6d756c7469706c6560801b6064820152608401610983565b600061137e8383611d8d565b905060005b8181101561125c5761139533846115fc565b8061139f8161290a565b915050611383565b60606113b2826114bf565b6113cf57604051630a14c4b560e41b815260040160405180910390fd5b60006113e660408051602081019091526000815290565b90508051600014156114075760405180602001604052806000815250611432565b8061141184611d99565b604051602001611422929190612925565b6040516020818303038152906040525b9392505050565b611441611546565b6001600160a01b0381166114a65760405162461bcd60e51b815260206004820152602660248201527f4f776e61626c653a206e6577206f776e657220697320746865207a65726f206160448201526564647265737360d01b6064820152608401610983565b6114af81611c37565b50565b6114ba611546565b600c55565b60008054821080156107cc575050600090815260046020526040902054600160e01b900460ff161590565b60008281526006602052604080822080546001600160a01b0319166001600160a01b0387811691821790925591518593918516917f8c5be1e5ebec7d5bd14f71427d1e84f3dd0314c0f7b2291e5b200ac8c7c3b92591a4505050565b6009546001600160a01b03163314610ea55760405162461bcd60e51b815260206004820181905260248201527f4f776e61626c653a2063616c6c6572206973206e6f7420746865206f776e65726044820152606401610983565b60006114328284612954565b6001600160a01b038116600090815260056020526040812054600160401b90046001600160401b03166107cc565b6000611432828461296c565b6000826115f38584611e96565b14949350505050565b6116068282611ee3565b60006116156001546000540390565b905060006116238284611efd565b90506000836001600160401b0381111561163f5761163f6125a1565b604051908082528060200260200182016040528015611668578160200160208202803683370190505b50905060005b848110156116d457600061168284836115a0565b9050600061168f82611f09565b9050808484815181106116a4576116a461298b565b602090810291909101810191909152600092835260109052604090912055806116cc8161290a565b91505061166e565b50846001600160a01b03167f5cb27d2833c0b1f5f25192224a4f5c4573f3c2a9394c0a0a9a31c092e8879eb4848684604051611712939291906129a1565b60405180910390a25050505050565b600061172c82611b1d565b9050836001600160a01b031681600001516001600160a01b0316146117635760405162a1148160e81b815260040160405180910390fd5b6000336001600160a01b038616148061178157506117818533610712565b8061179c57503361179184610864565b6001600160a01b0316145b9050806117bc57604051632ce44b5f60e11b815260040160405180910390fd5b6001600160a01b0384166117e357604051633a954ecd60e21b815260040160405180910390fd5b6117ef600084876114ea565b6001600160a01b038581166000908152600560209081526040808320805467ffffffffffffffff198082166001600160401b0392831660001901831617909255898616808652838620805493841693831660019081018416949094179055898652600490945282852080546001600160e01b031916909417600160a01b429092169190910217835587018084529220805491939091166118c35760005482146118c357805460208601516001600160401b0316600160a01b026001600160e01b03199091166001600160a01b038a16171781555b50505082846001600160a01b0316866001600160a01b03167fddf252ad1be2c89b69c2b068fc378daa952ba7f163c4a11628f55a4df523b3ef60405160405180910390a45b5050505050565b8061192d576040516356be441560e01b815260040160405180910390fd5b60005461194d5760405163c0367cab60e01b815260040160405180910390fd5b60085480611959575060005b600054811061197b576040516370e89b1b60e01b815260040160405180910390fd5b60005482820160001981019110156119965750600054600019015b815b818111611a3b576000818152600460205260409020546001600160a01b03161580156119da5750600081815260046020526040902054600160e01b900460ff16155b15611a335760006119ea82611b1d565b80516000848152600460209081526040909120805491909301516001600160401b0316600160a01b026001600160e01b03199091166001600160a01b0390921691909117179055505b600101611998565b506001016008555050565b8051610e0d9060119060208401906121f3565b828211611ab45760405162461bcd60e51b8152602060048201526024808201527f52686170736f647943726561746f722f696e76616c69642d70726573616c652d60448201526374696d6560e01b6064820152608401610983565b818111611b0f5760405162461bcd60e51b815260206004820152602360248201527f52686170736f647943726561746f722f696e76616c69642d7075626c69632d74604482015262696d6560e81b6064820152608401610983565b600d92909255600e55600f55565b604080516060810182526000808252602082018190529181019190915281600054811015611c1e57600081815260046020908152604091829020825160608101845290546001600160a01b0381168252600160a01b81046001600160401b031692820192909252600160e01b90910460ff16151591810182905290611c1c5780516001600160a01b031615611bb3579392505050565b5060001901600081815260046020908152604091829020825160608101845290546001600160a01b038116808352600160a01b82046001600160401b031693830193909352600160e01b900460ff1615159281019290925215611c17579392505050565b611bb3565b505b604051636f96cda160e11b815260040160405180910390fd5b600980546001600160a01b038381166001600160a01b0319831681179093556040519116919082907f8be0079c531659141344cd1fd0a4f28419497f9722a3daafe3b4186f6b6457e090600090a35050565b604051630a85bd0160e11b81526000906001600160a01b0385169063150b7a0290611cbe9033908990889088906004016129f6565b602060405180830381600087803b158015611cd857600080fd5b505af1925050508015611d08575060408051601f3d908101601f19168201909252611d0591810190612a33565b60015b611d63573d808015611d36576040519150601f19603f3d011682016040523d82523d6000602084013e611d3b565b606091505b508051611d5b576040516368d2bf6b60e11b815260040160405180910390fd5b805181602001fd5b6001600160e01b031916630a85bd0160e11b1490505b949350505050565b60006114328284612a66565b60006114328284612a7a565b606081611dbd5750506040805180820190915260018152600360fc1b602082015290565b8160005b8115611de75780611dd18161290a565b9150611de09050600a83612a7a565b9150611dc1565b6000816001600160401b03811115611e0157611e016125a1565b6040519080825280601f01601f191660200182016040528015611e2b576020820181803683370190505b5090505b8415611d7957611e40600183612a8e565b9150611e4d600a86612a66565b611e58906030612954565b60f81b818381518110611e6d57611e6d61298b565b60200101906001600160f81b031916908160001a905350611e8f600a86612a7a565b9450611e2f565b600081815b8451811015611edb57611ec782868381518110611eba57611eba61298b565b6020026020010151611ff1565b915080611ed38161290a565b915050611e9b565b509392505050565b610e0d828260405180602001604052806000815250612020565b60006114328284612a8e565b60008132611f18600143612a8e565b601260009054906101000a90046001600160a01b03166001600160a01b0316631486a2766040518163ffffffff1660e01b815260040160206040518083038186803b158015611f6657600080fd5b505afa158015611f7a573d6000803e3d6000fd5b505050506040513d601f19601f82011682018060405250810190611f9e9190612aa5565b604051602001611fd4949392919093845260609290921b6001600160601b03191660208401526034830152605482015260740190565b604051602081830303815290604052805190602001209050919050565b600081831061200d576000828152602084905260409020611432565b6000838152602083905260409020611432565b61093183838360016000546001600160a01b03851661205157604051622e076360e81b815260040160405180910390fd5b8361206f5760405163b562e8dd60e01b815260040160405180910390fd5b6001600160a01b038516600081815260056020908152604080832080546fffffffffffffffffffffffffffffffff1981166001600160401b038083168c018116918217600160401b67ffffffffffffffff1990941690921783900481168c01811690920217909155858452600490925290912080546001600160e01b031916909217600160a01b42909216919091021790558080850183801561211b57506001600160a01b0387163b15155b156121a4575b60405182906001600160a01b038916906000907fddf252ad1be2c89b69c2b068fc378daa952ba7f163c4a11628f55a4df523b3ef908290a461216c6000888480600101955088611c89565b612189576040516368d2bf6b60e11b815260040160405180910390fd5b8082141561212157826000541461219f57600080fd5b6121ea565b5b6040516001830192906001600160a01b038916906000907fddf252ad1be2c89b69c2b068fc378daa952ba7f163c4a11628f55a4df523b3ef908290a4808214156121a5575b50600055611908565b8280546121ff906126c5565b90600052602060002090601f0160209004810192826122215760008555612267565b82601f1061223a57805160ff1916838001178555612267565b82800160010185558215612267579182015b8281111561226757825182559160200191906001019061224c565b50612273929150612277565b5090565b5b808211156122735760008155600101612278565b6001600160e01b0319811681146114af57600080fd5b6000602082840312156122b457600080fd5b81356114328161228c565b60005b838110156122da5781810151838201526020016122c2565b8381111561125c5750506000910152565b600081518084526123038160208601602086016122bf565b601f01601f19169290920160200192915050565b60208152600061143260208301846122eb565b60006020828403121561233c57600080fd5b5035919050565b80356001600160a01b038116811461235a57600080fd5b919050565b6000806040838503121561237257600080fd5b61237b83612343565b946020939093013593505050565b60006020828403121561239b57600080fd5b61143282612343565b60008083601f8401126123b657600080fd5b5081356001600160401b038111156123cd57600080fd5b6020830191508360208260051b85010111156123e857600080fd5b9250929050565b6000806000806060858703121561240557600080fd5b843593506020850135925060408501356001600160401b0381111561242957600080fd5b612435878288016123a4565b95989497509550505050565b60008060006060848603121561245657600080fd5b61245f84612343565b925061246d60208501612343565b9150604084013590509250925092565b6000806020838503121561249057600080fd5b82356001600160401b03808211156124a757600080fd5b818501915085601f8301126124bb57600080fd5b8135818111156124ca57600080fd5b8660208285010111156124dc57600080fd5b60209290920196919550909350505050565b60008060006060848603121561250357600080fd5b505081359360208301359350604090920135919050565b60008060006040848603121561252f57600080fd5b8335925060208401356001600160401b0381111561254c57600080fd5b612558868287016123a4565b9497909650939450505050565b6000806040838503121561257857600080fd5b61258183612343565b91506020830135801515811461259657600080fd5b809150509250929050565b634e487b7160e01b600052604160045260246000fd5b600080600080608085870312156125cd57600080fd5b6125d685612343565b93506125e460208601612343565b92506040850135915060608501356001600160401b038082111561260757600080fd5b818701915087601f83011261261b57600080fd5b81358181111561262d5761262d6125a1565b604051601f8201601f19908116603f01168101908382118183101715612655576126556125a1565b816040528281528a602084870101111561266e57600080fd5b82602086016020830137600060208483010152809550505050505092959194509250565b600080604083850312156126a557600080fd5b6126ae83612343565b91506126bc60208401612343565b90509250929050565b600181811c908216806126d957607f821691505b602082108114156126fa57634e487b7160e01b600052602260045260246000fd5b50919050565b6020808252601f908201527f5265656e7472616e637947756172643a207265656e7472616e742063616c6c00604082015260600190565b6020808252602b90820152600080516020612abf83398151915260408201526a642d6d696e742d74696d6560a81b606082015260800190565b6020808252602d90820152600080516020612abf83398151915260408201526c3216b6b4b73a16b1b0b63632b960991b606082015260800190565b6020808252602e90820152600080516020612abf83398151915260408201526d642d746f74616c2d737570706c7960901b606082015260800190565b6020808252603b90820152600080516020612abf83398151915260408201527f642d696e766f636174696f6e2d75707065722d626f756e646172790000000000606082015260800190565b6020808252603b90820152600080516020612abf83398151915260408201527f642d696e766f636174696f6e2d6c6f7765722d626f756e646172790000000000606082015260800190565b6020808252602c90820152600080516020612abf83398151915260408201526b642d6d696e742d76616c756560a01b606082015260800190565b6020808252602f90820152600080516020612abf83398151915260408201526e3216b0b2323932b9b996b83937b7b360891b606082015260800190565b634e487b7160e01b600052601160045260246000fd5b600060001982141561291e5761291e6128f4565b5060010190565b600083516129378184602088016122bf565b83519083019061294b8183602088016122bf565b01949350505050565b60008219821115612967576129676128f4565b500190565b6000816000190483118215151615612986576129866128f4565b500290565b634e487b7160e01b600052603260045260246000fd5b6000606082018583526020858185015260606040850152818551808452608086019150828701935060005b818110156129e8578451835293830193918301916001016129cc565b509098975050505050505050565b6001600160a01b0385811682528416602082015260408101839052608060608201819052600090612a29908301846122eb565b9695505050505050565b600060208284031215612a4557600080fd5b81516114328161228c565b634e487b7160e01b600052601260045260246000fd5b600082612a7557612a75612a50565b500690565b600082612a8957612a89612a50565b500490565b600082821015612aa057612aa06128f4565b500390565b600060208284031215612ab757600080fd5b505191905056fe52686170736f647943726561746f7247656e657261746976652f696e76616c69a26469706673582212209dabd5d77926af2bf8feef9f88df30ac2d71569c43ba602ebd7bea3dec96930e64736f6c6343000809003352686170736f647943726561746f7247656e657261746976652f696e76616c69",
    "linkReferences": {},
    "deployedLinkReferences": {}
}