{
  "_format": "hh-sol-artifact-1",
  "contractName": "RhapsodyCreatorGenerative",
  "sourceName": "contracts/RhapsodyCreatorGenerative.sol",
  "abi": [
    {
      "inputs": [
        {
          "internalType": "string",
          "name": "_name",
          "type": "string"
        },
        {
          "internalType": "string",
          "name": "_symbol",
          "type": "string"
        },
        {
          "internalType": "string",
          "name": "_baseURI",
          "type": "string"
        },
        {
          "internalType": "uint256",
          "name": "_collectionSize",
          "type": "uint256"
        },
        {
          "internalType": "uint256",
          "name": "_maxPublicBatchPerAddress",
          "type": "uint256"
        },
        {
          "internalType": "uint256",
          "name": "_amountForPromotion",
          "type": "uint256"
        },
        {
          "internalType": "uint256",
          "name": "_mintPrice",
          "type": "uint256"
        },
        {
          "internalType": "uint256",
          "name": "_claimTime",
          "type": "uint256"
        },
        {
          "internalType": "uint256",
          "name": "_presaleTime",
          "type": "uint256"
        },
        {
          "internalType": "uint256",
          "name": "_publicTime",
          "type": "uint256"
        }
      ],
      "stateMutability": "nonpayable",
      "type": "constructor"
    },
    {
      "inputs": [],
      "name": "AllOwnershipsHaveBeenSet",
      "type": "error"
    },
    {
      "inputs": [],
      "name": "ApprovalCallerNotOwnerNorApproved",
      "type": "error"
    },
    {
      "inputs": [],
      "name": "ApprovalQueryForNonexistentToken",
      "type": "error"
    },
    {
      "inputs": [],
      "name": "ApprovalToCurrentOwner",
      "type": "error"
    },
    {
      "inputs": [],
      "name": "ApproveToCaller",
      "type": "error"
    },
    {
      "inputs": [],
      "name": "BalanceQueryForZeroAddress",
      "type": "error"
    },
    {
      "inputs": [],
      "name": "HashQueryForNonexistentToken",
      "type": "error"
    },
    {
      "inputs": [],
      "name": "MintToZeroAddress",
      "type": "error"
    },
    {
      "inputs": [],
      "name": "MintZeroQuantity",
      "type": "error"
    },
    {
      "inputs": [],
      "name": "NoTokensMintedYet",
      "type": "error"
    },
    {
      "inputs": [],
      "name": "OwnerQueryForNonexistentToken",
      "type": "error"
    },
    {
      "inputs": [],
      "name": "QuantityMustBeNonZero",
      "type": "error"
    },
    {
      "inputs": [],
      "name": "TransferCallerNotOwnerNorApproved",
      "type": "error"
    },
    {
      "inputs": [],
      "name": "TransferFromIncorrectOwner",
      "type": "error"
    },
    {
      "inputs": [],
      "name": "TransferToNonERC721ReceiverImplementer",
      "type": "error"
    },
    {
      "inputs": [],
      "name": "TransferToZeroAddress",
      "type": "error"
    },
    {
      "inputs": [],
      "name": "URIQueryForNonexistentToken",
      "type": "error"
    },
    {
      "anonymous": false,
      "inputs": [
        {
          "indexed": true,
          "internalType": "address",
          "name": "owner",
          "type": "address"
        },
        {
          "indexed": true,
          "internalType": "address",
          "name": "approved",
          "type": "address"
        },
        {
          "indexed": true,
          "internalType": "uint256",
          "name": "tokenId",
          "type": "uint256"
        }
      ],
      "name": "Approval",
      "type": "event"
    },
    {
      "anonymous": false,
      "inputs": [
        {
          "indexed": true,
          "internalType": "address",
          "name": "owner",
          "type": "address"
        },
        {
          "indexed": true,
          "internalType": "address",
          "name": "operator",
          "type": "address"
        },
        {
          "indexed": false,
          "internalType": "bool",
          "name": "approved",
          "type": "bool"
        }
      ],
      "name": "ApprovalForAll",
      "type": "event"
    },
    {
      "anonymous": false,
      "inputs": [
        {
          "indexed": true,
          "internalType": "address",
          "name": "to",
          "type": "address"
        },
        {
          "indexed": false,
          "internalType": "uint256",
          "name": "currentTotalSupply",
          "type": "uint256"
        },
        {
          "indexed": false,
          "internalType": "uint256",
          "name": "invocations",
          "type": "uint256"
        },
        {
          "indexed": false,
          "internalType": "bytes32[]",
          "name": "identifiers",
          "type": "bytes32[]"
        }
      ],
      "name": "Created",
      "type": "event"
    },
    {
      "anonymous": false,
      "inputs": [
        {
          "indexed": true,
          "internalType": "address",
          "name": "previousOwner",
          "type": "address"
        },
        {
          "indexed": true,
          "internalType": "address",
          "name": "newOwner",
          "type": "address"
        }
      ],
      "name": "OwnershipTransferred",
      "type": "event"
    },
    {
      "anonymous": false,
      "inputs": [
        {
          "indexed": true,
          "internalType": "address",
          "name": "from",
          "type": "address"
        },
        {
          "indexed": true,
          "internalType": "address",
          "name": "to",
          "type": "address"
        },
        {
          "indexed": true,
          "internalType": "uint256",
          "name": "tokenId",
          "type": "uint256"
        }
      ],
      "name": "Transfer",
      "type": "event"
    },
    {
      "inputs": [],
      "name": "amountForPromotion",
      "outputs": [
        {
          "internalType": "uint256",
          "name": "",
          "type": "uint256"
        }
      ],
      "stateMutability": "view",
      "type": "function"
    },
    {
      "inputs": [
        {
          "internalType": "address",
          "name": "to",
          "type": "address"
        },
        {
          "internalType": "uint256",
          "name": "tokenId",
          "type": "uint256"
        }
      ],
      "name": "approve",
      "outputs": [],
      "stateMutability": "nonpayable",
      "type": "function"
    },
    {
      "inputs": [
        {
          "internalType": "address",
          "name": "owner",
          "type": "address"
        }
      ],
      "name": "balanceOf",
      "outputs": [
        {
          "internalType": "uint256",
          "name": "",
          "type": "uint256"
        }
      ],
      "stateMutability": "view",
      "type": "function"
    },
    {
      "inputs": [],
      "name": "baseURI",
      "outputs": [
        {
          "internalType": "string",
          "name": "",
          "type": "string"
        }
      ],
      "stateMutability": "view",
      "type": "function"
    },
    {
      "inputs": [],
      "name": "claimMerkleRoot",
      "outputs": [
        {
          "internalType": "bytes32",
          "name": "",
          "type": "bytes32"
        }
      ],
      "stateMutability": "view",
      "type": "function"
    },
    {
      "inputs": [
        {
          "internalType": "uint256",
          "name": "invocations",
          "type": "uint256"
        },
        {
          "internalType": "bytes32[]",
          "name": "proof",
          "type": "bytes32[]"
        }
      ],
      "name": "claimMint",
      "outputs": [],
      "stateMutability": "nonpayable",
      "type": "function"
    },
    {
      "inputs": [],
      "name": "claimTime",
      "outputs": [
        {
          "internalType": "uint256",
          "name": "",
          "type": "uint256"
        }
      ],
      "stateMutability": "view",
      "type": "function"
    },
    {
      "inputs": [],
      "name": "collectionSize",
      "outputs": [
        {
          "internalType": "uint256",
          "name": "",
          "type": "uint256"
        }
      ],
      "stateMutability": "view",
      "type": "function"
    },
    {
      "inputs": [
        {
          "internalType": "uint256",
          "name": "tokenId",
          "type": "uint256"
        }
      ],
      "name": "getApproved",
      "outputs": [
        {
          "internalType": "address",
          "name": "",
          "type": "address"
        }
      ],
      "stateMutability": "view",
      "type": "function"
    },
    {
      "inputs": [
        {
          "internalType": "address",
          "name": "owner",
          "type": "address"
        },
        {
          "internalType": "address",
          "name": "operator",
          "type": "address"
        }
      ],
      "name": "isApprovedForAll",
      "outputs": [
        {
          "internalType": "bool",
          "name": "",
          "type": "bool"
        }
      ],
      "stateMutability": "view",
      "type": "function"
    },
    {
      "inputs": [],
      "name": "maxPublicBatchPerAddress",
      "outputs": [
        {
          "internalType": "uint256",
          "name": "",
          "type": "uint256"
        }
      ],
      "stateMutability": "view",
      "type": "function"
    },
    {
      "inputs": [
        {
          "internalType": "address",
          "name": "_owner",
          "type": "address"
        }
      ],
      "name": "mintOf",
      "outputs": [
        {
          "internalType": "uint256",
          "name": "",
          "type": "uint256"
        }
      ],
      "stateMutability": "view",
      "type": "function"
    },
    {
      "inputs": [],
      "name": "mintPrice",
      "outputs": [
        {
          "internalType": "uint256",
          "name": "",
          "type": "uint256"
        }
      ],
      "stateMutability": "view",
      "type": "function"
    },
    {
      "inputs": [],
      "name": "name",
      "outputs": [
        {
          "internalType": "string",
          "name": "",
          "type": "string"
        }
      ],
      "stateMutability": "view",
      "type": "function"
    },
    {
      "inputs": [],
      "name": "nextOwnerToExplicitlySet",
      "outputs": [
        {
          "internalType": "uint256",
          "name": "",
          "type": "uint256"
        }
      ],
      "stateMutability": "view",
      "type": "function"
    },
    {
      "inputs": [],
      "name": "owner",
      "outputs": [
        {
          "internalType": "address",
          "name": "",
          "type": "address"
        }
      ],
      "stateMutability": "view",
      "type": "function"
    },
    {
      "inputs": [
        {
          "internalType": "uint256",
          "name": "tokenId",
          "type": "uint256"
        }
      ],
      "name": "ownerOf",
      "outputs": [
        {
          "internalType": "address",
          "name": "",
          "type": "address"
        }
      ],
      "stateMutability": "view",
      "type": "function"
    },
    {
      "inputs": [],
      "name": "presaleMerkleRoot",
      "outputs": [
        {
          "internalType": "bytes32",
          "name": "",
          "type": "bytes32"
        }
      ],
      "stateMutability": "view",
      "type": "function"
    },
    {
      "inputs": [
        {
          "internalType": "uint256",
          "name": "invocations",
          "type": "uint256"
        },
        {
          "internalType": "uint256",
          "name": "maxInvocation",
          "type": "uint256"
        },
        {
          "internalType": "bytes32[]",
          "name": "proof",
          "type": "bytes32[]"
        }
      ],
      "name": "presaleMint",
      "outputs": [],
      "stateMutability": "payable",
      "type": "function"
    },
    {
      "inputs": [],
      "name": "presaleTime",
      "outputs": [
        {
          "internalType": "uint256",
          "name": "",
          "type": "uint256"
        }
      ],
      "stateMutability": "view",
      "type": "function"
    },
    {
      "inputs": [
        {
          "internalType": "uint256",
          "name": "invocations",
          "type": "uint256"
        }
      ],
      "name": "promotionMint",
      "outputs": [],
      "stateMutability": "nonpayable",
      "type": "function"
    },
    {
      "inputs": [
        {
          "internalType": "uint256",
          "name": "invocations",
          "type": "uint256"
        }
      ],
      "name": "publicMint",
      "outputs": [],
      "stateMutability": "payable",
      "type": "function"
    },
    {
      "inputs": [],
      "name": "publicTime",
      "outputs": [
        {
          "internalType": "uint256",
          "name": "",
          "type": "uint256"
        }
      ],
      "stateMutability": "view",
      "type": "function"
    },
    {
      "inputs": [],
      "name": "renounceOwnership",
      "outputs": [],
      "stateMutability": "nonpayable",
      "type": "function"
    },
    {
      "inputs": [
        {
          "internalType": "address",
          "name": "from",
          "type": "address"
        },
        {
          "internalType": "address",
          "name": "to",
          "type": "address"
        },
        {
          "internalType": "uint256",
          "name": "tokenId",
          "type": "uint256"
        }
      ],
      "name": "safeTransferFrom",
      "outputs": [],
      "stateMutability": "nonpayable",
      "type": "function"
    },
    {
      "inputs": [
        {
          "internalType": "address",
          "name": "from",
          "type": "address"
        },
        {
          "internalType": "address",
          "name": "to",
          "type": "address"
        },
        {
          "internalType": "uint256",
          "name": "tokenId",
          "type": "uint256"
        },
        {
          "internalType": "bytes",
          "name": "_data",
          "type": "bytes"
        }
      ],
      "name": "safeTransferFrom",
      "outputs": [],
      "stateMutability": "nonpayable",
      "type": "function"
    },
    {
      "inputs": [
        {
          "internalType": "address",
          "name": "operator",
          "type": "address"
        },
        {
          "internalType": "bool",
          "name": "approved",
          "type": "bool"
        }
      ],
      "name": "setApprovalForAll",
      "outputs": [],
      "stateMutability": "nonpayable",
      "type": "function"
    },
    {
      "inputs": [
        {
          "internalType": "string",
          "name": "newBaseURI",
          "type": "string"
        }
      ],
      "name": "setBaseURI",
      "outputs": [],
      "stateMutability": "nonpayable",
      "type": "function"
    },
    {
      "inputs": [
        {
          "internalType": "bytes32",
          "name": "_claimMerkleRoot",
          "type": "bytes32"
        }
      ],
      "name": "setClaimMerkleRoot",
      "outputs": [],
      "stateMutability": "nonpayable",
      "type": "function"
    },
    {
      "inputs": [
        {
          "internalType": "uint256",
          "name": "_claimTime",
          "type": "uint256"
        },
        {
          "internalType": "uint256",
          "name": "_presaleTime",
          "type": "uint256"
        },
        {
          "internalType": "uint256",
          "name": "_publicTime",
          "type": "uint256"
        }
      ],
      "name": "setMintTime",
      "outputs": [],
      "stateMutability": "nonpayable",
      "type": "function"
    },
    {
      "inputs": [
        {
          "internalType": "uint256",
          "name": "quantity",
          "type": "uint256"
        }
      ],
      "name": "setOwnersExplicit",
      "outputs": [],
      "stateMutability": "nonpayable",
      "type": "function"
    },
    {
      "inputs": [
        {
          "internalType": "bytes32",
          "name": "_presaleMerkleRoot",
          "type": "bytes32"
        }
      ],
      "name": "setPresaleMerkleRoot",
      "outputs": [],
      "stateMutability": "nonpayable",
      "type": "function"
    },
    {
      "inputs": [
        {
          "internalType": "bytes4",
          "name": "interfaceId",
          "type": "bytes4"
        }
      ],
      "name": "supportsInterface",
      "outputs": [
        {
          "internalType": "bool",
          "name": "",
          "type": "bool"
        }
      ],
      "stateMutability": "view",
      "type": "function"
    },
    {
      "inputs": [],
      "name": "symbol",
      "outputs": [
        {
          "internalType": "string",
          "name": "",
          "type": "string"
        }
      ],
      "stateMutability": "view",
      "type": "function"
    },
    {
      "inputs": [
        {
          "internalType": "uint256",
          "name": "_tokenId",
          "type": "uint256"
        }
      ],
      "name": "tokenHash",
      "outputs": [
        {
          "internalType": "bytes32",
          "name": "",
          "type": "bytes32"
        }
      ],
      "stateMutability": "view",
      "type": "function"
    },
    {
      "inputs": [
        {
          "internalType": "uint256",
          "name": "tokenId",
          "type": "uint256"
        }
      ],
      "name": "tokenURI",
      "outputs": [
        {
          "internalType": "string",
          "name": "",
          "type": "string"
        }
      ],
      "stateMutability": "view",
      "type": "function"
    },
    {
      "inputs": [],
      "name": "totalSupply",
      "outputs": [
        {
          "internalType": "uint256",
          "name": "",
          "type": "uint256"
        }
      ],
      "stateMutability": "view",
      "type": "function"
    },
    {
      "inputs": [
        {
          "internalType": "address",
          "name": "from",
          "type": "address"
        },
        {
          "internalType": "address",
          "name": "to",
          "type": "address"
        },
        {
          "internalType": "uint256",
          "name": "tokenId",
          "type": "uint256"
        }
      ],
      "name": "transferFrom",
      "outputs": [],
      "stateMutability": "nonpayable",
      "type": "function"
    },
    {
      "inputs": [
        {
          "internalType": "address",
          "name": "newOwner",
          "type": "address"
        }
      ],
      "name": "transferOwnership",
      "outputs": [],
      "stateMutability": "nonpayable",
      "type": "function"
    },
    {
      "inputs": [],
      "name": "version",
      "outputs": [
        {
          "internalType": "string",
          "name": "",
          "type": "string"
        }
      ],
      "stateMutability": "view",
      "type": "function"
    },
    {
      "inputs": [],
      "name": "withdrawMoney",
      "outputs": [],
      "stateMutability": "nonpayable",
      "type": "function"
    }
  ],
  "bytecode": "0x6101006040523480156200001257600080fd5b506040516200307b3803806200307b83398101604081905262000035916200046b565b89518a908a906200004e906002906020850190620002f8565b50805162000064906003906020840190620002f8565b505060008055506200007633620001c5565b6001600a5586620000d75760405162461bcd60e51b815260206004820152603160248201526000805160206200305b833981519152604482015270642d636f6c6c656374696f6e2d73697a6560781b60648201526084015b60405180910390fd5b86851115620001335760405162461bcd60e51b815260206004820152603260248201526000805160206200305b833981519152604482015271190b5c1c9bdb5bdd1a5bdb8b585b5bdd5b9d60721b6064820152608401620000ce565b60008411620001895760405162461bcd60e51b815260206004820152602c60248201526000805160206200305b83398151915260448201526b642d6d696e742d707269636560a01b6064820152608401620000ce565b60e087905260a0869052608085905260c0849052620001a88862000217565b620001b583838362000230565b505050505050505050506200057f565b600980546001600160a01b038381166001600160a01b0319831681179093556040519116919082907f8be0079c531659141344cd1fd0a4f28419497f9722a3daafe3b4186f6b6457e090600090a35050565b80516200022c906011906020840190620002f8565b5050565b8282116200028d5760405162461bcd60e51b8152602060048201526024808201527f52686170736f647943726561746f722f696e76616c69642d70726573616c652d60448201526374696d6560e01b6064820152608401620000ce565b818111620002ea5760405162461bcd60e51b815260206004820152602360248201527f52686170736f647943726561746f722f696e76616c69642d7075626c69632d74604482015262696d6560e81b6064820152608401620000ce565b600d92909255600e55600f55565b828054620003069062000542565b90600052602060002090601f0160209004810192826200032a576000855562000375565b82601f106200034557805160ff191683800117855562000375565b8280016001018555821562000375579182015b828111156200037557825182559160200191906001019062000358565b506200038392915062000387565b5090565b5b8082111562000383576000815560010162000388565b634e487b7160e01b600052604160045260246000fd5b600082601f830112620003c657600080fd5b81516001600160401b0380821115620003e357620003e36200039e565b604051601f8301601f19908116603f011681019082821181831017156200040e576200040e6200039e565b816040528381526020925086838588010111156200042b57600080fd5b600091505b838210156200044f578582018301518183018401529082019062000430565b83821115620004615760008385830101525b9695505050505050565b6000806000806000806000806000806101408b8d0312156200048c57600080fd5b8a516001600160401b0380821115620004a457600080fd5b620004b28e838f01620003b4565b9b5060208d0151915080821115620004c957600080fd5b620004d78e838f01620003b4565b9a5060408d0151915080821115620004ee57600080fd5b50620004fd8d828e01620003b4565b98505060608b0151965060808b0151955060a08b0151945060c08b0151935060e08b015192506101008b015191506101208b015190509295989b9194979a5092959850565b600181811c908216806200055757607f821691505b602082108114156200057957634e487b7160e01b600052602260045260246000fd5b50919050565b60805160a05160c05160e051612a6a620005f160003960008181610419015281816109dc01528181610c8d0152610f1a0152600081816104de01528181610a820152610d2d01526000818161063901528181610c4d01526112f001526000818161057c01526112670152612a6a6000f3fe6080604052600436106102465760003560e01c80636c0360eb11610139578063a4babffd116100b6578063c6e62e0b1161007a578063c6e62e0b146106d0578063c87b56dd146106e6578063d7224ba014610706578063e985e9c51461071c578063f2fde38b14610765578063fd1e29621461078557600080fd5b8063a4babffd14610627578063ac4460021461065b578063b1f536fa14610670578063b88d4fde14610690578063ba2f59c8146106b057600080fd5b80638da5cb5b116100fd5780638da5cb5b1461059e57806395d89b41146105bc5780639c4dab52146105d1578063a22cb465146105e7578063a38643971461060757600080fd5b80636c0360eb1461050057806370a0823114610515578063715018a61461053557806372830dfd1461054a57806376972db21461056a57600080fd5b806328d7b276116101c757806354fd4d501161018b57806354fd4d501461043b57806355f804b31461046c578063617aa43c1461048c5780636352211e146104ac5780636817c76c146104cc57600080fd5b806328d7b276146103945780632d20fb60146103b45780632db11544146103d457806342842e0e146103e757806345c0f5331461040757600080fd5b80631b59169d1161020e5780631b59169d1461031f5780631bdc608e1461033257806322212e2b1461034857806323b872dd1461035e57806327b3bf111461037e57600080fd5b806301ffc9a71461024b57806306fdde0314610280578063081812fc146102a2578063095ea7b3146102da57806318160ddd146102fc575b600080fd5b34801561025757600080fd5b5061026b610266366004612211565b6107a5565b60405190151581526020015b60405180910390f35b34801561028c57600080fd5b506102956107f7565b6040516102779190612286565b3480156102ae57600080fd5b506102c26102bd366004612299565b610889565b6040516001600160a01b039091168152602001610277565b3480156102e657600080fd5b506102fa6102f53660046122ce565b6108cd565b005b34801561030857600080fd5b50600154600054035b604051908152602001610277565b6102fa61032d366004612343565b61095b565b34801561033e57600080fd5b50610311600f5481565b34801561035457600080fd5b50610311600b5481565b34801561036a57600080fd5b506102fa610379366004612395565b610b9c565b34801561038a57600080fd5b50610311600d5481565b3480156103a057600080fd5b506102fa6103af366004612299565b610ba7565b3480156103c057600080fd5b506102fa6103cf366004612299565b610bb4565b6102fa6103e2366004612299565b610bf5565b3480156103f357600080fd5b506102fa610402366004612395565b610da6565b34801561041357600080fd5b506103117f000000000000000000000000000000000000000000000000000000000000000081565b34801561044757600080fd5b50610295604051806040016040528060058152602001640312e302e360dc1b81525081565b34801561047857600080fd5b506102fa6104873660046123d1565b610dc1565b34801561049857600080fd5b506102fa6104a7366004612442565b610e0c565b3480156104b857600080fd5b506102c26104c7366004612299565b610e1f565b3480156104d857600080fd5b506103117f000000000000000000000000000000000000000000000000000000000000000081565b34801561050c57600080fd5b50610295610e31565b34801561052157600080fd5b5061031161053036600461246e565b610e40565b34801561054157600080fd5b506102fa610e8e565b34801561055657600080fd5b506102fa610565366004612489565b610ea2565b34801561057657600080fd5b506103117f000000000000000000000000000000000000000000000000000000000000000081565b3480156105aa57600080fd5b506009546001600160a01b03166102c2565b3480156105c857600080fd5b50610295611052565b3480156105dd57600080fd5b50610311600c5481565b3480156105f357600080fd5b506102fa6106023660046124d4565b611061565b34801561061357600080fd5b50610311610622366004612299565b6110f7565b34801561063357600080fd5b506103117f000000000000000000000000000000000000000000000000000000000000000081565b34801561066757600080fd5b506102fa611132565b34801561067c57600080fd5b5061031161068b36600461246e565b611201565b34801561069c57600080fd5b506102fa6106ab366004612526565b61120c565b3480156106bc57600080fd5b506102fa6106cb366004612299565b61125d565b3480156106dc57600080fd5b50610311600e5481565b3480156106f257600080fd5b50610295610701366004612299565b6113a2565b34801561071257600080fd5b5061031160085481565b34801561072857600080fd5b5061026b610737366004612601565b6001600160a01b03918216600090815260076020908152604080832093909416825291909152205460ff1690565b34801561077157600080fd5b506102fa61078036600461246e565b611434565b34801561079157600080fd5b506102fa6107a0366004612299565b6114ad565b60006001600160e01b031982166380ac58cd60e01b14806107d657506001600160e01b03198216635b5e139f60e01b145b806107f157506301ffc9a760e01b6001600160e01b03198316145b92915050565b60606002805461080690612634565b80601f016020809104026020016040519081016040528092919081815260200182805461083290612634565b801561087f5780601f106108545761010080835404028352916020019161087f565b820191906000526020600020905b81548152906001019060200180831161086257829003601f168201915b5050505050905090565b6000610894826114ba565b6108b1576040516333d1c03960e21b815260040160405180910390fd5b506000908152600660205260409020546001600160a01b031690565b60006108d882610e1f565b9050806001600160a01b0316836001600160a01b0316141561090d5760405163250fdee360e21b815260040160405180910390fd5b336001600160a01b0382161480159061092d575061092b8133610737565b155b1561094b576040516367d9dca160e11b815260040160405180910390fd5b6109568383836114e5565b505050565b6002600a5414156109875760405162461bcd60e51b815260040161097e9061266f565b60405180910390fd5b6002600a55600e54801580159061099d57508042115b6109b95760405162461bcd60e51b815260040161097e906126a6565b84843233146109da5760405162461bcd60e51b815260040161097e906126df565b7f0000000000000000000000000000000000000000000000000000000000000000610a1283610a0c6001546000540390565b90611541565b1115610a305760405162461bcd60e51b815260040161097e9061271a565b80610a3e83610a0c3361154d565b1115610a5c5760405162461bcd60e51b815260040161097e90612756565b60008211610a7c5760405162461bcd60e51b815260040161097e906127a1565b86610aa77f00000000000000000000000000000000000000000000000000000000000000008261157b565b3414610ac55760405162461bcd60e51b815260040161097e906127ec565b60003411610ae55760405162461bcd60e51b815260040161097e906127a1565b86338787600b54610b62838380806020026020016040519081016040528093929190818152602001838360200280828437600092019190915250506040516001600160601b031960608a901b166020820152603481018a905285925060540190505b60405160208183030381529060405280519060200120611587565b610b7e5760405162461bcd60e51b815260040161097e90612826565b610b88338e61159d565b50506001600a555050505050505050505050565b6109568383836116c2565b610baf6118b0565b600b55565b610bbc6118b0565b6002600a541415610bdf5760405162461bcd60e51b815260040161097e9061266f565b6002600a55610bed8161190a565b506001600a55565b6002600a541415610c185760405162461bcd60e51b815260040161097e9061266f565b6002600a55600f548015801590610c2e57508042115b610c4a5760405162461bcd60e51b815260040161097e906126a6565b817f0000000000000000000000000000000000000000000000000000000000000000323314610c8b5760405162461bcd60e51b815260040161097e906126df565b7f0000000000000000000000000000000000000000000000000000000000000000610cbd83610a0c6001546000540390565b1115610cdb5760405162461bcd60e51b815260040161097e9061271a565b80610ce983610a0c3361154d565b1115610d075760405162461bcd60e51b815260040161097e90612756565b60008211610d275760405162461bcd60e51b815260040161097e906127a1565b83610d527f00000000000000000000000000000000000000000000000000000000000000008261157b565b3414610d705760405162461bcd60e51b815260040161097e906127ec565b60003411610d905760405162461bcd60e51b815260040161097e906127a1565b610d9a338661159d565b50506001600a55505050565b6109568383836040518060200160405280600081525061120c565b610dc96118b0565b610e0882828080601f016020809104026020016040519081016040528093929190818152602001838380828437600092019190915250611a4192505050565b5050565b610e146118b0565b610956838383611a54565b6000610e2a82611b18565b5192915050565b60606011805461080690612634565b60006001600160a01b038216610e69576040516323d3ad8160e21b815260040160405180910390fd5b506001600160a01b03166000908152600560205260409020546001600160401b031690565b610e966118b0565b610ea06000611c32565b565b6002600a541415610ec55760405162461bcd60e51b815260040161097e9061266f565b6002600a55600d548015801590610edb57508042115b610ef75760405162461bcd60e51b815260040161097e906126a6565b8380323314610f185760405162461bcd60e51b815260040161097e906126df565b7f0000000000000000000000000000000000000000000000000000000000000000610f4a83610a0c6001546000540390565b1115610f685760405162461bcd60e51b815260040161097e9061271a565b80610f7683610a0c3361154d565b1115610f945760405162461bcd60e51b815260040161097e90612756565b60008211610fb45760405162461bcd60e51b815260040161097e906127a1565b85338686600c5461101a838380806020026020016040519081016040528093929190818152602001838360200280828437600092019190915250506040516001600160601b031960608a901b166020820152603481018a90528592506054019050610b47565b6110365760405162461bcd60e51b815260040161097e90612826565b611040338c61159d565b50506001600a55505050505050505050565b60606003805461080690612634565b6001600160a01b03821633141561108b5760405163b06307db60e01b815260040160405180910390fd5b3360008181526007602090815260408083206001600160a01b03871680855290835292819020805460ff191686151590811790915590519081529192917f17307eab39ab6107e8899845ad3d59bd9653f200f220920489ca2b5937696c31910160405180910390a35050565b6000611102826114ba565b61111f5760405163963eb14f60e01b815260040160405180910390fd5b5060009081526010602052604090205490565b61113a6118b0565b6002600a54141561115d5760405162461bcd60e51b815260040161097e9061266f565b6002600a55604051600090339047908381818185875af1925050503d80600081146111a4576040519150601f19603f3d011682016040523d82523d6000602084013e6111a9565b606091505b5050905080610bed5760405162461bcd60e51b81526020600482015260306024820152600080516020612a1583398151915260448201526f642d77697468647261772d6d6f6e657960801b606482015260840161097e565b60006107f18261154d565b6112178484846116c2565b6001600160a01b0383163b15158015611239575061123784848484611c84565b155b15611257576040516368d2bf6b60e11b815260040160405180910390fd5b50505050565b6112656118b0565b7f000000000000000000000000000000000000000000000000000000000000000061129782610a0c6001546000540390565b11156112ee5760405162461bcd60e51b81526020600482015260326024820152600080516020612a15833981519152604482015271642d70726f6d6f74696f6e2d737570706c7960701b606482015260840161097e565b7f00000000000000000000000000000000000000000000000000000000000000006113198282611d7c565b1561136d5760405162461bcd60e51b81526020600482015260306024820152600080516020612a1583398151915260448201526f642d62617463682d6d756c7469706c6560801b606482015260840161097e565b60006113798383611d88565b905060005b8181101561125757611390338461159d565b8061139a81612879565b91505061137e565b60606113ad826114ba565b6113ca57604051630a14c4b560e41b815260040160405180910390fd5b60006113e160408051602081019091526000815290565b9050805160001415611402576040518060200160405280600081525061142d565b8061140c84611d94565b60405160200161141d929190612894565b6040516020818303038152906040525b9392505050565b61143c6118b0565b6001600160a01b0381166114a15760405162461bcd60e51b815260206004820152602660248201527f4f776e61626c653a206e6577206f776e657220697320746865207a65726f206160448201526564647265737360d01b606482015260840161097e565b6114aa81611c32565b50565b6114b56118b0565b600c55565b60008054821080156107f1575050600090815260046020526040902054600160e01b900460ff161590565b60008281526006602052604080822080546001600160a01b0319166001600160a01b0387811691821790925591518593918516917f8c5be1e5ebec7d5bd14f71427d1e84f3dd0314c0f7b2291e5b200ac8c7c3b92591a4505050565b600061142d82846128c3565b6001600160a01b038116600090815260056020526040812054600160401b90046001600160401b03166107f1565b600061142d82846128db565b6000826115948584611e91565b14949350505050565b6115a78282611ede565b60006115b66001546000540390565b905060006115c48284611ef8565b90506000836001600160401b038111156115e0576115e0612510565b604051908082528060200260200182016040528015611609578160200160208202803683370190505b50905060005b848110156116755760006116238483611541565b9050600061163082611f04565b905080848481518110611645576116456128fa565b6020908102919091018101919091526000928352601090526040909120558061166d81612879565b91505061160f565b50846001600160a01b03167f5cb27d2833c0b1f5f25192224a4f5c4573f3c2a9394c0a0a9a31c092e8879eb48486846040516116b393929190612910565b60405180910390a25050505050565b60006116cd82611b18565b9050836001600160a01b031681600001516001600160a01b0316146117045760405162a1148160e81b815260040160405180910390fd5b6000336001600160a01b038616148061172257506117228533610737565b8061173d57503361173284610889565b6001600160a01b0316145b90508061175d57604051632ce44b5f60e11b815260040160405180910390fd5b6001600160a01b03841661178457604051633a954ecd60e21b815260040160405180910390fd5b611790600084876114e5565b6001600160a01b038581166000908152600560209081526040808320805467ffffffffffffffff198082166001600160401b0392831660001901831617909255898616808652838620805493841693831660019081018416949094179055898652600490945282852080546001600160e01b031916909417600160a01b4290921691909102178355870180845292208054919390911661186457600054821461186457805460208601516001600160401b0316600160a01b026001600160e01b03199091166001600160a01b038a16171781555b50505082846001600160a01b0316866001600160a01b03167fddf252ad1be2c89b69c2b068fc378daa952ba7f163c4a11628f55a4df523b3ef60405160405180910390a45b5050505050565b6009546001600160a01b03163314610ea05760405162461bcd60e51b815260206004820181905260248201527f4f776e61626c653a2063616c6c6572206973206e6f7420746865206f776e6572604482015260640161097e565b80611928576040516356be441560e01b815260040160405180910390fd5b6000546119485760405163c0367cab60e01b815260040160405180910390fd5b60085480611954575060005b6000548110611976576040516370e89b1b60e01b815260040160405180910390fd5b60005482820160001981019110156119915750600054600019015b815b818111611a36576000818152600460205260409020546001600160a01b03161580156119d55750600081815260046020526040902054600160e01b900460ff16155b15611a2e5760006119e582611b18565b80516000848152600460209081526040909120805491909301516001600160401b0316600160a01b026001600160e01b03199091166001600160a01b0390921691909117179055505b600101611993565b506001016008555050565b8051610e08906011906020840190612162565b828211611aaf5760405162461bcd60e51b8152602060048201526024808201527f52686170736f647943726561746f722f696e76616c69642d70726573616c652d60448201526374696d6560e01b606482015260840161097e565b818111611b0a5760405162461bcd60e51b815260206004820152602360248201527f52686170736f647943726561746f722f696e76616c69642d7075626c69632d74604482015262696d6560e81b606482015260840161097e565b600d92909255600e55600f55565b604080516060810182526000808252602082018190529181019190915281600054811015611c1957600081815260046020908152604091829020825160608101845290546001600160a01b0381168252600160a01b81046001600160401b031692820192909252600160e01b90910460ff16151591810182905290611c175780516001600160a01b031615611bae579392505050565b5060001901600081815260046020908152604091829020825160608101845290546001600160a01b038116808352600160a01b82046001600160401b031693830193909352600160e01b900460ff1615159281019290925215611c12579392505050565b611bae565b505b604051636f96cda160e11b815260040160405180910390fd5b600980546001600160a01b038381166001600160a01b0319831681179093556040519116919082907f8be0079c531659141344cd1fd0a4f28419497f9722a3daafe3b4186f6b6457e090600090a35050565b604051630a85bd0160e11b81526000906001600160a01b0385169063150b7a0290611cb9903390899088908890600401612965565b602060405180830381600087803b158015611cd357600080fd5b505af1925050508015611d03575060408051601f3d908101601f19168201909252611d00918101906129a2565b60015b611d5e573d808015611d31576040519150601f19603f3d011682016040523d82523d6000602084013e611d36565b606091505b508051611d56576040516368d2bf6b60e11b815260040160405180910390fd5b805181602001fd5b6001600160e01b031916630a85bd0160e11b1490505b949350505050565b600061142d82846129d5565b600061142d82846129e9565b606081611db85750506040805180820190915260018152600360fc1b602082015290565b8160005b8115611de25780611dcc81612879565b9150611ddb9050600a836129e9565b9150611dbc565b6000816001600160401b03811115611dfc57611dfc612510565b6040519080825280601f01601f191660200182016040528015611e26576020820181803683370190505b5090505b8415611d7457611e3b6001836129fd565b9150611e48600a866129d5565b611e539060306128c3565b60f81b818381518110611e6857611e686128fa565b60200101906001600160f81b031916908160001a905350611e8a600a866129e9565b9450611e2a565b600081815b8451811015611ed657611ec282868381518110611eb557611eb56128fa565b6020026020010151611f60565b915080611ece81612879565b915050611e96565b509392505050565b610e08828260405180602001604052806000815250611f8f565b600061142d82846129fd565b60008132611f136001436129fd565b604051602001611f439392919092835260609190911b6001600160601b0319166020830152603482015260540190565b604051602081830303815290604052805190602001209050919050565b6000818310611f7c57600082815260208490526040902061142d565b600083815260208390526040902061142d565b61095683838360016000546001600160a01b038516611fc057604051622e076360e81b815260040160405180910390fd5b83611fde5760405163b562e8dd60e01b815260040160405180910390fd5b6001600160a01b038516600081815260056020908152604080832080546fffffffffffffffffffffffffffffffff1981166001600160401b038083168c018116918217600160401b67ffffffffffffffff1990941690921783900481168c01811690920217909155858452600490925290912080546001600160e01b031916909217600160a01b42909216919091021790558080850183801561208a57506001600160a01b0387163b15155b15612113575b60405182906001600160a01b038916906000907fddf252ad1be2c89b69c2b068fc378daa952ba7f163c4a11628f55a4df523b3ef908290a46120db6000888480600101955088611c84565b6120f8576040516368d2bf6b60e11b815260040160405180910390fd5b8082141561209057826000541461210e57600080fd5b612159565b5b6040516001830192906001600160a01b038916906000907fddf252ad1be2c89b69c2b068fc378daa952ba7f163c4a11628f55a4df523b3ef908290a480821415612114575b506000556118a9565b82805461216e90612634565b90600052602060002090601f01602090048101928261219057600085556121d6565b82601f106121a957805160ff19168380011785556121d6565b828001600101855582156121d6579182015b828111156121d65782518255916020019190600101906121bb565b506121e29291506121e6565b5090565b5b808211156121e257600081556001016121e7565b6001600160e01b0319811681146114aa57600080fd5b60006020828403121561222357600080fd5b813561142d816121fb565b60005b83811015612249578181015183820152602001612231565b838111156112575750506000910152565b6000815180845261227281602086016020860161222e565b601f01601f19169290920160200192915050565b60208152600061142d602083018461225a565b6000602082840312156122ab57600080fd5b5035919050565b80356001600160a01b03811681146122c957600080fd5b919050565b600080604083850312156122e157600080fd5b6122ea836122b2565b946020939093013593505050565b60008083601f84011261230a57600080fd5b5081356001600160401b0381111561232157600080fd5b6020830191508360208260051b850101111561233c57600080fd5b9250929050565b6000806000806060858703121561235957600080fd5b843593506020850135925060408501356001600160401b0381111561237d57600080fd5b612389878288016122f8565b95989497509550505050565b6000806000606084860312156123aa57600080fd5b6123b3846122b2565b92506123c1602085016122b2565b9150604084013590509250925092565b600080602083850312156123e457600080fd5b82356001600160401b03808211156123fb57600080fd5b818501915085601f83011261240f57600080fd5b81358181111561241e57600080fd5b86602082850101111561243057600080fd5b60209290920196919550909350505050565b60008060006060848603121561245757600080fd5b505081359360208301359350604090920135919050565b60006020828403121561248057600080fd5b61142d826122b2565b60008060006040848603121561249e57600080fd5b8335925060208401356001600160401b038111156124bb57600080fd5b6124c7868287016122f8565b9497909650939450505050565b600080604083850312156124e757600080fd5b6124f0836122b2565b91506020830135801515811461250557600080fd5b809150509250929050565b634e487b7160e01b600052604160045260246000fd5b6000806000806080858703121561253c57600080fd5b612545856122b2565b9350612553602086016122b2565b92506040850135915060608501356001600160401b038082111561257657600080fd5b818701915087601f83011261258a57600080fd5b81358181111561259c5761259c612510565b604051601f8201601f19908116603f011681019083821181831017156125c4576125c4612510565b816040528281528a60208487010111156125dd57600080fd5b82602086016020830137600060208483010152809550505050505092959194509250565b6000806040838503121561261457600080fd5b61261d836122b2565b915061262b602084016122b2565b90509250929050565b600181811c9082168061264857607f821691505b6020821081141561266957634e487b7160e01b600052602260045260246000fd5b50919050565b6020808252601f908201527f5265656e7472616e637947756172643a207265656e7472616e742063616c6c00604082015260600190565b6020808252602b90820152600080516020612a1583398151915260408201526a642d6d696e742d74696d6560a81b606082015260800190565b6020808252602d90820152600080516020612a1583398151915260408201526c3216b6b4b73a16b1b0b63632b960991b606082015260800190565b6020808252602e90820152600080516020612a1583398151915260408201526d642d746f74616c2d737570706c7960901b606082015260800190565b6020808252603b90820152600080516020612a1583398151915260408201527f642d696e766f636174696f6e2d75707065722d626f756e646172790000000000606082015260800190565b6020808252603b90820152600080516020612a1583398151915260408201527f642d696e766f636174696f6e2d6c6f7765722d626f756e646172790000000000606082015260800190565b6020808252602c90820152600080516020612a1583398151915260408201526b642d6d696e742d76616c756560a01b606082015260800190565b6020808252602f90820152600080516020612a1583398151915260408201526e3216b0b2323932b9b996b83937b7b360891b606082015260800190565b634e487b7160e01b600052601160045260246000fd5b600060001982141561288d5761288d612863565b5060010190565b600083516128a681846020880161222e565b8351908301906128ba81836020880161222e565b01949350505050565b600082198211156128d6576128d6612863565b500190565b60008160001904831182151516156128f5576128f5612863565b500290565b634e487b7160e01b600052603260045260246000fd5b6000606082018583526020858185015260606040850152818551808452608086019150828701935060005b818110156129575784518352938301939183019160010161293b565b509098975050505050505050565b6001600160a01b03858116825284166020820152604081018390526080606082018190526000906129989083018461225a565b9695505050505050565b6000602082840312156129b457600080fd5b815161142d816121fb565b634e487b7160e01b600052601260045260246000fd5b6000826129e4576129e46129bf565b500690565b6000826129f8576129f86129bf565b500490565b600082821015612a0f57612a0f612863565b50039056fe52686170736f647943726561746f7247656e657261746976652f696e76616c69a2646970667358221220c033c211764ebc335dc059322acd4acf6c5e072401e4f453d8042f50c786f9c764736f6c6343000809003352686170736f647943726561746f7247656e657261746976652f696e76616c69",
  "linkReferences": {},
  "deployedLinkReferences": {}
}