{
  "_format": "hh-sol-artifact-1",
  "contractName": "RhapsodyCreator",
  "sourceName": "contracts/RhapsodyCreator.sol",
  "abi": [
    {
      "inputs": [
        {
          "internalType": "string",
          "name": "_name",
          "type": "string"
        },
        {
          "internalType": "string",
          "name": "_symbol",
          "type": "string"
        },
        {
          "internalType": "string",
          "name": "_baseURI",
          "type": "string"
        },
        {
          "internalType": "uint256",
          "name": "_collectionSize",
          "type": "uint256"
        },
        {
          "internalType": "uint256",
          "name": "_maxPublicBatchPerAddress",
          "type": "uint256"
        },
        {
          "internalType": "uint256",
          "name": "_amountForPromotion",
          "type": "uint256"
        },
        {
          "internalType": "uint256",
          "name": "_mintPrice",
          "type": "uint256"
        },
        {
          "internalType": "uint256",
          "name": "_claimTime",
          "type": "uint256"
        },
        {
          "internalType": "uint256",
          "name": "_presaleTime",
          "type": "uint256"
        },
        {
          "internalType": "uint256",
          "name": "_publicTime",
          "type": "uint256"
        }
      ],
      "stateMutability": "nonpayable",
      "type": "constructor"
    },
    {
      "inputs": [],
      "name": "AllOwnershipsHaveBeenSet",
      "type": "error"
    },
    {
      "inputs": [],
      "name": "ApprovalCallerNotOwnerNorApproved",
      "type": "error"
    },
    {
      "inputs": [],
      "name": "ApprovalQueryForNonexistentToken",
      "type": "error"
    },
    {
      "inputs": [],
      "name": "ApprovalToCurrentOwner",
      "type": "error"
    },
    {
      "inputs": [],
      "name": "ApproveToCaller",
      "type": "error"
    },
    {
      "inputs": [],
      "name": "BalanceQueryForZeroAddress",
      "type": "error"
    },
    {
      "inputs": [],
      "name": "MintToZeroAddress",
      "type": "error"
    },
    {
      "inputs": [],
      "name": "MintZeroQuantity",
      "type": "error"
    },
    {
      "inputs": [],
      "name": "NoTokensMintedYet",
      "type": "error"
    },
    {
      "inputs": [],
      "name": "OwnerQueryForNonexistentToken",
      "type": "error"
    },
    {
      "inputs": [],
      "name": "QuantityMustBeNonZero",
      "type": "error"
    },
    {
      "inputs": [],
      "name": "TransferCallerNotOwnerNorApproved",
      "type": "error"
    },
    {
      "inputs": [],
      "name": "TransferFromIncorrectOwner",
      "type": "error"
    },
    {
      "inputs": [],
      "name": "TransferToNonERC721ReceiverImplementer",
      "type": "error"
    },
    {
      "inputs": [],
      "name": "TransferToZeroAddress",
      "type": "error"
    },
    {
      "inputs": [],
      "name": "URIQueryForNonexistentToken",
      "type": "error"
    },
    {
      "anonymous": false,
      "inputs": [
        {
          "indexed": true,
          "internalType": "address",
          "name": "owner",
          "type": "address"
        },
        {
          "indexed": true,
          "internalType": "address",
          "name": "approved",
          "type": "address"
        },
        {
          "indexed": true,
          "internalType": "uint256",
          "name": "tokenId",
          "type": "uint256"
        }
      ],
      "name": "Approval",
      "type": "event"
    },
    {
      "anonymous": false,
      "inputs": [
        {
          "indexed": true,
          "internalType": "address",
          "name": "owner",
          "type": "address"
        },
        {
          "indexed": true,
          "internalType": "address",
          "name": "operator",
          "type": "address"
        },
        {
          "indexed": false,
          "internalType": "bool",
          "name": "approved",
          "type": "bool"
        }
      ],
      "name": "ApprovalForAll",
      "type": "event"
    },
    {
      "anonymous": false,
      "inputs": [
        {
          "indexed": true,
          "internalType": "address",
          "name": "to",
          "type": "address"
        },
        {
          "indexed": false,
          "internalType": "uint256",
          "name": "amount",
          "type": "uint256"
        }
      ],
      "name": "Created",
      "type": "event"
    },
    {
      "anonymous": false,
      "inputs": [
        {
          "indexed": true,
          "internalType": "address",
          "name": "previousOwner",
          "type": "address"
        },
        {
          "indexed": true,
          "internalType": "address",
          "name": "newOwner",
          "type": "address"
        }
      ],
      "name": "OwnershipTransferred",
      "type": "event"
    },
    {
      "anonymous": false,
      "inputs": [
        {
          "indexed": true,
          "internalType": "address",
          "name": "from",
          "type": "address"
        },
        {
          "indexed": true,
          "internalType": "address",
          "name": "to",
          "type": "address"
        },
        {
          "indexed": true,
          "internalType": "uint256",
          "name": "tokenId",
          "type": "uint256"
        }
      ],
      "name": "Transfer",
      "type": "event"
    },
    {
      "inputs": [],
      "name": "amountForPromotion",
      "outputs": [
        {
          "internalType": "uint256",
          "name": "",
          "type": "uint256"
        }
      ],
      "stateMutability": "view",
      "type": "function"
    },
    {
      "inputs": [
        {
          "internalType": "address",
          "name": "to",
          "type": "address"
        },
        {
          "internalType": "uint256",
          "name": "tokenId",
          "type": "uint256"
        }
      ],
      "name": "approve",
      "outputs": [],
      "stateMutability": "nonpayable",
      "type": "function"
    },
    {
      "inputs": [
        {
          "internalType": "address",
          "name": "owner",
          "type": "address"
        }
      ],
      "name": "balanceOf",
      "outputs": [
        {
          "internalType": "uint256",
          "name": "",
          "type": "uint256"
        }
      ],
      "stateMutability": "view",
      "type": "function"
    },
    {
      "inputs": [],
      "name": "baseURI",
      "outputs": [
        {
          "internalType": "string",
          "name": "",
          "type": "string"
        }
      ],
      "stateMutability": "view",
      "type": "function"
    },
    {
      "inputs": [],
      "name": "claimTime",
      "outputs": [
        {
          "internalType": "uint256",
          "name": "",
          "type": "uint256"
        }
      ],
      "stateMutability": "view",
      "type": "function"
    },
    {
      "inputs": [],
      "name": "collectionSize",
      "outputs": [
        {
          "internalType": "uint256",
          "name": "",
          "type": "uint256"
        }
      ],
      "stateMutability": "view",
      "type": "function"
    },
    {
      "inputs": [
        {
          "internalType": "uint256",
          "name": "tokenId",
          "type": "uint256"
        }
      ],
      "name": "getApproved",
      "outputs": [
        {
          "internalType": "address",
          "name": "",
          "type": "address"
        }
      ],
      "stateMutability": "view",
      "type": "function"
    },
    {
      "inputs": [
        {
          "internalType": "address",
          "name": "owner",
          "type": "address"
        },
        {
          "internalType": "address",
          "name": "operator",
          "type": "address"
        }
      ],
      "name": "isApprovedForAll",
      "outputs": [
        {
          "internalType": "bool",
          "name": "",
          "type": "bool"
        }
      ],
      "stateMutability": "view",
      "type": "function"
    },
    {
      "inputs": [],
      "name": "maxPublicBatchPerAddress",
      "outputs": [
        {
          "internalType": "uint256",
          "name": "",
          "type": "uint256"
        }
      ],
      "stateMutability": "view",
      "type": "function"
    },
    {
      "inputs": [
        {
          "internalType": "address",
          "name": "_owner",
          "type": "address"
        }
      ],
      "name": "mintOf",
      "outputs": [
        {
          "internalType": "uint256",
          "name": "",
          "type": "uint256"
        }
      ],
      "stateMutability": "view",
      "type": "function"
    },
    {
      "inputs": [],
      "name": "mintPrice",
      "outputs": [
        {
          "internalType": "uint256",
          "name": "",
          "type": "uint256"
        }
      ],
      "stateMutability": "view",
      "type": "function"
    },
    {
      "inputs": [],
      "name": "name",
      "outputs": [
        {
          "internalType": "string",
          "name": "",
          "type": "string"
        }
      ],
      "stateMutability": "view",
      "type": "function"
    },
    {
      "inputs": [],
      "name": "nextOwnerToExplicitlySet",
      "outputs": [
        {
          "internalType": "uint256",
          "name": "",
          "type": "uint256"
        }
      ],
      "stateMutability": "view",
      "type": "function"
    },
    {
      "inputs": [],
      "name": "owner",
      "outputs": [
        {
          "internalType": "address",
          "name": "",
          "type": "address"
        }
      ],
      "stateMutability": "view",
      "type": "function"
    },
    {
      "inputs": [
        {
          "internalType": "uint256",
          "name": "tokenId",
          "type": "uint256"
        }
      ],
      "name": "ownerOf",
      "outputs": [
        {
          "internalType": "address",
          "name": "",
          "type": "address"
        }
      ],
      "stateMutability": "view",
      "type": "function"
    },
    {
      "inputs": [],
      "name": "presaleMerkleRoot",
      "outputs": [
        {
          "internalType": "bytes32",
          "name": "",
          "type": "bytes32"
        }
      ],
      "stateMutability": "view",
      "type": "function"
    },
    {
      "inputs": [
        {
          "internalType": "uint256",
          "name": "invocations",
          "type": "uint256"
        },
        {
          "internalType": "uint256",
          "name": "maxInvocation",
          "type": "uint256"
        },
        {
          "internalType": "bytes32[]",
          "name": "proof",
          "type": "bytes32[]"
        }
      ],
      "name": "presaleMint",
      "outputs": [],
      "stateMutability": "payable",
      "type": "function"
    },
    {
      "inputs": [],
      "name": "presaleTime",
      "outputs": [
        {
          "internalType": "uint256",
          "name": "",
          "type": "uint256"
        }
      ],
      "stateMutability": "view",
      "type": "function"
    },
    {
      "inputs": [
        {
          "internalType": "uint256",
          "name": "invocations",
          "type": "uint256"
        }
      ],
      "name": "promotionMint",
      "outputs": [],
      "stateMutability": "nonpayable",
      "type": "function"
    },
    {
      "inputs": [
        {
          "internalType": "uint256",
          "name": "invocations",
          "type": "uint256"
        }
      ],
      "name": "publicMint",
      "outputs": [],
      "stateMutability": "payable",
      "type": "function"
    },
    {
      "inputs": [],
      "name": "publicTime",
      "outputs": [
        {
          "internalType": "uint256",
          "name": "",
          "type": "uint256"
        }
      ],
      "stateMutability": "view",
      "type": "function"
    },
    {
      "inputs": [],
      "name": "renounceOwnership",
      "outputs": [],
      "stateMutability": "nonpayable",
      "type": "function"
    },
    {
      "inputs": [
        {
          "internalType": "address",
          "name": "from",
          "type": "address"
        },
        {
          "internalType": "address",
          "name": "to",
          "type": "address"
        },
        {
          "internalType": "uint256",
          "name": "tokenId",
          "type": "uint256"
        }
      ],
      "name": "safeTransferFrom",
      "outputs": [],
      "stateMutability": "nonpayable",
      "type": "function"
    },
    {
      "inputs": [
        {
          "internalType": "address",
          "name": "from",
          "type": "address"
        },
        {
          "internalType": "address",
          "name": "to",
          "type": "address"
        },
        {
          "internalType": "uint256",
          "name": "tokenId",
          "type": "uint256"
        },
        {
          "internalType": "bytes",
          "name": "_data",
          "type": "bytes"
        }
      ],
      "name": "safeTransferFrom",
      "outputs": [],
      "stateMutability": "nonpayable",
      "type": "function"
    },
    {
      "inputs": [
        {
          "internalType": "address",
          "name": "operator",
          "type": "address"
        },
        {
          "internalType": "bool",
          "name": "approved",
          "type": "bool"
        }
      ],
      "name": "setApprovalForAll",
      "outputs": [],
      "stateMutability": "nonpayable",
      "type": "function"
    },
    {
      "inputs": [
        {
          "internalType": "string",
          "name": "newBaseURI",
          "type": "string"
        }
      ],
      "name": "setBaseURI",
      "outputs": [],
      "stateMutability": "nonpayable",
      "type": "function"
    },
    {
      "inputs": [
        {
          "internalType": "bytes32",
          "name": "_presaleMerkleRoot",
          "type": "bytes32"
        }
      ],
      "name": "setMintMerkleRoot",
      "outputs": [],
      "stateMutability": "nonpayable",
      "type": "function"
    },
    {
      "inputs": [
        {
          "internalType": "uint256",
          "name": "_claimTime",
          "type": "uint256"
        },
        {
          "internalType": "uint256",
          "name": "_presaleTime",
          "type": "uint256"
        },
        {
          "internalType": "uint256",
          "name": "_publicTime",
          "type": "uint256"
        }
      ],
      "name": "setMintTime",
      "outputs": [],
      "stateMutability": "nonpayable",
      "type": "function"
    },
    {
      "inputs": [
        {
          "internalType": "uint256",
          "name": "quantity",
          "type": "uint256"
        }
      ],
      "name": "setOwnersExplicit",
      "outputs": [],
      "stateMutability": "nonpayable",
      "type": "function"
    },
    {
      "inputs": [
        {
          "internalType": "bytes4",
          "name": "interfaceId",
          "type": "bytes4"
        }
      ],
      "name": "supportsInterface",
      "outputs": [
        {
          "internalType": "bool",
          "name": "",
          "type": "bool"
        }
      ],
      "stateMutability": "view",
      "type": "function"
    },
    {
      "inputs": [],
      "name": "symbol",
      "outputs": [
        {
          "internalType": "string",
          "name": "",
          "type": "string"
        }
      ],
      "stateMutability": "view",
      "type": "function"
    },
    {
      "inputs": [
        {
          "internalType": "uint256",
          "name": "tokenId",
          "type": "uint256"
        }
      ],
      "name": "tokenURI",
      "outputs": [
        {
          "internalType": "string",
          "name": "",
          "type": "string"
        }
      ],
      "stateMutability": "view",
      "type": "function"
    },
    {
      "inputs": [],
      "name": "totalSupply",
      "outputs": [
        {
          "internalType": "uint256",
          "name": "",
          "type": "uint256"
        }
      ],
      "stateMutability": "view",
      "type": "function"
    },
    {
      "inputs": [
        {
          "internalType": "address",
          "name": "from",
          "type": "address"
        },
        {
          "internalType": "address",
          "name": "to",
          "type": "address"
        },
        {
          "internalType": "uint256",
          "name": "tokenId",
          "type": "uint256"
        }
      ],
      "name": "transferFrom",
      "outputs": [],
      "stateMutability": "nonpayable",
      "type": "function"
    },
    {
      "inputs": [
        {
          "internalType": "address",
          "name": "newOwner",
          "type": "address"
        }
      ],
      "name": "transferOwnership",
      "outputs": [],
      "stateMutability": "nonpayable",
      "type": "function"
    },
    {
      "inputs": [],
      "name": "withdrawMoney",
      "outputs": [],
      "stateMutability": "nonpayable",
      "type": "function"
    }
  ],
  "bytecode": "0x6101006040523480156200001257600080fd5b5060405162002c2738038062002c27833981016040819052620000359162000480565b89518a908a906200004e9060029060208501906200030d565b508051620000649060039060208401906200030d565b505060008055506200007633620001da565b6001600a5586620000de5760405162461bcd60e51b815260206004820152602760248201527f52686170736f647943726561746f722f696e76616c69642d636f6c6c656374696044820152666f6e2d73697a6560c81b60648201526084015b60405180910390fd5b86851115620001415760405162461bcd60e51b815260206004820152602860248201527f52686170736f647943726561746f722f696e76616c69642d70726f6d6f74696f6044820152671b8b585b5bdd5b9d60c21b6064820152608401620000d5565b600084116200019e5760405162461bcd60e51b815260206004820152602260248201527f52686170736f647943726561746f722f696e76616c69642d6d696e742d707269604482015261636560f01b6064820152608401620000d5565b60e087905260a0869052608085905260c0849052620001bd886200022c565b620001ca83838362000245565b5050505050505050505062000594565b600980546001600160a01b038381166001600160a01b0319831681179093556040519116919082907f8be0079c531659141344cd1fd0a4f28419497f9722a3daafe3b4186f6b6457e090600090a35050565b80516200024190600f9060208401906200030d565b5050565b828211620002a25760405162461bcd60e51b8152602060048201526024808201527f52686170736f647943726561746f722f696e76616c69642d70726573616c652d60448201526374696d6560e01b6064820152608401620000d5565b818111620002ff5760405162461bcd60e51b815260206004820152602360248201527f52686170736f647943726561746f722f696e76616c69642d7075626c69632d74604482015262696d6560e81b6064820152608401620000d5565b600c92909255600d55600e55565b8280546200031b9062000557565b90600052602060002090601f0160209004810192826200033f57600085556200038a565b82601f106200035a57805160ff19168380011785556200038a565b828001600101855582156200038a579182015b828111156200038a5782518255916020019190600101906200036d565b50620003989291506200039c565b5090565b5b808211156200039857600081556001016200039d565b634e487b7160e01b600052604160045260246000fd5b600082601f830112620003db57600080fd5b81516001600160401b0380821115620003f857620003f8620003b3565b604051601f8301601f19908116603f01168101908282118183101715620004235762000423620003b3565b816040528381526020925086838588010111156200044057600080fd5b600091505b8382101562000464578582018301518183018401529082019062000445565b83821115620004765760008385830101525b9695505050505050565b6000806000806000806000806000806101408b8d031215620004a157600080fd5b8a516001600160401b0380821115620004b957600080fd5b620004c78e838f01620003c9565b9b5060208d0151915080821115620004de57600080fd5b620004ec8e838f01620003c9565b9a5060408d01519150808211156200050357600080fd5b50620005128d828e01620003c9565b98505060608b0151965060808b0151955060a08b0151945060c08b0151935060e08b015192506101008b015191506101208b015190509295989b9194979a5092959850565b600181811c908216806200056c57607f821691505b602082108114156200058e57634e487b7160e01b600052602260045260246000fd5b50919050565b60805160a05160c05160e051612628620005ff600039600081816103e2015281816108a90152610c0a015260008181610476015281816109020152610c5d01526000818161057b01528181610bca01526111180152600081816104f4015261108701526126286000f3fe60806040526004361061020f5760003560e01c80636817c76c11610118578063ac446002116100a0578063c6e62e0b1161006f578063c6e62e0b14610612578063c87b56dd14610628578063d7224ba014610648578063e985e9c51461065e578063f2fde38b146106a757600080fd5b8063ac4460021461059d578063b1f536fa146105b2578063b88d4fde146105d2578063ba2f59c8146105f257600080fd5b806376972db2116100e757806376972db2146104e25780638da5cb5b1461051657806395d89b4114610534578063a22cb46514610549578063a4babffd1461056957600080fd5b80636817c76c146104645780636c0360eb1461049857806370a08231146104ad578063715018a6146104cd57600080fd5b806327b3bf111161019b57806342842e0e1161016a57806342842e0e146103b057806345c0f533146103d057806355f804b314610404578063617aa43c146104245780636352211e1461044457600080fd5b806327b3bf11146103475780632d20fb601461035d5780632db115441461037d5780633a4710c41461039057600080fd5b806318160ddd116101e257806318160ddd146102c55780631b59169d146102e85780631bdc608e146102fb57806322212e2b1461031157806323b872dd1461032757600080fd5b806301ffc9a71461021457806306fdde0314610249578063081812fc1461026b578063095ea7b3146102a3575b600080fd5b34801561022057600080fd5b5061023461022f366004611eef565b6106c7565b60405190151581526020015b60405180910390f35b34801561025557600080fd5b5061025e610719565b6040516102409190611f64565b34801561027757600080fd5b5061028b610286366004611f77565b6107ab565b6040516001600160a01b039091168152602001610240565b3480156102af57600080fd5b506102c36102be366004611fac565b6107ef565b005b3480156102d157600080fd5b50600154600054035b604051908152602001610240565b6102c36102f6366004611fd6565b61087d565b34801561030757600080fd5b506102da600e5481565b34801561031d57600080fd5b506102da600b5481565b34801561033357600080fd5b506102c3610342366004612059565b610b4b565b34801561035357600080fd5b506102da600c5481565b34801561036957600080fd5b506102c3610378366004611f77565b610b56565b6102c361038b366004611f77565b610bc7565b34801561039c57600080fd5b506102c36103ab366004611f77565b610d6b565b3480156103bc57600080fd5b506102c36103cb366004612059565b610d78565b3480156103dc57600080fd5b506102da7f000000000000000000000000000000000000000000000000000000000000000081565b34801561041057600080fd5b506102c361041f366004612095565b610d93565b34801561043057600080fd5b506102c361043f366004612107565b610dde565b34801561045057600080fd5b5061028b61045f366004611f77565b610df1565b34801561047057600080fd5b506102da7f000000000000000000000000000000000000000000000000000000000000000081565b3480156104a457600080fd5b5061025e610e03565b3480156104b957600080fd5b506102da6104c8366004612133565b610e12565b3480156104d957600080fd5b506102c3610e61565b3480156104ee57600080fd5b506102da7f000000000000000000000000000000000000000000000000000000000000000081565b34801561052257600080fd5b506009546001600160a01b031661028b565b34801561054057600080fd5b5061025e610e75565b34801561055557600080fd5b506102c361056436600461214e565b610e84565b34801561057557600080fd5b506102da7f000000000000000000000000000000000000000000000000000000000000000081565b3480156105a957600080fd5b506102c3610f1a565b3480156105be57600080fd5b506102da6105cd366004612133565b611021565b3480156105de57600080fd5b506102c36105ed3660046121a0565b61102c565b3480156105fe57600080fd5b506102c361060d366004611f77565b61107d565b34801561061e57600080fd5b506102da600d5481565b34801561063457600080fd5b5061025e610643366004611f77565b61120d565b34801561065457600080fd5b506102da60085481565b34801561066a57600080fd5b5061023461067936600461227c565b6001600160a01b03918216600090815260076020908152604080832093909416825291909152205460ff1690565b3480156106b357600080fd5b506102c36106c2366004612133565b61129f565b60006001600160e01b031982166380ac58cd60e01b14806106f857506001600160e01b03198216635b5e139f60e01b145b8061071357506301ffc9a760e01b6001600160e01b03198316145b92915050565b606060028054610728906122af565b80601f0160208091040260200160405190810160405280929190818152602001828054610754906122af565b80156107a15780601f10610776576101008083540402835291602001916107a1565b820191906000526020600020905b81548152906001019060200180831161078457829003601f168201915b5050505050905090565b60006107b682611318565b6107d3576040516333d1c03960e21b815260040160405180910390fd5b506000908152600660205260409020546001600160a01b031690565b60006107fa82610df1565b9050806001600160a01b0316836001600160a01b0316141561082f5760405163250fdee360e21b815260040160405180910390fd5b336001600160a01b0382161480159061084f575061084d8133610679565b155b1561086d576040516367d9dca160e11b815260040160405180910390fd5b610878838383611343565b505050565b83833233146108a75760405162461bcd60e51b815260040161089e906122ea565b60405180910390fd5b7f00000000000000000000000000000000000000000000000000000000000000006108df836108d96001546000540390565b9061139f565b11156108fd5760405162461bcd60e51b815260040161089e9061232d565b6109277f0000000000000000000000000000000000000000000000000000000000000000836113ab565b34146109455760405162461bcd60e51b815260040161089e90612371565b6000341180156109555750600082115b6109715760405162461bcd60e51b815260040161089e906123b3565b8061097f836108d9336113b7565b111561099d5760405162461bcd60e51b815260040161089e90612404565b600d546000811180156109af57508042115b6109cb5760405162461bcd60e51b815260040161089e90612455565b6109d4336113b7565b15610a2d5760405162461bcd60e51b815260206004820152602360248201527f52686170736f647943726561746f722f696e76616c69642d646f75626c652d6d6044820152621a5b9d60ea1b606482015260840161089e565b610aa985858080602002602001604051908101604052809392919081815260200183836020028082843760009201919091525050600b546040516bffffffffffffffffffffffff193360601b166020820152603481018c90529092506054019050604051602081830303815290604052805190602001206113e6565b610b035760405162461bcd60e51b815260206004820152602560248201527f52686170736f647943726561746f722f696e76616c69642d616464726573732d604482015264383937b7b360d91b606482015260840161089e565b610b0d33886113fc565b60405187815233907f0ce3610e89a4bb9ec9359763f99110ed52a4abaea0b62028a1637e242ca2768b9060200160405180910390a250505050505050565b610878838383611416565b610b5e611606565b6002600a541415610bb15760405162461bcd60e51b815260206004820152601f60248201527f5265656e7472616e637947756172643a207265656e7472616e742063616c6c00604482015260640161089e565b6002600a55610bbf81611660565b506001600a55565b807f0000000000000000000000000000000000000000000000000000000000000000323314610c085760405162461bcd60e51b815260040161089e906122ea565b7f0000000000000000000000000000000000000000000000000000000000000000610c3a836108d96001546000540390565b1115610c585760405162461bcd60e51b815260040161089e9061232d565b610c827f0000000000000000000000000000000000000000000000000000000000000000836113ab565b3414610ca05760405162461bcd60e51b815260040161089e90612371565b600034118015610cb05750600082115b610ccc5760405162461bcd60e51b815260040161089e906123b3565b80610cda836108d9336113b7565b1115610cf85760405162461bcd60e51b815260040161089e90612404565b600e54600081118015610d0a57508042115b610d265760405162461bcd60e51b815260040161089e90612455565b610d3033856113fc565b60405184815233907f0ce3610e89a4bb9ec9359763f99110ed52a4abaea0b62028a1637e242ca2768b9060200160405180910390a250505050565b610d73611606565b600b55565b6108788383836040518060200160405280600081525061102c565b610d9b611606565b610dda82828080601f01602080910402602001604051908101604052809392919081815260200183838082843760009201919091525061179892505050565b5050565b610de6611606565b6108788383836117ab565b6000610dfc8261186f565b5192915050565b6060600f8054610728906122af565b60006001600160a01b038216610e3b576040516323d3ad8160e21b815260040160405180910390fd5b506001600160a01b031660009081526005602052604090205467ffffffffffffffff1690565b610e69611606565b610e73600061198b565b565b606060038054610728906122af565b6001600160a01b038216331415610eae5760405163b06307db60e01b815260040160405180910390fd5b3360008181526007602090815260408083206001600160a01b03871680855290835292819020805460ff191686151590811790915590519081529192917f17307eab39ab6107e8899845ad3d59bd9653f200f220920489ca2b5937696c31910160405180910390a35050565b610f22611606565b6002600a541415610f755760405162461bcd60e51b815260206004820152601f60248201527f5265656e7472616e637947756172643a207265656e7472616e742063616c6c00604482015260640161089e565b6002600a55604051600090339047908381818185875af1925050503d8060008114610fbc576040519150601f19603f3d011682016040523d82523d6000602084013e610fc1565b606091505b5050905080610bbf5760405162461bcd60e51b815260206004820152602660248201527f52686170736f647943726561746f722f696e76616c69642d77697468647261776044820152652d6d6f6e657960d01b606482015260840161089e565b6000610713826113b7565b611037848484611416565b6001600160a01b0383163b151580156110595750611057848484846119dd565b155b15611077576040516368d2bf6b60e11b815260040160405180910390fd5b50505050565b611085611606565b7f00000000000000000000000000000000000000000000000000000000000000006110b7826108d96001546000540390565b11156111165760405162461bcd60e51b815260206004820152602860248201527f52686170736f647943726561746f722f696e76616c69642d70726f6d6f74696f6044820152676e2d737570706c7960c01b606482015260840161089e565b7f00000000000000000000000000000000000000000000000000000000000000006111418282611ad5565b1561119d5760405162461bcd60e51b815260206004820152602660248201527f52686170736f647943726561746f722f696e76616c69642d62617463682d6d756044820152656c7469706c6560d01b606482015260840161089e565b60006111a98383611ae1565b905060005b818110156111d2576111c033846113fc565b806111ca816124ac565b9150506111ae565b5060405183815233907f0ce3610e89a4bb9ec9359763f99110ed52a4abaea0b62028a1637e242ca2768b9060200160405180910390a2505050565b606061121882611318565b61123557604051630a14c4b560e41b815260040160405180910390fd5b600061124c60408051602081019091526000815290565b905080516000141561126d5760405180602001604052806000815250611298565b8061127784611aed565b6040516020016112889291906124c7565b6040516020818303038152906040525b9392505050565b6112a7611606565b6001600160a01b03811661130c5760405162461bcd60e51b815260206004820152602660248201527f4f776e61626c653a206e6577206f776e657220697320746865207a65726f206160448201526564647265737360d01b606482015260840161089e565b6113158161198b565b50565b6000805482108015610713575050600090815260046020526040902054600160e01b900460ff161590565b60008281526006602052604080822080546001600160a01b0319166001600160a01b0387811691821790925591518593918516917f8c5be1e5ebec7d5bd14f71427d1e84f3dd0314c0f7b2291e5b200ac8c7c3b92591a4505050565b600061129882846124f6565b6000611298828461250e565b6001600160a01b038116600090815260056020526040812054600160401b900467ffffffffffffffff16610713565b6000826113f38584611beb565b14949350505050565b610dda828260405180602001604052806000815250611c38565b60006114218261186f565b9050836001600160a01b031681600001516001600160a01b0316146114585760405162a1148160e81b815260040160405180910390fd5b6000336001600160a01b038616148061147657506114768533610679565b80611491575033611486846107ab565b6001600160a01b0316145b9050806114b157604051632ce44b5f60e11b815260040160405180910390fd5b6001600160a01b0384166114d857604051633a954ecd60e21b815260040160405180910390fd5b6114e460008487611343565b6001600160a01b038581166000908152600560209081526040808320805467ffffffffffffffff1980821667ffffffffffffffff92831660001901831617909255898616808652838620805493841693831660019081018416949094179055898652600490945282852080546001600160e01b031916909417600160a01b429092169190910217835587018084529220805491939091166115ba5760005482146115ba578054602086015167ffffffffffffffff16600160a01b026001600160e01b03199091166001600160a01b038a16171781555b50505082846001600160a01b0316866001600160a01b03167fddf252ad1be2c89b69c2b068fc378daa952ba7f163c4a11628f55a4df523b3ef60405160405180910390a45b5050505050565b6009546001600160a01b03163314610e735760405162461bcd60e51b815260206004820181905260248201527f4f776e61626c653a2063616c6c6572206973206e6f7420746865206f776e6572604482015260640161089e565b8061167e576040516356be441560e01b815260040160405180910390fd5b60005461169e5760405163c0367cab60e01b815260040160405180910390fd5b600854806116aa575060005b60005481106116cc576040516370e89b1b60e01b815260040160405180910390fd5b60005482820160001981019110156116e75750600054600019015b815b81811161178d576000818152600460205260409020546001600160a01b031615801561172b5750600081815260046020526040902054600160e01b900460ff16155b1561178557600061173b8261186f565b805160008481526004602090815260409091208054919093015167ffffffffffffffff16600160a01b026001600160e01b03199091166001600160a01b0390921691909117179055505b6001016116e9565b506001016008555050565b8051610dda90600f906020840190611e40565b8282116118065760405162461bcd60e51b8152602060048201526024808201527f52686170736f647943726561746f722f696e76616c69642d70726573616c652d60448201526374696d6560e01b606482015260840161089e565b8181116118615760405162461bcd60e51b815260206004820152602360248201527f52686170736f647943726561746f722f696e76616c69642d7075626c69632d74604482015262696d6560e81b606482015260840161089e565b600c92909255600d55600e55565b60408051606081018252600080825260208201819052918101919091528160005481101561197257600081815260046020908152604091829020825160608101845290546001600160a01b0381168252600160a01b810467ffffffffffffffff1692820192909252600160e01b90910460ff161515918101829052906119705780516001600160a01b031615611906579392505050565b5060001901600081815260046020908152604091829020825160608101845290546001600160a01b038116808352600160a01b820467ffffffffffffffff1693830193909352600160e01b900460ff161515928101929092521561196b579392505050565b611906565b505b604051636f96cda160e11b815260040160405180910390fd5b600980546001600160a01b038381166001600160a01b0319831681179093556040519116919082907f8be0079c531659141344cd1fd0a4f28419497f9722a3daafe3b4186f6b6457e090600090a35050565b604051630a85bd0160e11b81526000906001600160a01b0385169063150b7a0290611a1290339089908890889060040161252d565b602060405180830381600087803b158015611a2c57600080fd5b505af1925050508015611a5c575060408051601f3d908101601f19168201909252611a599181019061256a565b60015b611ab7573d808015611a8a576040519150601f19603f3d011682016040523d82523d6000602084013e611a8f565b606091505b508051611aaf576040516368d2bf6b60e11b815260040160405180910390fd5b805181602001fd5b6001600160e01b031916630a85bd0160e11b1490505b949350505050565b6000611298828461259d565b600061129882846125b1565b606081611b115750506040805180820190915260018152600360fc1b602082015290565b8160005b8115611b3b5780611b25816124ac565b9150611b349050600a836125b1565b9150611b15565b60008167ffffffffffffffff811115611b5657611b5661218a565b6040519080825280601f01601f191660200182016040528015611b80576020820181803683370190505b5090505b8415611acd57611b956001836125c5565b9150611ba2600a8661259d565b611bad9060306124f6565b60f81b818381518110611bc257611bc26125dc565b60200101906001600160f81b031916908160001a905350611be4600a866125b1565b9450611b84565b600081815b8451811015611c3057611c1c82868381518110611c0f57611c0f6125dc565b6020026020010151611c45565b915080611c28816124ac565b915050611bf0565b509392505050565b6108788383836001611c74565b6000818310611c61576000828152602084905260409020611298565b6000838152602083905260409020611298565b6000546001600160a01b038516611c9d57604051622e076360e81b815260040160405180910390fd5b83611cbb5760405163b562e8dd60e01b815260040160405180910390fd5b6001600160a01b038516600081815260056020908152604080832080546fffffffffffffffffffffffffffffffff19811667ffffffffffffffff8083168c018116918217600160401b67ffffffffffffffff1990941690921783900481168c01811690920217909155858452600490925290912080546001600160e01b031916909217600160a01b429092169190910217905580808501838015611d6857506001600160a01b0387163b15155b15611df1575b60405182906001600160a01b038916906000907fddf252ad1be2c89b69c2b068fc378daa952ba7f163c4a11628f55a4df523b3ef908290a4611db960008884806001019550886119dd565b611dd6576040516368d2bf6b60e11b815260040160405180910390fd5b80821415611d6e578260005414611dec57600080fd5b611e37565b5b6040516001830192906001600160a01b038916906000907fddf252ad1be2c89b69c2b068fc378daa952ba7f163c4a11628f55a4df523b3ef908290a480821415611df2575b506000556115ff565b828054611e4c906122af565b90600052602060002090601f016020900481019282611e6e5760008555611eb4565b82601f10611e8757805160ff1916838001178555611eb4565b82800160010185558215611eb4579182015b82811115611eb4578251825591602001919060010190611e99565b50611ec0929150611ec4565b5090565b5b80821115611ec05760008155600101611ec5565b6001600160e01b03198116811461131557600080fd5b600060208284031215611f0157600080fd5b813561129881611ed9565b60005b83811015611f27578181015183820152602001611f0f565b838111156110775750506000910152565b60008151808452611f50816020860160208601611f0c565b601f01601f19169290920160200192915050565b6020815260006112986020830184611f38565b600060208284031215611f8957600080fd5b5035919050565b80356001600160a01b0381168114611fa757600080fd5b919050565b60008060408385031215611fbf57600080fd5b611fc883611f90565b946020939093013593505050565b60008060008060608587031215611fec57600080fd5b8435935060208501359250604085013567ffffffffffffffff8082111561201257600080fd5b818701915087601f83011261202657600080fd5b81358181111561203557600080fd5b8860208260051b850101111561204a57600080fd5b95989497505060200194505050565b60008060006060848603121561206e57600080fd5b61207784611f90565b925061208560208501611f90565b9150604084013590509250925092565b600080602083850312156120a857600080fd5b823567ffffffffffffffff808211156120c057600080fd5b818501915085601f8301126120d457600080fd5b8135818111156120e357600080fd5b8660208285010111156120f557600080fd5b60209290920196919550909350505050565b60008060006060848603121561211c57600080fd5b505081359360208301359350604090920135919050565b60006020828403121561214557600080fd5b61129882611f90565b6000806040838503121561216157600080fd5b61216a83611f90565b91506020830135801515811461217f57600080fd5b809150509250929050565b634e487b7160e01b600052604160045260246000fd5b600080600080608085870312156121b657600080fd5b6121bf85611f90565b93506121cd60208601611f90565b925060408501359150606085013567ffffffffffffffff808211156121f157600080fd5b818701915087601f83011261220557600080fd5b8135818111156122175761221761218a565b604051601f8201601f19908116603f0116810190838211818310171561223f5761223f61218a565b816040528281528a602084870101111561225857600080fd5b82602086016020830137600060208483010152809550505050505092959194509250565b6000806040838503121561228f57600080fd5b61229883611f90565b91506122a660208401611f90565b90509250929050565b600181811c908216806122c357607f821691505b602082108114156122e457634e487b7160e01b600052602260045260246000fd5b50919050565b60208082526023908201527f52686170736f647943726561746f722f696e76616c69642d6d696e742d63616c6040820152623632b960e91b606082015260800190565b60208082526024908201527f52686170736f647943726561746f722f696e76616c69642d746f74616c2d737560408201526370706c7960e01b606082015260800190565b60208082526022908201527f52686170736f647943726561746f722f696e76616c69642d6d696e742d76616c604082015261756560f01b606082015260800190565b60208082526031908201527f52686170736f647943726561746f722f696e76616c69642d696e766f636174696040820152706f6e2d6c6f7765722d626f756e6461727960781b606082015260800190565b60208082526031908201527f52686170736f647943726561746f722f696e76616c69642d696e766f636174696040820152706f6e2d75707065722d626f756e6461727960781b606082015260800190565b60208082526021908201527f52686170736f647943726561746f722f696e76616c69642d6d696e742d74696d6040820152606560f81b606082015260800190565b634e487b7160e01b600052601160045260246000fd5b60006000198214156124c0576124c0612496565b5060010190565b600083516124d9818460208801611f0c565b8351908301906124ed818360208801611f0c565b01949350505050565b6000821982111561250957612509612496565b500190565b600081600019048311821515161561252857612528612496565b500290565b6001600160a01b038581168252841660208201526040810183905260806060820181905260009061256090830184611f38565b9695505050505050565b60006020828403121561257c57600080fd5b815161129881611ed9565b634e487b7160e01b600052601260045260246000fd5b6000826125ac576125ac612587565b500690565b6000826125c0576125c0612587565b500490565b6000828210156125d7576125d7612496565b500390565b634e487b7160e01b600052603260045260246000fdfea264697066735822122005b0e9361ccd9aab029cc394358162181c360a3e2374a7dfff66c5abfe4d84d664736f6c63430008090033",
  "linkReferences": {},
  "deployedLinkReferences": {}
}