{
    "_format": "hh-sol-artifact-1",
    "contractName": "RhapsodyCreatorGenerative",
    "sourceName": "contracts/RhapsodyCreatorGenerative.sol",
    "abi": [
        {
            "inputs": [
                {
                    "internalType": "string",
                    "name": "_name",
                    "type": "string"
                },
                {
                    "internalType": "string",
                    "name": "_symbol",
                    "type": "string"
                },
                {
                    "internalType": "string",
                    "name": "_baseURI",
                    "type": "string"
                },
                {
                    "internalType": "uint256",
                    "name": "_collectionSize",
                    "type": "uint256"
                },
                {
                    "internalType": "uint256",
                    "name": "_maxPublicBatchPerAddress",
                    "type": "uint256"
                },
                {
                    "internalType": "uint256",
                    "name": "_amountForPromotion",
                    "type": "uint256"
                },
                {
                    "internalType": "uint256",
                    "name": "_mintPrice",
                    "type": "uint256"
                },
                {
                    "internalType": "uint256",
                    "name": "_claimTime",
                    "type": "uint256"
                },
                {
                    "internalType": "uint256",
                    "name": "_presaleTime",
                    "type": "uint256"
                },
                {
                    "internalType": "uint256",
                    "name": "_publicTime",
                    "type": "uint256"
                }
            ],
            "stateMutability": "nonpayable",
            "type": "constructor"
        },
        {
            "inputs": [],
            "name": "AllOwnershipsHaveBeenSet",
            "type": "error"
        },
        {
            "inputs": [],
            "name": "ApprovalCallerNotOwnerNorApproved",
            "type": "error"
        },
        {
            "inputs": [],
            "name": "ApprovalQueryForNonexistentToken",
            "type": "error"
        },
        {
            "inputs": [],
            "name": "ApprovalToCurrentOwner",
            "type": "error"
        },
        {
            "inputs": [],
            "name": "ApproveToCaller",
            "type": "error"
        },
        {
            "inputs": [],
            "name": "BalanceQueryForZeroAddress",
            "type": "error"
        },
        {
            "inputs": [],
            "name": "HashQueryForNonexistentToken",
            "type": "error"
        },
        {
            "inputs": [],
            "name": "MintToZeroAddress",
            "type": "error"
        },
        {
            "inputs": [],
            "name": "MintZeroQuantity",
            "type": "error"
        },
        {
            "inputs": [],
            "name": "NoTokensMintedYet",
            "type": "error"
        },
        {
            "inputs": [],
            "name": "OwnerQueryForNonexistentToken",
            "type": "error"
        },
        {
            "inputs": [],
            "name": "QuantityMustBeNonZero",
            "type": "error"
        },
        {
            "inputs": [],
            "name": "TransferCallerNotOwnerNorApproved",
            "type": "error"
        },
        {
            "inputs": [],
            "name": "TransferFromIncorrectOwner",
            "type": "error"
        },
        {
            "inputs": [],
            "name": "TransferToNonERC721ReceiverImplementer",
            "type": "error"
        },
        {
            "inputs": [],
            "name": "TransferToZeroAddress",
            "type": "error"
        },
        {
            "inputs": [],
            "name": "URIQueryForNonexistentToken",
            "type": "error"
        },
        {
            "anonymous": false,
            "inputs": [
                {
                    "indexed": true,
                    "internalType": "address",
                    "name": "owner",
                    "type": "address"
                },
                {
                    "indexed": true,
                    "internalType": "address",
                    "name": "approved",
                    "type": "address"
                },
                {
                    "indexed": true,
                    "internalType": "uint256",
                    "name": "tokenId",
                    "type": "uint256"
                }
            ],
            "name": "Approval",
            "type": "event"
        },
        {
            "anonymous": false,
            "inputs": [
                {
                    "indexed": true,
                    "internalType": "address",
                    "name": "owner",
                    "type": "address"
                },
                {
                    "indexed": true,
                    "internalType": "address",
                    "name": "operator",
                    "type": "address"
                },
                {
                    "indexed": false,
                    "internalType": "bool",
                    "name": "approved",
                    "type": "bool"
                }
            ],
            "name": "ApprovalForAll",
            "type": "event"
        },
        {
            "anonymous": false,
            "inputs": [
                {
                    "indexed": true,
                    "internalType": "address",
                    "name": "to",
                    "type": "address"
                },
                {
                    "indexed": false,
                    "internalType": "uint256",
                    "name": "currentTotalSupply",
                    "type": "uint256"
                },
                {
                    "indexed": false,
                    "internalType": "uint256",
                    "name": "invocations",
                    "type": "uint256"
                },
                {
                    "indexed": false,
                    "internalType": "bytes32[]",
                    "name": "identifiers",
                    "type": "bytes32[]"
                }
            ],
            "name": "Created",
            "type": "event"
        },
        {
            "anonymous": false,
            "inputs": [
                {
                    "indexed": true,
                    "internalType": "address",
                    "name": "previousOwner",
                    "type": "address"
                },
                {
                    "indexed": true,
                    "internalType": "address",
                    "name": "newOwner",
                    "type": "address"
                }
            ],
            "name": "OwnershipTransferred",
            "type": "event"
        },
        {
            "anonymous": false,
            "inputs": [
                {
                    "indexed": true,
                    "internalType": "address",
                    "name": "from",
                    "type": "address"
                },
                {
                    "indexed": true,
                    "internalType": "address",
                    "name": "to",
                    "type": "address"
                },
                {
                    "indexed": true,
                    "internalType": "uint256",
                    "name": "tokenId",
                    "type": "uint256"
                }
            ],
            "name": "Transfer",
            "type": "event"
        },
        {
            "inputs": [],
            "name": "amountForPromotion",
            "outputs": [
                {
                    "internalType": "uint256",
                    "name": "",
                    "type": "uint256"
                }
            ],
            "stateMutability": "view",
            "type": "function"
        },
        {
            "inputs": [
                {
                    "internalType": "address",
                    "name": "to",
                    "type": "address"
                },
                {
                    "internalType": "uint256",
                    "name": "tokenId",
                    "type": "uint256"
                }
            ],
            "name": "approve",
            "outputs": [],
            "stateMutability": "nonpayable",
            "type": "function"
        },
        {
            "inputs": [
                {
                    "internalType": "address",
                    "name": "owner",
                    "type": "address"
                }
            ],
            "name": "balanceOf",
            "outputs": [
                {
                    "internalType": "uint256",
                    "name": "",
                    "type": "uint256"
                }
            ],
            "stateMutability": "view",
            "type": "function"
        },
        {
            "inputs": [],
            "name": "baseURI",
            "outputs": [
                {
                    "internalType": "string",
                    "name": "",
                    "type": "string"
                }
            ],
            "stateMutability": "view",
            "type": "function"
        },
        {
            "inputs": [],
            "name": "claimMerkleRoot",
            "outputs": [
                {
                    "internalType": "bytes32",
                    "name": "",
                    "type": "bytes32"
                }
            ],
            "stateMutability": "view",
            "type": "function"
        },
        {
            "inputs": [
                {
                    "internalType": "uint256",
                    "name": "invocations",
                    "type": "uint256"
                },
                {
                    "internalType": "bytes32[]",
                    "name": "proof",
                    "type": "bytes32[]"
                }
            ],
            "name": "claimMint",
            "outputs": [],
            "stateMutability": "nonpayable",
            "type": "function"
        },
        {
            "inputs": [],
            "name": "claimTime",
            "outputs": [
                {
                    "internalType": "uint256",
                    "name": "",
                    "type": "uint256"
                }
            ],
            "stateMutability": "view",
            "type": "function"
        },
        {
            "inputs": [],
            "name": "collectionSize",
            "outputs": [
                {
                    "internalType": "uint256",
                    "name": "",
                    "type": "uint256"
                }
            ],
            "stateMutability": "view",
            "type": "function"
        },
        {
            "inputs": [
                {
                    "internalType": "uint256",
                    "name": "tokenId",
                    "type": "uint256"
                }
            ],
            "name": "getApproved",
            "outputs": [
                {
                    "internalType": "address",
                    "name": "",
                    "type": "address"
                }
            ],
            "stateMutability": "view",
            "type": "function"
        },
        {
            "inputs": [
                {
                    "internalType": "address",
                    "name": "owner",
                    "type": "address"
                },
                {
                    "internalType": "address",
                    "name": "operator",
                    "type": "address"
                }
            ],
            "name": "isApprovedForAll",
            "outputs": [
                {
                    "internalType": "bool",
                    "name": "",
                    "type": "bool"
                }
            ],
            "stateMutability": "view",
            "type": "function"
        },
        {
            "inputs": [],
            "name": "maxPublicBatchPerAddress",
            "outputs": [
                {
                    "internalType": "uint256",
                    "name": "",
                    "type": "uint256"
                }
            ],
            "stateMutability": "view",
            "type": "function"
        },
        {
            "inputs": [
                {
                    "internalType": "address",
                    "name": "_owner",
                    "type": "address"
                }
            ],
            "name": "mintOf",
            "outputs": [
                {
                    "internalType": "uint256",
                    "name": "",
                    "type": "uint256"
                }
            ],
            "stateMutability": "view",
            "type": "function"
        },
        {
            "inputs": [],
            "name": "mintPrice",
            "outputs": [
                {
                    "internalType": "uint256",
                    "name": "",
                    "type": "uint256"
                }
            ],
            "stateMutability": "view",
            "type": "function"
        },
        {
            "inputs": [],
            "name": "mintRandomizerContract",
            "outputs": [
                {
                    "internalType": "contract IRandomizer",
                    "name": "",
                    "type": "address"
                }
            ],
            "stateMutability": "view",
            "type": "function"
        },
        {
            "inputs": [],
            "name": "name",
            "outputs": [
                {
                    "internalType": "string",
                    "name": "",
                    "type": "string"
                }
            ],
            "stateMutability": "view",
            "type": "function"
        },
        {
            "inputs": [],
            "name": "nextOwnerToExplicitlySet",
            "outputs": [
                {
                    "internalType": "uint256",
                    "name": "",
                    "type": "uint256"
                }
            ],
            "stateMutability": "view",
            "type": "function"
        },
        {
            "inputs": [],
            "name": "owner",
            "outputs": [
                {
                    "internalType": "address",
                    "name": "",
                    "type": "address"
                }
            ],
            "stateMutability": "view",
            "type": "function"
        },
        {
            "inputs": [
                {
                    "internalType": "uint256",
                    "name": "tokenId",
                    "type": "uint256"
                }
            ],
            "name": "ownerOf",
            "outputs": [
                {
                    "internalType": "address",
                    "name": "",
                    "type": "address"
                }
            ],
            "stateMutability": "view",
            "type": "function"
        },
        {
            "inputs": [],
            "name": "presaleMerkleRoot",
            "outputs": [
                {
                    "internalType": "bytes32",
                    "name": "",
                    "type": "bytes32"
                }
            ],
            "stateMutability": "view",
            "type": "function"
        },
        {
            "inputs": [
                {
                    "internalType": "uint256",
                    "name": "invocations",
                    "type": "uint256"
                },
                {
                    "internalType": "uint256",
                    "name": "maxInvocation",
                    "type": "uint256"
                },
                {
                    "internalType": "bytes32[]",
                    "name": "proof",
                    "type": "bytes32[]"
                }
            ],
            "name": "presaleMint",
            "outputs": [],
            "stateMutability": "payable",
            "type": "function"
        },
        {
            "inputs": [],
            "name": "presaleTime",
            "outputs": [
                {
                    "internalType": "uint256",
                    "name": "",
                    "type": "uint256"
                }
            ],
            "stateMutability": "view",
            "type": "function"
        },
        {
            "inputs": [
                {
                    "internalType": "uint256",
                    "name": "invocations",
                    "type": "uint256"
                }
            ],
            "name": "promotionMint",
            "outputs": [],
            "stateMutability": "nonpayable",
            "type": "function"
        },
        {
            "inputs": [
                {
                    "internalType": "uint256",
                    "name": "invocations",
                    "type": "uint256"
                }
            ],
            "name": "publicMint",
            "outputs": [],
            "stateMutability": "payable",
            "type": "function"
        },
        {
            "inputs": [],
            "name": "publicTime",
            "outputs": [
                {
                    "internalType": "uint256",
                    "name": "",
                    "type": "uint256"
                }
            ],
            "stateMutability": "view",
            "type": "function"
        },
        {
            "inputs": [],
            "name": "renounceOwnership",
            "outputs": [],
            "stateMutability": "nonpayable",
            "type": "function"
        },
        {
            "inputs": [
                {
                    "internalType": "address",
                    "name": "from",
                    "type": "address"
                },
                {
                    "internalType": "address",
                    "name": "to",
                    "type": "address"
                },
                {
                    "internalType": "uint256",
                    "name": "tokenId",
                    "type": "uint256"
                }
            ],
            "name": "safeTransferFrom",
            "outputs": [],
            "stateMutability": "nonpayable",
            "type": "function"
        },
        {
            "inputs": [
                {
                    "internalType": "address",
                    "name": "from",
                    "type": "address"
                },
                {
                    "internalType": "address",
                    "name": "to",
                    "type": "address"
                },
                {
                    "internalType": "uint256",
                    "name": "tokenId",
                    "type": "uint256"
                },
                {
                    "internalType": "bytes",
                    "name": "_data",
                    "type": "bytes"
                }
            ],
            "name": "safeTransferFrom",
            "outputs": [],
            "stateMutability": "nonpayable",
            "type": "function"
        },
        {
            "inputs": [
                {
                    "internalType": "address",
                    "name": "operator",
                    "type": "address"
                },
                {
                    "internalType": "bool",
                    "name": "approved",
                    "type": "bool"
                }
            ],
            "name": "setApprovalForAll",
            "outputs": [],
            "stateMutability": "nonpayable",
            "type": "function"
        },
        {
            "inputs": [
                {
                    "internalType": "string",
                    "name": "newBaseURI",
                    "type": "string"
                }
            ],
            "name": "setBaseURI",
            "outputs": [],
            "stateMutability": "nonpayable",
            "type": "function"
        },
        {
            "inputs": [
                {
                    "internalType": "bytes32",
                    "name": "_claimMerkleRoot",
                    "type": "bytes32"
                }
            ],
            "name": "setClaimMerkleRoot",
            "outputs": [],
            "stateMutability": "nonpayable",
            "type": "function"
        },
        {
            "inputs": [
                {
                    "internalType": "address",
                    "name": "_mintRandomizerContract",
                    "type": "address"
                }
            ],
            "name": "setMintRandomizerContract",
            "outputs": [],
            "stateMutability": "nonpayable",
            "type": "function"
        },
        {
            "inputs": [
                {
                    "internalType": "uint256",
                    "name": "_claimTime",
                    "type": "uint256"
                },
                {
                    "internalType": "uint256",
                    "name": "_presaleTime",
                    "type": "uint256"
                },
                {
                    "internalType": "uint256",
                    "name": "_publicTime",
                    "type": "uint256"
                }
            ],
            "name": "setMintTime",
            "outputs": [],
            "stateMutability": "nonpayable",
            "type": "function"
        },
        {
            "inputs": [
                {
                    "internalType": "uint256",
                    "name": "quantity",
                    "type": "uint256"
                }
            ],
            "name": "setOwnersExplicit",
            "outputs": [],
            "stateMutability": "nonpayable",
            "type": "function"
        },
        {
            "inputs": [
                {
                    "internalType": "bytes32",
                    "name": "_presaleMerkleRoot",
                    "type": "bytes32"
                }
            ],
            "name": "setPresaleMerkleRoot",
            "outputs": [],
            "stateMutability": "nonpayable",
            "type": "function"
        },
        {
            "inputs": [
                {
                    "internalType": "bytes4",
                    "name": "interfaceId",
                    "type": "bytes4"
                }
            ],
            "name": "supportsInterface",
            "outputs": [
                {
                    "internalType": "bool",
                    "name": "",
                    "type": "bool"
                }
            ],
            "stateMutability": "view",
            "type": "function"
        },
        {
            "inputs": [],
            "name": "symbol",
            "outputs": [
                {
                    "internalType": "string",
                    "name": "",
                    "type": "string"
                }
            ],
            "stateMutability": "view",
            "type": "function"
        },
        {
            "inputs": [
                {
                    "internalType": "uint256",
                    "name": "_tokenId",
                    "type": "uint256"
                }
            ],
            "name": "tokenHash",
            "outputs": [
                {
                    "internalType": "bytes32",
                    "name": "",
                    "type": "bytes32"
                }
            ],
            "stateMutability": "view",
            "type": "function"
        },
        {
            "inputs": [
                {
                    "internalType": "uint256",
                    "name": "tokenId",
                    "type": "uint256"
                }
            ],
            "name": "tokenURI",
            "outputs": [
                {
                    "internalType": "string",
                    "name": "",
                    "type": "string"
                }
            ],
            "stateMutability": "view",
            "type": "function"
        },
        {
            "inputs": [],
            "name": "totalSupply",
            "outputs": [
                {
                    "internalType": "uint256",
                    "name": "",
                    "type": "uint256"
                }
            ],
            "stateMutability": "view",
            "type": "function"
        },
        {
            "inputs": [
                {
                    "internalType": "address",
                    "name": "from",
                    "type": "address"
                },
                {
                    "internalType": "address",
                    "name": "to",
                    "type": "address"
                },
                {
                    "internalType": "uint256",
                    "name": "tokenId",
                    "type": "uint256"
                }
            ],
            "name": "transferFrom",
            "outputs": [],
            "stateMutability": "nonpayable",
            "type": "function"
        },
        {
            "inputs": [
                {
                    "internalType": "address",
                    "name": "newOwner",
                    "type": "address"
                }
            ],
            "name": "transferOwnership",
            "outputs": [],
            "stateMutability": "nonpayable",
            "type": "function"
        },
        {
            "inputs": [],
            "name": "withdrawMoney",
            "outputs": [],
            "stateMutability": "nonpayable",
            "type": "function"
        }
    ],
    "bytecode": "0x6101006040523480156200001257600080fd5b50604051620031643803806200316483398101604081905262000035916200046b565b89518a908a906200004e906002906020850190620002f8565b50805162000064906003906020840190620002f8565b505060008055506200007633620001c5565b6001600a5586620000d75760405162461bcd60e51b8152602060048201526031602482015260008051602062003144833981519152604482015270642d636f6c6c656374696f6e2d73697a6560781b60648201526084015b60405180910390fd5b86851115620001335760405162461bcd60e51b8152602060048201526032602482015260008051602062003144833981519152604482015271190b5c1c9bdb5bdd1a5bdb8b585b5bdd5b9d60721b6064820152608401620000ce565b60008411620001895760405162461bcd60e51b815260206004820152602c60248201526000805160206200314483398151915260448201526b642d6d696e742d707269636560a01b6064820152608401620000ce565b60e087905260a0869052608085905260c0849052620001a88862000217565b620001b583838362000230565b505050505050505050506200057f565b600980546001600160a01b038381166001600160a01b0319831681179093556040519116919082907f8be0079c531659141344cd1fd0a4f28419497f9722a3daafe3b4186f6b6457e090600090a35050565b80516200022c906011906020840190620002f8565b5050565b8282116200028d5760405162461bcd60e51b8152602060048201526024808201527f52686170736f647943726561746f722f696e76616c69642d70726573616c652d60448201526374696d6560e01b6064820152608401620000ce565b818111620002ea5760405162461bcd60e51b815260206004820152602360248201527f52686170736f647943726561746f722f696e76616c69642d7075626c69632d74604482015262696d6560e81b6064820152608401620000ce565b600d92909255600e55600f55565b828054620003069062000542565b90600052602060002090601f0160209004810192826200032a576000855562000375565b82601f106200034557805160ff191683800117855562000375565b8280016001018555821562000375579182015b828111156200037557825182559160200191906001019062000358565b506200038392915062000387565b5090565b5b8082111562000383576000815560010162000388565b634e487b7160e01b600052604160045260246000fd5b600082601f830112620003c657600080fd5b81516001600160401b0380821115620003e357620003e36200039e565b604051601f8301601f19908116603f011681019082821181831017156200040e576200040e6200039e565b816040528381526020925086838588010111156200042b57600080fd5b600091505b838210156200044f578582018301518183018401529082019062000430565b83821115620004615760008385830101525b9695505050505050565b6000806000806000806000806000806101408b8d0312156200048c57600080fd5b8a516001600160401b0380821115620004a457600080fd5b620004b28e838f01620003b4565b9b5060208d0151915080821115620004c957600080fd5b620004d78e838f01620003b4565b9a5060408d0151915080821115620004ee57600080fd5b50620004fd8d828e01620003b4565b98505060608b0151965060808b0151955060a08b0151945060c08b0151935060e08b015192506101008b015191506101208b015190509295989b9194979a5092959850565b600181811c908216806200055757607f821691505b602082108114156200057957634e487b7160e01b600052602260045260246000fd5b50919050565b60805160a05160c05160e051612b53620005f16000396000818161044401528181610a2001528181610cd10152610f5e0152600081816104d801528181610ac60152610d7101526000818161065301528181610c91015261133401526000818161057601526112ab0152612b536000f3fe6080604052600436106102515760003560e01c806370a0823111610139578063a4babffd116100b6578063c6e62e0b1161007a578063c6e62e0b146106ea578063c87b56dd14610700578063d7224ba014610720578063e985e9c514610736578063f2fde38b1461077f578063fd1e29621461079f57600080fd5b8063a4babffd14610641578063ac44600214610675578063b1f536fa1461068a578063b88d4fde146106aa578063ba2f59c8146106ca57600080fd5b806395d89b41116100fd57806395d89b41146105b6578063993670f2146105cb5780639c4dab52146105eb578063a22cb46514610601578063a38643971461062157600080fd5b806370a082311461050f578063715018a61461052f57806372830dfd1461054457806376972db2146105645780638da5cb5b1461059857600080fd5b806327b3bf11116101d257806345c0f5331161019657806345c0f5331461043257806355f804b314610466578063617aa43c146104865780636352211e146104a65780636817c76c146104c65780636c0360eb146104fa57600080fd5b806327b3bf11146103a957806328d7b276146103bf5780632d20fb60146103df5780632db11544146103ff57806342842e0e1461041257600080fd5b806318160ddd1161021957806318160ddd146103275780631b59169d1461034a5780631bdc608e1461035d57806322212e2b1461037357806323b872dd1461038957600080fd5b806301ffc9a71461025657806306fdde031461028b578063081812fc146102ad578063095ea7b3146102e557806317ccc54b14610307575b600080fd5b34801561026257600080fd5b506102766102713660046122e1565b6107bf565b60405190151581526020015b60405180910390f35b34801561029757600080fd5b506102a0610811565b6040516102829190612356565b3480156102b957600080fd5b506102cd6102c8366004612369565b6108a3565b6040516001600160a01b039091168152602001610282565b3480156102f157600080fd5b5061030561030036600461239e565b6108e7565b005b34801561031357600080fd5b506103056103223660046123c8565b610975565b34801561033357600080fd5b50600154600054035b604051908152602001610282565b61030561035836600461242e565b61099f565b34801561036957600080fd5b5061033c600f5481565b34801561037f57600080fd5b5061033c600b5481565b34801561039557600080fd5b506103056103a4366004612480565b610be0565b3480156103b557600080fd5b5061033c600d5481565b3480156103cb57600080fd5b506103056103da366004612369565b610beb565b3480156103eb57600080fd5b506103056103fa366004612369565b610bf8565b61030561040d366004612369565b610c39565b34801561041e57600080fd5b5061030561042d366004612480565b610dea565b34801561043e57600080fd5b5061033c7f000000000000000000000000000000000000000000000000000000000000000081565b34801561047257600080fd5b506103056104813660046124bc565b610e05565b34801561049257600080fd5b506103056104a136600461252d565b610e50565b3480156104b257600080fd5b506102cd6104c1366004612369565b610e63565b3480156104d257600080fd5b5061033c7f000000000000000000000000000000000000000000000000000000000000000081565b34801561050657600080fd5b506102a0610e75565b34801561051b57600080fd5b5061033c61052a3660046123c8565b610e84565b34801561053b57600080fd5b50610305610ed2565b34801561055057600080fd5b5061030561055f366004612559565b610ee6565b34801561057057600080fd5b5061033c7f000000000000000000000000000000000000000000000000000000000000000081565b3480156105a457600080fd5b506009546001600160a01b03166102cd565b3480156105c257600080fd5b506102a0611096565b3480156105d757600080fd5b506012546102cd906001600160a01b031681565b3480156105f757600080fd5b5061033c600c5481565b34801561060d57600080fd5b5061030561061c3660046125a4565b6110a5565b34801561062d57600080fd5b5061033c61063c366004612369565b61113b565b34801561064d57600080fd5b5061033c7f000000000000000000000000000000000000000000000000000000000000000081565b34801561068157600080fd5b50610305611176565b34801561069657600080fd5b5061033c6106a53660046123c8565b611245565b3480156106b657600080fd5b506103056106c53660046125f6565b611250565b3480156106d657600080fd5b506103056106e5366004612369565b6112a1565b3480156106f657600080fd5b5061033c600e5481565b34801561070c57600080fd5b506102a061071b366004612369565b6113e6565b34801561072c57600080fd5b5061033c60085481565b34801561074257600080fd5b506102766107513660046126d1565b6001600160a01b03918216600090815260076020908152604080832093909416825291909152205460ff1690565b34801561078b57600080fd5b5061030561079a3660046123c8565b611478565b3480156107ab57600080fd5b506103056107ba366004612369565b6114f1565b60006001600160e01b031982166380ac58cd60e01b14806107f057506001600160e01b03198216635b5e139f60e01b145b8061080b57506301ffc9a760e01b6001600160e01b03198316145b92915050565b60606002805461082090612704565b80601f016020809104026020016040519081016040528092919081815260200182805461084c90612704565b80156108995780601f1061086e57610100808354040283529160200191610899565b820191906000526020600020905b81548152906001019060200180831161087c57829003601f168201915b5050505050905090565b60006108ae826114fe565b6108cb576040516333d1c03960e21b815260040160405180910390fd5b506000908152600660205260409020546001600160a01b031690565b60006108f282610e63565b9050806001600160a01b0316836001600160a01b031614156109275760405163250fdee360e21b815260040160405180910390fd5b336001600160a01b0382161480159061094757506109458133610751565b155b15610965576040516367d9dca160e11b815260040160405180910390fd5b610970838383611529565b505050565b61097d611585565b601280546001600160a01b0319166001600160a01b0392909216919091179055565b6002600a5414156109cb5760405162461bcd60e51b81526004016109c29061273f565b60405180910390fd5b6002600a55600e5480158015906109e157508042115b6109fd5760405162461bcd60e51b81526004016109c290612776565b8484323314610a1e5760405162461bcd60e51b81526004016109c2906127af565b7f0000000000000000000000000000000000000000000000000000000000000000610a5683610a506001546000540390565b906115df565b1115610a745760405162461bcd60e51b81526004016109c2906127ea565b80610a8283610a50336115eb565b1115610aa05760405162461bcd60e51b81526004016109c290612826565b60008211610ac05760405162461bcd60e51b81526004016109c290612871565b86610aeb7f000000000000000000000000000000000000000000000000000000000000000082611619565b3414610b095760405162461bcd60e51b81526004016109c2906128bc565b60003411610b295760405162461bcd60e51b81526004016109c290612871565b86338787600b54610ba6838380806020026020016040519081016040528093929190818152602001838360200280828437600092019190915250506040516001600160601b031960608a901b166020820152603481018a905285925060540190505b60405160208183030381529060405280519060200120611625565b610bc25760405162461bcd60e51b81526004016109c2906128f6565b610bcc338e61163b565b50506001600a555050505050505050505050565b610970838383611760565b610bf3611585565b600b55565b610c00611585565b6002600a541415610c235760405162461bcd60e51b81526004016109c29061273f565b6002600a55610c318161194e565b506001600a55565b6002600a541415610c5c5760405162461bcd60e51b81526004016109c29061273f565b6002600a55600f548015801590610c7257508042115b610c8e5760405162461bcd60e51b81526004016109c290612776565b817f0000000000000000000000000000000000000000000000000000000000000000323314610ccf5760405162461bcd60e51b81526004016109c2906127af565b7f0000000000000000000000000000000000000000000000000000000000000000610d0183610a506001546000540390565b1115610d1f5760405162461bcd60e51b81526004016109c2906127ea565b80610d2d83610a50336115eb565b1115610d4b5760405162461bcd60e51b81526004016109c290612826565b60008211610d6b5760405162461bcd60e51b81526004016109c290612871565b83610d967f000000000000000000000000000000000000000000000000000000000000000082611619565b3414610db45760405162461bcd60e51b81526004016109c2906128bc565b60003411610dd45760405162461bcd60e51b81526004016109c290612871565b610dde338661163b565b50506001600a55505050565b61097083838360405180602001604052806000815250611250565b610e0d611585565b610e4c82828080601f016020809104026020016040519081016040528093929190818152602001838380828437600092019190915250611a8592505050565b5050565b610e58611585565b610970838383611a98565b6000610e6e82611b5c565b5192915050565b60606011805461082090612704565b60006001600160a01b038216610ead576040516323d3ad8160e21b815260040160405180910390fd5b506001600160a01b03166000908152600560205260409020546001600160401b031690565b610eda611585565b610ee46000611c76565b565b6002600a541415610f095760405162461bcd60e51b81526004016109c29061273f565b6002600a55600d548015801590610f1f57508042115b610f3b5760405162461bcd60e51b81526004016109c290612776565b8380323314610f5c5760405162461bcd60e51b81526004016109c2906127af565b7f0000000000000000000000000000000000000000000000000000000000000000610f8e83610a506001546000540390565b1115610fac5760405162461bcd60e51b81526004016109c2906127ea565b80610fba83610a50336115eb565b1115610fd85760405162461bcd60e51b81526004016109c290612826565b60008211610ff85760405162461bcd60e51b81526004016109c290612871565b85338686600c5461105e838380806020026020016040519081016040528093929190818152602001838360200280828437600092019190915250506040516001600160601b031960608a901b166020820152603481018a90528592506054019050610b8b565b61107a5760405162461bcd60e51b81526004016109c2906128f6565b611084338c61163b565b50506001600a55505050505050505050565b60606003805461082090612704565b6001600160a01b0382163314156110cf5760405163b06307db60e01b815260040160405180910390fd5b3360008181526007602090815260408083206001600160a01b03871680855290835292819020805460ff191686151590811790915590519081529192917f17307eab39ab6107e8899845ad3d59bd9653f200f220920489ca2b5937696c31910160405180910390a35050565b6000611146826114fe565b6111635760405163963eb14f60e01b815260040160405180910390fd5b5060009081526010602052604090205490565b61117e611585565b6002600a5414156111a15760405162461bcd60e51b81526004016109c29061273f565b6002600a55604051600090339047908381818185875af1925050503d80600081146111e8576040519150601f19603f3d011682016040523d82523d6000602084013e6111ed565b606091505b5050905080610c315760405162461bcd60e51b81526020600482015260306024820152600080516020612afe83398151915260448201526f642d77697468647261772d6d6f6e657960801b60648201526084016109c2565b600061080b826115eb565b61125b848484611760565b6001600160a01b0383163b1515801561127d575061127b84848484611cc8565b155b1561129b576040516368d2bf6b60e11b815260040160405180910390fd5b50505050565b6112a9611585565b7f00000000000000000000000000000000000000000000000000000000000000006112db82610a506001546000540390565b11156113325760405162461bcd60e51b81526020600482015260326024820152600080516020612afe833981519152604482015271642d70726f6d6f74696f6e2d737570706c7960701b60648201526084016109c2565b7f000000000000000000000000000000000000000000000000000000000000000061135d8282611dc0565b156113b15760405162461bcd60e51b81526020600482015260306024820152600080516020612afe83398151915260448201526f642d62617463682d6d756c7469706c6560801b60648201526084016109c2565b60006113bd8383611dcc565b905060005b8181101561129b576113d4338461163b565b806113de81612949565b9150506113c2565b60606113f1826114fe565b61140e57604051630a14c4b560e41b815260040160405180910390fd5b600061142560408051602081019091526000815290565b90508051600014156114465760405180602001604052806000815250611471565b8061145084611dd8565b604051602001611461929190612964565b6040516020818303038152906040525b9392505050565b611480611585565b6001600160a01b0381166114e55760405162461bcd60e51b815260206004820152602660248201527f4f776e61626c653a206e6577206f776e657220697320746865207a65726f206160448201526564647265737360d01b60648201526084016109c2565b6114ee81611c76565b50565b6114f9611585565b600c55565b600080548210801561080b575050600090815260046020526040902054600160e01b900460ff161590565b60008281526006602052604080822080546001600160a01b0319166001600160a01b0387811691821790925591518593918516917f8c5be1e5ebec7d5bd14f71427d1e84f3dd0314c0f7b2291e5b200ac8c7c3b92591a4505050565b6009546001600160a01b03163314610ee45760405162461bcd60e51b815260206004820181905260248201527f4f776e61626c653a2063616c6c6572206973206e6f7420746865206f776e657260448201526064016109c2565b60006114718284612993565b6001600160a01b038116600090815260056020526040812054600160401b90046001600160401b031661080b565b600061147182846129ab565b6000826116328584611ed5565b14949350505050565b6116458282611f22565b60006116546001546000540390565b905060006116628284611f3c565b90506000836001600160401b0381111561167e5761167e6125e0565b6040519080825280602002602001820160405280156116a7578160200160208202803683370190505b50905060005b848110156117135760006116c184836115df565b905060006116ce82611f48565b9050808484815181106116e3576116e36129ca565b6020908102919091018101919091526000928352601090526040909120558061170b81612949565b9150506116ad565b50846001600160a01b03167f5cb27d2833c0b1f5f25192224a4f5c4573f3c2a9394c0a0a9a31c092e8879eb4848684604051611751939291906129e0565b60405180910390a25050505050565b600061176b82611b5c565b9050836001600160a01b031681600001516001600160a01b0316146117a25760405162a1148160e81b815260040160405180910390fd5b6000336001600160a01b03861614806117c057506117c08533610751565b806117db5750336117d0846108a3565b6001600160a01b0316145b9050806117fb57604051632ce44b5f60e11b815260040160405180910390fd5b6001600160a01b03841661182257604051633a954ecd60e21b815260040160405180910390fd5b61182e60008487611529565b6001600160a01b038581166000908152600560209081526040808320805467ffffffffffffffff198082166001600160401b0392831660001901831617909255898616808652838620805493841693831660019081018416949094179055898652600490945282852080546001600160e01b031916909417600160a01b4290921691909102178355870180845292208054919390911661190257600054821461190257805460208601516001600160401b0316600160a01b026001600160e01b03199091166001600160a01b038a16171781555b50505082846001600160a01b0316866001600160a01b03167fddf252ad1be2c89b69c2b068fc378daa952ba7f163c4a11628f55a4df523b3ef60405160405180910390a45b5050505050565b8061196c576040516356be441560e01b815260040160405180910390fd5b60005461198c5760405163c0367cab60e01b815260040160405180910390fd5b60085480611998575060005b60005481106119ba576040516370e89b1b60e01b815260040160405180910390fd5b60005482820160001981019110156119d55750600054600019015b815b818111611a7a576000818152600460205260409020546001600160a01b0316158015611a195750600081815260046020526040902054600160e01b900460ff16155b15611a72576000611a2982611b5c565b80516000848152600460209081526040909120805491909301516001600160401b0316600160a01b026001600160e01b03199091166001600160a01b0390921691909117179055505b6001016119d7565b506001016008555050565b8051610e4c906011906020840190612232565b828211611af35760405162461bcd60e51b8152602060048201526024808201527f52686170736f647943726561746f722f696e76616c69642d70726573616c652d60448201526374696d6560e01b60648201526084016109c2565b818111611b4e5760405162461bcd60e51b815260206004820152602360248201527f52686170736f647943726561746f722f696e76616c69642d7075626c69632d74604482015262696d6560e81b60648201526084016109c2565b600d92909255600e55600f55565b604080516060810182526000808252602082018190529181019190915281600054811015611c5d57600081815260046020908152604091829020825160608101845290546001600160a01b0381168252600160a01b81046001600160401b031692820192909252600160e01b90910460ff16151591810182905290611c5b5780516001600160a01b031615611bf2579392505050565b5060001901600081815260046020908152604091829020825160608101845290546001600160a01b038116808352600160a01b82046001600160401b031693830193909352600160e01b900460ff1615159281019290925215611c56579392505050565b611bf2565b505b604051636f96cda160e11b815260040160405180910390fd5b600980546001600160a01b038381166001600160a01b0319831681179093556040519116919082907f8be0079c531659141344cd1fd0a4f28419497f9722a3daafe3b4186f6b6457e090600090a35050565b604051630a85bd0160e11b81526000906001600160a01b0385169063150b7a0290611cfd903390899088908890600401612a35565b602060405180830381600087803b158015611d1757600080fd5b505af1925050508015611d47575060408051601f3d908101601f19168201909252611d4491810190612a72565b60015b611da2573d808015611d75576040519150601f19603f3d011682016040523d82523d6000602084013e611d7a565b606091505b508051611d9a576040516368d2bf6b60e11b815260040160405180910390fd5b805181602001fd5b6001600160e01b031916630a85bd0160e11b1490505b949350505050565b60006114718284612aa5565b60006114718284612ab9565b606081611dfc5750506040805180820190915260018152600360fc1b602082015290565b8160005b8115611e265780611e1081612949565b9150611e1f9050600a83612ab9565b9150611e00565b6000816001600160401b03811115611e4057611e406125e0565b6040519080825280601f01601f191660200182016040528015611e6a576020820181803683370190505b5090505b8415611db857611e7f600183612acd565b9150611e8c600a86612aa5565b611e97906030612993565b60f81b818381518110611eac57611eac6129ca565b60200101906001600160f81b031916908160001a905350611ece600a86612ab9565b9450611e6e565b600081815b8451811015611f1a57611f0682868381518110611ef957611ef96129ca565b6020026020010151612030565b915080611f1281612949565b915050611eda565b509392505050565b610e4c82826040518060200160405280600081525061205f565b60006114718284612acd565b60008132611f57600143612acd565b601260009054906101000a90046001600160a01b03166001600160a01b0316631486a2766040518163ffffffff1660e01b815260040160206040518083038186803b158015611fa557600080fd5b505afa158015611fb9573d6000803e3d6000fd5b505050506040513d601f19601f82011682018060405250810190611fdd9190612ae4565b604051602001612013949392919093845260609290921b6001600160601b03191660208401526034830152605482015260740190565b604051602081830303815290604052805190602001209050919050565b600081831061204c576000828152602084905260409020611471565b6000838152602083905260409020611471565b61097083838360016000546001600160a01b03851661209057604051622e076360e81b815260040160405180910390fd5b836120ae5760405163b562e8dd60e01b815260040160405180910390fd5b6001600160a01b038516600081815260056020908152604080832080546fffffffffffffffffffffffffffffffff1981166001600160401b038083168c018116918217600160401b67ffffffffffffffff1990941690921783900481168c01811690920217909155858452600490925290912080546001600160e01b031916909217600160a01b42909216919091021790558080850183801561215a57506001600160a01b0387163b15155b156121e3575b60405182906001600160a01b038916906000907fddf252ad1be2c89b69c2b068fc378daa952ba7f163c4a11628f55a4df523b3ef908290a46121ab6000888480600101955088611cc8565b6121c8576040516368d2bf6b60e11b815260040160405180910390fd5b808214156121605782600054146121de57600080fd5b612229565b5b6040516001830192906001600160a01b038916906000907fddf252ad1be2c89b69c2b068fc378daa952ba7f163c4a11628f55a4df523b3ef908290a4808214156121e4575b50600055611947565b82805461223e90612704565b90600052602060002090601f01602090048101928261226057600085556122a6565b82601f1061227957805160ff19168380011785556122a6565b828001600101855582156122a6579182015b828111156122a657825182559160200191906001019061228b565b506122b29291506122b6565b5090565b5b808211156122b257600081556001016122b7565b6001600160e01b0319811681146114ee57600080fd5b6000602082840312156122f357600080fd5b8135611471816122cb565b60005b83811015612319578181015183820152602001612301565b8381111561129b5750506000910152565b600081518084526123428160208601602086016122fe565b601f01601f19169290920160200192915050565b602081526000611471602083018461232a565b60006020828403121561237b57600080fd5b5035919050565b80356001600160a01b038116811461239957600080fd5b919050565b600080604083850312156123b157600080fd5b6123ba83612382565b946020939093013593505050565b6000602082840312156123da57600080fd5b61147182612382565b60008083601f8401126123f557600080fd5b5081356001600160401b0381111561240c57600080fd5b6020830191508360208260051b850101111561242757600080fd5b9250929050565b6000806000806060858703121561244457600080fd5b843593506020850135925060408501356001600160401b0381111561246857600080fd5b612474878288016123e3565b95989497509550505050565b60008060006060848603121561249557600080fd5b61249e84612382565b92506124ac60208501612382565b9150604084013590509250925092565b600080602083850312156124cf57600080fd5b82356001600160401b03808211156124e657600080fd5b818501915085601f8301126124fa57600080fd5b81358181111561250957600080fd5b86602082850101111561251b57600080fd5b60209290920196919550909350505050565b60008060006060848603121561254257600080fd5b505081359360208301359350604090920135919050565b60008060006040848603121561256e57600080fd5b8335925060208401356001600160401b0381111561258b57600080fd5b612597868287016123e3565b9497909650939450505050565b600080604083850312156125b757600080fd5b6125c083612382565b9150602083013580151581146125d557600080fd5b809150509250929050565b634e487b7160e01b600052604160045260246000fd5b6000806000806080858703121561260c57600080fd5b61261585612382565b935061262360208601612382565b92506040850135915060608501356001600160401b038082111561264657600080fd5b818701915087601f83011261265a57600080fd5b81358181111561266c5761266c6125e0565b604051601f8201601f19908116603f01168101908382118183101715612694576126946125e0565b816040528281528a60208487010111156126ad57600080fd5b82602086016020830137600060208483010152809550505050505092959194509250565b600080604083850312156126e457600080fd5b6126ed83612382565b91506126fb60208401612382565b90509250929050565b600181811c9082168061271857607f821691505b6020821081141561273957634e487b7160e01b600052602260045260246000fd5b50919050565b6020808252601f908201527f5265656e7472616e637947756172643a207265656e7472616e742063616c6c00604082015260600190565b6020808252602b90820152600080516020612afe83398151915260408201526a642d6d696e742d74696d6560a81b606082015260800190565b6020808252602d90820152600080516020612afe83398151915260408201526c3216b6b4b73a16b1b0b63632b960991b606082015260800190565b6020808252602e90820152600080516020612afe83398151915260408201526d642d746f74616c2d737570706c7960901b606082015260800190565b6020808252603b90820152600080516020612afe83398151915260408201527f642d696e766f636174696f6e2d75707065722d626f756e646172790000000000606082015260800190565b6020808252603b90820152600080516020612afe83398151915260408201527f642d696e766f636174696f6e2d6c6f7765722d626f756e646172790000000000606082015260800190565b6020808252602c90820152600080516020612afe83398151915260408201526b642d6d696e742d76616c756560a01b606082015260800190565b6020808252602f90820152600080516020612afe83398151915260408201526e3216b0b2323932b9b996b83937b7b360891b606082015260800190565b634e487b7160e01b600052601160045260246000fd5b600060001982141561295d5761295d612933565b5060010190565b600083516129768184602088016122fe565b83519083019061298a8183602088016122fe565b01949350505050565b600082198211156129a6576129a6612933565b500190565b60008160001904831182151516156129c5576129c5612933565b500290565b634e487b7160e01b600052603260045260246000fd5b6000606082018583526020858185015260606040850152818551808452608086019150828701935060005b81811015612a2757845183529383019391830191600101612a0b565b509098975050505050505050565b6001600160a01b0385811682528416602082015260408101839052608060608201819052600090612a689083018461232a565b9695505050505050565b600060208284031215612a8457600080fd5b8151611471816122cb565b634e487b7160e01b600052601260045260246000fd5b600082612ab457612ab4612a8f565b500690565b600082612ac857612ac8612a8f565b500490565b600082821015612adf57612adf612933565b500390565b600060208284031215612af657600080fd5b505191905056fe52686170736f647943726561746f7247656e657261746976652f696e76616c69a264697066735822122013bec988aa36f2519d324a2bb1c5598496e81deed8249f61cdcf6c36599748f764736f6c6343000809003352686170736f647943726561746f7247656e657261746976652f696e76616c69",
    "linkReferences": {},
    "deployedLinkReferences": {}
}