{
  "_format": "hh-sol-artifact-1",
  "contractName": "RhapsodyCreatorGenerative",
  "sourceName": "contracts/RhapsodyCreatorGenerative.sol",
  "abi": [
    {
      "inputs": [
        {
          "internalType": "string",
          "name": "_name",
          "type": "string"
        },
        {
          "internalType": "string",
          "name": "_symbol",
          "type": "string"
        },
        {
          "internalType": "uint256",
          "name": "_collectionSize",
          "type": "uint256"
        },
        {
          "internalType": "uint256",
          "name": "_maxPublicBatchPerAddress",
          "type": "uint256"
        },
        {
          "internalType": "uint256",
          "name": "_amountForPromotion",
          "type": "uint256"
        },
        {
          "internalType": "uint256",
          "name": "_mintPrice",
          "type": "uint256"
        }
      ],
      "stateMutability": "nonpayable",
      "type": "constructor"
    },
    {
      "inputs": [],
      "name": "AllOwnershipsHaveBeenSet",
      "type": "error"
    },
    {
      "inputs": [],
      "name": "ApprovalCallerNotOwnerNorApproved",
      "type": "error"
    },
    {
      "inputs": [],
      "name": "ApprovalQueryForNonexistentToken",
      "type": "error"
    },
    {
      "inputs": [],
      "name": "ApprovalToCurrentOwner",
      "type": "error"
    },
    {
      "inputs": [],
      "name": "ApproveToCaller",
      "type": "error"
    },
    {
      "inputs": [],
      "name": "BalanceQueryForZeroAddress",
      "type": "error"
    },
    {
      "inputs": [],
      "name": "HashQueryForNonexistentToken",
      "type": "error"
    },
    {
      "inputs": [],
      "name": "MintToZeroAddress",
      "type": "error"
    },
    {
      "inputs": [],
      "name": "MintZeroQuantity",
      "type": "error"
    },
    {
      "inputs": [],
      "name": "NoTokensMintedYet",
      "type": "error"
    },
    {
      "inputs": [],
      "name": "OwnerQueryForNonexistentToken",
      "type": "error"
    },
    {
      "inputs": [],
      "name": "QuantityMustBeNonZero",
      "type": "error"
    },
    {
      "inputs": [],
      "name": "TransferCallerNotOwnerNorApproved",
      "type": "error"
    },
    {
      "inputs": [],
      "name": "TransferFromIncorrectOwner",
      "type": "error"
    },
    {
      "inputs": [],
      "name": "TransferToNonERC721ReceiverImplementer",
      "type": "error"
    },
    {
      "inputs": [],
      "name": "TransferToZeroAddress",
      "type": "error"
    },
    {
      "inputs": [],
      "name": "URIQueryForNonexistentToken",
      "type": "error"
    },
    {
      "anonymous": false,
      "inputs": [
        {
          "indexed": true,
          "internalType": "address",
          "name": "owner",
          "type": "address"
        },
        {
          "indexed": true,
          "internalType": "address",
          "name": "approved",
          "type": "address"
        },
        {
          "indexed": true,
          "internalType": "uint256",
          "name": "tokenId",
          "type": "uint256"
        }
      ],
      "name": "Approval",
      "type": "event"
    },
    {
      "anonymous": false,
      "inputs": [
        {
          "indexed": true,
          "internalType": "address",
          "name": "owner",
          "type": "address"
        },
        {
          "indexed": true,
          "internalType": "address",
          "name": "operator",
          "type": "address"
        },
        {
          "indexed": false,
          "internalType": "bool",
          "name": "approved",
          "type": "bool"
        }
      ],
      "name": "ApprovalForAll",
      "type": "event"
    },
    {
      "anonymous": false,
      "inputs": [
        {
          "indexed": true,
          "internalType": "address",
          "name": "to",
          "type": "address"
        },
        {
          "indexed": false,
          "internalType": "uint256",
          "name": "currentTotalSupply",
          "type": "uint256"
        },
        {
          "indexed": false,
          "internalType": "uint256",
          "name": "invocations",
          "type": "uint256"
        },
        {
          "indexed": false,
          "internalType": "bytes32[]",
          "name": "identifiers",
          "type": "bytes32[]"
        }
      ],
      "name": "Created",
      "type": "event"
    },
    {
      "anonymous": false,
      "inputs": [
        {
          "indexed": true,
          "internalType": "address",
          "name": "previousOwner",
          "type": "address"
        },
        {
          "indexed": true,
          "internalType": "address",
          "name": "newOwner",
          "type": "address"
        }
      ],
      "name": "OwnershipTransferred",
      "type": "event"
    },
    {
      "anonymous": false,
      "inputs": [
        {
          "indexed": true,
          "internalType": "address",
          "name": "from",
          "type": "address"
        },
        {
          "indexed": true,
          "internalType": "address",
          "name": "to",
          "type": "address"
        },
        {
          "indexed": true,
          "internalType": "uint256",
          "name": "tokenId",
          "type": "uint256"
        }
      ],
      "name": "Transfer",
      "type": "event"
    },
    {
      "inputs": [],
      "name": "amountForPromotion",
      "outputs": [
        {
          "internalType": "uint256",
          "name": "",
          "type": "uint256"
        }
      ],
      "stateMutability": "view",
      "type": "function"
    },
    {
      "inputs": [
        {
          "internalType": "address",
          "name": "to",
          "type": "address"
        },
        {
          "internalType": "uint256",
          "name": "tokenId",
          "type": "uint256"
        }
      ],
      "name": "approve",
      "outputs": [],
      "stateMutability": "nonpayable",
      "type": "function"
    },
    {
      "inputs": [
        {
          "internalType": "address",
          "name": "owner",
          "type": "address"
        }
      ],
      "name": "balanceOf",
      "outputs": [
        {
          "internalType": "uint256",
          "name": "",
          "type": "uint256"
        }
      ],
      "stateMutability": "view",
      "type": "function"
    },
    {
      "inputs": [],
      "name": "baseURI",
      "outputs": [
        {
          "internalType": "string",
          "name": "",
          "type": "string"
        }
      ],
      "stateMutability": "view",
      "type": "function"
    },
    {
      "inputs": [],
      "name": "claimMerkleRoot",
      "outputs": [
        {
          "internalType": "bytes32",
          "name": "",
          "type": "bytes32"
        }
      ],
      "stateMutability": "view",
      "type": "function"
    },
    {
      "inputs": [
        {
          "internalType": "uint256",
          "name": "invocations",
          "type": "uint256"
        },
        {
          "internalType": "bytes32[]",
          "name": "proof",
          "type": "bytes32[]"
        }
      ],
      "name": "claimMint",
      "outputs": [],
      "stateMutability": "nonpayable",
      "type": "function"
    },
    {
      "inputs": [],
      "name": "claimTime",
      "outputs": [
        {
          "internalType": "uint256",
          "name": "",
          "type": "uint256"
        }
      ],
      "stateMutability": "view",
      "type": "function"
    },
    {
      "inputs": [
        {
          "internalType": "uint256",
          "name": "tokenId",
          "type": "uint256"
        }
      ],
      "name": "getApproved",
      "outputs": [
        {
          "internalType": "address",
          "name": "",
          "type": "address"
        }
      ],
      "stateMutability": "view",
      "type": "function"
    },
    {
      "inputs": [
        {
          "internalType": "address",
          "name": "owner",
          "type": "address"
        },
        {
          "internalType": "address",
          "name": "operator",
          "type": "address"
        }
      ],
      "name": "isApprovedForAll",
      "outputs": [
        {
          "internalType": "bool",
          "name": "",
          "type": "bool"
        }
      ],
      "stateMutability": "view",
      "type": "function"
    },
    {
      "inputs": [],
      "name": "maxPublicBatchPerAddress",
      "outputs": [
        {
          "internalType": "uint256",
          "name": "",
          "type": "uint256"
        }
      ],
      "stateMutability": "view",
      "type": "function"
    },
    {
      "inputs": [
        {
          "internalType": "address",
          "name": "_owner",
          "type": "address"
        }
      ],
      "name": "mintOf",
      "outputs": [
        {
          "internalType": "uint256",
          "name": "",
          "type": "uint256"
        }
      ],
      "stateMutability": "view",
      "type": "function"
    },
    {
      "inputs": [],
      "name": "mintPrice",
      "outputs": [
        {
          "internalType": "uint256",
          "name": "",
          "type": "uint256"
        }
      ],
      "stateMutability": "view",
      "type": "function"
    },
    {
      "inputs": [],
      "name": "mintRandomizerContract",
      "outputs": [
        {
          "internalType": "contract IRandomizer",
          "name": "",
          "type": "address"
        }
      ],
      "stateMutability": "view",
      "type": "function"
    },
    {
      "inputs": [],
      "name": "name",
      "outputs": [
        {
          "internalType": "string",
          "name": "",
          "type": "string"
        }
      ],
      "stateMutability": "view",
      "type": "function"
    },
    {
      "inputs": [],
      "name": "nextOwnerToExplicitlySet",
      "outputs": [
        {
          "internalType": "uint256",
          "name": "",
          "type": "uint256"
        }
      ],
      "stateMutability": "view",
      "type": "function"
    },
    {
      "inputs": [],
      "name": "owner",
      "outputs": [
        {
          "internalType": "address",
          "name": "",
          "type": "address"
        }
      ],
      "stateMutability": "view",
      "type": "function"
    },
    {
      "inputs": [
        {
          "internalType": "uint256",
          "name": "tokenId",
          "type": "uint256"
        }
      ],
      "name": "ownerOf",
      "outputs": [
        {
          "internalType": "address",
          "name": "",
          "type": "address"
        }
      ],
      "stateMutability": "view",
      "type": "function"
    },
    {
      "inputs": [],
      "name": "presaleMerkleRoot",
      "outputs": [
        {
          "internalType": "bytes32",
          "name": "",
          "type": "bytes32"
        }
      ],
      "stateMutability": "view",
      "type": "function"
    },
    {
      "inputs": [
        {
          "internalType": "uint256",
          "name": "invocations",
          "type": "uint256"
        },
        {
          "internalType": "uint256",
          "name": "maxInvocation",
          "type": "uint256"
        },
        {
          "internalType": "bytes32[]",
          "name": "proof",
          "type": "bytes32[]"
        }
      ],
      "name": "presaleMint",
      "outputs": [],
      "stateMutability": "payable",
      "type": "function"
    },
    {
      "inputs": [],
      "name": "presaleTime",
      "outputs": [
        {
          "internalType": "uint256",
          "name": "",
          "type": "uint256"
        }
      ],
      "stateMutability": "view",
      "type": "function"
    },
    {
      "inputs": [
        {
          "internalType": "uint256",
          "name": "invocations",
          "type": "uint256"
        }
      ],
      "name": "promotionMint",
      "outputs": [],
      "stateMutability": "nonpayable",
      "type": "function"
    },
    {
      "inputs": [
        {
          "internalType": "uint256",
          "name": "invocations",
          "type": "uint256"
        }
      ],
      "name": "publicMint",
      "outputs": [],
      "stateMutability": "payable",
      "type": "function"
    },
    {
      "inputs": [],
      "name": "publicTime",
      "outputs": [
        {
          "internalType": "uint256",
          "name": "",
          "type": "uint256"
        }
      ],
      "stateMutability": "view",
      "type": "function"
    },
    {
      "inputs": [],
      "name": "renounceOwnership",
      "outputs": [],
      "stateMutability": "nonpayable",
      "type": "function"
    },
    {
      "inputs": [
        {
          "internalType": "address",
          "name": "from",
          "type": "address"
        },
        {
          "internalType": "address",
          "name": "to",
          "type": "address"
        },
        {
          "internalType": "uint256",
          "name": "tokenId",
          "type": "uint256"
        }
      ],
      "name": "safeTransferFrom",
      "outputs": [],
      "stateMutability": "nonpayable",
      "type": "function"
    },
    {
      "inputs": [
        {
          "internalType": "address",
          "name": "from",
          "type": "address"
        },
        {
          "internalType": "address",
          "name": "to",
          "type": "address"
        },
        {
          "internalType": "uint256",
          "name": "tokenId",
          "type": "uint256"
        },
        {
          "internalType": "bytes",
          "name": "_data",
          "type": "bytes"
        }
      ],
      "name": "safeTransferFrom",
      "outputs": [],
      "stateMutability": "nonpayable",
      "type": "function"
    },
    {
      "inputs": [
        {
          "internalType": "address",
          "name": "operator",
          "type": "address"
        },
        {
          "internalType": "bool",
          "name": "approved",
          "type": "bool"
        }
      ],
      "name": "setApprovalForAll",
      "outputs": [],
      "stateMutability": "nonpayable",
      "type": "function"
    },
    {
      "inputs": [
        {
          "internalType": "string",
          "name": "newBaseURI",
          "type": "string"
        }
      ],
      "name": "setBaseURI",
      "outputs": [],
      "stateMutability": "nonpayable",
      "type": "function"
    },
    {
      "inputs": [
        {
          "internalType": "bytes32",
          "name": "_claimMerkleRoot",
          "type": "bytes32"
        }
      ],
      "name": "setClaimMerkleRoot",
      "outputs": [],
      "stateMutability": "nonpayable",
      "type": "function"
    },
    {
      "inputs": [
        {
          "internalType": "address",
          "name": "_mintRandomizerContract",
          "type": "address"
        }
      ],
      "name": "setMintRandomizerContract",
      "outputs": [],
      "stateMutability": "nonpayable",
      "type": "function"
    },
    {
      "inputs": [
        {
          "internalType": "uint256",
          "name": "_claimTime",
          "type": "uint256"
        },
        {
          "internalType": "uint256",
          "name": "_presaleTime",
          "type": "uint256"
        },
        {
          "internalType": "uint256",
          "name": "_publicTime",
          "type": "uint256"
        }
      ],
      "name": "setMintTime",
      "outputs": [],
      "stateMutability": "nonpayable",
      "type": "function"
    },
    {
      "inputs": [
        {
          "internalType": "uint256",
          "name": "quantity",
          "type": "uint256"
        }
      ],
      "name": "setOwnersExplicit",
      "outputs": [],
      "stateMutability": "nonpayable",
      "type": "function"
    },
    {
      "inputs": [
        {
          "internalType": "bytes32",
          "name": "_presaleMerkleRoot",
          "type": "bytes32"
        }
      ],
      "name": "setPresaleMerkleRoot",
      "outputs": [],
      "stateMutability": "nonpayable",
      "type": "function"
    },
    {
      "inputs": [
        {
          "internalType": "bytes4",
          "name": "interfaceId",
          "type": "bytes4"
        }
      ],
      "name": "supportsInterface",
      "outputs": [
        {
          "internalType": "bool",
          "name": "",
          "type": "bool"
        }
      ],
      "stateMutability": "view",
      "type": "function"
    },
    {
      "inputs": [],
      "name": "symbol",
      "outputs": [
        {
          "internalType": "string",
          "name": "",
          "type": "string"
        }
      ],
      "stateMutability": "view",
      "type": "function"
    },
    {
      "inputs": [
        {
          "internalType": "uint256",
          "name": "_tokenId",
          "type": "uint256"
        }
      ],
      "name": "tokenHash",
      "outputs": [
        {
          "internalType": "bytes32",
          "name": "",
          "type": "bytes32"
        }
      ],
      "stateMutability": "view",
      "type": "function"
    },
    {
      "inputs": [
        {
          "internalType": "uint256",
          "name": "tokenId",
          "type": "uint256"
        }
      ],
      "name": "tokenURI",
      "outputs": [
        {
          "internalType": "string",
          "name": "",
          "type": "string"
        }
      ],
      "stateMutability": "view",
      "type": "function"
    },
    {
      "inputs": [],
      "name": "totalSupply",
      "outputs": [
        {
          "internalType": "uint256",
          "name": "",
          "type": "uint256"
        }
      ],
      "stateMutability": "view",
      "type": "function"
    },
    {
      "inputs": [
        {
          "internalType": "address",
          "name": "from",
          "type": "address"
        },
        {
          "internalType": "address",
          "name": "to",
          "type": "address"
        },
        {
          "internalType": "uint256",
          "name": "tokenId",
          "type": "uint256"
        }
      ],
      "name": "transferFrom",
      "outputs": [],
      "stateMutability": "nonpayable",
      "type": "function"
    },
    {
      "inputs": [
        {
          "internalType": "address",
          "name": "newOwner",
          "type": "address"
        }
      ],
      "name": "transferOwnership",
      "outputs": [],
      "stateMutability": "nonpayable",
      "type": "function"
    },
    {
      "inputs": [],
      "name": "withdrawMoney",
      "outputs": [],
      "stateMutability": "nonpayable",
      "type": "function"
    }
  ],
  "bytecode": "0x6101006040523480156200001257600080fd5b506040516200309d3803806200309d833981016040819052620000359162000369565b8551869086906200004e906002906020850190620001f6565b50805162000064906003906020840190620001f6565b505060008055506200007633620001a4565b6001600a5583620000d75760405162461bcd60e51b815260206004820152603160248201526000805160206200307d833981519152604482015270642d636f6c6c656374696f6e2d73697a6560781b60648201526084015b60405180910390fd5b83821115620001335760405162461bcd60e51b815260206004820152603260248201526000805160206200307d833981519152604482015271190b5c1c9bdb5bdd1a5bdb8b585b5bdd5b9d60721b6064820152608401620000ce565b60008111620001895760405162461bcd60e51b815260206004820152602c60248201526000805160206200307d83398151915260448201526b642d6d696e742d707269636560a01b6064820152608401620000ce565b60e09390935260a09190915260805260c05250620004359050565b600980546001600160a01b038381166001600160a01b0319831681179093556040519116919082907f8be0079c531659141344cd1fd0a4f28419497f9722a3daafe3b4186f6b6457e090600090a35050565b8280546200020490620003f8565b90600052602060002090601f01602090048101928262000228576000855562000273565b82601f106200024357805160ff191683800117855562000273565b8280016001018555821562000273579182015b828111156200027357825182559160200191906001019062000256565b506200028192915062000285565b5090565b5b8082111562000281576000815560010162000286565b634e487b7160e01b600052604160045260246000fd5b600082601f830112620002c457600080fd5b81516001600160401b0380821115620002e157620002e16200029c565b604051601f8301601f19908116603f011681019082821181831017156200030c576200030c6200029c565b816040528381526020925086838588010111156200032957600080fd5b600091505b838210156200034d57858201830151818301840152908201906200032e565b838211156200035f5760008385830101525b9695505050505050565b60008060008060008060c087890312156200038357600080fd5b86516001600160401b03808211156200039b57600080fd5b620003a98a838b01620002b2565b97506020890151915080821115620003c057600080fd5b50620003cf89828a01620002b2565b95505060408701519350606087015192506080870151915060a087015190509295509295509295565b600181811c908216806200040d57607f821691505b602082108114156200042f57634e487b7160e01b600052602260045260246000fd5b50919050565b60805160a05160c05160e051612bdd620004a060003960008181610a0301528181610cf8015261105e01526000818161049901528181610aa90152610d9801526000818161061401528181610cb8015261147801526000818161053701526113ef0152612bdd6000f3fe6080604052600436106102465760003560e01c806370a0823111610139578063a4babffd116100b6578063c6e62e0b1161007a578063c6e62e0b146106ab578063c87b56dd146106c1578063d7224ba0146106e1578063e985e9c5146106f7578063f2fde38b14610740578063fd1e29621461076057600080fd5b8063a4babffd14610602578063ac44600214610636578063b1f536fa1461064b578063b88d4fde1461066b578063ba2f59c81461068b57600080fd5b806395d89b41116100fd57806395d89b4114610577578063993670f21461058c5780639c4dab52146105ac578063a22cb465146105c2578063a3864397146105e257600080fd5b806370a08231146104d0578063715018a6146104f057806372830dfd1461050557806376972db2146105255780638da5cb5b1461055957600080fd5b806327b3bf11116101c757806355f804b31161018b57806355f804b314610427578063617aa43c146104475780636352211e146104675780636817c76c146104875780636c0360eb146104bb57600080fd5b806327b3bf111461039e57806328d7b276146103b45780632d20fb60146103d45780632db11544146103f457806342842e0e1461040757600080fd5b806318160ddd1161020e57806318160ddd1461031c5780631b59169d1461033f5780631bdc608e1461035257806322212e2b1461036857806323b872dd1461037e57600080fd5b806301ffc9a71461024b57806306fdde0314610280578063081812fc146102a2578063095ea7b3146102da57806317ccc54b146102fc575b600080fd5b34801561025757600080fd5b5061026b610266366004612336565b610780565b60405190151581526020015b60405180910390f35b34801561028c57600080fd5b506102956107d2565b60405161027791906123ab565b3480156102ae57600080fd5b506102c26102bd3660046123be565b610864565b6040516001600160a01b039091168152602001610277565b3480156102e657600080fd5b506102fa6102f53660046123f3565b6108a8565b005b34801561030857600080fd5b506102fa61031736600461241d565b610936565b34801561032857600080fd5b50600154600054035b604051908152602001610277565b6102fa61034d366004612483565b61098b565b34801561035e57600080fd5b50610331600f5481565b34801561037457600080fd5b50610331600b5481565b34801561038a57600080fd5b506102fa6103993660046124d5565b610bc3565b3480156103aa57600080fd5b50610331600d5481565b3480156103c057600080fd5b506102fa6103cf3660046123be565b610bce565b3480156103e057600080fd5b506102fa6103ef3660046123be565b610bfd565b6102fa6104023660046123be565b610c60565b34801561041357600080fd5b506102fa6104223660046124d5565b610e11565b34801561043357600080fd5b506102fa610442366004612511565b610e2c565b34801561045357600080fd5b506102fa610462366004612582565b610e62565b34801561047357600080fd5b506102c26104823660046123be565b610f41565b34801561049357600080fd5b506103317f000000000000000000000000000000000000000000000000000000000000000081565b3480156104c757600080fd5b50610295610f53565b3480156104dc57600080fd5b506103316104eb36600461241d565b610f62565b3480156104fc57600080fd5b506102fa610fb0565b34801561051157600080fd5b506102fa6105203660046125ae565b610fe6565b34801561053157600080fd5b506103317f000000000000000000000000000000000000000000000000000000000000000081565b34801561056557600080fd5b506009546001600160a01b03166102c2565b34801561058357600080fd5b50610295611196565b34801561059857600080fd5b506012546102c2906001600160a01b031681565b3480156105b857600080fd5b50610331600c5481565b3480156105ce57600080fd5b506102fa6105dd3660046125f9565b6111a5565b3480156105ee57600080fd5b506103316105fd3660046123be565b61123b565b34801561060e57600080fd5b506103317f000000000000000000000000000000000000000000000000000000000000000081565b34801561064257600080fd5b506102fa611276565b34801561065757600080fd5b5061033161066636600461241d565b611367565b34801561067757600080fd5b506102fa61068636600461264b565b611372565b34801561069757600080fd5b506102fa6106a63660046123be565b6113c3565b3480156106b757600080fd5b50610331600e5481565b3480156106cd57600080fd5b506102956106dc3660046123be565b61152a565b3480156106ed57600080fd5b5061033160085481565b34801561070357600080fd5b5061026b610712366004612726565b6001600160a01b03918216600090815260076020908152604080832093909416825291909152205460ff1690565b34801561074c57600080fd5b506102fa61075b36600461241d565b6115af565b34801561076c57600080fd5b506102fa61077b3660046123be565b61164a565b60006001600160e01b031982166380ac58cd60e01b14806107b157506001600160e01b03198216635b5e139f60e01b145b806107cc57506301ffc9a760e01b6001600160e01b03198316145b92915050565b6060600280546107e190612759565b80601f016020809104026020016040519081016040528092919081815260200182805461080d90612759565b801561085a5780601f1061082f5761010080835404028352916020019161085a565b820191906000526020600020905b81548152906001019060200180831161083d57829003601f168201915b5050505050905090565b600061086f82611679565b61088c576040516333d1c03960e21b815260040160405180910390fd5b506000908152600660205260409020546001600160a01b031690565b60006108b382610f41565b9050806001600160a01b0316836001600160a01b031614156108e85760405163250fdee360e21b815260040160405180910390fd5b336001600160a01b0382161480159061090857506109068133610712565b155b15610926576040516367d9dca160e11b815260040160405180910390fd5b6109318383836116a4565b505050565b6009546001600160a01b031633146109695760405162461bcd60e51b815260040161096090612794565b60405180910390fd5b601280546001600160a01b0319166001600160a01b0392909216919091179055565b6002600a5414156109ae5760405162461bcd60e51b8152600401610960906127c9565b6002600a55600e5480158015906109c457508042115b6109e05760405162461bcd60e51b815260040161096090612800565b8484323314610a015760405162461bcd60e51b815260040161096090612839565b7f0000000000000000000000000000000000000000000000000000000000000000610a3983610a336001546000540390565b90611700565b1115610a575760405162461bcd60e51b815260040161096090612874565b80610a6583610a333361170c565b1115610a835760405162461bcd60e51b8152600401610960906128b0565b60008211610aa35760405162461bcd60e51b8152600401610960906128fb565b86610ace7f00000000000000000000000000000000000000000000000000000000000000008261173a565b3414610aec5760405162461bcd60e51b815260040161096090612946565b60003411610b0c5760405162461bcd60e51b8152600401610960906128fb565b86338787600b54610b89838380806020026020016040519081016040528093929190818152602001838360200280828437600092019190915250506040516001600160601b031960608a901b166020820152603481018a905285925060540190505b60405160208183030381529060405280519060200120611746565b610ba55760405162461bcd60e51b815260040161096090612980565b610baf338e61175c565b50506001600a555050505050505050505050565b610931838383611881565b6009546001600160a01b03163314610bf85760405162461bcd60e51b815260040161096090612794565b600b55565b6009546001600160a01b03163314610c275760405162461bcd60e51b815260040161096090612794565b6002600a541415610c4a5760405162461bcd60e51b8152600401610960906127c9565b6002600a55610c5881611a6f565b506001600a55565b6002600a541415610c835760405162461bcd60e51b8152600401610960906127c9565b6002600a55600f548015801590610c9957508042115b610cb55760405162461bcd60e51b815260040161096090612800565b817f0000000000000000000000000000000000000000000000000000000000000000323314610cf65760405162461bcd60e51b815260040161096090612839565b7f0000000000000000000000000000000000000000000000000000000000000000610d2883610a336001546000540390565b1115610d465760405162461bcd60e51b815260040161096090612874565b80610d5483610a333361170c565b1115610d725760405162461bcd60e51b8152600401610960906128b0565b60008211610d925760405162461bcd60e51b8152600401610960906128fb565b83610dbd7f00000000000000000000000000000000000000000000000000000000000000008261173a565b3414610ddb5760405162461bcd60e51b815260040161096090612946565b60003411610dfb5760405162461bcd60e51b8152600401610960906128fb565b610e05338661175c565b50506001600a55505050565b61093183838360405180602001604052806000815250611372565b6009546001600160a01b03163314610e565760405162461bcd60e51b815260040161096090612794565b61093160118383612287565b6009546001600160a01b03163314610e8c5760405162461bcd60e51b815260040161096090612794565b828211610ee05760405162461bcd60e51b815260206004820152602e6024820152600080516020612b8883398151915260448201526d642d70726573616c652d74696d6560901b6064820152608401610960565b818111610f335760405162461bcd60e51b815260206004820152602d6024820152600080516020612b8883398151915260448201526c642d7075626c69632d74696d6560981b6064820152608401610960565b600d92909255600e55600f55565b6000610f4c82611ba6565b5192915050565b6060610f5d611cc0565b905090565b60006001600160a01b038216610f8b576040516323d3ad8160e21b815260040160405180910390fd5b506001600160a01b03166000908152600560205260409020546001600160401b031690565b6009546001600160a01b03163314610fda5760405162461bcd60e51b815260040161096090612794565b610fe46000611ccf565b565b6002600a5414156110095760405162461bcd60e51b8152600401610960906127c9565b6002600a55600d54801580159061101f57508042115b61103b5760405162461bcd60e51b815260040161096090612800565b838032331461105c5760405162461bcd60e51b815260040161096090612839565b7f000000000000000000000000000000000000000000000000000000000000000061108e83610a336001546000540390565b11156110ac5760405162461bcd60e51b815260040161096090612874565b806110ba83610a333361170c565b11156110d85760405162461bcd60e51b8152600401610960906128b0565b600082116110f85760405162461bcd60e51b8152600401610960906128fb565b85338686600c5461115e838380806020026020016040519081016040528093929190818152602001838360200280828437600092019190915250506040516001600160601b031960608a901b166020820152603481018a90528592506054019050610b6e565b61117a5760405162461bcd60e51b815260040161096090612980565b611184338c61175c565b50506001600a55505050505050505050565b6060600380546107e190612759565b6001600160a01b0382163314156111cf5760405163b06307db60e01b815260040160405180910390fd5b3360008181526007602090815260408083206001600160a01b03871680855290835292819020805460ff191686151590811790915590519081529192917f17307eab39ab6107e8899845ad3d59bd9653f200f220920489ca2b5937696c31910160405180910390a35050565b600061124682611679565b6112635760405163963eb14f60e01b815260040160405180910390fd5b5060009081526010602052604090205490565b6009546001600160a01b031633146112a05760405162461bcd60e51b815260040161096090612794565b6002600a5414156112c35760405162461bcd60e51b8152600401610960906127c9565b6002600a55604051600090339047908381818185875af1925050503d806000811461130a576040519150601f19603f3d011682016040523d82523d6000602084013e61130f565b606091505b5050905080610c585760405162461bcd60e51b81526020600482015260306024820152600080516020612b8883398151915260448201526f642d77697468647261772d6d6f6e657960801b6064820152608401610960565b60006107cc8261170c565b61137d848484611881565b6001600160a01b0383163b1515801561139f575061139d84848484611d21565b155b156113bd576040516368d2bf6b60e11b815260040160405180910390fd5b50505050565b6009546001600160a01b031633146113ed5760405162461bcd60e51b815260040161096090612794565b7f000000000000000000000000000000000000000000000000000000000000000061141f82610a336001546000540390565b11156114765760405162461bcd60e51b81526020600482015260326024820152600080516020612b88833981519152604482015271642d70726f6d6f74696f6e2d737570706c7960701b6064820152608401610960565b7f00000000000000000000000000000000000000000000000000000000000000006114a18282611e19565b156114f55760405162461bcd60e51b81526020600482015260306024820152600080516020612b8883398151915260448201526f642d62617463682d6d756c7469706c6560801b6064820152608401610960565b60006115018383611e25565b905060005b818110156113bd57611518338461175c565b80611522816129d3565b915050611506565b606061153582611679565b61155257604051630a14c4b560e41b815260040160405180910390fd5b600061155c611cc0565b905080516000141561157d57604051806020016040528060008152506115a8565b8061158784611e31565b6040516020016115989291906129ee565b6040516020818303038152906040525b9392505050565b6009546001600160a01b031633146115d95760405162461bcd60e51b815260040161096090612794565b6001600160a01b03811661163e5760405162461bcd60e51b815260206004820152602660248201527f4f776e61626c653a206e6577206f776e657220697320746865207a65726f206160448201526564647265737360d01b6064820152608401610960565b61164781611ccf565b50565b6009546001600160a01b031633146116745760405162461bcd60e51b815260040161096090612794565b600c55565b60008054821080156107cc575050600090815260046020526040902054600160e01b900460ff161590565b60008281526006602052604080822080546001600160a01b0319166001600160a01b0387811691821790925591518593918516917f8c5be1e5ebec7d5bd14f71427d1e84f3dd0314c0f7b2291e5b200ac8c7c3b92591a4505050565b60006115a88284612a1d565b6001600160a01b038116600090815260056020526040812054600160401b90046001600160401b03166107cc565b60006115a88284612a35565b6000826117538584611f2e565b14949350505050565b6117668282611fa2565b60006117756001546000540390565b905060006117838284611fc0565b90506000836001600160401b0381111561179f5761179f612635565b6040519080825280602002602001820160405280156117c8578160200160208202803683370190505b50905060005b848110156118345760006117e28483611700565b905060006117ef82611fcc565b90508084848151811061180457611804612a54565b6020908102919091018101919091526000928352601090526040909120558061182c816129d3565b9150506117ce565b50846001600160a01b03167f5cb27d2833c0b1f5f25192224a4f5c4573f3c2a9394c0a0a9a31c092e8879eb484868460405161187293929190612a6a565b60405180910390a25050505050565b600061188c82611ba6565b9050836001600160a01b031681600001516001600160a01b0316146118c35760405162a1148160e81b815260040160405180910390fd5b6000336001600160a01b03861614806118e157506118e18533610712565b806118fc5750336118f184610864565b6001600160a01b0316145b90508061191c57604051632ce44b5f60e11b815260040160405180910390fd5b6001600160a01b03841661194357604051633a954ecd60e21b815260040160405180910390fd5b61194f600084876116a4565b6001600160a01b038581166000908152600560209081526040808320805467ffffffffffffffff198082166001600160401b0392831660001901831617909255898616808652838620805493841693831660019081018416949094179055898652600490945282852080546001600160e01b031916909417600160a01b42909216919091021783558701808452922080549193909116611a23576000548214611a2357805460208601516001600160401b0316600160a01b026001600160e01b03199091166001600160a01b038a16171781555b50505082846001600160a01b0316866001600160a01b03167fddf252ad1be2c89b69c2b068fc378daa952ba7f163c4a11628f55a4df523b3ef60405160405180910390a45b5050505050565b80611a8d576040516356be441560e01b815260040160405180910390fd5b600054611aad5760405163c0367cab60e01b815260040160405180910390fd5b60085480611ab9575060005b6000548110611adb576040516370e89b1b60e01b815260040160405180910390fd5b6000548282016000198101911015611af65750600054600019015b815b818111611b9b576000818152600460205260409020546001600160a01b0316158015611b3a5750600081815260046020526040902054600160e01b900460ff16155b15611b93576000611b4a82611ba6565b80516000848152600460209081526040909120805491909301516001600160401b0316600160a01b026001600160e01b03199091166001600160a01b0390921691909117179055505b600101611af8565b506001016008555050565b604080516060810182526000808252602082018190529181019190915281600054811015611ca757600081815260046020908152604091829020825160608101845290546001600160a01b0381168252600160a01b81046001600160401b031692820192909252600160e01b90910460ff16151591810182905290611ca55780516001600160a01b031615611c3c579392505050565b5060001901600081815260046020908152604091829020825160608101845290546001600160a01b038116808352600160a01b82046001600160401b031693830193909352600160e01b900460ff1615159281019290925215611ca0579392505050565b611c3c565b505b604051636f96cda160e11b815260040160405180910390fd5b6060601180546107e190612759565b600980546001600160a01b038381166001600160a01b0319831681179093556040519116919082907f8be0079c531659141344cd1fd0a4f28419497f9722a3daafe3b4186f6b6457e090600090a35050565b604051630a85bd0160e11b81526000906001600160a01b0385169063150b7a0290611d56903390899088908890600401612abf565b602060405180830381600087803b158015611d7057600080fd5b505af1925050508015611da0575060408051601f3d908101601f19168201909252611d9d91810190612afc565b60015b611dfb573d808015611dce576040519150601f19603f3d011682016040523d82523d6000602084013e611dd3565b606091505b508051611df3576040516368d2bf6b60e11b815260040160405180910390fd5b805181602001fd5b6001600160e01b031916630a85bd0160e11b1490505b949350505050565b60006115a88284612b2f565b60006115a88284612b43565b606081611e555750506040805180820190915260018152600360fc1b602082015290565b8160005b8115611e7f5780611e69816129d3565b9150611e789050600a83612b43565b9150611e59565b6000816001600160401b03811115611e9957611e99612635565b6040519080825280601f01601f191660200182016040528015611ec3576020820181803683370190505b5090505b8415611e1157611ed8600183612b57565b9150611ee5600a86612b2f565b611ef0906030612a1d565b60f81b818381518110611f0557611f05612a54565b60200101906001600160f81b031916908160001a905350611f27600a86612b43565b9450611ec7565b600081815b8451811015611f9a576000858281518110611f5057611f50612a54565b60200260200101519050808311611f765760008381526020829052604090209250611f87565b600081815260208490526040902092505b5080611f92816129d3565b915050611f33565b509392505050565b611fbc8282604051806020016040528060008152506120b4565b5050565b60006115a88284612b57565b60008132611fdb600143612b57565b601260009054906101000a90046001600160a01b03166001600160a01b0316631486a2766040518163ffffffff1660e01b815260040160206040518083038186803b15801561202957600080fd5b505afa15801561203d573d6000803e3d6000fd5b505050506040513d601f19601f820116820180604052508101906120619190612b6e565b604051602001612097949392919093845260609290921b6001600160601b03191660208401526034830152605482015260740190565b604051602081830303815290604052805190602001209050919050565b61093183838360016000546001600160a01b0385166120e557604051622e076360e81b815260040160405180910390fd5b836121035760405163b562e8dd60e01b815260040160405180910390fd5b6001600160a01b038516600081815260056020908152604080832080546fffffffffffffffffffffffffffffffff1981166001600160401b038083168c018116918217600160401b67ffffffffffffffff1990941690921783900481168c01811690920217909155858452600490925290912080546001600160e01b031916909217600160a01b4290921691909102179055808085018380156121af57506001600160a01b0387163b15155b15612238575b60405182906001600160a01b038916906000907fddf252ad1be2c89b69c2b068fc378daa952ba7f163c4a11628f55a4df523b3ef908290a46122006000888480600101955088611d21565b61221d576040516368d2bf6b60e11b815260040160405180910390fd5b808214156121b557826000541461223357600080fd5b61227e565b5b6040516001830192906001600160a01b038916906000907fddf252ad1be2c89b69c2b068fc378daa952ba7f163c4a11628f55a4df523b3ef908290a480821415612239575b50600055611a68565b82805461229390612759565b90600052602060002090601f0160209004810192826122b557600085556122fb565b82601f106122ce5782800160ff198235161785556122fb565b828001600101855582156122fb579182015b828111156122fb5782358255916020019190600101906122e0565b5061230792915061230b565b5090565b5b80821115612307576000815560010161230c565b6001600160e01b03198116811461164757600080fd5b60006020828403121561234857600080fd5b81356115a881612320565b60005b8381101561236e578181015183820152602001612356565b838111156113bd5750506000910152565b60008151808452612397816020860160208601612353565b601f01601f19169290920160200192915050565b6020815260006115a8602083018461237f565b6000602082840312156123d057600080fd5b5035919050565b80356001600160a01b03811681146123ee57600080fd5b919050565b6000806040838503121561240657600080fd5b61240f836123d7565b946020939093013593505050565b60006020828403121561242f57600080fd5b6115a8826123d7565b60008083601f84011261244a57600080fd5b5081356001600160401b0381111561246157600080fd5b6020830191508360208260051b850101111561247c57600080fd5b9250929050565b6000806000806060858703121561249957600080fd5b843593506020850135925060408501356001600160401b038111156124bd57600080fd5b6124c987828801612438565b95989497509550505050565b6000806000606084860312156124ea57600080fd5b6124f3846123d7565b9250612501602085016123d7565b9150604084013590509250925092565b6000806020838503121561252457600080fd5b82356001600160401b038082111561253b57600080fd5b818501915085601f83011261254f57600080fd5b81358181111561255e57600080fd5b86602082850101111561257057600080fd5b60209290920196919550909350505050565b60008060006060848603121561259757600080fd5b505081359360208301359350604090920135919050565b6000806000604084860312156125c357600080fd5b8335925060208401356001600160401b038111156125e057600080fd5b6125ec86828701612438565b9497909650939450505050565b6000806040838503121561260c57600080fd5b612615836123d7565b91506020830135801515811461262a57600080fd5b809150509250929050565b634e487b7160e01b600052604160045260246000fd5b6000806000806080858703121561266157600080fd5b61266a856123d7565b9350612678602086016123d7565b92506040850135915060608501356001600160401b038082111561269b57600080fd5b818701915087601f8301126126af57600080fd5b8135818111156126c1576126c1612635565b604051601f8201601f19908116603f011681019083821181831017156126e9576126e9612635565b816040528281528a602084870101111561270257600080fd5b82602086016020830137600060208483010152809550505050505092959194509250565b6000806040838503121561273957600080fd5b612742836123d7565b9150612750602084016123d7565b90509250929050565b600181811c9082168061276d57607f821691505b6020821081141561278e57634e487b7160e01b600052602260045260246000fd5b50919050565b6020808252818101527f4f776e61626c653a2063616c6c6572206973206e6f7420746865206f776e6572604082015260600190565b6020808252601f908201527f5265656e7472616e637947756172643a207265656e7472616e742063616c6c00604082015260600190565b6020808252602b90820152600080516020612b8883398151915260408201526a642d6d696e742d74696d6560a81b606082015260800190565b6020808252602d90820152600080516020612b8883398151915260408201526c3216b6b4b73a16b1b0b63632b960991b606082015260800190565b6020808252602e90820152600080516020612b8883398151915260408201526d642d746f74616c2d737570706c7960901b606082015260800190565b6020808252603b90820152600080516020612b8883398151915260408201527f642d696e766f636174696f6e2d75707065722d626f756e646172790000000000606082015260800190565b6020808252603b90820152600080516020612b8883398151915260408201527f642d696e766f636174696f6e2d6c6f7765722d626f756e646172790000000000606082015260800190565b6020808252602c90820152600080516020612b8883398151915260408201526b642d6d696e742d76616c756560a01b606082015260800190565b6020808252602f90820152600080516020612b8883398151915260408201526e3216b0b2323932b9b996b83937b7b360891b606082015260800190565b634e487b7160e01b600052601160045260246000fd5b60006000198214156129e7576129e76129bd565b5060010190565b60008351612a00818460208801612353565b835190830190612a14818360208801612353565b01949350505050565b60008219821115612a3057612a306129bd565b500190565b6000816000190483118215151615612a4f57612a4f6129bd565b500290565b634e487b7160e01b600052603260045260246000fd5b6000606082018583526020858185015260606040850152818551808452608086019150828701935060005b81811015612ab157845183529383019391830191600101612a95565b509098975050505050505050565b6001600160a01b0385811682528416602082015260408101839052608060608201819052600090612af29083018461237f565b9695505050505050565b600060208284031215612b0e57600080fd5b81516115a881612320565b634e487b7160e01b600052601260045260246000fd5b600082612b3e57612b3e612b19565b500690565b600082612b5257612b52612b19565b500490565b600082821015612b6957612b696129bd565b500390565b600060208284031215612b8057600080fd5b505191905056fe52686170736f647943726561746f7247656e657261746976652f696e76616c69a264697066735822122007f3276450acc228d4262372f030db2e5ed9dfee60b1670ef8054a8cbb580bfc64736f6c6343000809003352686170736f647943726561746f7247656e657261746976652f696e76616c69",
  "linkReferences": {},
  "deployedLinkReferences": {}
}